:020000040800F2
:1000000000000220554800085542000863420008DD
:10001000694200086F4200087542000800000000B5
:100020000000000000000000000000007B4200080B
:10003000894200080000000097420008A54200081D
:10004000A5480008A5480008A5480008A5480008DC
:10005000A5480008A5480008A5480008A5480008CC
:10006000A5480008A5480008A5480008A5480008BC
:10007000A5480008A5480008A5480008A5480008AC
:10008000A5480008A5480008B5420008A548000892
:10009000A5480008A5480008A5480008A54800088C
:1000A000A5480008A5480008A5480008A54800087C
:1000B000A5480008A5480008A5480008A54800086C
:1000C000A5480008A5480008A5480008A54800085C
:1000D000A5480008A5480008A5480008A54800084C
:1000E000A5480008A5480008A5480008A54800083C
:1000F000A5480008DD420008A5480008A5480008FA
:10010000A5480008A5480008A5480008A54800081B
:10011000A5480008A5480008F1420008054300086A
:1001200019430008A5480008A5480008A54800088C
:10013000A54800080000000000000000A5480008D5
:10014000A5480008A5480008A54800082D43000858
:10015000A5480008A5480008A5480008A5480008CB
:10016000A5480008A5480008A5480008A5480008BB
:10017000A5480008A5480008000000000000000095
:08018000A5480008A54800088D
:1001880010B5054C237833B9044B13B10448AFF3C9
:1001980000800123237010BD3C09002000000000EE
:1001A800ECC7000808B5034B1BB103490348AFF37C
:1001B800008008BD0000000040090020ECC70008CE
:1001C80053B94AB9002908BF00281CBF4FF0FF31B6
:1001D8004FF0FF3000F06EB9ADF1080C6DE904CEB8
:1001E80000F006F8DDF804E0DDE9022304B070470A
:1001F8002DE9F047089D04468C46002B40F083808B
:100208008A42174647D9B2FA82F242B1C2F12000B7
:1002180024FA00F09140974040EA010C94404FEADC
:100228001748230CBCFBF8F61FFA87FE08FB16C11B
:1002380043EA014306FB0EF1994209D9FB1806F17E
:10024800FF3080F01981994240F21681023E3B440A
:100258005B1AA4B2B3FBF8F008FB103344EA03447A
:1002680000FB0EFEA64509D93C1900F1FF3380F0CA
:100278000581A64540F2028102383C4440EA064026
:10028800A4EB0E0400261DB1D4400023C5E90043A9
:100298003146BDE8F08702B9FFDEB2FA82F2002AE1
:1002A80050D1CB1B4FEA174E1FFA87F80126B3FB34
:1002B800FEFC210C0EFB1C3341EA034108FB0CF346
:1002C8008B4207D979180CF1FF3002D28B4200F229
:1002D800E9808446C91AA3B2B1FBFEF00EFB1011E7
:1002E80043EA014408FB00F8A04507D93C1900F18E
:1002F800FF3302D2A04500F2D9801846A4EB0804C7
:1003080040EA0C40BFE78B4209D9002D00F0B180CC
:100318000026C5E9000130463146BDE8F087B3FA4A
:1003280083F6002E4AD18B4202D3824200F2B88073
:10033800841A61EB030101208C46002DA8D0C5E981
:10034800004CA5E7C2F1200320FA03F6974001FA12
:1003580002F04FEA174ED9403043030CB1FBFEF6CA
:100368001FFA87F80EFB161143EA014306FB08F152
:10037800994204FA02F409D9FB1806F1FF3C80F00F
:100388008D80994240F28A80023E3B445B1A81B2DA
:10039800B3FBFEF00EFB103341EA034100FB08F308
:1003A8008B4207D9791800F1FF3C73D28B4271D97F
:1003B80002383944CB1A40EA064678E7C6F1200CE1
:1003C80003FA06F422FA0CF31C4320FA0CF701FA9C
:1003D80006F34FEA144E21FA0CF11F433B0CB1FB14
:1003E800FEF91FFA84F80EFB191143EA014109FBD3
:1003F80008FA8A4502FA06F200FA06F308D96118E3
:1004080009F1FF3048D28A4546D9A9F102092144A9
:10041800A1EB0A01BFB2B1FBFEF00EFB101147EAD7
:10042800014700FB08F8B84507D9E71900F1FF3183
:100438002ED2B8452CD90238274440EA0940A7EB08
:100448000807A0FB02894F45C64649461AD317D06C
:100458005DB1B3EB0E0267EB010707FA0CFCF24043
:100468004CEA0202F740C5E9002700263146BDE8FC
:10047800F0872E4628460BE70646E9E61846FDE6CD
:100488004345E5D2B8EB020E69EB04010138DFE71A
:100498000846D2E760468DE78146B9E7664675E7C4
:1004A80030464AE7ACF1020C394413E702383C44C1
:1004B80024E700BF704700BF98B500AF064B1B6824
:1004C800002B06D0044B1C6804F020FA034618469B
:1004D800A04700BF98BD00BFEC09002080B500AF61
:1004E8000A4801F07DF9094B1A69094B5B685B689A
:1004F80092B21A80064B5868054B1B68DB6842F2BB
:100508001072194600F0A0FE00BF80BD2400002034
:100518001400002080B584B000AF514BDB889BB23B
:100528001A464F4BB3F823309BB203FB02F34D4AF4
:1005380082FB03121A445212DB17D31AFB604A4B90
:100548001B689B6883EAE372A2EBE372FB68D21A2A
:10055800FB68464981FB0301C910DB17CB1A9A4295
:1005680007DDFB68414A82FB0312D210DB17D31A5E
:100578000AE03D4B1B689B6883EAE372A2EBE372D7
:10058800FB68D31A23EAE373BB60BB6842F21072BC
:1005980002FB03F2FB6892FBF3F3344A82FB03127B
:1005A8005210DB17D31A642202FB03F37B602E4B35
:1005B8001B689A68FB685B429A420EDA7B685B426A
:1005C800274AB2F9092012B202FB03F3284A82FB38
:1005D80003125211DB17D31A3EE0234B1B689B68AA
:1005E800FA689A420EDA1E4BB3F909301BB21A4662
:1005F8007B6803FB02F31E4A82FB03125211DB17CE
:10060800D31A29E0184B93E8030001F0B1FD034623
:1006180042F21072934211DC134B93E8030001F08D
:10062800A7FD0346134A934206DB0F4B93E80300EA
:1006380001F09EFD034603E00E4B01E042F2107309
:10064800074AB2F9092012B202FB03F3084A82FBF7
:1006580003125211DB17D31A18461037BD4680BD56
:10066800E0060020B7600BB61400002067666666D7
:100678001F85EB51F0D8FFFFB0B584B000AF7860AC
:10068800786801F059FD1A4B9B691A4AB2F8212083
:1006980092B29B1A174A92F9202002FB03F3FB60DF
:1006A800154B1B689B68FA68D31A1946134B1B68CD
:1006B8007A68D31AB1FBF3F20F4B1B685A600E4BE2
:1006C8001B68FA689A600C4B1B68DD68FFF722FF0D
:1006D8000146084BDB7A084A14681A46284601F096
:1006E80017FA0346E36000BF1037BD46B0BD00BF30
:1006F80024000020E006002014000020F00900205B
:1007080080B483B000AF194BDB889BB21A46174BF5
:10071800B3F823309BB203FB02F3154A82FB0312A2
:100728001A445212DB17D31A7B60124B1B689B6862
:100738007A689A4208DB0F4B1B689A687B685B42B1
:100748009342B8BF134600E07B687A681A441346A0
:10075800DB039A1A7B6892FBF3F3DA0F13445B10FE
:1007680018460C37BD465DF8047B7047E00600204C
:10077800B7600BB61400002098B500AF134BB3F860
:1007880009309BB21C46FFF7BBFF0146104B1B7A92
:100798001A46204601F0BCF903469AB20B4BA3F85F
:1007A80009200A4B4FF0FF32DA72002242F03F0272
:1007B8001A730649074802F0E4F9074B1B68192227
:1007C8000249184602F072FE00BF98BDB406002028
:1007D800E0060020400000200000002080B582B024
:1007E80000AF7860124B1B78DBB2002B04D0FFF708
:1007F80075FE0F4B00221A700E4B1B687A689A42DE
:1008080005D97868FFF738FF0A4A7B6813600A4BF6
:100818001B78DBB2002B07D0084802F087F9FFF7F6
:10082800ABFF054B00221A7000BF0837BD4680BDDC
:100838005E090020F00900205F0900204000002028
:1008480080B500AF174B1B6840F697025A63154BEB
:100858001B6840F697029A63124B1B6840F6970292
:10086800DA63104B1B6832221A6400210D4808F025
:10087800EDFC04210B4808F0E9FC0821094808F0C0
:10088800E5FC0C21074808F0E1FC074B1B681846FB
:1008980008F08DFC054B1B68184608F088FC00BF63
:1008A80080BD00BFA0150020040000200800002023
:1008B80080B500AF024800F071FF00BF80BD00BFE7
:1008C8002400002080B500AF074804F019FC074851
:1008D80004F016FC064804F0D1FC0322054904483C
:1008E80004F0CAFD00BF80BD74130020E41200208C
:1008F8002C1300205809002080B500AF054800F0EF
:1009080083F801224FF40041034806F0B3F800BF12
:1009180080BD00BF140000200004024080B500AF75
:1009280002F0BCF80B4802F0F1F801F00FFAFFF7FB
:10093800BFFFFFF7C7FFFFF783FFFFF7DDFF03F0F8
:10094800E5FF0346044A1360044B054A1A6000BFDA
:1009580080BD00BF40000020F0090020EC09002005
:10096800E507000880B483B000AF78607B681A6838
:100978000B4B1B681B689A4202D10A4B01221A7062
:100988007B681A68084B1B681B689A4202D1074BA0
:1009980001221A7000BF0C37BD465DF8047B704712
:1009A800040000205E090020080000205F090020E4
:1009B80080B584B000AF78600F4B1B68FB600121E5
:1009C8000E4804F021FD03461AB2FB681A82012181
:1009D8000B4804F019FD03461AB2FB685A8201213C
:1009E800084804F011FD03461AB2FB689A8200BF5A
:1009F8001037BD4680BD00BF140000202C13002016
:100A0800E41200207413002080B582B000AF786033
:100A180001224FF40041034806F02CF800BF0837C4
:100A2800BD4680BD0004024080B584B000AF0346D7
:100A3800FB710023FB6008E0084800F0D1FE0A20A3
:100A480003F070FFFB680133FB60FB79FA689A4298
:100A5800F2DB00BF00BF1037BD4680BD2400002078
:100A680080B5D0B000AF3B1D186007F10C031846E5
:100A78004FF480731A4600210BF0E4FD0023C7F8F9
:100A8800383111E07B4B5868D7F838319AB242F2C6
:100A98001073002100F05AFB012003F043FFD7F840
:100AA80038310133C7F83831D7F83831B3F5FA6F30
:100AB800E8DB642003F036FF6F4800F091FE6E4BD0
:100AC8001B69A7F83E310023C7F83431002387F8A3
:100AD8003331002387F83231D7F83431013BC7F876
:100AE8003431644B5868D7F8343199B242F21073F4
:100AF8004FF4FA6200F02AFB012003F013FFD7F845
:100B0800343113F5B47F38DA5B4800F069FE5A4B8C
:100B18001B69A7F80E3197F93231002B0BD1B7F8C2
:100B28003E21B7F80E319A4201D9012301E04FF076
:100B3800FF3387F8323197F93231012B08D1B7F8F2
:100B48003E21B7F80E319A4202D2012387F8333199
:100B580097F93231B3F1FF3F08D1B7F83E21B7F822
:100B68000E319A4202D9012387F83331B7F80E3192
:100B7800A7F83E310023C7F8343197F83331002BFA
:100B8800AAD04FF4FA7003F0CDFE0023C7F82C3139
:100B980012E0384B5868D7F82C3199B242F21073EA
:100BA8004FF4FA6200F0D2FA012003F0BBFED7F846
:100BB8002C31013BC7F82C31D7F82C3113F12D0F0C
:100BC800E7DA642003F0AEFE0620FFF72DFF2A4B7C
:100BD8001B69A7F83E316FF02C03C7F8283112E0E3
:100BE800244B5868D7F8283199B242F210734FF461
:100BF800FA6200F0ABFA012003F094FED7F828312E
:100C08000133C7F82831D7F82831002BE8DD002355
:100C180087F82731002387F82631002387F8253104
:100C2800002387F824310023C7F83431114B586862
:100C3800D7F8343199B242F210734FF4FA6200F0E7
:100C480085FA012003F06EFED7F834310B4A82FB97
:100C580003121A449111DA178A1A5A2101FB02F277
:100C68009A1A002A40F0B1804FF4FA63C7F820318D
:100C78001AE000BF1400002024000020B7600BB663
:100C8800AA4B5868D7F8343199B2D7F820319AB2BC
:100C980042F2107300F05AFA012003F043FED7F82D
:100CA80020310533C7F82031D7F82031B3F57A6FF2
:100CB800E6DB0620FFF7B8FE9D4B1B6997F8252158
:100CC80019B207F10C0323F8121097F82531002BFD
:100CD80032D097F82731002B2ED197F93231012BDA
:100CE8000ED197F8252107F10C0333F9122007F1EB
:100CF8000C03B3F900309A4202DA012387F827314E
:100D080097F93231B3F1FF3F0ED197F8252107F15A
:100D18000C0333F9122007F10C03B3F900309A429F
:100D280002DD012387F8273197F82731002B03D0FC
:100D380097F8253187F8243197F93231012B11D1F1
:100D480097F82731002B0DD097F8252107F10C03D0
:100D580033F912301A46B7F83E319A4202DD0123C0
:100D680087F8263197F93231B3F1FF3F11D197F85F
:100D78002731002B0DD097F8252107F10C0333F903
:100D880012301A46B7F83E319A4202DA012387F840
:100D9800263197F82631002B12D007F10C03B3F94E
:100DA80000309AB2634BB3F823309BB2134499B224
:100DB80097F825315A1C09B207F10C0323F81210D1
:100DC80097F82531013387F82531D7F83431B3F551
:100DD800B47F02DD0023C7F83431D7F8343101334A
:100DE800C7F8343197F82631002B3FF41FAF4F4B2B
:100DF8005B6842F210720021184600F025FA0023C1
:100E080087F81F3197F81F1197F81F3107F10C0267
:100E180032F91110474A10335B0013440A46A3F80D
:100E2800092097F81F31013387F81F3197F81F21E0
:100E380097F825319A42E5D30023C7F8183117E00F
:100E480097F81F21D7F818311344013B07F10C021A
:100E5800D7F8181132F91110364A10335B001344D1
:100E68000A46A3F80920D7F818310133C7F8183112
:100E780097F82431D7F818219A42E1DD97F93231F1
:100E8800012B4AD10023C7F814311EE0294AD7F8AC
:100E9800143110335B001344B3F909301BB29AB212
:100EA800244BB3F823309BB2D31A9BB219B2214A10
:100EB800D7F8143110335B0013440A46A3F809200D
:100EC800D7F814310133C7F8143197F82431D7F81B
:100ED80014219A42DADB97F81F2197F8243113443A
:100EE800013B144A10335B001344B3F909301BB2B9
:100EF8009AB2104BB3F823309BB2134499B297F8C7
:100F08001F2197F824311344013B09B2094A1033D1
:100F18005B0013440A46A3F8092097F93231B3F16C
:100F2800FF3F50D10023C7F8103124E014000020FF
:100F380024000020E0060020324AD7F81031103390
:100F48005B001344B3F909301BB29AB22D4BB3F8C6
:100F580023309BB213449BB219B22A4AD7F81031F6
:100F680010335B0013440A46A3F80920D7F8103160
:100F78000133C7F8103197F82431D7F810219A4275
:100F8800DADB97F81F2197F824311344013B1D4AF7
:100F980010335B001344B3F909301BB29AB2194BF2
:100FA800B3F823309BB2D31A99B297F81F2197F858
:100FB80024311344013B09B2124A10335B00134435
:100FC8000A46A3F8092097F81F319AB297F82431F6
:100FD8009BB213449AB20B4BA3F82720094A97F8FF
:100FE800323182F82630074B012283F8252001F0A0
:100FF80073FD054B054A1A6000BF07F5A077BD468B
:1010080080BD00BFE0060020EC090020E5070008CD
:1010180080B584B000AF78600023FB6008E00D481D
:1010280000F0DEFB012003F07DFCFB680133FB6070
:10103800FB680F2BF3DD074B1B699AB2064BA3F82D
:10104800212001F049FD054B054A1A6000BF103701
:10105800BD4680BD24000020E0060020EC090020E9
:10106800E507000880B582B000AF786001F034FD74
:10107800034B044A1A6000BF0837BD4680BD00BF55
:10108800EC090020E507000880B400AF034B044AD0
:101098001A6000BFBD465DF8047B7047EC0900206C
:1010A8006D10000880B400AF034B044A1A6000BFFB
:1010B800BD465DF8047B7047EC0900201910000854
:1010C80080B400AF034B044A1A6000BFBD465DF808
:1010D800047B7047EC090020690A000880B586B0D7
:1010E80000AF78603960EFF31083FB60FB687B61C9
:1010F80072B600BF3B68786898477B693B613B697B
:1011080083F3108800BF00BF1837BD4680BD80B488
:1011180083B000AF78607B685A687B681B681B687F
:1011280052685A637B685A687B681B681B689268B8
:101138009A637B685A687B681B681B68D268DA63A5
:1011480000BF0C37BD465DF8047B704780B586B09C
:1011580000AFF860084611461A4603467B810B46E5
:101168003B811346FB803A89FB88934228BF13468C
:101178003B817B89184600F077FC02463B8903FBDC
:1011880002F3104A82FB03121213DB17D31A7B6196
:101198007B89C3F15A03184600F066FC02463B8976
:1011A80003FB02F3074A82FB03121213DB17D31A5D
:1011B8003B613A697969F86800F056F900BF183759
:1011C800BD4680BDAD8BDB6890B482B000AF0446ED
:1011D800084611461A462346FB800346BB800B4649
:1011E8007B8013463B80B7F90030012B10D1B7F94B
:1011F8000220B7F906309A4207DDB7F90220B7F99D
:1012080004309A4201DA012300E00023DBB216E041
:10121800B7F90030B3F1FF3F10D1B7F90220B7F9A1
:1012280006309A4207DAB7F90220B7F904309A4231
:1012380001DD012300E00023DBB200E000231846B3
:101248000837BD4690BC704780B58CB000AFF860D9
:10125800B9601346FB80BB68002BB8BF5B42BB621A
:10126800BB6A002B40F38A804F4B93F82530002B44
:1012780000F08480BB68002B01DD012301E04FF002
:10128800FF3387F82730002387F82F3097F82F305F
:10129800454903F1100253000B44587A53000B449C
:1012A8009B7A1B0203431B041B14BB8497F82F3043
:1012B80001333D4903F1100253000B44587A53009F
:1012C8000B449B7A1B0203431B041B147B84FB689F
:1012D8005B681B881AB2344B93F926301BB2B7F9F6
:1012E8002210B7F92400FFF76FFF0346002B36D012
:1012F800BA8C7B8CD31A9BB23B8497F82F309BB265
:101308001A46520013441A461201D31A5B009AB2C5
:10131800B7F92430F968496809885B1A5A2101FB32
:1013280003F1B7F9203091FBF3F39BB213449BB25E
:10133800FB83B7F91E2097F927305A2101FB03F3E5
:101348001344BB61B86900F06BFB0346FB82BB6AC0
:101358009AB2FB88F98AF868FFF7F8FE20E097F858
:101368002F30013387F82F3097F82F200E4BB3F822
:1013780027309BB2013B9A4288DB11E0FB685B682F
:1013880040F697025A60FB685B6840F697029A60DD
:10139800FB685B6840F69702DA60F868FFF7B7FE0B
:1013A8003037BD4680BD00BFE006002080B483B062
:1013B80000AF786039603B68002B25DB7B68002B29
:1013C80011DB3B6841F28D6202FB03F3244A82FB86
:1013D80003121213DB17D31A7A689A4201DA02232E
:1013E80037E0012335E03B681E4A02FB03F31C4A41
:1013F80082FB03121213DB17D31A7A689A4201DAB6
:10140800032326E0022324E07B68002B10DB3B68E3
:10141800144A02FB03F3124A82FB03121213DB176E
:10142800D31A7A689A4201DA052312E0062310E0FB
:101438003B6841F28D6202FB03F3094A82FB031207
:101448001213DB17D31A7A689A4201DA042300E0F0
:10145800052318460C37BD465DF8047B704700BF6E
:10146800AD8BDB6873E9FFFF80B58CB000AFF86027
:10147800B9607A600023FB620023BB6200237B62B1
:101488007968B868FFF792FF034687F82330BB688E
:1014980042F2D41202FB03F3854A82FB03121213B1
:1014A800DB17D31ABB607B6842F2D41202FB03F34A
:1014B8007F4A82FB03121213DB17D31A7B6097F85B
:1014C8002330013B052B00F2238101A252F823F0BF
:1014D800F11400084B150008A915000803160008A8
:1014E8005B160008C11600087B6841F28D6202FB9A
:1014F80003F36F4A82FB03121213DB179B1ABA68B5
:101508001344FB617B6842F61A5202FB03F3684AF4
:1015180082FB03121213DB17D31ABB61FB69C3F5F5
:101528001C531033BA699B1ADA0F13445B10FB6221
:10153800FB69FA6A1344BB62BB69BA6A13447B62EB
:10154800E6E07B6841F28D6202FB03F3584A82FBB6
:1015580003121213DB17D31ABA681344FB617B68B2
:1015680041F28D6202FB03F3514A82FB031212130C
:10157800DB17D21ABB68D31ABB61FB69C3F51C53CE
:101588001033BA699B1ADA0F13445B10BB62BB694C
:10159800BA6A1344FB62FB69FA6A13447B62B7E0D8
:1015A8007B6842F61A5202FB03F3414A82FB03129C
:1015B8001213DB17D31AFB617B6841F28D6202FBC1
:1015C80003F33B4A82FB03121213DB179A1ABB6818
:1015D800D31ABB61FB69C3F51C531033BA699B1A54
:1015E800DA0F13445B10BB62FB69BA6A13447B626F
:1015F800BB697A6A1344FB628AE07B6841F28D62B8
:1016080002FB03F32A4A82FB03121213DB17D21AD6
:10161800BB68D31AFB617B68264A02FB03F3244AA2
:1016280082FB03121213DB17D31ABB61FB69C3F5E4
:101638001C531033BA699B1ADA0F13445B107B6290
:10164800BB697A6A1344BB62FB69BA6A1344FB62DA
:101658005EE07B6841F28D6202FB03F3144A82FB71
:1016680003121213DB179A1ABB68D31AFB617B6843
:1016780041F28D6202FB03F30D4A82FB031212133F
:10168800DB179B1ABA681344BB61FB69C3F51C538B
:101698001033BA699B1ADA0F13445B107B62FB693B
:1016A8007A6A1344FB62BB69FA6A1344BB622FE08F
:1016B800AD8BDB68E6D2FFFF7B68344A02FB03F39D
:1016C800334A82FB03121213DB17D31AFB617B68C0
:1016D80041F28D6202FB03F32D4A82FB03121213BF
:1016E800DB17D31ABA681344BB61FB69C3F51C53F3
:1016F8001033BA699B1ADA0F13445B10FB62BB699B
:10170800FA6A13447B62FB697A6A1344BB6200BFBE
:10171800FB681B687B61FB6A42F21072934228BF28
:1017280013467A69D26802FB03F2FB685B681949C1
:10173800A1FB0212520B5A60BB6A42F2107293422A
:1017480028BF13467A69D26802FB03F2FB685B681C
:101758001049A1FB0212520B9A607B6A42F2107286
:10176800934228BF13467A69D26802FB03F2FB68EA
:101778005B680849A1FB0212520BDA600649F86857
:10178800FFF7ACFC00BF3037BD4680BDE6D2FFFF97
:10179800AD8BDB685917B7D11711000880B584B035
:1017A80000AF78607B6858687B681B8901221946FE
:1017B80005F060F90A2003F0B5F80023FB6005E0A6
:1017C800786800F00DF8FB680133FB60FB68052BB7
:1017D800F6DD7B6800225A6100BF1037BD4680BD28
:1017E80090B587B002AF78600023FB817B685868AA
:1017F8007B681B890022194605F03CF9012000F09E
:10180800C5FA7B68186807F10E02012300930123CB
:101818002E4907F0EEF97B6858687B681B8901221E
:10182800194605F027F9012000F0B0FAFB89C3F347
:101838000D039BB2FB81FB89002B33D0FB8943F658
:10184800FF7293422ED0FB891BB21A467B681B6934
:10185800D31AB3F5005F05DB7B685B695A1E7B68AA
:101868005A610DE0FB891BB21A467B681B69D31AC3
:1018780013F5005F04DC7B685B695A1C7B685A615E
:10188800FB891BB21A467B681A617B68D8687B683B
:1018980019697B685A6913469B039B1A0B441946BE
:1018A80000F016F87B689C697B68DB68184600F0D6
:1018B80031F8034632221946204600F029F902463B
:1018C8007B689A6100BF1437BD4690BD36C80008D2
:1018D80080B483B000AF786039607B685B7901338E
:1018E800DAB27B685A717B685A797B681B799A42AD
:1018F80002D97B6800225A717B681A687B685B7919
:101908009B0013443A681A6000BF0C37BD465DF867
:10191800047B7047B0B588B000AF78606B461D4651
:101928007B681C792346013B3B61E0B24FF0000124
:101938004FF000024FF000034B0143EAD06342012D
:10194800E0B24FF000014FF000024FF000034B01EE
:1019580043EAD063420123469B000733DB08DB00E0
:10196800ADEB030D6B4603339B089B00FB60F868E7
:101978007B6819687B681B799B001A460AF054FE3D
:1019880000237B612DE07B681A797B69DBB2D31A6F
:10199800DBB2013BFB720023FB760023FB610EE008
:1019A800FB68FA6953F82220F97EFB6853F8213066
:1019B8009A4201DBFB69FB76FB690133FB61FB7A29
:1019C800FA699A42ECDBFB7E9B00FA68D018FB7A36
:1019D8009B00FA681344194600F0A3F97B690133A8
:1019E8007B617B681B791A467B699342CBDB7B68FA
:1019F8001B795B08DBB21A46FB6853F822207B6828
:101A08001B795B08DBB2591CFB6853F8213013447F
:101A1800DA0F13445B10AD4618462037BD46B0BDFB
:101A280080B483B000AF78607B680E4A82FB0312F3
:101A38001A441112DA178A1A4FF4B47101FB02F230
:101A48009B1A7B607B68002B03DA7B6803F5B47311
:101A58007B607B689BB218460C37BD465DF8047BFB
:101A6800704700BFB7600BB680B584B000AF786030
:101A78007868FFF7D5FF03467B607B68214A82FBC5
:101A880003129210DB17D21A1F4B83FB0213D910D3
:101A9800D317C91A0B46DB000B449B00D11A0B461F
:101AA800FB817A68174B83FB02139910D317C91A65
:101AB8000B469B000B445B00D11A0B46BB81B7F960
:101AC8000E30124A32F913301946B7F90E30013385
:101AD8000E4A32F913301846B7F90E300B4A32F96C
:101AE8001330C31AB7F90C2002FB03F3054A82FB33
:101AF80003029210DB17D31A0B4418461037BD4661
:101B080080BD00BF67666666398EE33838C800084E
:101B180080B485B000AFF860B9601346FB71FB79FB
:101B2800C3F16403BA6802FB03F30B4A82FB031296
:101B38005211DB17D21AFB79F96801FB03F3064946
:101B480081FB03014911DB17CB1A134418461437DC
:101B5800BD465DF8047B70471F85EB5190B583B097
:101B680000AF0446084611461A462346FB80034642
:101B7800BB800B467B8013463B80B7F90240FB884D
:101B88004FF4B47202FB03F2BB8892FBF3F31846DE
:101B9800FFF76AFF0246B7F9003003FB02F3084A71
:101BA80082FB03121213DB17D31A03FB04F2B7F9F3
:101BB800003092FBF3F31BB218460C37BD4690BDBC
:101BC800AD8BDB6890B482B000AF0446084611467E
:101BD8001A462346FB800346BB800B467B80134690
:101BE8003B80B7F90220BB885B089BB2F988994211
:101BF80002D8B7F9003002E0B7F900305B4202FBC7
:101C080003F2B7F9003092FBF3F31BB2184608371A
:101C1800BD4690BC704790B482B000AF04460846F9
:101C280011461A462346FB800346BB800B467B8041
:101C380013463B80B7F90220F988BB885B089BB242
:101C48000133994201DCFB8802E0B988FB88CB1A92
:101C5800B7F9001001FB03F39900BB8891FBF3F17E
:101C6800B7F90030CB1A03FB02F2B7F9003092FB48
:101C7800F3F31BB218460837BD4690BC704790B4C2
:101C880082B000AF0446084611461A462346FB8038
:101C98000346BB800B467B8013463B80B7F9023076
:101CA800FA88B7F9001001FB02F25100BA8891FBDB
:101CB800F2F1B7F900208A1A02FB03F2B7F90030F3
:101CC80092FBF3F31BB218460837BD4690BC704729
:101CD80090B482B000AF0446084611461A4623461F
:101CE800FB800346BB800B467B8013463B80B7F9DD
:101CF8000230B7F90010FA88B7F9000000FB02F2C9
:101D08005000BA8890FBF2F28A1A02FB03F2B7F984
:101D1800003092FBF3F31BB218460837BD4690BC5F
:101D2800704780B485B000AF786039607B681B6805
:101D3800FB603B681A687B681A603B68FA681A603F
:101D480000BF1437BD465DF8047B704780B400AF10
:101D58000C4BDB6803F08073002B0ED1094BDB685A
:101D6800084A43F08073D360074B00225A60064B41
:101D78001B68054A43F00103136000BFBD465DF8C8
:101D8800047B7047F0ED00E0001000E080B485B0FF
:101D980000AF78600D4B5B68FB600D4B1B680D4A0C
:101DA800A2FB03239A0C7B6802FB03F3BB6000BF12
:101DB800064B5A68FB68D31ABA689A42F8D800BF2B
:101DC80000BF1437BD465DF8047B7047001000E083
:101DD800CC08002083DE1B4380B483B000AF78605A
:101DE80039603B685B78DBB2022B1AD13B689B8871
:101DF8009BB21A463B68DB889BB203FB02F31A4688
:101E08007B6893420BD33B689B889BB247F6FE7274
:101E1800934204D83B689B889BB2002B01D10123D5
:101E280000E00023DBB218460C37BD465DF8047BA2
:101E38007047000090B585B000AFF860B9607A606F
:101E4800BB689B69FA689A4256D9BB689B68FA686E
:101E5800D31ABA6811461846FFF7BEFF0346002B8F
:101E680041D0BB689B8A9BB2002B3CD0BB68DB8A05
:101E78009BB21846BB689B69FA68D31ABA68928AFB
:101E880092B20132B3FBF2F102FB01F29A1A134645
:101E9800DB039B1ABA68928A92B2B3FBF2F3C218B8
:101EA800174BA3FB0213D11A49080B44990B0B4695
:101EB800DB035B1AD11A8AB2BB68DA82BB68DB8A99
:101EC80098B2BB681B8A1AB27C6842F2107347F654
:101ED800FF71A04703461A46BB685B8A1BB21A44C7
:101EE800BB68DA6005E0BB680022DA82BB680022C2
:101EF800DA60BB68FA689A6100BF1437BD4690BDC6
:101F08000500020080B582B000AF786039603B6898
:101F18009B687A68D31A3A6811461846FFF75CFF3F
:101F28000346002B06D03B681B8A1BB21A463B6847
:101F3800DA6002E03B680022DA6000BF0837BD467D
:101F480080BD90B585B000AF786039603B689B680C
:101F58007A68D31AFB603B681946F868FFF73CFFBC
:101F68000346002B28D03B689B889BB2002B23D0CC
:101F78003B681B8A1BB218463B685B8A1BB21A4631
:101F88003B681B8A1BB2D31A1C463B689B889BB2D2
:101F980001331A46FB68B3FBF2F102FB01F29B1A0C
:101FA80003FB04F33A68928892B2B3FBF2F303445A
:101FB8001A463B68DA6003E03B680022DA6000BF3B
:101FC80000BF1437BD4690BD80B586B000AF7860BD
:101FD80039603B689B687A68D31A3A681146184694
:101FE800FFF7FAFE0346002B38D0204BDB889BB264
:101FF8001A461E4BB3F823309BB203FB02F31C4A6C
:1020080082FB03121A445212DB17D31A7B61194B55
:102018001B689B6842F2107202FB03F27B6992FB19
:10202800F3F33A68128A12B29B1A3B613B69002BA0
:1020380003DD3B685B8A1BB202E03B689B8A1BB2EC
:10204800FB603B69FA6802FB03F30B4A82FB03124D
:102058001213DB179A1A3B68DA6002E03B68002229
:10206800DA6000BF1837BD4680BD00BFE00600201B
:10207800B7600BB614000020AD8BDB6880B584B068
:1020880000AF786039603B68FB60FB681B78DBB2A7
:10209800082B42D801A252F823F000BFC92000083B
:1020A800C9200008D3200008DD200008E920000826
:1020B800F5200008012100080D2100081921000859
:1020C80039687868FFF71EFF27E039687868FFF7F6
:1020D80038FF22E0134A39687868FFF7ABFE1CE046
:1020E800114A39687868FFF7A5FE16E00F4A396883
:1020F8007868FFF79FFE10E00D4A39687868FFF7A7
:1021080099FE0AE00B4A39687868FFF793FE04E005
:1021180039687868FFF758FF00BF00BF1037BD4621
:1021280080BD00BFCD1B0008651B00081F1C0008F0
:10213800871C0008D91C000880B584B000AF7860FF
:102148000023FB600AE0094AFB6852F8233019466D
:102158007868FFF793FFFB680133FB60FB68092B86
:10216800F1DD00BF00BF1037BD4680BD5000002024
:1021780080B485B000AF0023FB600023BB602FE074
:102188001C4ABB6852F823307B607B685B78DBB203
:10219800002B22D07B68DB687A689278D2B202FB87
:1021A80003F3154A82FB03121A44D211DB17D21A21
:1021B8007B681B78DBB2114904335B000B44B3F92D
:1021C80004301BB203FB02F30D4A82FB03125211C7
:1021D800DB17D31AFA681344FB60BB680133BB6092
:1021E800BB68092BCCDDFB6818461437BD465DF883
:1021F800047B70475000002081808080E00600202A
:102208001F85EB51F0B400AF0F4B01221A700E4A34
:102218000E4B0433501C03F1200402461946D1F832
:1022280000C04E688D68C968C2F800C056609560E5
:10223800D16010331030A342EFD102461B781370DF
:1022480000BFBD46F0BC70479C090020E006002096
:10225800F0B482B000AF78607B6801330D4A101D7E
:1022680003F1200402461946D1F800C04E688D6873
:10227800C968C2F800C056609560D160103310304C
:10228800A342EFD102461B78137000BF0837BD4642
:10229800F0BC7047E006002080B582B000AF7860DF
:1022A8007B681B78013B042B1BD801A252F823F052
:1022B800CD220008D3220008EB220008E5220008FE
:1022C800DF220008FFF79EFF0BE07868FFF7C0FFEA
:1022D800FEF7DAFE05E0FEF7E5FE02E0FEF7F0FEA7
:1022E80000BF00BF0837BD4680BD00BF80B582B0C3
:1022F80000AF78604022044978680AF0DBF800BF34
:102308000837BD4680BD00BF9C09002080B483B05B
:1023180000AF786000BF0C37BD465DF8047B70479E
:1023280080B483B000AF786000BF0C37BD465DF85D
:10233800047B704780B485B000AF786039603B6833
:102348001B781A46164B53F82230FB603B685B88B3
:102358009AB2FB689A803B681A7AFB689A70FB68A5
:102368007A689A60FB681B78DBB2042B12D10D4B9C
:102378001B79002B0ED00A4B1B68BB603B685B883F
:102388009AB2BB689A803B681A7ABB689A70BB6835
:102398007A689A6000BF1437BD465DF8047B7047C1
:1023A80050000020E006002080B485B000AF7860BF
:1023B80039603B681B781A46224B53F82230FB6081
:1023C800FB681B78DBB2042B1AD11F4B1B79002B3F
:1023D80016D03B68B3F801309BB2002B10D1194BD3
:1023E8001B68BB603B68B3F903301AB2BB681A823A
:1023F800154B5B79002B1ED0BB687A689A601AE08F
:102408003B68B3F801309BB21AB2FB681A823B688A
:10241800B3F903301AB2FB685A823B68B3F8073045
:102428009AB2FB689A82084B5B79002B04D0FB6850
:102438007A689A6000E000BF00BF1437BD465DF8B7
:10244800047B704750000020E006002080B485B06F
:1024580000AF786039603B681B781A46134B53F815
:102468002230FB603B685B78002B11D13B68B3F9E5
:1024780002301AB2FB681A823B68B3F904301AB208
:10248800FB685A823B68B3F906301AB2FB689A8235
:10249800074B5B79002B02D0FB687A689A6000BF13
:1024A8001437BD465DF8047B704700BF500000201C
:1024B800E006002080B485B000AF786039603B68E2
:1024C8001B781A460B4B53F82230FB603B68B3F974
:1024D80001301AB2FB681A82074B5B79002B02D0D5
:1024E800FB687A689A6000BF1437BD465DF8047BC4
:1024F800704700BF50000020E006002080B485B07F
:1025080000AF786039603B681B781A460E4B53F869
:102518002230FB603B68B3F901301AB2FB681A82BB
:102528003B68B3F903301AB2FB685A82074B5B79F0
:10253800002B02D0FB687A689A6000BF1437BD464A
:102548005DF8047B704700BF50000020E0060020C3
:1025580080B485B000AF0346FB71FB790D4A52F891
:102568002330FB60FB6801225A70FB6800229A70D6
:10257800FB6800229A80FB680022DA80FB68002250
:102588009A60FB680022DA6000BF1437BD465DF828
:10259800047B70475000002080B485B000AF78609D
:1025A8000B46FB701346BB70FB78092B22D8FB78CF
:1025B800134A52F82330FB60FB6802225A70BB783A
:1025C8009AB2FB68DA80FB687A689A60FB78042B19
:1025D80010D10C4B1B79002B0CD0094B1B68BB602E
:1025E800BB6802225A70BB789AB2BB68DA80BB68B3
:1025F8007A689A6000BF1437BD465DF8047B70475F
:1026080050000020E006002080B485B000AF0346EB
:10261800FB71FB79092B1AD8FB79104A52F8233041
:10262800FB60FB6803225A70FB680022DA60FB79C2
:10263800042B0CD10A4B1B79002B08D0074B1B68C5
:10264800BB60BB6803225A70BB680022DA6000BF17
:102658001437BD465DF8047B704700BF500000206A
:10266800E006002080B582B000AF0123FB7106E0D0
:10267800FB791846FFF7C8FFFB790133FB71FB793B
:10268800092BF5D900BF00BF0837BD4680BD000043
:1026980080B485B000AF0346FB71FB79092B16D8CF
:1026A800FB790E4A52F82330FB60FB6800225A700F
:1026B800FB6800229A70FB6800229A80FB6800225F
:1026C800DA80FB6800229A60FB680022DA6000BFAB
:1026D8001437BD465DF8047B704700BF50000020EA
:1026E80080B582B000AF0123FB7106E0FB79184684
:1026F800FFF7CEFFFB790133FB71FB79092BF5D985
:1027080000BF00BF0837BD4680BD80B400AF00BF22
:10271800BD465DF8047B704780B400AF00BFBD467E
:102728005DF8047B704780B500AFFFF79BFF00BFE3
:1027380080BD80B500AFFFF7D3FF00BF80BD80B478
:1027480000AF00BFBD465DF8047B704780B400AFA2
:1027580000BFBD465DF8047B704780B582B000AF0E
:1027680078607B685B78032B1CD0032B20DC012B63
:1027780002D0022B0AD01BE002F0C8F87B68197857
:102788007B689B781A46FFF707FF12E0FFF76AFF9E
:1027980002F0BCF87B6819787B689B781A46FFF7CB
:1027A800FBFE06E07B681B781846FFF72DFF00E06C
:1027B80000BF00BF0837BD4680BD000080B582B0AD
:1027C80000AF78607B681B78013B052B20D801A2FD
:1027D80052F823F0F5270008FB2700080128000815
:1027E800072800080D28000813280008FFF78DFFA8
:1027F8000FE0FFF791FF0CE0FFF795FF09E0FFF707
:1028080098FF06E0FFF79BFF03E0FFF79FFF00E05C
:1028180000BF00BF0837BD4680BD00BF80B582B08D
:1028280000AF78607B681B78FF2B02D1FFF758FF59
:1028380004E07B681B781846FFF72AFF00BF0837BB
:10284800BD4680BD80B584B000AF78607B681B78DA
:10285800FB73FB7B013B0A2B0AD8FB7B1846FFF76F
:1028680077FE0E4AFB7B53700C4B01229A7006E0F0
:102878000A4B00225A70094B03229A7000BFFB7B57
:10288800042B06D1064B1B79002B02D00020FFF742
:102898005FFE00BF1037BD4680BD00BFD0060020D8
:1028A800E006002080B584B000AF78607B68D3F87C
:1028B800C032FB60FB681B781F2B10D01F2B14DC69
:1028C800112B02D0132B06D00FE0FB6801331846FA
:1028D800FFF7B8FF0AE0786800F09CF806E0FB68AC
:1028E80001331846FFF7D8FC00E000BF00BF1037DF
:1028F800BD4680BD80B584B000AF78607B68D3F8F2
:10290800C032FB60FB681B78113B0C2B6CD801A212
:1029180052F823F051290008652900088529000884
:102928007129000899290008AD290008F129000833
:10293800F1290008F1290008C1290008D92900084F
:10294800CD290008E529000801F0E0FF0246FB68F0
:10295800013319461046FFF7EDFC46E0FB680133EA
:102968001846FFF7DDFC40E001F0D0FF0246FB68A7
:10297800013319461046FFF717FD36E001F0C6FF90
:102988000246FB68013319461046FFF75FFD2CE04D
:1029980001F0BCFF0246FB68013319461046FFF7F9
:1029A80089FD22E001F0B2FF0246FB6801331946B7
:1029B8001046FFF7A3FD18E0FB6801331846FFF740
:1029C800CCFE12E0FB6801331846FFF7F7FE0CE077
:1029D800FB6801331846FFF721FF06E0FB68013367
:1029E8001846FFF793FC00E000BF00BF1037BD4654
:1029F80080BD00BF80B582B000AF78600522044971
:102A0800786809F057FD00BF0837BD4680BD00BF94
:102A1800D006002080B582B000AF78600522044956
:102A2800786809F047FD00BF0837BD4680BD00BF84
:102A3800D8060020B0B586B000AFF860C7E900231B
:102A480003F0D2FC144BB322DA600221F86803F0D9
:102A58002DFE00237B6114E039687B69BA6A134450
:102A68001B78DAB24FF00003002003F069FCD7E9C5
:102A78000023541C43F10005C7E900457B69013375
:102A88007B61BB8D7A699A42E6DB03F0CFFC00BF1D
:102A98001837BD46B0BD00BF003C024080B582B0CB
:102AA80000AF0A4B1B687B607B68094A934208D1D8
:102AB800084A064B1046194640F229131A4609F0EF
:102AC800B3FD00BF0837BD4680BD00BF00000E083B
:102AD800FFABCDABE006002080B582B002AF084B5B
:102AE800084A1A6040F229130193054B0093064ADD
:102AF8004FF000030B20FFF79DFF00BFBD4680BDD0
:102B0800E0060020FFABCDAB00000E0880B582B018
:102B180000AF78607B6858687B681B89012219467A
:102B280003F0A8FF00BF0837BD4680BD80B584B05C
:102B380000AF78607B6858687B681B89002219465B
:102B480003F098FF1420FFF721F97B68186807F154
:102B58000C014FF47A73042205F042FFFB68DA4354
:102B68007B68DA607B6858687B681B890122194694
:102B780003F080FF0A20FFF709F900BF1037BD46B0
:102B880080BD80B483B000AF786039603B680133A2
:102B98007A680C3212681A6000BF0C37BD465DF8BF
:102BA800047B704780B500AF00220E490E4808F03C
:102BB800EDFB0346002B01D001F0D2F90B490A487E
:102BC80008F01AFC0346002B01D001F0C9F90648A9
:102BD80008F033FC0346002B01D001F0C1F900BF17
:102BE80080BD00BF7C0800200C0A00200C080020D3
:102BF80080B58AB000AF786007F1140300221A602C
:102C08005A609A60DA601A617B681B68B3F1A04F5A
:102C18003AD100233B611E4B1B6B1D4A43F0010355
:102C280013631B4B1B6B03F001033B613B694FF4C0
:102C3800C0537B610223BB610023FB6103233B621A
:102C48000A237B6207F114031946124803F076FD44
:102C58000F4B5B6B0E4A43F0800353630023FB600A
:102C68000B4B5B6C0A4A43F480435364084B5B6C20
:102C780003F48043FB60FB6800220021432002F03C
:102C8800C5FF432002F0DEFF00BF2837BD4680BDE8
:102C9800003802400000024080B582B000AF786082
:102CA8007B68D3F804247B6803F5717319461046D2
:102CB80008F00EFC00BF0837BD4680BD80B582B065
:102CC80000AF78600B46FB707B68D3F80404FA7891
:102CD80079681346DB009B1A9B000B4403F50273CB
:102CE8001A68FB78194608F048FC00BF0837BD464B
:102CF80080BD80B582B000AF78600B46FB707B6802
:102D0800D3F80404FA7879681346DB009B1A9B0011
:102D18000B4448331A68FB78194608F091FC00BF49
:102D28000837BD4680BD80B582B000AF78607B684B
:102D3800D3F80434184608F095FD00BF0837BD469F
:102D480080BD80B584B000AF78600123FB737B68D9
:102D5800DB68002B02D10023FB7308E07B68DB688B
:102D6800022B02D10123FB7301E001F0F9F87B6823
:102D7800D3F80434FA7B1146184608F038FD7B680E
:102D8800D3F80434184608F0F1FC00BF1037BD46EC
:102D980080BD000080B582B000AF78607B68D3F852
:102DA8000434184608F033FD7B681B6803F560633C
:102DB8001B687A68126802F5606243F001031360C9
:102DC8007B681B6A002B05D0044B1B69034A43F040
:102DD8000603136100BF0837BD4680BD00ED00E063
:102DE80080B582B000AF78607B68D3F804341846A9
:102DF80008F022FD00BF0837BD4680BD80B582B00F
:102E080000AF78600B46FB707B68D3F80434FA781F
:102E18001146184608F04DFD00BF0837BD4680BD75
:102E280080B582B000AF78600B46FB707B68D3F842
:102E38000434FA781146184608F02EFD00BF08370A
:102E4800BD4680BD80B582B000AF78607B68D3F89E
:102E58000434184608F03AFD00BF0837BD4680BD67
:102E680080B582B000AF78607B68D3F80434184628
:102E780008F037FD00BF0837BD4680BD80B582B079
:102E880000AF78607B681B78002B3CD1204A7B68B8
:102E9800C2F804347B681E4AC3F8C4221C4B4FF0A6
:102EA800A0421A601A4B04225A60194B0222DA60B7
:102EB800174B00221A61164B02229A61144B00220A
:102EC800DA61134B00221A62114B00225A62104B2E
:102ED8000022DA620E4B00221A630D4803F028FF25
:102EE8000346002B01D001F03BF88021084805F08B
:102EF8006EF840220021064805F022F880220121C0
:102F0800034805F01DF8002318460837BD4680BD64
:102F1800DC0C002080B584B000AF78600023FB7320
:102F28000023BB737B68D3F8C432184604F01DF83D
:102F38000346FB73FB7B184600F018F90346BB7386
:102F4800BB7B18461037BD4680BD80B584B000AF46
:102F58007860084611461A460346FB700B46BB705C
:102F680013463B800023FB730023BB737B68D3F8B5
:102F7800C402BB783A88F97804F001FC0346FB7375
:102F8800FB7B184600F0F2F80346BB73BB7B184680
:102F98001037BD4680BD80B584B000AF78600B4661
:102FA800FB700023FB730023BB737B68D3F8C43228
:102FB800FA781146184604F04AFC0346FB73FB7B7B
:102FC800184600F0D3F80346BB73BB7B184610378E
:102FD800BD4680BD80B584B000AF78600B46FB70FD
:102FE8000023FB730023BB737B68D3F8C432FA78E1
:102FF8001146184604F00AFD0346FB73FB7B18468E
:1030080000F0B4F80346BB73BB7B18461037BD46C7
:1030180080BD80B584B000AF78600B46FB7000239C
:10302800FB730023BB737B68D3F8C432FA7811466C
:10303800184604F04FFD0346FB73FB7B184600F06F
:1030480095F80346BB73BB7B18461037BD4680BD59
:1030580080B485B000AF78600B46FB707B68D3F80E
:10306800C432FB6097F90330002B0BDAFB7803F0CE
:103078007F02F9681346DB009B1A9B000B443E3322
:103088001B780BE0FB7803F07F02F9681346DB003E
:103098009B1A9B000B4403F5FF731B7818461437E3
:1030A800BD465DF8047B704780B584B000AF78609A
:1030B8000B46FB700023FB730023BB737B68D3F8BC
:1030C800C432FA781146184604F034FB0346FB7301
:1030D800FB7B184600F04AF80346BB73BB7B1846D7
:1030E8001037BD4680BD80B586B000AFF8607A6005
:1030F8003B600B46FB720023FB750023BB75FB6826
:10310800D3F8C402F97A3B687A6804F035FC0346C0
:10311800FB75FB7D184600F029F80346BB75BB7D9F
:1031280018461837BD4680BD80B586B000AFF86038
:103138007A603B600B46FB720023FB750023BB756E
:10314800FB68D3F8C402F97A3B687A6804F0C9FBD3
:103158000346FB75FB7D184600F008F80346BB756F
:10316800BB7D18461837BD4680BD000080B485B0C9
:1031780000AF0346FB710023FB73FB79032B17D8C1
:1031880001A252F823F000BFA1310008A7310008BE
:10319800AD310008B33100080023FB730BE00323B3
:1031A800FB7308E00123FB7305E00323FB7302E0D4
:1031B8000323FB7300BFFB7B18461437BD465DF83D
:1031C800047B704780B584B000AF78600B46FB7015
:1031D800102009F019FA0346FB60FB68002B05D1A3
:1031E8007B680022C3F8BC22022331E07B68FA68BE
:1031F800C3F8BC22402009F007FA03461A467B6848
:10320800C3F8C0227B6801225A877B680122A3F891
:103218007A214023032281217868FFF796FE7B6894
:1032280001221A874023032201217868FFF78DFEC7
:103238007B680122A3F87821FB6800221A737B6857
:10324800D3F8C022402301217868FFF76DFF0023DF
:1032580018461037BD4680BD80B582B000AF786093
:103268000B46FB7081217868FFF795FE7B6800228A
:103278001A877B6800225A8701217868FFF78BFE3E
:103288007B680022A3F878217B680022A3F87A21C2
:103298007B68D3F8BC32002B09D07B68D3F8BC32EA
:1032A800184609F0B9F97B680022C3F8C0227B6888
:1032B800D3F8C032002B09D07B68D3F8C032184647
:1032C80009F0AAF97B680022C3F8C0220023184637
:1032D8000837BD4680BD000080B584B000AF786077
:1032E80039607B68D3F8BC32FB603B681B7803F01D
:1032F8006003002B00F08380202B40F0C8803B68DF
:103308005B78013B0A2B70D801A252F823F000BF6A
:10331800B53300087333000853330008F33300084B
:10332800F3330008F3330008F3330008F3330008DD
:103338008333000861330008453300083B685B8825
:10334800DBB21A46FB681A6058E0FB68012219468E
:10335800786809F0AFF851E03B685B881B0A9BB2BC
:10336800DBB21A46FB685A6048E0FB680433012266
:103378001946786809F09EF840E03B685B881B0AAC
:103388009BB2DBB2032B36D13B685B88DBB2112BD7
:1033980001D01F2B2FD17B68D3F8C0123B68DB8884
:1033A8001A46786809F0B2F800BF24E03B685B88E9
:1033B8001B0A9BB2DBB2032B1FD13B685B88DBB2D5
:1033C8001F2B0DD01F2B18DC122B05D0132B14D15B
:1033D8007868FFF71FFB07E07868FFF70BFB03E04F
:1033E8007868FEF783FF00BF07E03968786808F05F
:1033F800F0FF032352E000BF4FE000BF4DE03B6801
:103408005B780B2B34D00B2B39DC062B02D00A2B24
:1034180026D034E03B685B881B0A9BB2222B0DD177
:103428003B68DB88B3F5A46F28BF4FF4A4639BB255
:103438001A461C49786809F03DF826E03B685B8825
:103448001B0A9BB2212B20D117493B68DB88092B2B
:1034580028BF09239BB21A46786809F02BF814E0B4
:10346800FB68083301221946786809F023F80DE053
:103478003B685B88DBB21A46FB689A6006E03968ED
:10348800786808F0A6FF032308E000BF05E0396864
:10349800786808F09EFF032300E0002318461037E1
:1034A800BD4680BD940100205608002080B586B036
:1034B80000AFF860B9601346FB80FB68D3F8BC32F4
:1034C800002B01D1032319E0FB68D3F8BC327B61E0
:1034D800FB6893F89C32032B0FD17B691B7B002B75
:1034E80009D17B6901221A73FB88BA688121F868BF
:1034F800FFF7F9FD01E0012300E000231846183723
:10350800BD4680BD80B483B000AF78607B68292257
:103518001A80034B18460C37BD465DF8047B70478C
:103528004408002080B483B000AF78600B46FB707D
:103538007B68D3F8BC3200221A73002318460C3774
:10354800BD465DF8047B704780B582B000AF7860F7
:103558000B46FB707B68D3F8BC32002B01D10323E8
:103568000BE07868FFF7C6F97B68D3F8C0224023E0
:1035780001217868FFF7D8FD002318460837BD46B3
:1035880080BD80B582B000AF78607868FFF78AF9AF
:10359800002318460837BD4680BD000080B483B0BC
:1035A80000AF78607B680A221A80034B18460C37F4
:1035B800BD465DF8047B70477008002080B483B076
:1035C80000AF03463960FB713B6812221A80034B37
:1035D80018460C37BD465DF8047B704798080020F4
:1035E80080B483B000AF03463960FB713B680422A6
:1035F8001A80034B18460C37BD465DF8047B7047AC
:10360800AC08002080B582B000AF03463960FB717A
:103618003A680449044808F0EDFE024B184608379A
:10362800BD4680BDE410002004C8000880B582B003
:1036380000AF03463960FB713A680449044808F052
:10364800D9FE024B18460837BD4680BDE41000205D
:1036580018C8000880B582B000AF03463960FB7116
:103668003B681A221A8000F02FF8024B18460837D8
:10367800BD4680BDB008002080B582B000AF0346CB
:103688003960FB713A680449044808F0B3FE024BFC
:1036980018460837BD4680BDE41000201CC8000845
:1036A80080B582B000AF03463960FB713A680449BF
:1036B800044808F09FFE024B18460837BD4680BDF7
:1036C800E410002028C8000880B584B000AF0F4B74
:1036D8001B68FB600E4B1B68BB600E4B1B687B6056
:1036E800FA687B681344FB60FB68002B09D008224A
:1036F8000949F86800F014F804220849B86800F08D
:103708000FF800BF1037BD4680BD00BF107AFF1FFD
:10371800147AFF1F187AFF1FB2080020C208002081
:1037280080B487B000AFF860B9601346FB7100231E
:10373800FB750023FB7527E0FB681B0F092B0BD8D3
:10374800FB681B0FDAB2FB7D5B001946BB680B44B4
:103758003032D2B21A700AE0FB681B0FDAB2FB7D76
:103768005B001946BB680B443732D2B21A70FB684B
:103778001B01FB60FB7D5B000133BA681344002228
:103788001A70FB7D0133FB75FA7DFB799A42D3D31E
:1037980000BF00BF1C37BD465DF8047B70470000C2
:1037A80080B590B000AF07F1340300221A605A6068
:1037B8009A6007F1240300221A605A609A60DA605E
:1037C8003B1D20220021184608F03CFF394B3A4A9D
:1037D8001A60384B4FF480325A60364B00229A6098
:1037E800344B00221A61334B00221A76314B0022E7
:1037F80083F820202F4B0022DA622E4B2F4A9A6240
:103808002C4B0022DA602B4B0122DA61294B012272
:1038180083F83020274B00225A61264801F0A6F889
:103828000346002B01D000F09BFB11237B634FF470
:103838008043BB630023FB6307F1340319461D482B
:1038480002F06EF80346002B01D000F089FB11232B
:103858007B620123BB620123FB6207F12403194643
:10386800144801F02FFA0346002B01D000F078FB32
:1038780005237B600123BB6001237B610123FB607F
:103888004FF480133B620023FB6100237B76002307
:103898003B7600233B613B1D1946064801F0AAFE12
:1038A8000346002B01D000F05BFB00BF4037BD464C
:1038B80080BD00BF2C130020002001400100000F34
:1038C80080B584B000AF3B4600221A605A609A6007
:1038D800DA601E4B1E4A1A601C4B4FF480325A6045
:1038E8001A4B00229A60194B00221A61174B0022CA
:1038F8001A76164B002283F82020144B0022DA6037
:10390800124B0122DA61114B002283F830200F4B51
:1039180001225A610D4801F029F80346002B01D015
:1039280000F01EFB04233B6001237B600123BB6086
:103938003B461946054801F0C5F90346002B01D05E
:1039480000F00EFB00BF1037BD4680BDE41200201A
:103958000021014080B584B000AF3B4600221A60C8
:103968005A609A60DA601E4B1E4A1A601C4B4FF46C
:1039780080325A601A4B00229A60194B00221A6151
:10398800174B00221A76164B002283F82020144B7E
:103998000022DA60124B0122DA61114B002283F80F
:1039A80030200F4B01225A610D4800F0DFFF03461B
:1039B800002B01D000F0D4FA03233B6001237B6085
:1039C8000023BB603B461946054801F07BF90346D6
:1039D800002B01D000F0C4FA00BF1037BD4680BDEF
:1039E800741300200022014080B58EB000AF7860CB
:1039F80007F1240300221A605A609A60DA601A619B
:103A08007B681B68694A934261D100233B62684B1B
:103A18005B6C674A43F480735364654B5B6C03F4D7
:103A280080733B623B6A0023FB61614B1B6B604AFE
:103A380043F0010313635E4B1B6B03F00103FB614F
:103A4800FB6920237B620323BB620023FB6207F12F
:103A580024031946574802F071FE574B574A1A601B
:103A6800554B00225A60544B00229A60524B002258
:103A7800DA60514B4FF480621A614F4B4FF4006289
:103A88005A614D4B4FF400529A614B4B4FF4807280
:103A9800DA61494B4FF480321A62474B00225A626E
:103AA800454802F0DDF80346002B01D000F058FA33
:103AB8007B68414A9A63404A7B68936300220021ED
:103AC800122002F0A3F8122002F0BCF86AE07B682A
:103AD8001B683B4A934230D10023BB61344B5B6C7B
:103AE800334A43F400735364314B5B6C03F4007343
:103AF800BB61BB6900237B612D4B1B6B2C4A43F0D8
:103B0800010313632A4B1B6B03F001037B617B6981
:103B180010237B620323BB620023FB6207F12403AB
:103B28001946244802F00AFE00220021122002F061
:103B38006DF8122002F086F834E07B681B68214A91
:103B480093422FD100233B61194B5B6C184A43F415
:103B580080635364164B5B6C03F480633B613B6981
:103B68000023FB60124B1B6B114A43F001031363E4
:103B78000F4B1B6B03F00103FB60FB6808237B62A0
:103B88000323BB620023FB6207F12403194609489B
:103B980002F0D4FD00220021122002F037F8122092
:103BA80002F050F800BF3837BD4680BD0020014004
:103BB8000038024000000240BC130020106402409C
:103BC800002101400022014080B582B000AF0023EF
:103BD8007B600C4B1B6B0B4A43F480031363094B4C
:103BE8001B6B03F480037B607B6800220021382074
:103BF80002F00CF8382002F025F800BF0837BD465F
:103C080080BD00BF0038024080B58AB000AF07F120
:103C1800140300221A605A609A60DA601A6100235D
:103C28003B613F4B1B6B3E4A43F0800313633C4BA5
:103C38001B6B03F080033B613B690023FB60384B3F
:103C48001B6B374A43F001031363354B1B6B03F0BF
:103C58000103FB60FB680023BB60314B1B6B304AE0
:103C680043F0020313632E4B1B6B03F00203BB608C
:103C7800BB6800237B602A4B1B6B294A43F0040373
:103C88001363274B1B6B03F004037B607B680023E3
:103C98003B60234B1B6B224A43F008031363204B02
:103CA8001B6B03F008033B603B68002248F24001AD
:103CB8001C4802F0DFFE002204211B4802F0DAFE55
:103CC8004FF400437B610123BB610023FB610023A8
:103CD8003B6207F114031946124802F02FFD042332
:103CE8007B610123BB610023FB6103233B6207F176
:103CF800140319460C4802F021FD40237B6101237F
:103D0800BB610023FB6103233B6207F114031946DF
:103D1800044802F013FD00BF2837BD4680BD00BF30
:103D28000038024000040240000C024080B500AF99
:103D3800124B134A1A60114B124A5A600F4B002259
:103D48009A600E4B0022DA600C4B4FF480421A61E5
:103D58000A4B00225A61094B00229A61074B002244
:103D6800DA61064B00221A62044802F09DFE0346FF
:103D7800002B01D000F0F4F800BF80BD1C14002017
:103D880000540040A086010080B58AB000AF78607A
:103D980007F1140300221A605A609A60DA601A6107
:103DA8007B681B68194A93422CD100233B61184B4E
:103DB8001B6B174A43F002031363154B1B6B03F08D
:103DC80002033B613B694FF440737B611223BB6183
:103DD8000123FB6103233B6204237B6207F1140385
:103DE80019460C4802F0AAFC0023FB60084B1B6C28
:103DF800074A43F400131364054B1B6C03F40013C8
:103E0800FB60FB6800BF2837BD4680BD00540040FA
:103E1800003802400004024080B500AF00F040FDC9
:103E280000F020F8FFF7F0FEFFF7CEFEFFF7B8FC32
:103E380000F0CEFAFFF77AFFFEF7B4FE00F072FB4F
:103E480000F0A6FBFFF73CFDFFF784FD00F0D6FB72
:103E580000F08EF800F0C4F8FCF760FDFCF72CFBCE
:103E6800FCE7000080B594B000AF07F120033022D2
:103E78000021184608F0E6FB07F10C0300221A603F
:103E88005A609A60DA601A610023BB60284B1B6C89
:103E9800274A43F080531364254B1B6C03F080536F
:103EA800BB60BB6800237B60224B1B68214A43F43C
:103EB800804313601F4B1B6803F480437B607B685F
:103EC80001233B624FF480337B620223BB634FF4D0
:103ED8008003FB6308233B64A8237B640223BB6441
:103EE8000723FB6407F12003184604F08DF8034606
:103EF800002B01D000F034F80F23FB6002233B6154
:103F080000237B614FF4A053BB614FF48053FB61E6
:103F180007F10C030521184604F0E6FA0346002BC6
:103F280001D000F01DF800BF5037BD4680BD00BF6E
:103F3800003802400070004080B582B000AF786061
:103F48007868FCF70FFD7B681B68044A934201D12F
:103F580000F0C8FC00BF0837BD4680BD0020004007
:103F680080B400AF00BFBD465DF8047B7047000019
:103F780080B500AF184B194A1A60174B4FF482727C
:103F88005A60154B00229A60134B4FF40062DA60B6
:103F9800114B00221A61104B01225A610E4B4FF44B
:103FA80000729A610C4B2822DA610B4B00221A62CC
:103FB800094B00225A62084B00229A62064B0A22D9
:103FC800DA62054804F0A8FC0346002B01D0FFF78D
:103FD800C7FF00BF80BD00BFC814002000300140EB
:103FE80080B500AF174B184A1A60164B4FF482720F
:103FF8005A60144B00229A60124B0022DA60114B6F
:1040080000221A610F4B00225A610E4B4FF40072C6
:104018009A610C4B3022DA610A4B80221A62094BF2
:1040280000225A62074B00229A62064B0A22DA6281
:10403800044804F071FC0346002B01D0FFF790FF01
:1040480000BF80BD70140020003C004080B58CB0DB
:1040580000AF786007F11C0300221A605A609A606A
:10406800DA601A617B681B68324A93422CD10023BC
:10407800BB61314B5B6C304A43F4805353642E4B25
:104088005B6C03F48053BB61BB6900237B612A4BE3
:104098001B6B294A43F002031363274B1B6B03F086
:1040A80002037B617B693823FB6102233B620023A7
:1040B8007B620323BB620523FB6207F11C031946DD
:1040C8001E4802F03BFB31E07B681B681C4A9342A8
:1040D8002CD100233B61184B1B6C174A43F4004357
:1040E8001364154B1B6C03F400433B613B690023CD
:1040F800FB60114B1B6B104A43F0040313630E4B18
:104108001B6B03F00403FB60FB684FF4E053FB6197
:1041180002233B6200237B620323BB620623FB620C
:1041280007F11C031946074802F008FB00BF3037A7
:10413800BD4680BD00300140003802400004024006
:10414800003C00400008024080B483B000AF002368
:104158007B60104B5B6C0F4A43F4804353640D4BF8
:104168005B6C03F480437B607B6800233B60094BF6
:104178001B6C084A43F080531364064B1B6C03F016
:1041880080533B603B6800BF0C37BD465DF8047B3D
:10419800704700BF0038024080B58CB000AF78602F
:1041A8000023FB620023BB62002279682D2001F006
:1041B8002DFD2D2001F046FD0023FB601F4B1B6CDD
:1041C8001E4A43F4807313641C4B1B6C03F4807306
:1041D800FB60FB6807F1100207F11403114618464B
:1041E80004F068FB04F052FB03465B00FB62FB6AC9
:1041F800134AA2FB03239B0C013BBB62114B124ADF
:104208001A60104B40F2E732DA600E4ABB6A53601C
:104218000C4B00221A610B4B00229A60094804F0EB
:104228009BFF0346002B04D1064804F0C0FF034659
:1042380000E0012318463037BD4680BD00380240F3
:1042480083DE1B43201500200020004080B400AF0F
:1042580000BFBD465DF8047B704780B400AFFEE741
:1042680080B400AFFEE780B400AFFEE780B400AFD3
:10427800FEE780B400AF00BFBD465DF8047B704721
:1042880080B400AF00BFBD465DF8047B704780B4C2
:1042980000AF00BFBD465DF8047B704780B400AF37
:1042A80000BFBD465DF8047B7047000080B500AFD5
:1042B800054800F09EFB054800F09BFB044800F011
:1042C80098FB00BF80BD00BF2C130020E412002023
:1042D8007413002080B500AF024804F0F5FF00BF5A
:1042E80080BD00BF2015002080B500AF024804F053
:1042F800EBFF00BF80BD00BF6015002080B500AF98
:10430800024804F0E1FF00BF80BD00BF2016002076
:1043180080B500AF024801F0A9FD00BF80BD00BF15
:10432800BC13002080B500AF024802F051FE00BF68
:1043380080BD00BFDC0C002080B586B000AF78607F
:10434800144A154BD31A7B617B693B61134B1B687D
:10435800002B02D1114B124A1A60104B1A687B6865
:1043680013443A699A4207D208F024F903460C220A
:104378001A604FF0FF3309E0084B1B68FB60074BDE
:104388001A687B681344054A1360FB681846183797
:10439800BD4680BD0000022000040000DC090020AA
:1043A8009816002080B400AF084BD3F88830074A2D
:1043B80043F47003C2F88830044B4FF000629A60EF
:1043C80000BFBD465DF8047B704700BF00ED00E00C
:1043D80080B592B000AF07F1400300221A605A601E
:1043E80007F1240300221A605A609A60DA601A61A1
:1043F8005A619A613B1D20220021184608F022F9D3
:10440800464B474A1A60454B00225A60434B60228C
:104418009A60424B41F22F12DA60404B00221A6137
:104428003E4B00225A613D4B80229A613B4804F082
:10443800E2FE0346002B01D0FFF792FD70233B6498
:1044480000237B6407F140031946344805F0A8FBB4
:104458000346002B01D0FFF783FD60237B62002316
:10446800BB620023FB6200233B6300237B630023C2
:10447800BB630023FB6307F1240300221946274886
:1044880005F02AF80346002B01D0FFF769FD07F174
:10449800240304221946214805F01EF80346002B80
:1044A80001D0FFF75DFD07F12403082219461B48D8
:1044B80005F012F80346002B01D0FFF751FD322317
:1044C800BB6207F124030C221946144805F004F8CE
:1044D8000346002B01D0FFF743FD00237B60002338
:1044E800BB600023FB6000233B6100237B614FF42A
:1044F8000053BB6100233B623B1D1946074805F08A
:10450800CBFB0346002B01D0FFF72AFD034800F040
:1045180039F900BF4837BD4680BD00BFA01500204F
:104528000000014080B582B000AF3B4600221A600F
:104538005A60154B154A1A60134B09225A60124BE0
:1045480000229A60104B41F22F12DA600E4B0022C3
:104558009A610D4804F000FE0346002B01D0FFF7D6
:10456800FFFC20233B6000237B603B46194606483E
:1045780005F016FB0346002B01D0FFF7F1FC00BF46
:104588000837BD4680BD00BF601500200010004000
:1045980080B582B000AF3B4600221A605A60154BC6
:1045A800154A1A60134B63225A60124B00229A6014
:1045B800104B41F22F12DA600E4B00229A610D481F
:1045C80004F0CAFD0346002B01D0FFF7C9FC2023E5
:1045D8003B6000237B603B461946064805F0E0FA3D
:1045E8000346002B01D0FFF7BBFC00BF0837BD46D0
:1045F80080BD00BF201600200014004080B588B0A0
:1046080000AF3B1D00221A605A609A60DA601A6196
:104618005A619A611A4B1B4A1A60194B00225A6058
:10462800174B00229A60164B41F22F12DA60144B96
:1046380000221A61124B80229A61114804F0DBFDB6
:104648000346002B01D0FFF78BFC60237B6000231F
:10465800BB600023FB6000237B613B1D00221946E1
:10466800074804F039FF0346002B01D0FFF778FC18
:10467800034800F087F800BF2037BD4680BD00BF63
:10468800E01500200018004080B485B000AF7860C5
:104698007B681B68154A93420ED10023FB60144BBC
:1046A8005B6C134A43F001035364114B5B6C03F0DA
:1046B8000103FB60FB6812E07B681B680D4A9342AC
:1046C8000DD10023BB600A4B1B6C094A43F0400321
:1046D8001364074B1B6C03F04003BB60BB6800BF4F
:1046E8001437BD465DF8047B704700BF00000140E9
:1046F800003802400018004080B584B000AF7860F0
:104708007B681B681C4A934216D10023FB601B4B35
:104718001B6C1A4A43F010031364184B1B6C03F00C
:104728001003FB60FB6800220021362001F06EFABE
:10473800362001F087FA1AE07B681B68104A93421A
:1047480015D10023BB600D4B1B6C0C4A43F02003B2
:1047580013640A4B1B6C03F02003BB60BB68002288
:104768000021372001F052FA372001F06BFA00BF20
:104778001037BD4680BD00BF001000400038024021
:104788000014004080B58AB000AF786007F11403C8
:1047980000221A605A609A60DA601A617B681B68A6
:1047A800254A93421FD100233B61244B1B6B234AAC
:1047B80043F001031363214B1B6B03F001033B61BF
:1047C8003B694FF4E0637B610223BB610023FB611B
:1047D80000233B6201237B6207F114031946184842
:1047E80001F0ACFF23E07B681B68164A93421ED198
:1047F8000023FB60114B1B6B104A43F00203136349
:104808000E4B1B6B03F00203FB60FB684FF4804305
:104818007B610223BB610023FB6100233B62092308
:104828007B6207F114031946074801F087FF00BFB0
:104838002837BD4680BD00BF000001400038024057
:10484800000002400018004000040240DFF834D0A5
:10485800002103E00C4B5B58435004310B480C4BD0
:1048680042189A42F6D30B4A02E0002342F8043B6E
:10487800094B9A42F9D3FFF795FD07F0A1FEFFF720
:10488800CBFA704700000220B4C8000800000020DE
:104898003C0900203C09002094160020FEE7000097
:1048A80080B500AF0E4B1B680D4A43F400731360CC
:1048B8000B4B1B680A4A43F480631360084B1B6860
:1048C800074A43F480731360032001F094F9002031
:1048D800FFF762FCFFF738FC0023184680BD00BFD5
:1048E800003C024080B400AF064B1B781A46064BCA
:1048F8001B681344044A136000BFBD465DF8047B7F
:10490800704700BFD40800206016002080B400AFB4
:10491800034B1B681846BD465DF8047B704700BF13
:104928006016002080B584B000AF7860FFF7EEFF16
:10493800B8607B68FB60FB68B3F1FF3F05D00A4BAA
:104948001B781A46FB681344FB6000BFFFF7DEFFC5
:104958000246BB68D31AFA689A42F7D800BF00BF6C
:104968001037BD4680BD00BFD408002080B584B094
:1049780000AF78600023FB737B68002B01D1012313
:1049880033E07B681B6C002B09D17868FFF72CF8A3
:104998007B6800225A647B68002283F83C207B688D
:1049A8001B6C03F01003002B18D17B681B6C23F4DD
:1049B800885323F0020343F002027B681A64786884
:1049C80000F0A2FA7B6800225A647B681B6C23F013
:1049D800030343F001027B681A6401E00123FB73BF
:1049E8007B68002283F83C20FB7B18461037BD46C5
:1049F80080BD80B584B000AF78600023FB600023E1
:104A0800BB607B681B681B6803F00203022B0CBFAA
:104A180001230023DBB2FB607B681B685B6803F043
:104A28002003202B0CBF01230023DBB2BB60FB68F3
:104A3800002B49D0BB68002B46D07B681B6C03F069
:104A48001003002B05D17B681B6C43F400727B6854
:104A58001A647B681B689B6803F04053002B2BD1BA
:104A68007B681B7E002B27D17B681B68DB6A03F4FD
:104A78007003002B06D07B681B689B6803F4806377
:104A8800002B19D17B681B685A687B681B6822F069
:104A980020025A607B681B6C23F480727B681A645E
:104AA8007B681B6C03F48053002B05D17B681B6C5F
:104AB80043F001027B681A64786800F0DBF87B68D1
:104AC8001B686FF012021A607B681B681B6803F092
:104AD8000403042B0CBF01230023DBB2FB607B68BB
:104AE8001B685B6803F08003802B0CBF0123002345
:104AF800DBB2BB60FB68002B57D0BB68002B54D0DF
:104B08007B681B6C03F01003002B05D17B681B6CC2
:104B180043F400527B681A647B681B689B6803F443
:104B28004013002B39D17B681B689B6B03F440133F
:104B3800002B06D07B681B689B6803F48063002BFE
:104B48002BD17B681B685B6803F48063002B24D13E
:104B58007B681B689B6803F04053002B1DD17B6862
:104B68001B7E002B19D17B681B685A687B681B6801
:104B780022F080025A607B681B6C23F480527B68A9
:104B88001A647B681B6C03F48073002B05D17B6867
:104B98001B6C43F001027B681A647868FBF708FF16
:104BA8007B681B686FF00C021A607B681B681B68C7
:104BB80003F00103012B0CBF01230023DBB2FB60D0
:104BC8007B681B685B6803F04003402B0CBF012324
:104BD8000023DBB2BB60FB68002B17D0BB68002B3F
:104BE80014D07B681B681B6803F00103012B0DD1EF
:104BF8007B681B6C43F480327B681A64786800F029
:104C08004DF87B681B686FF001021A607B681B68AF
:104C18001B6803F02003202B0CBF01230023DBB209
:104C2800FB607B681B685B6803F08063B3F1806F8F
:104C38000CBF01230023DBB2BB60FB68002B15D03F
:104C4800BB68002B12D07B685B6C43F002027B6868
:104C58005A647B681B686FF020021A60786800F05D
:104C680027F87B681B686FF020021A6000BF1037B6
:104C7800BD4680BD80B483B000AF786000BF0C37FC
:104C8800BD465DF8047B704780B483B000AF7860A0
:104C980000BF0C37BD465DF8047B704780B483B015
:104CA80000AF786000BF0C37BD465DF8047B7047E5
:104CB80080B483B000AF786000BF0C37BD465DF8A4
:104CC800047B704780B485B000AF786039600023FA
:104CD800BB607B6893F83C30012B01D1022305E1CE
:104CE8007B68012283F83C203B681B68092B25D987
:104CF8007B681B68D9683B681B689BB21A461346D9
:104D08005B0013441E3B072202FA03F3DA437B6875
:104D18001B680A40DA607B681B68D9683B689A6838
:104D28003B681B689BB2184603465B0003441E3B66
:104D38009A407B681B680A43DA6022E07B681B683C
:104D480019693B681B689BB21A4613465B001344FB
:104D5800072202FA03F3DA437B681B680A401A61E8
:104D68007B681B6819693B689A683B681B689BB23B
:104D7800184603465B0003449A407B681B680A4355
:104D88001A613B685B68062B24D87B681B68596BE3
:104D98003B685A6813469B001344053B1F2202FADE
:104DA80003F3DA437B681B680A405A637B681B6815
:104DB800596B3B681B689BB218463B685A68134698
:104DC8009B001344053B00FA03F27B681B680A4307
:104DD8005A634CE03B685B680C2B24D87B681B68E3
:104DE800196B3B685A6813469B001344233B1F22E8
:104DF80002FA03F3DA437B681B680A401A637B688C
:104E08001B68196B3B681B689BB218463B685A685D
:104E180013469B001344233B00FA03F27B681B688C
:104E28000A431A6323E07B681B68D96A3B685A689F
:104E380013469B001344413B1F2202FA03F3DA4353
:104E48007B681B680A40DA627B681B68D96A3B6822
:104E58001B689BB218463B685A6813469B0013446C
:104E6800413B00FA03F27B681B680A43DA62224B73
:104E7800FB607B681B68214A934209D13B681B6829
:104E8800122B05D1FB685B6843F48002FB685A600B
:104E98007B681B68194A934223D13B681B68102B17
:104EA80003D03B681B68112B1BD1FB685B6843F47C
:104EB8000002FB685A603B681B68102B11D1104B2D
:104EC8001B68104AA2FB03239A0C13469B00134449
:104ED8005B00BB6002E0BB68013BBB60BB68002BAA
:104EE800F9D17B68002283F83C2000231846143748
:104EF800BD465DF8047B7047002301400020014057
:104F0800CC08002083DE1B4380B485B000AF7860F6
:104F1800794BFB60FB685B6823F44032FB685A609E
:104F2800FB685A687B685B681A43FB685A607B6851
:104F38001B685A687B681B6822F480725A607B6819
:104F48001B6859687B681B691A027B681B680A43DF
:104F58005A607B681B685A687B681B6822F040723D
:104F68005A607B681B6859687B689A687B681B680D
:104F78000A435A607B681B689A687B681B6822F43E
:104F880000629A607B681B6899687B68DA687B684E
:104F98001B680A439A607B689B6A584A934222D0EE
:104FA8007B681B689A687B681B6822F070629A604D
:104FB8007B681B6899687B689A6A7B681B680A43E8
:104FC8009A607B681B689A687B681B6822F040526D
:104FD8009A607B681B6899687B68DA6A7B681B68DB
:104FE8000A439A600FE07B681B689A687B681B68B5
:104FF80022F070629A607B681B689A687B681B68FD
:1050080022F040529A607B681B689A687B681B682C
:1050180022F002029A607B681B6899687B681B7E95
:105028005A007B681B680A439A607B6893F82030B3
:10503800002B1BD07B681B685A687B681B6842F48E
:1050480000625A607B681B685A687B681B6822F498
:1050580060425A607B681B6859687B685B6A013BE1
:105068005A037B681B680A435A6007E07B681B6821
:105078005A687B681B6822F400625A607B681B6868
:10508800DA6A7B681B6822F47002DA627B681B6844
:10509800D96A7B68DB69013B1A057B681B680A4390
:1050A800DA627B681B689A687B681B6822F4007266
:1050B8009A607B681B6899687B6893F830305A025D
:1050C8007B681B680A439A607B681B689A687B68E0
:1050D8001B6822F480629A607B681B6899687B6809
:1050E8005B699A027B681B680A439A6000BF1437A1
:1050F800BD465DF8047B7047002301400100000FA6
:1051080080B487B000AF78600023BB6000237B6168
:1051180000233B617B6893F83C30012B01D10223CB
:105128009DE07B68012283F83C207B681B689B68B4
:1051380003F00103012B18D07B681B689A687B6811
:105148001B6842F001029A60484B1B68484AA2FB60
:1051580003239A0C13465B001344BB6002E0BB6850
:10516800013BBB60BB68002BF9D17B681B689B685F
:1051780003F00103012B71D17B681B6C23F44053AE
:1051880023F0010343F480527B681A647B681B6C2C
:1051980003F48073002B02D17B6800225A647B6879
:1051A800002283F83C207B681B686FF004021A60B9
:1051B800304BFB60FB685B6803F01F03002B24D1B6
:1051C8007B681B689B6803F44013002B0CBF01230A
:1051D8000023DBB27B617B681B685B6803F4806338
:1051E800002B0CBF01230023DBB23B617B69002B42
:1051F80034D03B69002B31D07B681B689A687B6888
:105208001B6842F480029A6028E07B681B689B68F0
:1052180003F44013002B0CBF01230023DBB27B6196
:105228007B681B685B6803F48063002B0CBF012359
:105238000023DBB23B617B681B680F4A93420DD1A8
:105248007B69002B0AD03B69002B07D07B681B6861
:105258009A687B681B6842F480029A6000231846AB
:105268001C37BD465DF8047B704700BFCC080020A2
:1052780083DE1B43002301400020014080B487B037
:1052880000AF78600023BB6000237B6100233B6193
:105298007B6893F83C30012B01D10223A5E07B68A1
:1052A800012283F83C207B681B689B6803F001039C
:1052B800012B18D07B681B689A687B681B6842F0D2
:1052C80001029A604C4B1B684C4AA2FB03239A0CC0
:1052D80013465B001344BB6002E0BB68013BBB6044
:1052E800BB68002BF9D17B681B689B6803F001033E
:1052F800012B79D17B681B6C23F4405323F0010305
:1053080043F480527B681A647B681B6C03F48073D7
:10531800002B02D17B6800225A647B68002283F844
:105328003C207B681B686FF004021A607B681B686E
:105338005A687B681B6842F080025A60304BFB60F9
:10534800FB685B6803F01F03002B24D17B681B6894
:105358009B6803F44013002B0CBF01230023DBB22E
:105368007B617B681B685B6803F48063002B0CBF60
:1053780001230023DBB23B617B69002B34D03B69FE
:10538800002B31D07B681B689A687B681B6842F4E5
:1053980080029A6028E07B681B689B6803F44013CE
:1053A800002B0CBF01230023DBB27B617B681B68E9
:1053B8005B6803F48063002B0CBF01230023DBB27E
:1053C8003B617B681B680F4A93420DD17B69002BB8
:1053D8000AD03B69002B07D07B681B689A687B68FA
:1053E8001B6842F480029A60002318461C37BD46A9
:1053F8005DF8047B704700BFCC08002083DE1B43A8
:10540800002301400020014080B485B000AF7860DF
:1054180039600023FB607B681B686FF004021A6028
:105428003B68013B032B1FD801A252F823F000BFB1
:10543800675400085D540008535400084954000894
:105448007B681B689B6CFB600FE07B681B685B6C70
:10545800FB600AE07B681B681B6CFB6005E07B68EF
:105468001B68DB6BFB6000E000BFFB681846143765
:10547800BD465DF8047B704780B586B000AFF86024
:10548800B9607A6000233B61FB6893F83C30012BDC
:1054980001D102239EE0FB68012283F83C20FB68CF
:1054A8001B689B6803F00103012B18D0FB681B687D
:1054B8009A68FB681B6842F001029A60474B1B68B8
:1054C800474AA2FB03239A0C13465B0013443B6133
:1054D80002E03B69013B3B613B69002BF9D1FB686A
:1054E8001B689B6803F00103012B72D1FB681B6CDE
:1054F80023F4E06323F0010343F48072FB681A6429
:10550800FB681B685B6803F48063002B07D0FB68AB
:105518001B6C23F4405343F48052FB681A64FB6805
:105528001B6C03F48053B3F5805F06D1FB685B6C9A
:1055380023F00602FB685A6402E0FB6800225A6402
:10554800FB68002283F83C20FB689B6B254ADA63E2
:10555800FB689B6B244A1A64FB689B6B234ADA64DA
:10556800FB681B686FF002021A60FB681B685A68C8
:10557800FB681B6842F080625A601D4B7B61FB68C8
:1055880093F83030002B06D07B695B6843F40052F7
:105598007B695A6005E07B695B6823F400527B698C
:1055A8005A60FB68986B7B6908331946BA687B6850
:1055B80000F004FCFB681B689B6803F04053002B59
:1055C80007D1FB681B689A68FB681B6842F0804239
:1055D8009A60002318461837BD4680BDCC080020C5
:1055E80083DE1B43B55900085B5A0008775A000848
:1055F8000023014080B485B000AF786039607B68D3
:1056080093F83C30012B01D102237DE17B68012214
:1056180083F83C203B681B68092B25D97B681B68ED
:10562800D9683B681B689BB21A4613465B00134453
:105638001E3B072202FA03F3DA437B681B680A4021
:10564800DA607B681B68D9683B689A683B681B68A6
:105658009BB2184603465B0003441E3B9A407B6896
:105668001B680A43DA6022E07B681B6819693B689B
:105678001B689BB21A4613465B001344072202FAC2
:1056880003F3DA437B681B680A401A617B681B686E
:1056980019693B689A683B681B689BB218460346C1
:1056A8005B0003449A407B681B680A431A617B6865
:1056B8001B689A6B7B681B6822F440129A637B68AC
:1056C8001B68996B3B681B69013B1A057B681B6863
:1056D8000A439A637B681B68996B3B685B68DAB21C
:1056E8003B681B69DBB2D31ADBB20333DBB21A4661
:1056F80013469B0013441F2202FA03F3DA437B6824
:105708001B680A409A637B681B68996B3B681B6837
:105718009BB218463B685B68DAB23B681B69DBB230
:10572800D31ADBB20333DBB21A4613469B00134489
:1057380000FA03F27B681B680A439A633B689B691B
:10574800744A934222D07B681B689A687B681B68FE
:1057580022F470229A607B681B6899683B689A6992
:105768007B681B680A439A607B681B689A687B6839
:105778001B6822F440129A607B681B6899683B6832
:10578800DA697B681B680A439A600FE07B681B68CC
:105798009A687B681B6822F470229A607B681B6891
:1057A8009A687B681B6822F440129A603B685B7DAC
:1057B800002B08D07B681B685A687B681B6842F41A
:1057C80080625A6007E07B681B685A687B681B68C0
:1057D80022F480625A603B681B7D002B08D07B68EE
:1057E8001B685A687B681B6842F480525A6007E05D
:1057F8007B681B685A687B681B6822F480525A6071
:105808003B685B68032B2ED0032B40D8012B02D0BA
:10581800022B14D03BE07B681B685B697A681268CE
:1058280023F47F6323F00F0353617B681B68596976
:105838003B68DA687B681B680A435A613BE07B680F
:105848001B689B697A68126823F47F6323F00F034F
:1058580093617B681B6899693B68DA687B681B6899
:105868000A439A6127E07B681B68DB697A681268DB
:1058780023F47F6323F00F03D3617B681B68D96926
:105888003B68DA687B681B680A43DA6113E07B6867
:105898001B681B6A7A68126823F47F6323F00F037E
:1058A80013627B681B68196A3B68DA687B681B6847
:1058B8000A431A6200BF184BFB607B681B68174AD3
:1058C800934209D13B681B68122B05D1FB685B68C2
:1058D80043F48002FB685A607B681B680F4A934256
:1058E8000DD13B681B68102B03D03B681B68112B3C
:1058F80005D1FB685B6843F40002FB685A607B686B
:10590800002283F83C20002318461437BD465DF872
:10591800047B704701000F00002301400020014074
:1059280080B485B000AF786039607B6893F83C300C
:10593800012B01D1022331E07B68012283F83C204E
:10594800194BFB60FB685B6823F01F02FB685A6019
:10595800FB685A683B681B681A43FB685A60FB6817
:105968005B6823F44042FB685A60FB685A683B68EE
:105978005B681A43FB685A60FB685B6823F47062D3
:10598800FB685A60FB685A683B689B681A43FB6867
:105998005A607B68002283F83C200023184614379D
:1059A800BD465DF8047B70470023014080B584B094
:1059B80000AF78607B689B6BFB60FB681B6C03F037
:1059C8005003002B3CD1FB681B6C43F40072FB684E
:1059D8001A64FB681B689B6803F04053002B2BD1AB
:1059E800FB681B7E002B27D1FB681B68DB6A03F46E
:1059F8007003002B06D0FB681B689B6803F4806368
:105A0800002B19D1FB681B685A68FB681B6822F0D9
:105A180020025A60FB681B6C23F48072FB681A64CE
:105A2800FB681B6C03F48053002B05D1FB681B6CCF
:105A380043F00102FB681A64F868FFF71BF904E0F9
:105A4800FB689B6BDB6C7868984700BF1037BD46D6
:105A580080BD80B584B000AF78607B689B6BFB60CD
:105A6800F868FFF711F900BF1037BD4680BD80B553
:105A780084B000AF78607B689B6BFB60FB6840225A
:105A88001A64FB685B6C43F00402FB685A64F868AC
:105A9800FFF70EF900BF1037BD4680BD80B485B052
:105AA80000AF78607B6803F00703FB600C4BDB6892
:105AB800BB60BA684FF6FF031340BB60FB681A026D
:105AC800BB68134343F0BF6343F40033BB60044A2D
