:020000040800F2
:10000000000002208D200008AD180008BB18000871
:10001000C1180008C7180008CD180008000000002B
:10002000000000000000000000000000D3180008DD
:10003000E118000800000000EF180008FD18000893
:10004000E1200008E1200008E1200008E12000088C
:10005000E1200008E1200008E1200008E12000087C
:10006000E1200008E1200008E1200008E12000086C
:10007000E1200008E1200008E1200008E12000085C
:10008000E1200008E12000080D190008E120000827
:10009000E1200008E1200008E1200008E12000083C
:1000A000E1200008E1200008E1200008E12000082C
:1000B000E1200008E1200008E1200008E12000081C
:1000C000E1200008E1200008E1200008E12000080C
:1000D000E1200008E1200008E1200008E1200008FC
:1000E000E1200008E1200008E1200008E1200008EC
:1000F000E120000835190008E1200008E12000088F
:10010000E1200008E1200008E1200008491900086A
:10011000E1200008E12000085D19000871190008BD
:100120008519000899190008AD190008E120000898
:10013000E12000080000000000000000E1200008AD
:10014000E1200008E1200008E1200008C1190008B2
:10015000E1200008E1200008E1200008E12000087B
:10016000E1200008E1200008E1200008E12000086B
:10017000E1200008E120000800000000000000006D
:08018000E1200008E120000865
:1001900010B5054C237833B9044B13B10448AFF3C1
:1001A00000800123237010BDE00800200000000043
:1001B0000CEB000808B5034B1BB103490348AFF330
:1001C000008008BD00000000E40800200CEB0008DF
:1001D00001F0FF01102A2BDB10F0070F08D010F8F8
:1001E000013B013A8B422DD010F0070F42B3F6D1FC
:1001F000F0B441EA012141EA014122F007047FF015
:1002000000070023F0E80256083C85EA010586EA6B
:10021000010685FA47F5A3FA87F586FA47F6A5FAA7
:1002200087F68EB9EED1F0BC01F0FF0102F00702B3
:1002300032B110F8013B013A83EA010313B1F8D15E
:100240000020704701387047002D06BF354603383F
:10025000073815F0010F07D1013015F4807F02BF78
:10026000013015F4C03F0130F0BC0138704700BFC9
:1002700070B54FF0FF0C4CF4E06C1CEA11541DBF3C
:100280001CEA135594EA0C0F95EA0C0F00F0DEF807
:100290002C4481EA030621EA4C5123EA4C5350EAEC
:1002A000013518BF52EA033541F4801143F480133D
:1002B00038D0A0FB02CE4FF00005E1FB02E506F0CE
:1002C0000042E0FB03E54FF00006E1FB03569CF023
:1002D000000F18BF4EF0010EA4F1FF04B6F5007F29
:1002E00064F5407404D25FEA4E0E6D4146EB06069B
:1002F00042EAC62141EA55514FEAC52040EA5E5024
:100300004FEACE2EB4F1FD0C88BFBCF5E06F1ED8CD
:10031000BEF1004F08BF5FEA500E50F1000041EB04
:10032000045170BD06F0004646EA010140EA0200B1
:1003300081EA0301B4EB5C04C2BFD4EB0C0541EAD3
:10034000045170BD41F480114FF0000E013C00F3E8
:10035000AB8014F1360FDEBF002001F0004170BD0C
:10036000C4F10004203C35DA0C341BDC04F1140425
:10037000C4F1200500FA05F320FA04F001FA05F2B1
:1003800040EA020001F0004221F0004110EBD3707E
:1003900021FA04F642EB06015EEA430E08BF20EAAA
:1003A000D37070BDC4F10C04C4F1200500FA04F34D
:1003B00020FA05F001FA04F240EA020001F00041DF
:1003C00010EBD37041F100015EEA430E08BF20EA52
:1003D000D37070BDC4F1200500FA05F24EEA020E9A
:1003E00020FA04F301FA05F243EA020321FA04F0C9
:1003F00001F0004121FA04F220EA020000EBD37080
:100400005EEA430E08BF20EAD37070BD94F0000F7F
:100410000FD101F00046400041EB010111F4801FB3
:1004200008BF013CF7D041EA060195F0000F18BF64
:10043000704703F00046520043EB030313F4801FA0
:1004400008BF013DF7D043EA0603704794EA0C0F5A
:100450000CEA135518BF95EA0C0F0CD050EA410670
:1004600018BF52EA4306D1D181EA030101F00041ED
:100470004FF0000070BD50EA410606BF1046194615
:1004800052EA430619D094EA0C0F02D150EA013621
:1004900013D195EA0C0F05D152EA03361CBF104662
:1004A00019460AD181EA030101F0004141F0FE4101
:1004B00041F470014FF0000070BD41F0FE4141F485
:1004C000780170BD81F0004102E000BF83F000437D
:1004D00030B54FEA41044FEA430594EA050F08BFDF
:1004E00090EA020F1FBF54EA000C55EA020C7FEAA3
:1004F000645C7FEA655C00F0E2804FEA5454D4EB20
:100500005555B8BF6D420CDD2C4480EA020281EAE9
:10051000030382EA000083EA010180EA020281EA21
:100520000303362D88BF30BD11F0004F4FEA013173
:100530004FF4801C4CEA113102D0404261EB410182
:1005400013F0004F4FEA03334CEA133302D0524208
:1005500063EB430394EA050F00F0A780A4F10104C4
:10056000D5F1200E0DDB02FA0EFC22FA05F28018FE
:1005700041F1000103FA0EF2801843FA05F35941E4
:100580000EE0A5F120050EF1200E012A03FA0EFC63
:1005900028BF4CF0020C43FA05F3C01851EBE3718D
:1005A00001F0004507D54FF0000EDCF1000C7EEBAA
:1005B00000006EEB0101B1F5801F1BD3B1F5001FE8
:1005C0000CD349085FEA30004FEA3C0C04F1010407
:1005D0004FEA445212F5800F80F09A80BCF1004F30
:1005E00008BF5FEA500C50F1000041EB045141EAB2
:1005F000050130BD5FEA4C0C404141EB0101013C7B
:1006000028BFB1F5801FE9D291F0000F04BF014669
:100610000020B1FA81F308BF2033A3F10B03B3F13B
:1006200020020CDA0C3208DD02F1140CC2F10C02CB
:1006300001FA0CF021FA02F10CE002F11402D8BF29
:10064000C2F1200C01FA02F120FA0CFCDCBF41EAF5
:100650000C019040E41AA2BF01EB0451294330BDC4
:100660006FEA04041F3C1CDA0C340EDC04F11404A1
:10067000C4F1200220FA04F001FA02F340EA030078
:1006800021FA04F345EA030130BDC4F10C04C4F1BE
:10069000200220FA02F001FA04F340EA030029469E
:1006A00030BD21FA04F0294630BD94F0000F83F4E8
:1006B000801306BF81F480110134013D4EE77FEACB
:1006C000645C18BF7FEA655C29D094EA050F08BF17
:1006D00090EA020F05D054EA000C04BF19461046F8
:1006E00030BD91EA030F1EBF0021002030BD5FEA3C
:1006F000545C05D14000494128BF41F0004130BD64
:1007000014F580043CBF01F5801130BD01F00045B7
:1007100045F0FE4141F470014FF0000030BD7FEA2A
:10072000645C1ABF194610467FEA655C1CBF0B4625
:10073000024650EA013406BF52EA033591EA030F3C
:1007400041F4002130BD00BF90F0000F04BF002134
:10075000704730B54FF4806404F132044FF0000567
:100760004FF0000150E700BF90F0000F04BF0021E0
:10077000704730B54FF4806404F1320410F0004546
:1007800048BF40424FF000013EE700BF42004FEA41
:10079000E2014FEA31014FEA02701FBF12F07F43BE
:1007A00093F07F4F81F06051704732F07F4208BF75
:1007B000704793F07F4F04BF41F40021704730B57C
:1007C0004FF4607401F0004521F000411CE700BFC8
:1007D00050EA010208BF704730B54FF000050AE04B
:1007E00050EA010208BF704730B511F0004502D54C
:1007F000404261EB41014FF4806404F132045FEA4E
:10080000915C3FF4D8AE4FF003025FEADC0C18BFF6
:1008100003325FEADC0C18BF033202EBDC02C2F1E8
:10082000200300FA03FC20FA02F001FA03FE40EA7A
:100830000E0021FA02F11444BDE600BF4FF0FF3C68
:1008400006E000BF4FF0010C02E000BF4FF0010CCA
:100850004DF804CD4FEA410C7FEA6C5C4FEA430C43
:1008600018BF7FEA6C5C1BD001B050EA410C0CBF92
:1008700052EA430C91EA030F02BF90EA020F0020F4
:10088000704710F1000F91EA030F58BF994208BF5B
:1008900090422CBFD8176FEAE37040F00100704718
:1008A0004FEA410C7FEA6C5C02D150EA013C07D16F
:1008B0004FEA430C7FEA6C5CD6D152EA033CD3D0BA
:1008C0005DF8040B704700BF8446104662468C46B4
:1008D0001946634600E000BF01B5FFF7B7FF0028E7
:1008E00048BF10F1000F01BD4DF808EDFFF7F4FF10
:1008F0000CBF012000205DF808FB00BF4DF808ED9B
:10090000FFF7EAFF34BF012000205DF808FB00BFBD
:100910004DF808EDFFF7E0FF94BF012000205DF8DF
:1009200008FB00BF4DF808EDFFF7CEFF94BF012094
:1009300000205DF808FB00BF4DF808EDFFF7C4FF8D
:1009400034BF012000205DF808FB00BF4FEA4102E0
:10095000B2F1E04324BFB3F5001CDCF1FE5C0DD91D
:1009600001F0004C4FEAC0024CEA5070B2F1004F67
:1009700040EB830008BF20F00100704711F0804F6A
:1009800021D113F13872BCBF01F00040704741F42F
:1009900080114FEA5252C2F11802C2F1200C10FA33
:1009A0000CF320FA02F018BF40F001004FEAC12317
:1009B0004FEAD32303FA0CFC40EA0C0023FA02F3BB
:1009C0004FEA4303CCE77FEA625307D150EA013391
:1009D0001EBF4FF0FE4040F44000704701F0004061
:1009E00040F0FE4040F40000704700BF53B94AB9E0
:1009F000002908BF00281CBF4FF0FF314FF0FF3027
:100A000000F06EB9ADF1080C6DE904CE00F006F807
:100A1000DDF804E0DDE9022304B070472DE9F0477A
:100A2000089D04468C46002B40F083808A4217467E
:100A300047D9B2FA82F242B1C2F1200024FA00F0A2
:100A40009140974040EA010C94404FEA1748230C2C
:100A5000BCFBF8F61FFA87FE08FB16C143EA014308
:100A600006FB0EF1994209D9FB1806F1FF3080F020
:100A70001981994240F21681023E3B445B1AA4B2AE
:100A8000B3FBF8F008FB103344EA034400FB0EFE0E
:100A9000A64509D93C1900F1FF3380F00581A64530
:100AA00040F2028102383C4440EA0640A4EB0E04C6
:100AB00000261DB1D4400023C5E900433146BDE8FE
:100AC000F08702B9FFDEB2FA82F2002A50D1CB1BC6
:100AD0004FEA174E1FFA87F80126B3FBFEFC210CE4
:100AE0000EFB1C3341EA034108FB0CF38B4207D990
:100AF00079180CF1FF3002D28B4200F2E980844673
:100B0000C91AA3B2B1FBFEF00EFB101143EA014477
:100B100008FB00F8A04507D93C1900F1FF3302D2C9
:100B2000A04500F2D9801846A4EB080440EA0C4026
:100B3000BFE78B4209D9002D00F0B1800026C5E93E
:100B4000000130463146BDE8F087B3FA83F6002E47
:100B50004AD18B4202D3824200F2B880841A61EB00
:100B6000030101208C46002DA8D0C5E9004CA5E763
:100B7000C2F1200320FA03F6974001FA02F04FEA8F
:100B8000174ED9403043030CB1FBFEF61FFA87F82D
:100B90000EFB161143EA014306FB08F1994204FAE1
:100BA00002F409D9FB1806F1FF3C80F08D809942D0
:100BB00040F28A80023E3B445B1A81B2B3FBFEF0F6
:100BC0000EFB103341EA034100FB08F38B4207D9C7
:100BD000791800F1FF3C73D28B4271D90238394445
:100BE000CB1A40EA064678E7C6F1200C03FA06F471
:100BF00022FA0CF31C4320FA0CF701FA06F34FEA31
:100C0000144E21FA0CF11F433B0CB1FBFEF91FFA05
:100C100084F80EFB191143EA014109FB08FA8A45E1
:100C200002FA06F200FA06F308D9611809F1FF305A
:100C300048D28A4546D9A9F102092144A1EB0A010B
:100C4000BFB2B1FBFEF00EFB101147EA014700FBFB
:100C500008F8B84507D9E71900F1FF312ED2B84599
:100C60002CD90238274440EA0940A7EB0807A0FB2B
:100C700002894F45C64649461AD317D05DB1B3EB3A
:100C80000E0267EB010707FA0CFCF2404CEA020285
:100C9000F740C5E9002700263146BDE8F0872E461B
:100CA00028460BE70646E9E61846FDE64345E5D249
:100CB000B8EB020E69EB04010138DFE70846D2E722
:100CC00060468DE78146B9E7664675E730464AE7F4
:100CD000ACF1020C394413E702383C4424E700BF6E
:100CE000704700BF80B590B000AF07F13403002219
:100CF0001A605A609A6007F1240300221A605A6051
:100D00009A60DA603B1D2022002118460CF06CFF2F
:100D1000394B3A4A1A60384B4FF480325A60364B9E
:100D200000229A60344B00221A61334B00221A765B
:100D3000314B002283F820202F4B0022DA622E4B09
:100D40002F4A9A622C4B0022DA602B4B0122DA6187
:100D5000294B012283F83020274B01225A61264873
:100D600004F07CFF0346002B01D000F08DFC112322
:100D70007B634FF48043BB630023FB6307F13403C1
:100D800019461D4805F044FF0346002B01D000F032
:100D90007BFC06237B620123BB620123FB6207F11C
:100DA00024031946144805F005F90346002B01D029
:100DB00000F06AFC06237B600123BB6001237B619A
:100DC0000123FB604FF480133B620023FB6100238F
:100DD0007B7600233B7600233B613B1D194606488A
:100DE00005F080FD0346002B01D000F04DFC00BF54
:100DF0004037BD4680BD00BFB80A0020002001403A
:100E00000100000F80B58CB000AF07F12003002275
:100E10001A605A609A60DA603B4620220021184628
:100E20000CF0E2FE2A4B2B4A1A60294B4FF4803219
:100E30005A60274B00229A60254B00221A61244BEE
:100E400000221A76224B002283F82020204B002219
:100E5000DA601F4B0122DA611D4B012283F830203A
:100E60001B4B01225A611A4804F0F8FE0346002B7E
:100E700001D000F009FC0D233B6201237B620123BA
:100E8000BB6207F120031946114805F093F80346A9
:100E9000002B01D000F0F8FB0A233B6001237B60AC
:100EA00001233B610123BB6001237B7500233B755C
:100EB0000023FB603B461946054805F013FD034639
:100EC000002B01D000F0E0FB00BF3037BD4680BDF5
:100ED000100A00200021014080B58CB000AF07F15E
:100EE000200300221A605A609A60DA603B46202292
:100EF000002118460CF078FE2A4B2B4A1A60294B29
:100F00004FF480325A60274B00229A60254B002212
:100F10001A61244B00221A76224B002283F82020EB
:100F2000204B0022DA601F4B0122DA611D4B0122A7
:100F300083F830201B4B01225A611A4804F08EFEC0
:100F40000346002B01D000F09FFB0C233B620123E2
:100F50007B620123BB6207F120031946114805F0AB
:100F600029F80346002B01D000F08EFB0B233B60D9
:100F700001237B6001233B610123BB6001237B755F
:100F800000233B750023FB603B461946054805F0EE
:100F9000A9FC0346002B01D000F076FB00BF3037E0
:100FA000BD4680BD000B00200022014080B590B0FE
:100FB00000AF786007F12C0300221A605A609A6033
:100FC000DA601A617B681B687F4A93427AD10023FA
:100FD000BB627E4B5B6C7D4A43F4807353647B4BF6
:100FE0005B6C03F48073BB62BB6A00237B62774B4C
:100FF0001B6B764A43F004031363744B1B6B03F0C3
:1010000004037B627B6A00233B62704B1B6B6F4A5D
:1010100043F0010313636D4B1B6B03F001033B6251
:101020003B6A2F23FB6203233B6300237B6307F1AF
:101030002C031946664806F06BFD7023FB62032300
:101040003B6300237B6307F12C031946614806F0DC
:101050005FFD614B614A1A605F4B00225A605E4B34
:1010600000229A605C4B0022DA605B4B4FF4806296
:101070001A61594B4FF400625A61574B4FF40052BA
:101080009A61554B4FF48072DA61534B00221A6219
:10109000514B00225A62504805F0AAFF0346002B2C
:1010A00001D000F0F1FA7B684B4A9A634A4A7B68A8
:1010B000936300220021122005F020FF122005F08A
:1010C00039FFF9E07B681B68454A934240F08E8007
:1010D0000023FB613D4B5B6C3C4A43F4007353645B
:1010E0003A4B5B6C03F40073FB61FB690023BB614B
:1010F000364B1B6B354A43F004031363334B1B6BB6
:1011000003F00403BB61BB6900237B612F4B1B6BA6
:101110002E4A43F0010313632C4B1B6B03F00103B6
:101120007B617B692F23FB6203233B6300237B638B
:1011300007F12C031946264806F0EAFC7023FB62EF
:1011400003233B6300237B6307F12C0319462148EB
:1011500006F0DEFC234B244A1A60224B4FF000724B
:101160005A60204B00229A601E4B0022DA601D4B11
:101170004FF480621A611B4B4FF400625A61194BA5
:101180004FF400529A61174B4FF48072DA61154B9D
:1011900000221A62134B00225A62124805F028FFFF
:1011A0000346002B01D000F06FFA7B680D4A9A636A
:1011B0000C4A7B68936300220021122005F09EFEFA
:1011C000122005F0B7FE77E0002001400038024011
:1011D0000008024000000240480B0020106402405A
:1011E00000210140A80B0020406402407B681B687E
:1011F000334A934260D100233B61324B5B6C314AEE
:1012000043F4806353642F4B5B6C03F480633B6156
:101210003B690023FB602B4B1B6B2A4A43F0040302
:101220001363284B1B6B03F00403FB60FB680F2365
:10123000FB6203233B6300237B6307F12C03194606
:10124000214806F065FC214B214A1A601F4B4FF0E4
:1012500080625A601D4B00229A601C4B0022DA60AB
:101260001A4B4FF480621A61184B4FF400625A61B6
:10127000164B4FF400529A61144B4FF48072DA61AE
:10128000124B00221A62114B00225A620F4805F0DD
:10129000AFFE0346002B01D000F0F6F97B680B4A45
:1012A0009A630A4A7B68936300220021122005F0AA
:1012B00025FE122005F03EFE00BF4037BD4680BD32
:1012C000002201400038024000080240580A002075
:1012D0002864024080B500AF064B074A1A600548F3
:1012E00005F036FE0346002B01D000F0CDF900BF1B
:1012F00080BD00BF080C00200030024080B485B0E3
:1013000000AF78607B681B680B4A93420DD10023C5
:10131000FB600A4B1B6B094A43F480531363074B72
:101320001B6B03F48053FB60FB6800BF1437BD46A2
:101330005DF8047B704700BF003002400038024077
:1013400080B582B000AF00237B60144B1B6B134A47
:1013500043F480031363114B1B6B03F480037B6026
:101360007B6800220021382005F0C8FD382005F0F8
:10137000E1FD00220021392005F0C0FD392005F0F3
:10138000D9FD002200213A2005F0B8FD3A2005F0F1
:10139000D1FD00BF0837BD4680BD00BF0038024008
:1013A00080B58AB000AF07F1140300221A605A60BA
:1013B0009A60DA601A6100233B615C4B1B6B5B4AED
:1013C00043F004031363594B1B6B03F004033B61AD
:1013D0003B690023FB60554B1B6B544A43F0800371
:1013E0001363524B1B6B03F08003FB60FB6800230D
:1013F000BB604E4B1B6B4D4A43F0010313634B4BD9
:101400001B6B03F00103BB60BB6800237B60474B91
:101410001B6B464A43F002031363444B1B6B03F000
:1014200002037B607B6800233B60404B1B6B3F4AA1
:1014300043F0080313633D4B1B6B03F008033B6051
:101440003B6801224FF40051394806F0FDFC0022B0
:101450004FF48051374806F0F7FC0022042136484B
:1014600006F0F2FC4FF400537B610123BB610023C3
:10147000FB6100233B6207F1140319462C4806F078
:1014800047FB4CF2D0137B610323BB610023FB615C
:1014900007F114031946264806F03AFB48F28F0379
:1014A0007B610323BB610023FB6107F11403194631
:1014B000224806F02DFB40F6CF737B610323BB610E
:1014C0000023FB6107F1140319461A4806F020FBBC
:1014D0004FF480537B610123BB610023FB61002338
:1014E0003B6207F114031946124806F011FB4FF452
:1014F00000737B610023BB610123FB6107F11403CF
:1015000019460B4806F004FB04237B610123BB61F1
:101510000023FB6103233B6207F1140319460648CD
:1015200006F0F6FA00BF2837BD4680BD00380240FD
:101530000008024000040240000C0240000002408B
:1015400080B500AF04F024FB00F020F802F0CEFCE0
:10155000FFF726FFFFF7F4FE00F018FB02F0F6FF9E
:1015600000F012FC00F046FC00F096F8FFF7BAFB22
:10157000FFF748FCFFF7B0FC00F0B2FBFFF7AAFE54
:1015800002F0BCFC02F032FBFCE7000080B594B036
:1015900000AF07F120033022002118460CF024FB95
:1015A00007F10C0300221A605A609A60DA601A612F
:1015B0000023BB60284B1B6C274A43F08053136405
:1015C000254B1B6C03F08053BB60BB6800237B6022
:1015D000224B1B68214A43F4804313601F4B1B6856
:1015E00003F480437B607B6801233B624FF48033CC
:1015F0007B620223BB634FF48003FB6304233B64E1
:10160000A8237B640223BB640723FB6407F1200348
:10161000184607F09DFD0346002B01D000F034F87A
:101620000F23FB6002233B6100237B614FF4A05337
:10163000BB614FF48053FB6107F10C030521184691
:1016400007F0F6FF0346002B01D000F01DF800BFA5
:101650005037BD4680BD00BF0038024000700040DA
:1016600080B582B000AF7860786802F08BFB7B6851
:101670001B68044A934201D104F0ACFA00BF08375A
:10168000BD4680BD0020004080B400AF00BFBD4615
:101690005DF8047B7047000080B500AF184B194A15
:1016A0001A60174B4FF482725A60154B00229A60F1
:1016B000134B4FF40062DA60114B00221A61104B99
:1016C00001225A610E4B4FF400729A610C4B20229A
:1016D000DA610B4B00221A62094B00225A62084B56
:1016E00000229A62064B0A22DA62054808F0BAF92B
:1016F0000346002B01D0FFF7C7FF00BF80BD00BF2E
:10170000100C0020003C004080B58AB000AF78602B
:1017100007F1140300221A605A609A60DA601A61B5
:101720007B681B681D4A934234D100233B611C4BEC
:101730001B6C1B4A43F400431364194B1B6C03F4EA
:1017400000433B613B690023FB60154B1B6B144A54
:1017500043F004031363124B1B6B03F00403FB60A1
:10176000FB684FF4E0537B610223BB610023FB6104
:1017700003233B6206237B6207F1140319460948E1
:1017800006F0C6F900220021332005F0B7FB332014
:1017900005F0D0FB00BF2837BD4680BD003C0040AF
:1017A000003802400008024080B483B000AF00233C
:1017B0007B60104B5B6C0F4A43F4804353640D4BCA
:1017C0005B6C03F480437B607B6800233B60094BC8
:1017D0001B6C084A43F080531364064B1B6C03F0E8
:1017E00080533B603B6800BF0C37BD465DF8047B0F
:1017F000704700BF0038024080B58CB000AF786001
:101800000023FB620023BB62002279682D2005F0D3
:1018100075FB2D2005F08EFB0023FB601F4B1B6C1E
:101820001E4A43F4807313641C4B1B6C03F48073D7
:10183000FB60FB6807F1100207F11403114618461C
:1018400008F0DEF808F0C8F803465B00FB62FB6AAC
:10185000134AA2FB03239B0C013BBB62114B124AB0
:101860001A60104B40F2E732DA600E4ABB6A5360EE
:101870000C4B00221A610B4B00229A60094808F0B9
:10188000F5FD0346002B04D1064808F01AFE034676
:1018900000E0012318463037BD4680BD00380240C5
:1018A00083DE1B43680C00200020004080B400AFA2
:1018B00000BFBD465DF8047B704780B400AFFEE713
:1018C00080B400AFFEE780B400AFFEE780B400AFA5
:1018D000FEE780B400AF00BFBD465DF8047B7047F3
:1018E00080B400AF00BFBD465DF8047B704780B494
:1018F00000AF00BFBD465DF8047B704780B400AF09
:1019000000BFBD465DF8047B7047000080B500AFA6
:10191000054804F0E6F9054804F0E3F9044804F04A
:10192000E0F900BF80BD00BFB80A0020100A002007
:10193000000B002080B500AF024808F019FF00BF7F
:1019400080BD00BF680C002080B500AF024808F0E1
:10195000C3FB00BF80BD00BF100C002080B500AFEE
:10196000024808F005FF00BF80BD00BFE80C002062
:1019700080B500AF024808F0FBFE00BF80BD00BF8D
:10198000680D002080B500AF024805F059FC00BF8B
:1019900080BD00BF480B002080B500AF024805F0B5
:1019A0004FFC00BF80BD00BF580A002080B500AFCB
:1019B000024805F045FC00BF80BD00BFA80B002019
:1019C00080B500AF024806F0A8FB00BF80BD00BF95
:1019D0007810002080B400AF01231846BD465DF8A2
:1019E000047B704780B582B000AF786039600CF03E
:1019F000A1F8034616221A604FF0FF331846083745
:101A0000BD4680BD80B582B000AF78604FF0FF3139
:101A10007868FFF7E7FFFEE780B586B000AFF860B3
:101A2000B9607A6000237B610AE0AFF30080014671
:101A3000BB685A1CBA60CAB21A707B6901337B61F9
:101A40007A697B689A42F0DB7B6818461837BD4696
:101A500080BD80B586B000AFF860B9607A600023C1
:101A60007B6109E0BB685A1CBA601B781846AFF36B
:101A700000807B6901337B617A697B689A42F1DB84
:101A80007B6818461837BD4680BD80B483B000AF70
:101A900078604FF0FF3318460C37BD465DF8047B85
:101AA000704780B483B000AF786039603B684FF412
:101AB00000525A60002318460C37BD465DF8047B7F
:101AC000704780B483B000AF7860012318460C37AC
:101AD000BD465DF8047B704780B485B000AFF86008
:101AE000B9607A60002318461437BD465DF8047B60
:101AF0007047000080B586B000AF7860144A154B7F
:101B0000D31A7B617B693B61134B1B68002B02D1AD
:101B1000114B124A1A60104B1A687B6813443A69D9
:101B20009A4207D20CF006F803460C221A604FF0D6
:101B3000FF3309E0084B1B68FB60074B1A687B68A2
:101B40001344054A1360FB6818461837BD4680BD2C
:101B50000000022000040000FC080020B81600204D
:101B600080B400AF084BD3F88830074A43F47003C1
:101B7000C2F88830044B4FF000629A6000BFBD4647
:101B80005DF8047B704700BF00ED00E080B592B0C7
:101B900000AF07F1400300221A605A6007F12403E6
:101BA00000221A605A609A60DA601A615A619A617A
:101BB0003B1D2022002118460CF016F8464B474AE0
:101BC0001A60454B00225A60434B60229A60424B98
:101BD00041F26702DA60404B00221A613E4B00225C
:101BE0005A613D4B80229A613B4808F08EFC0346C7
:101BF000002B01D0FFF748FD70233B6400237B647A
:101C000007F140031946344809F048FA0346002B0F
:101C100001D0FFF739FD70237B620023BB620023F4
:101C2000FB6200233B6300237B630023BB63002331
:101C3000FB6307F1240300221946274808F0A0FEA1
:101C40000346002B01D0FFF71FFD07F124030422F8
:101C50001946214808F094FE0346002B01D0FFF7F7
:101C600013FD07F12403082219461B4808F088FEDB
:101C70000346002B01D0FFF707FD3223BB6207F1BB
:101C800024030C221946144808F07AFE0346002B60
:101C900001D0FFF7F9FC00237B600023BB60002329
:101CA000FB6000233B6100237B614FF40053BB6169
:101CB00000233B623B1D1946074809F06BFA0346B7
:101CC000002B01D0FFF7E0FC034800F083F900BFD0
:101CD0004837BD4680BD00BF280D002000000140F0
:101CE00080B58CB000AF07F10C0324220021184608
:101CF0000BF07AFF3B1D00221A605A60204B214AEC
:101D00001A601F4B00225A601D4B00229A601C4B28
:101D10004FF6FF72DA601A4B00221A61184B00224C
:101D20009A610323FB6000233B6101237B61002355
:101D3000BB610423FB6100233B6201237B62002320
:101D4000BB620423FB6207F10C0319460C4808F040
:101D500045FC0346002B01D0FFF796FC00237B6077
:101D60000023BB603B1D1946054809F097F903465F
:101D7000002B01D0FFF788FC00BF3037BD4680BD87
:101D8000A80C00200004004080B582B000AF3B46A4
:101D900000221A605A60154B154A1A60134B012233
:101DA0005A60124B00229A60104B41F26702DA60CF
:101DB0000E4B00229A610D4808F058FB0346002B99
:101DC00001D0FFF761FC20233B6000237B603B4692
:101DD0001946064809F062F90346002B01D0FFF7C7
:101DE00053FC00BF0837BD4680BD00BFE80C002093
:101DF0000010004080B582B000AF3B4600221A6060
:101E00005A60154B154A1A60134B63225A60124BE5
:101E100000229A60104B41F26702DA600E4B0022FA
:101E20009A610D4808F022FB0346002B01D0FFF712
:101E30002BFC20233B6000237B603B461946064871
:101E400009F02CF90346002B01D0FFF71DFC00BF61
:101E50000837BD4680BD00BF680D0020001400405B
:101E600080B485B000AF78607B681B680B4A9342F2
:101E70000DD10023FB600A4B5B6C094A43F0010360
:101E80005364074B5B6C03F00103FB60FB6800BF0E
:101E90001437BD465DF8047B704700BF0000014069
:101EA0000038024080B58AB000AF786007F11403B3
:101EB00000221A605A609A60DA601A617B681B68B7
:101EC0001D4A934234D100233B611C4B1B6C1B4ABF
:101ED00043F002031364194B1B6C03F002033B61D4
:101EE0003B690023FB60154B1B6B144A43F0020354
:101EF0001363124B1B6B03F00203FB60FB68302380
:101F00007B610223BB610E4BB3F811309BB2002BF7
:101F100002D00123FB6101E00023FB6100233B624F
:101F200002237B6207F114031946064805F0F0FD11
:101F300000BF2837BD4680BD000400400038024085
:101F4000EC0100200004024080B584B000AF78604E
:101F50007B681B681C4A934216D10023FB601B4B15
:101F60001B6C1A4A43F010031364184B1B6C03F0EC
:101F70001003FB60FB6800220021362004F0BEFF46
:101F8000362004F0D7FF1AE07B681B68104A9342A2
:101F900015D10023BB600D4B1B6C0C4A43F0200392
:101FA00013640A4B1B6C03F02003BB60BB68002268
:101FB0000021372004F0A2FF372004F0BBFF00BF50
:101FC0001037BD4680BD00BF001000400038024001
:101FD0000014004080B58AB000AF786007F11403A8
:101FE00000221A605A609A60DA601A617B681B6886
:101FF000224A93423DD100233B61214B1B6B204A77
:1020000043F0020313631E4B1B6B03F002033B619F
:102010003B690023FB601A4B1B6B194A43F0010319
:102020001363174B1B6B03F00103FB60FB684FF45A
:1020300060437B610223BB610023FB6100233B62A1
:1020400001237B6207F1140319460E4805F060FD79
:102050004FF4E0637B610223BB610023FB6100233B
:102060003B6201237B6207F114031946064805F021
:102070004FFD00BF2837BD4680BD00BF00000140B6
:10208000003802400004024000000240DFF838D06F
:10209000002103E00D4B5B58435004310C480D4BBD
:1020A00042189A42F6D30C4A02E0002342F8043B5D
:1020B0000A4B9A42F9D3FFF753FD01F095FE0BF05E
:1020C00051FDFFF73DFA70470000022024ED0008A3
:1020D00000000020DC080020E0080020B4160020EA
:1020E000FEE7000080B588B000AF87ED010AC7EDBC
:1020F000000A4FF00003FB604FF00003BB604FF09D
:102100000003FB614FF00003BB614FF000037B61F4
:10211000D7ED007AF5EEC07AF1EE10FA2ADBD7EDB2
:10212000017AF5EEC07AF1EE10FA11DBD7ED007A04
:102130009FEDE27A67EE877A97ED017AB4EEE77A5F
:10214000F1EE10FA01D5022300E001233B613BE0F0
:10215000D7ED007A9FEDDA7A67EE877A97ED017A0C
:10216000B4EEE77AF1EE10FA01D5032300E0022382
:102170003B6129E0D7ED017AF5EEC07AF1EE10FA75
:1021800011DBD7ED007A9FEDCE7A67EE877A97ED77
:10219000017AB4EEE77AF1EE10FA01D5052300E0FA
:1021A00006233B6110E0D7ED007A9FEDC47A67EE1D
:1021B000877A97ED017AB4EEE77AF1EE10FA01D55D
:1021C000042300E005233B61D7ED017A9FEDBD7A42
:1021D00067EE877AC7ED017AD7ED007A9FEDB97A7D
:1021E00067EE877AC7ED007A3B69013B052B00F269
:1021F000598101A252F823F0112200087B22000825
:10220000ED2200085B230008C52300083B240008DA
:10221000D7ED007A9FEDA97A67EE877A97ED017A7C
:1022200077EE677AC7ED037AD7ED007A9FEDA67A4D
:1022300067EE877AC7ED027AB7EE007AD7ED037AB8
:1022400037EE677AD7ED027A77EE677AB6EE007AE4
:1022500067EE877AC7ED077A97ED077AD7ED037AAD
:1022600077EE277AC7ED067A97ED067AD7ED027AF0
:1022700077EE277AC7ED057A14E1D7ED007A9FED66
:102280008F7A67EE877A97ED017A77EE277AC7ED36
:10229000037AD7ED007A9FED897A27EE877AD7ED1A
:1022A000017A77EE677AC7ED027AB7EE007AD7ED5A
:1022B000037A37EE677AD7ED027A77EE677AB6EE71
:1022C000007A67EE877AC7ED067A97ED067AD7ED42
:1022D000027A77EE277AC7ED077A97ED077AD7ED7E
:1022E000037A77EE277AC7ED057ADBE0D7ED007A3F
:1022F0009FED757A67EE877AC7ED037AD7ED017A9D
:10230000B1EE677AD7ED007ADFED6C6A67EEA67AF8
:1023100077EE677AC7ED027AB7EE007AD7ED037AE7
:1023200037EE677AD7ED027A77EE677AB6EE007A03
:1023300067EE877AC7ED067A97ED067AD7ED037ACE
:1023400077EE277AC7ED057A97ED057AD7ED027A11
:1023500077EE277AC7ED077AA4E0D7ED007A9FEDF4
:10236000577A27EE877AD7ED017A77EE677AC7ED4D
:10237000037AD7ED007A9FED557A67EE877AC7ED3D
:10238000027AB7EE007AD7ED037A37EE677AD7EDA7
:10239000027A77EE677AB6EE007A67EE877AC7ED53
:1023A000057A97ED057AD7ED027A77EE277AC7EDB1
:1023B000067A97ED067AD7ED037A77EE277AC7ED9E
:1023C000077A6FE0D7ED017AB1EE677AD7ED007A40
:1023D000DFED3A6A67EEA67A77EE677AC7ED037AA1
:1023E000D7ED007A9FED357A67EE877A97ED017A1F
:1023F00077EE677AC7ED027AB7EE007AD7ED037A07
:1024000037EE677AD7ED027A77EE677AB6EE007A22
:1024100067EE877AC7ED057A97ED057AD7ED037AEF
:1024200077EE277AC7ED077A97ED077AD7ED027A2C
:1024300077EE277AC7ED067A34E0D7ED007A9FED84
:10244000237A67EE877AC7ED037AD7ED007A9FED9E
:102450001B7A67EE877A97ED017A77EE277AC7EDD8
:10246000027AB7EE007AD7ED037A37EE677AD7EDC6
:10247000027A77EE677AB6EE007A67EE877AC7ED72
:10248000077A97ED077AD7ED027A77EE277AC7EDCC
:10249000057A97ED057AD7ED037A77EE277AC7EDBF
:1024A000067A00BF97ED051AD7ED060A97ED070AE1
:1024B00000F038F800BF2037BD4680BDEFC9133F9C
:1024C000EFC913BF2DB25D3FEFC9933FEFC993BF73
:1024D00080B584B000AF87ED010AC7ED000A97ED23
:1024E000010A01F0C9FDB0EE407AD7ED007A67EE3F
:1024F000877AC7ED037A97ED010A01F06DFDB0EE22
:10250000407AD7ED007A67EE877AC7ED027AD7ED89
:10251000020A97ED030AFFF7E5FD00BF1037BD463D
:1025200080BD000080B48DB000AF87ED030AC7ED19
:10253000020A87ED011A284B1B68DB68FB62FB6A05
:1025400007EE903AB8EE677AD7ED037A67EE277A0E
:10255000FCEEE77A17EE903ABB62FB6A07EE903A20
:10256000B8EE677AD7ED027A67EE277AFCEEE77A63
:1025700017EE903A7B62FB6A07EE903AB8EE677A04
:10258000D7ED017A67EE277AFCEEE77A17EE903AFC
:102590003B62EFF310837B617B69FB6172B600BF26
:1025A0000D4B1B681B68BA6A5A630B4B1B681B6890
:1025B0007A6A9A63084B1B681B683A6ADA63FB699C
:1025C000BB61BB6983F3108800BF00BF3437BD46D1
:1025D0005DF8047B704700BF9801002000000000F8
:1025E0002DE9B04388B000AF87ED030AC7ED020ABA
:1025F000786097ED027AD7ED037A77EE677AC7EDC8
:10260000077A4D4BD3F82630D7ED077A07EE103A0C
:1026100067EE877AC7ED067A7B681B681846FEF777
:10262000B5F804460D46444BD3F82A30DFED437A23
:1026300007EE103A87EE277A17EE100AFEF7A6F893
:102640004FF000023E4BFDF713FE02460B4690464C
:1026500099467B6893ED017AD7ED077A77EE277A72
:1026600017EE900AFEF792F802460B46404649469E
:10267000FDF7FEFD02460B4620462946FDF728FFE2
:1026800002460B4610461946FEF760F903467B6189
:10269000D7ED057AB7EE007AF4EEC77AF1EE10FACC
:1026A00002DD4FF07E530BE0D7ED057ABFEE007AE6
:1026B000F4EEC77AF1EE10FA01D5224B00E07B6907
:1026C0007B6197ED067AD7ED057A77EE277AC7ED2D
:1026D000047A3869FEF75AF813A3D3E90023FEF70A
:1026E0002BF90346002B01D0174B0DE03869FEF79C
:1026F0004DF80FA3D3E90023FEF700F90346002BA2
:1027000001D0124B00E03B693B617B687A691A603B
:102710007B68FA695A603B6907EE903AB0EE670A47
:102720002037BD46BDE8B083CDCCCCCCCCCCEC3F83
:10273000CDCCCCCCCCCCECBFEC01002000401C4676
:102740000000E03F000080BF6666663F666666BFC9
:10275000B0B590B000AFB94BD3ED007AB7EE007AC8
:10276000F4EEC77AF1EE10FA03DD4FF00004B44D39
:1027700014E0B24BD3ED007ABFEE007AF4EEC77AE4
:10278000F1EE10FA03D54FF00004AE4D06E0AB4B6E
:102790001B681846FDF7FAFF04460D46AA4BD3F80E
:1027A0001A301846FDF7F2FF02460B46204629462E
:1027B000FDF75EFD02460B4610461946FEF7C6F8C9
:1027C0000346FB63FB6BBB634FF000037B639F4BD4
:1027D0001B6807EE903AF1EE677A9C4B5B6807EE58
:1027E000103A77EEC77AC7ED0C7A984B1A68134601
:1027F0001A46964B5B6807EE902A07EE103A77EE82
:10280000C77A9FED937A67EE877AC7ED0B7A01F06E
:1028100083F987ED0A0A97ED0A0A01F09DFB87ED1F
:10282000090A97ED090A01F027FC87ED080A97EDE0
:10283000090A01F0D1FB87ED070A97ED0C7AD7ED75
:10284000087A27EE277AD7ED0B6AD7ED077A66EE7E
:10285000A77A77EE277AC7ED067A97ED0B7AD7ED50
:10286000087A27EE277AD7ED0C6AD7ED077A66EE5D
:10287000A77A77EE677AC7ED057A7648D7ED060A2C
:1028800097ED0D0AFFF7ACFE87ED040A7248D7ED0D
:10289000050A97ED0E0AFFF7A3FE87ED030A97EDF1
:1028A000087AD7ED047A27EE277AD7ED076AD7EDB5
:1028B000037A66EEA77A77EE677AC7ED027A97ED2C
:1028C000087AD7ED037A27EE277AD7ED076AD7ED96
:1028D000047A66EEA77A77EE277AC7ED017A5A4B2B
:1028E0005B7D012B2CD1D7ED067A9FED5C7A27EE2C
:1028F000877AF0EE006AC7EE267A9FED597A77EE76
:10290000877AFCEEE77A17EE903A9AB2554BA3F825
:102910000F20D7ED057A9FED517A27EE877AF0EEFA
:10292000006AC7EE267A9FED4E7A77EE877AFCEE44
:10293000E77A17EE903A9AB24A4BA3F811206BE06F
:10294000414B5B7D022B2CD1D7ED047A9FED437A6E
:1029500027EE877AF0EE006AC7EE267A9FED407A7E
:1029600077EE877AFCEEE77A17EE903A9AB23D4B13
:10297000A3F81520D7ED037A9FED387A27EE877AF2
:10298000F0EE006AC7EE267A9FED357A77EE877A09
:10299000FCEEE77A17EE903A9AB2324BA3F8172082
:1029A0003AE0294B5B7D032B2CD1D7ED027A9FEDCA
:1029B0002B7A27EE877AF0EE006AC7EE267A9FED33
:1029C000287A77EE877AFCEEE77A17EE903A9AB299
:1029D000244BA3F81520D7ED017A9FED207A27EE3E
:1029E000877AF0EE006AC7EE267A9FED1D7A77EEC1
:1029F000877AFCEEE77A17EE903A9AB2194BA3F871
:102A0000172009E0174B00225A7500229A75154BC2
:102A10000022DA7500221A76D7ED027AB1EE677AD3
:102A2000D7ED017AF1EE677AF0EE670AB0EE470A69
:102A3000FFF758FB00BF4037BD46B0BD000900207E
:102A40000000F03F0000F0BFEC0100203C09002036
:102A5000EFC9133F040900200C09002000FEFF46C7
:102A600000FC7F469407002080B485B000AF034689
:102A7000FB800B46BB8013467B80FA88BB881343E0
:102A80009BB21AB2B7F90230C3F30A031BB2134365
:102A90001BB2FB81FB8918461437BD465DF8047BE9
:102AA000704780B582B000AF78607B6858687B68FB
:102AB0001B890122194605F0C7F90A2003F0AAF87C
:102AC00000BF0021786800F00DF8034603F480632E
:102AD000002BF6D1012003F09DF800BF0837BD465A
:102AE00080BD000080B586B002AF78600B467B8069
:102AF0007B68D8687B681B8A0022194605F0A4F918
:102B0000012000F035FB0023FB817B880022194661
:102B10004FF40040FFF7A8FF0346BB814BF6EF637D
:102B20007B817B68186807F10C014FF47A730122EE
:102B300006F0FCFF7B68D8687B681B8A0122194677
:102B400005F082F9012000F013FB7B68D8687B68F0
:102B50001B8A0022194605F077F9012000F008FBD6
:102B60007B68186807F10A0207F10E014FF47A73C7
:102B70000093012307F00EF9012000F0F9FA7B68B9
:102B8000D8687B681B8A0122194605F05DF901208F
:102B900000F0EEFA7B894BF6EF62934206D1074BC9
:102BA000074A40F2691107480AF0A6FF7B89C3F380
:102BB0000A039BB218461037BD4680BD24EB0008BF
:102BC00094EB000838EB000880B584B000AF786063
:102BD0000B467B804FF480517868FFF783FF0346F4
:102BE000FB81FB8923F4F863FB81FA897B8813431B
:102BF000FB81FB891A464FF48051786800F067F832
:102C000000BF1037BD4680BD80B584B000AF78608E
:102C10000B46FB704FF480517868FFF763FF034663
:102C2000FB81FB8923F03003FB81FB789AB2FB899F
:102C30001343FB81FB891A464FF48051786800F0FA
:102C400046F800BF1037BD4680BD80B584B000AFE8
:102C500078600B46FB704FF480517868FFF742FFB5
:102C60000346FB81FB8923F00803FB81FB789AB2C2
:102C7000FB891343FB81FB891A464FF48051786826
:102C800000F025F800BF1037BD4680BD80B584B088
:102C900000AF78600B46FB704FF4C0517868FFF7C7
:102CA00021FF0346FB81FB8923F00C03FB81FB78AA
:102CB0009AB2FB891343FB81FB891A464FF4C0513A
:102CC000786800F004F800BF1037BD4680BD80B5BD
:102CD00084B000AF78600B467B8013463B807B68F6
:102CE000D8687B681B8A0022194605F0ADF80120E0
:102CF00000F03EFA3A887B8819460020FFF7B4FEC0
:102D00000346FB817B68186807F10E014FF47A7364
:102D1000012206F00BFF012000F02AFA7B68D86838
:102D20007B681B8A0122194605F08EF8012000F00D
:102D30001FFA00BF1037BD4680BD80B584B000AF1C
:102D4000786039603B6893F82330002B00F0F48002
:102D50000023FB81FB8919467868FFF7C3FE034611
:102D6000BB81BB8903F48063002B14BF01230023C4
:102D7000DAB23B681A70BB8903F40073002B14BFEE
:102D800001230023DAB23B685A70BB8903F48073D5
:102D9000002B14BF01230023DAB23B689A70BB8971
:102DA00003F08003002B14BF01230023DAB23B6839
:102DB000DA70BB8903F04003002B14BF012300230A
:102DC000DAB23B681A71BB8903F02003002B14BFF1
:102DD00001230023DAB23B685A71BB8903F0100368
:102DE000002B14BF01230023DAB23B689A71BB8920
:102DF00003F00803002B14BF01230023DAB23B6861
:102E0000DA71BB8903F00403002B14BF01230023F4
:102E1000DAB23B681A72BB8903F00203002B14BFBD
:102E200001230023DAB23B685A72BB8903F0010325
:102E3000002B14BF01230023DAB23B689A723B686F
:102E4000BA895A834FF40063FB81FB89194678687D
:102E5000FFF748FE0346BB81BB8903F08003002BCC
:102E600014BF01230023DAB23B681A73BB8903F055
:102E70000F039AB23B68DA813B68BA899A834FF4B0
:102E80008053FB81FB8919467868FFF72BFE0346C8
:102E9000BB81BB89DBB203F00303DAB23B681A746F
:102EA000BB89DBB203F00403DAB23B685A74BB8916
:102EB000DBB203F00803DAB23B689A74BB89DBB279
:102EC00003F03003DAB23B68DA74BB8903F4F863C9
:102ED0009AB23B689A823B68BA89DA834FF4C0534E
:102EE000FB81FB8919467868FFF7FCFD0346BB812F
:102EF000BB89DBB203F00303DAB23B689A75BB8986
:102F0000DBB203F00C03DAB23B68DA75BB89DBB2E3
:102F100003F03003DAB23B681A76BB89DBB203F008
:102F20004003DAB23B685A763B68BA891A843B6838
:102F3000002283F8232000BF00BF1037BD4680BDAC
:102F400080B584B000AF786039603B68002283F8B8
:102F500022203B68002283F82320012002F05AFE41
:102F60000023FB81FB8919467868FFF7BBFD034608
:102F7000BB81BB8903F48063002B14BF01230023B2
:102F8000DAB23B681A70BB8903F40073002B14BFDC
:102F900001230023DAB23B685A70BB8903F48073C3
:102FA000002B14BF01230023DAB23B689A70BB895F
:102FB00003F08003002B14BF01230023DAB23B6827
:102FC000DA70BB8903F04003002B14BF01230023F8
:102FD000DAB23B681A71BB8903F02003002B14BFDF
:102FE00001230023DAB23B685A71BB8903F0100356
:102FF000002B14BF01230023DAB23B689A71BB890E
:1030000003F00803002B14BF01230023DAB23B684E
:10301000DA71BB8903F00403002B14BF01230023E2
:10302000DAB23B681A72BB8903F00203002B14BFAB
:1030300001230023DAB23B685A72BB8903F0010313
:10304000002B14BF01230023DAB23B689A724FF4BD
:103050000063FB81FB8919467868FFF743FD03464F
:10306000BB81BB8903F08003002B14BF0123002325
:10307000DAB23B681A73BB8903F00F039AB23B685C
:10308000DA814FF48053FB81FB8919467868FFF79A
:1030900029FD0346BB81BB89DBB203F00303DAB22F
:1030A0003B681A74BB89DBB203F00403DAB23B68F5
:1030B0005A74BB89DBB203F00803DAB23B689A7436
:1030C000BB89DBB203F03003DAB23B68DA74BB8948
:1030D00003F4F8639AB23B689A824FF4C053FB81C1
:1030E000FB8919467868FFF7FDFC0346BB81BB8965
:1030F000DBB203F00303DAB23B689A75BB89DBB23B
:1031000003F00C03DAB23B68DA75BB89DBB203F07B
:103110003003DAB23B681A76BB89DBB203F04003B6
:10312000DAB23B685A7600BF1037BD4680BD00005A
:1031300080B400AF0C4BDB6803F08073002B0ED122
:10314000094BDB68084A43F08073D360074B0022C9
:103150005A60064B1B68054A43F00103136000BF29
:10316000BD465DF8047B7047F0ED00E0001000E024
:1031700080B485B000AF78600D4B5B68FB600D4B91
:103180001B680D4AA2FB03239A0C7B6802FB03F326
:10319000BB6000BF064B5A68FB68D31ABA689A42F4
:1031A000F8D800BF00BF1437BD465DF8047B7047F8
:1031B000001000E00000002083DE1B4380B582B0D9
:1031C00000AF87ED010AC7ED000AD7ED017A9FED48
:1031D000097A67EE877AB0EE670A00F0FDFEB0EE7E
:1031E000407AD7ED007A67EE277AB0EE670A0837A3
:1031F000BD4680BD0000B44380B483B000AF87ED0E
:10320000010AC7ED000AD7ED017AB6EE007AF4EEB6
:10321000C77AF1EE10FA02D8B7EE007A01E0BFEEFD
:10322000007AD7ED007A67EE277AB0EE670A0C379E
:10323000BD465DF8047B704780B483B000AF87ED76
:10324000010AC7ED000AD7ED017AB6EE007AF4EE76
:10325000C77AF1EE10FA02D8D7ED017A05E0B7EEA1
:10326000007AD7ED017A77EE677AB1EE007A67EEF1
:10327000877AB7EE007A37EEC77AD7ED007A67EE35
:10328000277AB0EE670A0C37BD465DF8047B7047BD
:1032900080B483B000AF87ED010AC7ED000AD7ED17
:1032A000017A77EEA77AB7EE007A37EEC77AD7EDD4
:1032B000007A67EE277AB0EE670A0C37BD465DF8F4
:1032C000047B704780B483B000AF87ED010AC7ED7F
:1032D000000AD7ED017A77EEA77AB7EE007A37EEDB
:1032E000677AD7ED007A67EE277AB0EE670A0C3777
:1032F000BD465DF8047B704780B483B000AF786052
:1033000039603B685B78DBB2022B1AD13B685B8883
:103310009BB21A463B689B889BB203FB02F31A469A
:103320007B6893420BD33B685B889BB247F6FE7287
:10333000934204D83B685B889BB2002B01D10123E8
:1033400000E00023DBB218460C37BD465DF8047B75
:10335000704780B588B000AFF860B9607A60BB682C
:103360001B6AFA689A426ED9BB681B6AFB61BB682C
:10337000FA681A62BB689B68FA68D31ABA68114681
:103380001846FFF7B9FF0346002B58D0BB689B8B4C
:103390009BB2002B53D0FA68FB69D31ABA68928BA0
:1033A00092B20132B3FBF2F102FB01F29B1A07EE7B
:1033B000903AF8EE676ABB689B8B9BB207EE903A37
:1033C000B8EE677AC6EE877AC7ED067ABB68D3EDAA
:1033D000067A97ED067A77EE277AC7ED057AD7ED6C
:1033E000057AB7EE007AF4EEC77AF1EE10FA0ADD4C
:1033F000D7ED057AFDEEE77AF8EEE77A97ED057AF4
:1034000077EE677A01E0D7ED057ABB68C3ED067AFF
:10341000BB68D3ED067ABB6893ED047A7B68F0EE67
:10342000470AB0EE670A9847B0EE407ABB68D3ED22
:10343000057A77EE277AC7ED047A3B6905E0BB6829
:103440004FF000029A614FF0000307EE903AB0EEA1
:10345000670A2037BD4680BD80B582B000AF786076
:1034600039603B689B687A68D31A3A6811461846F7
:10347000FFF742FF0346002B02D03B681B6901E0C7
:103480004FF0000307EE903AB0EE670A0837BD46EA
:1034900080BD000080B584B000AF786039603B68C3
:1034A0009B687A68D31AFB603B681946F868FFF797
:1034B00023FF0346002B2CD03B685B889BB2002B7C
:1034C00027D03B6893ED047A3B68D3ED056A3B68EF
:1034D000D3ED047A76EEE76A3B685B889BB20133F2
:1034E0001A46FB68B3FBF2F102FB01F29B1A07EEEE
:1034F000903AF8EE677A26EEA76A3B685B889BB243
:1035000007EE903AF8EEE76AC6EE267A77EE277A6B
:1035100001E0DFED037AB0EE670A1037BD4680BDEB
:103520000000000080B588B000AFF860B96087ED9A
:10353000010A3A603B689B68FA68D31A3A681146F8
:103540001846FFF7D9FE0346002B2AD0BB68DA0FD6
:1035500013445B10FB61FB6907EE903AF8EEE77AE3
:10356000D7ED016A86EEA77A3B68D3ED047A77EE51
:10357000677AC7ED067AD7ED067AF5EEC07AF1EEF6
:1035800010FA02DD3B685B6901E03B689B697B6187
:1035900097ED067AD7ED057A67EE277AF1EE677A2E
:1035A00001E0DFED037AB0EE670A2037BD4680BD4B
:1035B0000000000080B489B000AF786087ED000A99
:1035C0007B68DA0F13445B10FB61D7ED007AF0EEF5
:1035D000E77AC7ED067AFB6907EE903AF8EEE77AEC
:1035E00097ED067AB4EEE77AF1EE10FA49DD294B51
:1035F000D3F83730FA6907EE902AF8EEE77A07EE4B
:10360000103A67EE277AC7ED057AFB6907EE903A24
:10361000F8EEE77A97ED067A77EE677AC7ED047AE7
:1036200097ED047AD7ED057AB4EEE77AF1EE10FA69
:1036300002DDD7ED057A11E0D7ED057AF1EE677A74
:1036400097ED047AB4EEE77AF1EE10FA04D5D7EDEF
:10365000057AF1EE677A01E0D7ED047AC7ED037AD7
:10366000D7ED036AD7ED057A86EEA77AD7ED007A13
:1036700067EE276A97ED067AC6EE877AF1EE677AEB
:1036800001E0DFED057AB0EE670A2437BD465DF84C
:10369000047B7047B00100200000000080B588B0B6
:1036A00000AFF860B96087ED010A4FF00003FB61DD
:1036B0000023BB61E2E0814ABB6952F823307B61A1
:1036C0007B693B613B691B78DBB2082B00F2D2803F
:1036D00001A252F823F000BFFD360008253700088C
:1036E0004D370008753700089F370008C9370008B4
:1036F000F33700081D380008473800087969F86872
:10370000FFF7AAFEF0EE407A6D4BD3F80B3007EED0
:10371000103A67EE877A97ED077A77EE277AC7ED4A
:10372000077AA8E07969F868FFF796FEF0EE407A2C
:10373000634BD3F80F3007EE103A67EE877A97EDB8
:10374000077A77EE277AC7ED077A94E07969F86807
:10375000FFF7A0FEF0EE407A594BD3F8133007EE96
:10376000103A67EE877A97ED077A77EE277AC7EDFA
:10377000077A80E0534A7969F868FFF7EAFDF0EECE
:10378000407A4F4BD3F8173007EE103A67EE877A3E
:1037900097ED077A77EE277AC7ED077A6BE04A4A0A
:1037A0007969F868FFF7D5FDF0EE407A444BD3F81D
:1037B0001B3007EE103A67EE877A97ED077A77EEBF
:1037C000277AC7ED077A56E0404A7969F868FFF72B
:1037D000C0FDF0EE407A3A4BD3F81F3007EE103AB6
:1037E00067EE877A97ED077A77EE277AC7ED077A43
:1037F00041E0374A7969F868FFF7ABFDF0EE407AAF
:103800002F4BD3F8233007EE103A67EE877A97ED07
:10381000077A77EE277AC7ED077A2CE02D4A796987
:10382000F868FFF796FDF0EE407A254BD3F8273085
:1038300007EE103A67EE877A97ED077A77EE277AE8
:10384000C7ED077A17E07A6997ED010AB968F86859
:10385000FFF768FEF0EE407A194BD3F82B3007EEF5
:10386000103A67EE877A97ED077A77EE277AC7EDF9
:10387000077A00E000BFBB690133BB61BB690B2B5A
:103880007FF719AF97ED010AB868FFF793FEF0EEE6
:10389000407A0B4BD3F8333007EE103A67EE877A55
:1038A00097ED077A77EE277AC7ED077AFB6907EE7F
:1038B000903AB0EE670A2037BD4680BD0400002074
:1038C000B0010020F9310008BD310008393200088C
:1038D00091320008C532000880B586B000AF644B55
:1038E0001B68DA68624B1B681B6852085A62604B9F
:1038F0001B681B685B6AFB6000237B611DE05D4BFE
:10390000D3F816307A6907EE902AF8EEE77A07EED8
:10391000103A27EE277ADFED586AC7EE267AC7ED10
:10392000017AD7ED010A9FED550AFEF7D1FD14206B
:1039300002F070F97B6901337B617B69632BDEDD0B
:10394000642002F067F9FA68494B1B681B685B6AE0
:10395000D31ABB60464B1B68DA68454B1B681B6873
:1039600052085A62424B1B681B685B6A1A46444BFA
:103970001A60434B1A68BB681344424A1360002321
:103980003B6100233B6113E03B6907EE903AF8EEA0
:10399000E77A384BD3F8163000EE903AB0EE670A6B
:1039A000FEF796FD012002F035F93B6902333B61D9
:1039B0003B69B3F5B47FE7DD2D4B1B681B685B6A81
:1039C0002F4A1268934203D92F4B01221A6003E059
:1039D0002D4B4FF0FF321A60642002F01BF94FF4B8
:1039E000B4733B6113E03B6907EE903AF8EEE77A77
:1039F000204BD3F8163000EE903AB0EE670AFEF78F
:103A000067FD012002F006F93B69023B3B613B691F
:103A100013F5B47FE7DA642002F0FCF81B4B3B613E
:103A200013E03B6907EE903AF8EEE77A114BD3F8D2
:103A3000163000EE903AB0EE670AFEF749FD01201D
:103A400002F0E8F83B6902333B613B69002BE8DD9B
:103A50003B6907EE903AF8EEE77ADFED080AB0EE40
:103A6000670AFEF735FD00BF1837BD4680BD00BFB1
:103A700094010020EC0100200000C842000000007A
:103A80002C090020280900208401002098FEFFFF57
:103A900080B483B000AF1B4BB3F811309BB2002B46
:103AA00026D0194B1B681B685B6A7B60174B1B6831
:103AB0007A68D31A3B603B6807EE903AF8EEE77AF3
:103AC0009FED137A67EE876A0E4BB3F811309BB205
:103AD00007EE903AF8EEE77A86EEA77A094B93F96B
:103AE000143007EE903AF8EEE77A67EE277A01E0B5
:103AF000DFED087AB0EE670A0C37BD465DF8047B4F
:103B0000704700BFEC01002094010020280900202C
:103B10000000B4430000000080B485B000AF224B29
:103B2000B3F811309BB2002B35D01F4B1B7C002B00
:103B300031D01D4BB3F811309BB207EE903AF8EE3E
:103B4000676A194B1B7C07EE903AB8EE677AC6EEAF
:103B5000877AC7ED037A154B1B681B685B6ABB60ED
:103B6000134B1B68BA68D31A7B607B6807EE903AE8
:103B7000F8EEE77A9FED0F7A67EE876AD7ED037A62
:103B800086EEA77A0C4B1B6807EE903AF8EEE77AC0
:103B900067EE277A01E0DFED097AB0EE670A1437A5
:103BA000BD465DF8047B7047EC01002094010020C5
:103BB0002C0900200000B443840100200000000014
:103BC00080B400AFBFF34F8F00BF064BDB6803F438
:103BD000E0620449044B1343CB60BFF34F8F00BF37
:103BE00000BFFDE700ED00E00400FA0580B582B0FB
:103BF00000AF02F003F87860114B1B687A689A42B4
:103C000005D90F4A7B681360786800F027F80D4BE0
:103C10001B78DBB2002B04D00A4B00221A7000F094
:103C200015F8094B1B78DBB2002B04D0064B0022A1
:103C30001A7000F039F800BF0837BD4680BD00BFDC
:103C400034090020380900203909002080B500AF70
:103C500000F06EFBFEF77CFD00BF80BD80B584B038
:103C600000AF7860FFF714FF87ED030A0C4BB3F841
:103C700005309BB297ED030A19467868FFF70EFDF1
:103C8000F0EE407A064BD3F8073007EE103A67EEB5
:103C9000877A044BC3ED007A00BF1037BD4680BD64
:103CA000B00100200009002080B500AF0D4B1B784B
:103CB000DBB2002B06D00B4B00221A7000F0CAFBBF
:103CC00000F0E2FB084B1B78DBB2002B06D0064B62
:103CD00000221A7000F0FEFB00F016FC00F006F85F
:103CE00000BF80BD300900203109002080B584B0BC
:103CF00000AF1F4BB3F805309BB25B089BB2FB6073
:103D0000FFF7C6FE87ED020AFB6807EE903AB8EEB1
:103D1000E77AD7ED026AC6EE877A9FED167A27EE2C
:103D2000877AF0EE006AC7EE267A9FED137A77EE77
:103D3000877AFDEEE77A17EE903A7B607B68B3F501
:103D4000004F04DA7B6823EAE3739BB201E047F695
:103D5000FF730A4AA2F80930094B1B681922074968
:103D6000184601F09BFD00BF1037BD4680BD00BF67
:103D7000B001002000FEFF4600FC7F4694070020B3
:103D80009001002080B483B000AF78607B681A682F
:103D90000B4B1B681B689A4202D10A4B01221A7016
:103DA0007B681A68084B1B681B689A4202D1074B54
:103DB00001221A7000BF0C37BD465DF8047B7047C6
:103DC00088010020380900208C01002039090020DA
:103DD00080B500AF024B034A1A60FFF7F1FE00BF47
:103DE000DC080020EFBEADDE80B582B000AF104B26
:103DF0001B68104A93420DD10D4B0F4A1A600F4BAE
:103E00003B603B6883F3088800BF0D4B1B687B60F9
:103E10007B689847064B1B682A2B04D0044B2A2248
:103E20001A60FFF7CDFE00BF0837BD4680BD00BF5A
:103E3000DC080020EFBEADDEEDFEFECA0000022071
:103E40000400FF1F80B588B000AF03222249234839
:103E500003F09AF8F86101221F49204803F094F812
:103E6000B86101221E491D4803F08EF878610122D5
:103E70001C491A4803F088F838611B4B5B68FA69E3
:103E80005340FB60184B9B68FA695340BB60164B6C
:103E9000DB68FA6953407B60FA68BB699A420CBFE1
:103EA00001230023DAB2B9687B6999420CBF012370
:103EB0000023DBB21340DBB25AB279683B69994206
:103EC0000CBF01230023DBB25BB213405BB2DBB259
:103ED00018462037BD4680BD107AFF1F080C002011
:103EE000147AFF1F187AFF1FEC01002080B500AF85
:103EF00000F00AFB00F0C8FA00BF80BD80B500AF3B
:103F0000104B1B68104A1360104B1B680E4A53601D
:103F10000F4B1B680C4A93600E4B5B680A4AD360D8
:103F20000C4B9B68084A13610A4BDB68064A5361D5
:103F3000FFF788FF03461A46034B1A7600F0B8F9DC
:103F400000BF80BD107AFF1FEC090020147AFF1F0C
:103F5000187AFF1FEC01002080B485B000AF87ED18
:103F6000010AD7ED017AFDEEE77A17EE903A184A8A
:103F700082FB03121A441212DB17D31AFB60FB6890
:103F80004FF4B47202FB03F307EE903AF8EEE77ACF
:103F900097ED017A77EE677AC7ED017AD7ED017A6E
:103FA000F5EEC07AF1EE10FA07D5D7ED017A9FED64
:103FB000097A77EE877AC7ED017A7B6807EE903A47
:103FC000B0EE670A1437BD465DF8047B704700BF4A
:103FD000B7600BB60000B44380B584B000AF87ED86
:103FE000010A97ED010AFFF7B7FF87ED010AD7ED48
:103FF000017AFDEEE77A17EE901A1D4B83FB012341
:104000009A10CB17D31AFB60FB6807EE903AF8EED4
:10401000E77AB2EE047A67EE877A97ED017A37EEA7
:10402000677AF2EE046AC7EE267AC7ED027A114A81
:10403000FB689B00134493ED007AFB6801330D4A43
:104040009B001344D3ED006A0A4AFB689B001344AB
:10405000D3ED007A76EEE76AD7ED027A66EEA77ABC
:1040600077EE277AB0EE670A1037BD4680BD00BFF5
:1040700067666666A4EB000880B582B000AF87ED86
:10408000010AD7ED017A9FED077A77EE877AB0EED5
:10409000670AFFF7A1FFF0EE407AB0EE670A083733
:1040A000BD4680BD0000B44280B485B000AF7860EA
:1040B00039607A683B68D31AFB60FB6807EE903A78
:1040C000B8EEE77ADFED076AC7EE267AC7ED027A27
:1040D000BB6807EE903AB0EE670A1437BD465DF84C
:1040E000047B70470000004580B500AF1048FEF724
:1040F000D8FC10490E48FEF723FF08210C48FEF7B4
:10410000A4FD20210A48FEF77FFD4FF410710848F6
:10411000FEF75AFD0C210648FEF7B8FD054B0122BB
:1041200083F8232003490248FEF707FE00BF80BD45
:104130009C0100205C09002080B500AF204B1B686B
:1041400040F633025A631E4B1B6840F633029A63F3
:104150001B4B1B6840F63302DA63194B1B68322293
:104160001A640021164806F0FBF90421144806F0F1
:10417000F7F90821124806F0F3F90021104806F07B
:1041800062FF04210E4806F05EFF08210C4806F08D
:104190005AFF0C210A4806F0E3F90A4B1B6818463F
:1041A00006F08FF9084B1B68184606F08AF9074B92
:1041B0001B683C21184606F0A3FA00BF80BD00BF73
:1041C000280D0020880100208C010020940100208F
:1041D00080B500AF074802F00BF9074802F008F974
:1041E000064802F0C3F903220549044802F0BCFA6C
:1041F00000BF80BD000B0020100A0020B80A00207C
:104200004409002080B584B000AF4FF00003FB608C
:104210004FF00003BB60642001F0FCFC00237B60D6
:104220001FE0204B5B889BB207EE903AF8EEE77AEE
:1042300097ED037A77EE277AC7ED037A194B9B88BF
:104240009BB207EE903AF8EEE77A97ED027A77EEB6
:10425000277AC7ED027A012001F0DCFC7B6801338C
:104260007B607B68632BDCDD97ED037ADFED0E6A04
:10427000C7EE267AFCEEE77A17EE903A9AB20B4B2D
:104280005A8097ED027ADFED086AC7EE267AFCEED7
:10429000E77A17EE903A9AB2044B9A8000BF103733
:1042A000BD4680BD4C0900200000C84254090020D2
:1042B00080B500AFFEF73CFFFFF716FFFFF788FF62
:1042C000FFF73AFFFFF79EFFFFF706FB01F096FCB2
:1042D0000346024A136000BF80BD00BF34090020BE
:1042E00080B582B000AF786001210D4802F004FA79
:1042F00003469AB20B4B1A8001210B4802F0FCF9DD
:1043000003469AB2074B5A800121084802F0F4F99B
:1043100003469AB2034B9A8000BF0837BD4680BD62
:10432000B80A00204C090020100A0020000B0020D1
:1043300080B582B000AF294B5B889BB21A46284BF0
:104340005B889BB219461046FFF7AEFE87ED010A67
:10435000224B9B889BB21A46214B9B889BB21946E5
:104360001046FFF7A1FE87ED000A1E4B93ED007A81
:104370001C4BD3ED007AD7ED016A76EEE76A1A4B53
:10438000D3F82230F7EE007A06EE103A77EEC67ACE
:1043900066EEA77A77EE277A124BC3ED007A114BBF
:1043A00093ED017A0F4BD3ED017AD7ED006A76EEEB
:1043B000E76A0D4BD3F82230F7EE007A06EE103A9A
:1043C00077EEC67A66EEA77A77EE277A054BC3EDCD
:1043D000017A00BF0837BD4680BD00BF4C090020F0
:1043E000540900203C090020EC010020B0B586B043
:1043F00000AFF860C7E9002303F0E0F9144BB322E3
:10440000DA600221F86803F03BFB00237B6114E0D3
:1044100039687B69BA6A13441B78DAB24FF000033B
:10442000002003F077F9D7E90023541C43F100057D
:10443000C7E900457B6901337B61BB8D7A699A428C
:10444000E6DB03F0DDF900BF1837BD46B0BD00BFA5
:10445000003C024080B582B002AF084B084A1A60A7
:104460003B230193054B0093064A4FF000030A20BB
:10447000FFF7BCFF00BFBD4680BD00BFB0010020FC
:10448000FFAAAAAA00000C08B0B483B000AF0E4B7C
:104490001B687B607B680D4A934210D10C4A0A4B23
:1044A00014461D460FCD0FC40FCD0FC40FCD0FC442
:1044B00095E8070003C422800234130C237000BF68
:1044C0000C37BD46B0BC704700000C08FFAAAAAA72
:1044D000B001002080B582B002AF084B084A1A60D4
:1044E0002E230193054B0093064A4FF000030B2047
:1044F000FFF77CFF00BFBD4680BD00BFEC01002080
:10450000FFAAAAAA00000E08B0B483B000AF0C4BFB
:104510001B687B607B680B4A93420BD10A4A084BAD
:1045200014461D460FCD0FC40FCD0FC495E80F00E4
:1045300007C4238000BF0C37BD46B0BC704700BF26
:1045400000000E08FFAAAAAAEC01002080B500AF67
:1045500000220E490E4808F0BBF90346002B01D09B
:10456000FDF792F80B490A4808F0E8F90346002BDA
:1045700001D0FDF789F8064808F001FA0346002B40
:1045800001D0FDF781F800BF80BD00BF20080020EA
:10459000A80D0020B007002080B483B000AF786081
:1045A00000BF0C37BD465DF8047B704780B483B014
:1045B00000AF786000BF0C37BD465DF8047B7047E4
:1045C00080B485B000AF786039603B681B781A46CC
:1045D0001B4B53F82230FB603B685B889AB2FB6848
:1045E0005A80FB687A689A603B68DB7A07EE903AFB
:1045F000F8EEE77A9FED137A27EE877ADFED126AFD
:10460000C7EE267AFB68C3ED037AFB681B78DBB242
:10461000042B0ED10D4B1B79002B0AD0084B1B68C5
:10462000BB603B685B889AB2BB685A80BB687A689B
:104630009A6000BF1437BD465DF8047B704700BF29
:10464000040000200000B44300007F43B0010020BC
:1046500080B485B000AF786039603B681B781A463B
:104660002B4B53F82230FB60FB681B78DBB2042B2A
:104670001FD1284B1B79002B1BD03B68B3F80130AE
:104680009BB2002B15D1224B1B68BB603B68B3F972
:1046900003301BB207EE903AB8EEE77ADFED1E6A00
:1046A000C7EE267ABB68C3ED047ABB687A689A6065
:1046B00027E03B68B3F801309BB207EE903AB8EEC2
:1046C000E77ADFED156AC7EE267AFB68C3ED047A58
:1046D0003B68B3F903301BB207EE903AB8EEE77AC5
:1046E000DFED0D6AC7EE267AFB68C3ED057A3B68FD
:1046F000B3F807309AB2FB689A83FB687A689A60CD
:1047000000BF00BF1437BD465DF8047B704700BF93
:1047100004000020B001002000401C4680B485B099
:1047200000AF786039603B681B781A462A4B53F813
:104730002230FB603B68B3F902301BB2002B15D16D
:104740003B68B3F904301BB2002B0FD13B68B3F9BF
:1047500006301BB2002B09D13B681B899BB2002B92
:1047600004D13B685B899BB2002B2FD03B68B3F927
:1047700002301BB207EE903AB8EEE77ADFED176A27
:10478000C7EE267AFB68C3ED047A3B68B3F90430C0
:104790001BB207EE903AB8EEE77ADFED106AC7EE8B
:1047A000267AFB68C3ED057A3B68B3F906301BB285
:1047B00007EE903AB8EEE77ADFED086AC7EE267AA0
:1047C000FB68C3ED067AFB687A689A6000BF14370D
:1047D000BD465DF8047B70470400002000401C4685
:1047E00080B485B000AF786039603B681B781A46AA
:1047F0000D4B53F82230FB603B68B3F901301BB21C
:1048000007EE903AB8EEE77ADFED086AC7EE267A4F
:10481000FB68C3ED047AFB687A689A6000BF1437BE
:10482000BD465DF8047B70470400002000401C4634
:1048300080B485B000AF786039603B681B781A4659
:10484000154B53F82230FB603B68B3F901301BB2C3
:1048500007EE903AB8EEE77ADFED106AC7EE267AF7
:10486000FB68C3ED047A3B68B3F903301BB207EE73
:10487000903AB8EEE77ADFED096AC7EE267AFB6870
:10488000C3ED057AFB687A689A6000BF1437BD46AD
:104890005DF8047B704700BF0400002000401C4608
:1048A00080B485B000AF0346FB71FB790A4A52F829
:1048B0002330FB60FB6801225A70FB6800225A809B
:1048C000FB6800229A80FB6800229A6000BF1437C0
:1048D000BD465DF8047B70470400002080B485B0BD
:1048E00000AF78600B46FB701346BB70FB780B2B58
:1048F00022D8FB78134A52F82330FB60FB6802226F
:104900005A70BB789AB2FB689A80FB687A689A60A2
:10491000FB78042B10D10C4B1B79002B0CD0094BCE
:104920001B68BB60BB6802225A70BB789AB2BB6836
:104930009A80BB687A689A6000BF1437BD465DF8FC
:10494000047B704704000020B001002080B485B0D3
:1049500000AF0346FB71FB790B2B14D8FB790D4A92
:1049600052F82330FB60FB6803225A70FB79042B5A
:1049700009D1094B1B79002B05D0064B1B68BB6086
:10498000BB6803225A7000BF1437BD465DF8047B34
:10499000704700BF04000020B001002080B582B045
:1049A00000AF0123FB7106E0FB791846FFF7CEFF4D
:1049B000FB790133FB71FB790B2BF5D900BF00BFED
:1049C0000837BD4680BD000080B485B000AF034607
:1049D000FB71FB790B2B10D8FB790B4A52F8233073
:1049E000FB60FB6800225A70FB6800225A80FB685B
:1049F00000229A80FB6800229A6000BF1437BD46EF
:104A00005DF8047B704700BF0400002080B582B0D1
:104A100000AF0123FB7106E0FB791846FFF7D4FFD6
:104A2000FB790133FB71FB790B2BF5D900BF00BF7C
:104A30000837BD4680BD80B400AF00BFBD465DF8FD
:104A4000047B704780B400AF00BFBD465DF8047BB7
:104A5000704780B500AFFFF7A1FF00BF80BD80B5F4
:104A600000AFFFF7D3FF00BF80BD80B400AF00BF31
:104A7000BD465DF8047B704780B400AF00BFBD4603
:104A80005DF8047B704780B582B000AF78607B68CA
:104A90005B78032B1CD0032B20DC012B02D0022BD4
:104AA0000AD01BE001F0AAF87B6819787B689B7834
:104AB0001A46FFF713FF12E0FFF770FF01F09EF8B0
:104AC0007B6819787B689B781A46FFF707FF06E03A
:104AD0007B681B781846FFF739FF00E000BF00BF76
:104AE0000837BD4680BD000080B582B000AF786059
:104AF0007B681B78013B052B20D801A252F823F0DC
:104B0000194B00081F4B0008254B00082B4B0008D1
:104B1000314B0008374B0008FFF78DFF0FE0FFF720
:104B200091FF0CE0FFF795FF09E0FFF798FF06E023
:104B3000FFF79BFF03E0FFF79FFF00E000BF00BF10
:104B40000837BD4680BD00BF80B582B000AF786039
:104B50007B681B78FF2B02D1FFF758FF04E07B68CE
:104B60001B781846FFF730FF00BF0837BD4680BDF1
:104B700080B584B000AF78607B681B78FB73FB7BEB
:104B8000013B0A2B0AD8FB7B1846FFF789FE0E4A29
:104B9000FB7B53700C4B01229A7006E00A4B0022FB
:104BA0005A70094B03229A7000BFFB7B042B06D17D
:104BB000064B1B79002B02D00020FFF771FE00BFCF
:104BC0001037BD4680BD00BF8C070020B00100201B
:104BD00080B584B000AF78607B68D3F8C032FB60EA
:104BE000FB681B78112B02D0222B06D00BE0FB6850
:104BF00001331846FFF7BCFF05E0FB680133184698
:104C000000F086F800BF00BF1037BD4680BD000031
:104C100080B584B000AF78607B68D3F8C032FB60A9
:104C2000FB681B78113B0C2B6CD801A252F823F0C7
:104C3000654C0008794C0008994C0008854C000828
:104C4000AD4C0008C14C0008054D0008054D00089A
:104C5000054D0008D54C0008ED4C0008E14C00085B
:104C6000F94C000800F0CAFF0246FB680133194600
:104C70001046FFF7A5FC46E0FB6801331846FFF736
:104C800095FC40E000F0BAFF0246FB68013319468C
:104C90001046FFF7DDFC36E000F0B0FF0246FB688F
:104CA000013319461046FFF739FD2CE000F0A6FF4E
:104CB0000246FB68013319461046FFF791FD22E0DA
:104CC00000F09CFF0246FB68013319461046FFF7CF
:104CD000AFFD18E0FB6801331846FFF7D4FE12E081
:104CE000FB6801331846FFF7FFFE0CE0FB68013359
:104CF0001846FFF729FF06E0FB6801331846FFF767
:104D00004BFC00E000BF00BF1037BD4680BD00BFB8
:104D100080B582B000AF78607B681B78013B032BC5
:104D20001FD801A252F823F0394D00083F4D00086A
:104D30004B4D0008574D0008FFF74AF812E07B681A
:104D40000133184600F012F80CE07B680133184676
:104D500000F056F806E07B680133184600F098F83A
:104D600000E000BF00BF0837BD4680BDF0B585B08C
:104D700000AF78607B685B889BB24FF6FF7293420E
:104D800015D07B681B889BB21A461A4B1344FB60F4
:104D90007B685B889BB23A2B28BF3A237B817B6878
:104DA00004337A891946F86808F010FF1DE0124BA9
:104DB000104A14469C4604F1300E654626460FCE36
:104DC00028606960AA60EB6010340CF1100C744527
:104DD000F3D16246234603CB1060516019889B785B
:104DE00011819372054B01221A7000BF1437BD4622
:104DF000F0BD00BF80090020B00100203009002074
:104E0000F0B585B000AF78607B685B889BB24FF6E9
:104E1000FF72934215D07B681B889BB21A46194BD0
:104E20001344FB607B685B889BB23A2B28BF3A2314
:104E30007B817B6804337A891946F86808F0C6FEDE
:104E40001CE0114B0F4A14469C4604F1200E6546A7
:104E500026460FCE28606960AA60EB6010340CF122
:104E6000100C7445F3D16546234607CB2860696072
:104E7000AA601B88AB81054B01221A7000BF143752
:104E8000BD46F0BDBC090020EC0100203109002026
:104E900080B584B000AF78600023FB600BE07B68D6
:104EA000FA6853F822201249FB689B000B445A60B1
:104EB000FB680133FB60FB68022BF0DD0C4B5B6889
:104EC0000C4AD3600A4B9B680A4A1361084BDB68A3
:104ED000084A5361FEF7B6FF03461A46054B1A7699
:104EE000054B01221A7000BF1037BD4680BD00BFC0
:104EF000EC010020EC0900203109002080B58AB0C7
:104F000000AF786007F1140300221A605A609A60BB
:104F1000DA601A617B681B68B3F1A04F3AD10023B5
:104F20003B611E4B1B6B1D4A43F0010313631B4B7C
:104F30001B6B03F001033B613B694FF4C0537B6182
:104F40000223BB610023FB6103233B620A237B62D4
:104F500007F114031946124802F0DAFD0F4B5B6BA0
:104F60000E4A43F0800353630023FB600B4B5B6CE2
:104F70000A4A43F480435364084B5B6C03F4804358
:104F8000FB60FB6800220021432001F0B7FF4320B3
:104F900001F0D0FF00BF2837BD4680BD0038024079
:104FA0000000024080B582B000AF78607B68D3F823
:104FB00004247B6803F571731946104607F02AFD37
:104FC00000BF0837BD4680BD80B582B000AF7860B5
:104FD0000B46FB707B68D3F80404FA7879681346B3
:104FE000DB009B1A9B000B4403F502731A68FB78E5
:104FF000194607F064FD00BF0837BD4680BD80B587
:1050000082B000AF78600B46FB707B68D3F8040475
:10501000FA7879681346DB009B1A9B000B444833EF
:105020001A68FB78194607F0ADFD00BF0837BD468A
:1050300080BD80B582B000AF78607B68D3F804345F
:10504000184607F0B1FE00BF0837BD4680BD80B5E9
:1050500084B000AF78600123FB737B68DB68002BB2
:1050600002D10023FB7308E07B68DB68022B02D1CE
:105070000123FB7301E0FCF707FB7B68D3F80434E2
:10508000FA7B1146184607F054FE7B68D3F80434C7
:10509000184607F00DFE00BF1037BD4680BD00006A
:1050A00080B582B000AF78607B68D3F804341846CE
:1050B00007F04FFE7B681B6803F560631B687A6826
:1050C000126802F5606243F0010313607B681B6A9B
:1050D000002B05D0044B1B69034A43F00603136100
:1050E00000BF0837BD4680BD00ED00E080B582B04E
:1050F00000AF78607B68D3F80434184607F03EFEB2
:1051000000BF0837BD4680BD80B582B000AF786073
:105110000B46FB707B68D3F80434FA7811461846C6
:1051200007F069FE00BF0837BD4680BD80B582B07C
:1051300000AF78600B46FB707B68D3F80434FA78D4
:105140001146184607F04AFE00BF0837BD4680BD2D
:1051500080B582B000AF78607B68D3F8043418461D
:1051600007F056FE00BF0837BD4680BD80B582B04F
:1051700000AF78607B68D3F80434184607F053FE1C
:1051800000BF0837BD4680BD80B582B000AF7860F3
:105190007B681B78002B3CD1204A7B68C2F8043422
:1051A0007B681E4AC3F8C4221C4B4FF0A0421A6011
:1051B0001A4B04225A60194B0222DA60174B002264
:1051C0001A61164B02229A61144B0022DA61134BCA
:1051D00000221A62114B00225A62104B0022DA623E
:1051E0000E4B00221A630D4802F047FE0346002BC7
:1051F00001D0FCF749FA8021084803F08CFF4022D7
:105200000021064803F040FF80220121034803F0FB
:105210003BFF002318460837BD4680BD78100020AC
:1052200080B584B000AF78600023FB730023BB73AC
:105230007B68D3F8C432184602F03CFF0346FB7388
:10524000FB7B184600F018F90346BB73BB7B18467E
:105250001037BD4680BD80B584B000AF7860084689
:1052600011461A460346FB700B46BB7013463B8043
:105270000023FB730023BB737B68D3F8C402BB78A5
:105280003A88F97803F020FB0346FB73FB7B184652
:1052900000F0F2F80346BB73BB7B18461037BD46DF
:1052A00080BD80B584B000AF78600B46FB700023F2
:1052B000FB730023BB737B68D3F8C432FA781146C2
:1052C000184603F069FB0346FB73FB7B184600F0AE
:1052D000D3F80346BB73BB7B18461037BD4680BD71
:1052E00080B584B000AF78600B46FB700023FB7381
:1052F0000023BB737B68D3F8C432FA781146184692
:1053000003F029FC0346FB73FB7B184600F0B4F85E
:105310000346BB73BB7B18461037BD4680BD80B5C6
:1053200084B000AF78600B46FB700023FB73002352
:10533000BB737B68D3F8C432FA781146184603F081
:105340006EFC0346FB73FB7B184600F095F80346A2
:10535000BB73BB7B18461037BD4680BD80B485B09B
:1053600000AF78600B46FB707B68D3F8C432FB60FB
:1053700097F90330002B0BDAFB7803F07F02F96812
:105380001346DB009B1A9B000B443E331B780BE05B
:10539000FB7803F07F02F9681346DB009B1A9B0041
:1053A0000B4403F5FF731B7818461437BD465DF8B0
:1053B000047B704780B584B000AF78600B46FB700B
:1053C0000023FB730023BB737B68D3F8C432FA78E5
:1053D0001146184603F053FA0346FB73FB7B18464D
:1053E00000F04AF80346BB73BB7B18461037BD4636
:1053F00080BD80B586B000AFF8607A603B600B4638
:10540000FB720023FB750023BB75FB68D3F8C40255
:10541000F97A3B687A6803F054FB0346FB75FB7D21
:10542000184600F029F80346BB75BB7D18461837AF
:10543000BD4680BD80B586B000AFF8607A603B6045
:105440000B46FB720023FB750023BB75FB68D3F88A
:10545000C402F97A3B687A6803F0E8FA0346FB7500
:10546000FB7D184600F008F80346BB75BB7D184667
:105470001837BD4680BD000080B485B000AF03463C
:10548000FB710023FB73FB79032B17D801A252F8A1
:1054900023F000BFA5540008AB540008B154000825
:1054A000B75400080023FB730BE00323FB7308E0F1
:1054B0000123FB7305E00323FB7302E00323FB736B
:1054C00000BFFB7B18461437BD465DF8047B704770
:1054D00080B584B000AF78600B46FB70102008F0F8
:1054E00065FB0346FB60FB68002B05D17B6800224F
:1054F000C3F8BC22022331E07B68FA68C3F8BC22FF
:10550000402008F053FB03461A467B68C3F8C022CC
:105510007B6801225A877B680122A3F87A21402305
:10552000032281217868FFF796FE7B6801221A87A3
:105530004023032201217868FFF78DFE7B6801225A
:10554000A3F87821FB6800221A737B68D3F8C02285
:10555000402301217868FFF76DFF002318461037BC
:10556000BD4680BD80B582B000AF78600B46FB7051
:1055700081217868FFF795FE7B6800221A877B6897
:1055800000225A8701217868FFF78BFE7B68002292
:10559000A3F878217B680022A3F87A217B68D3F8EE
:1055A000BC32002B09D07B68D3F8BC32184608F017
:1055B00005FB7B680022C3F8C0227B68D3F8C032A9
:1055C000002B09D07B68D3F8C032184608F0F6FAF1
:1055D0007B680022C3F8C022002318460837BD4666
:1055E00080BD000080B584B000AF786039607B6812
:1055F000D3F8BC32FB603B681B7803F06003402BA0
:1056000000F00181402B00F23081002B00F0B380CC
:10561000202B40F02A813B685B78013B0A2B00F28B
:10562000A08001A252F823F0C55600088356000856
:105630006356000863570008635700086357000863
:105640006357000863570008935600087156000816
:10565000555600083B685B88DBB21A46FB681A6047
:1056600088E0FB6801221946786808F0C5F981E0F6
:105670003B685B881B0A9BB2DBB21A46FB685A6028
:1056800078E0FB68043301221946786808F0B4F921
:1056900070E03B685B881B0A9BB2DBB2032B66D1D0
:1056A0003B685B88DBB2112B01D0222B5FD17B687A
:1056B000D3F8C0123B68DB881A46786808F0C8F94E
:1056C00000BF54E03B685B881B0A9BB2DBB2032B34
:1056D0004FD13B685B88DBB2123B0F2B49D801A24C
:1056E00052F823F031570008255700087357000877
:1056F0007357000873570008735700087357000862
:105700007357000873570008735700087357000851
:10571000735700083D5700087357000849570008A1
:105720005557000805225649786808F065F917E0D2
:1057300005225449786808F05FF911E03B2252498C
:10574000786808F059F90BE02E225049786808F083
:1057500053F905E019224E49786808F04DF900BF69
:1057600007E03968786808F0D6F8032384E000BFC2
:1057700081E000BF7FE03B685B780B2B34D00B2BC4
:1057800039DC062B02D00A2B26D034E03B685B883C
:105790001B0A9BB2222B0DD13B68DB88B3F5AD6FA2
:1057A00028BF4FF4AD639BB21A463A49786808F0B7
:1057B00023F926E03B685B881B0A9BB2212B20D192
:1057C00035493B68DB88092B28BF09239BB21A4661
:1057D000786808F011F914E0FB68083301221946D3
:1057E000786808F009F90DE03B685B88DBB21A467F
:1057F000FB689A6006E03968786808F08CF8032343
:105800003AE000BF37E03B685B78012B25D13B686D
:105810005B881B0A9BB2DBB2032B24D13B685B88FD
:10582000DBB2212B12D0212B1DDC1E2B02D0202B12
:1058300006D018E03B221449786808F0DDF80BE048
:105840002E221249786808F0D7F805E0192210498D
:10585000786808F0D1F800BF05E03968786808F08A
:105860005AF8032308E000BF05E03968786808F0BB
:1058700052F8032300E0002318461037BD4680BDD0
:10588000840700208C070020B0010020EC010020DC
:10589000EC0900201C020020FA07002080B586B029
:1058A00000AFF860B9601346FB80FB68D3F8BC32E8
:1058B000002B01D1032319E0FB68D3F8BC327B61D4
:1058C000FB6893F89C32032B0FD17B691B7B002B69
:1058D00009D17B6901221A73FB88BA688121F868B3
:1058E000FFF787FD01E0012300E000231846183789
:1058F000BD4680BD80B483B000AF78607B6829224C
:105900001A80034B18460C37BD465DF8047B704780
:10591000E807002080B483B000AF78600B46FB70CE
:105920007B68D3F8BC3200221A73002318460C3768
:10593000BD465DF8047B704780B582B000AF7860EB
:105940000B46FB707B68D3F8BC32002B01D10323DC
:105950000BE07868FFF75CF97B68D3F8C02240233E
:1059600001217868FFF766FD002318460837BD4619
:1059700080BD80B582B000AF78607868FFF728F905
:10598000002318460837BD4680BD000080B483B0B0
:1059900000AF78607B680A221A80034B18460C37E8
:1059A000BD465DF8047B70471408002080B483B0C6
:1059B00000AF03463960FB713B6812221A80034B2B
:1059C00018460C37BD465DF8047B70473C08002044
:1059D00080B483B000AF03463960FB713B6804229A
:1059E0001A80034B18460C37BD465DF8047B7047A0
:1059F0005008002080B582B000AF03463960FB71CB
:105A00003A680449044807F097FF024B18460837E4
:105A1000BD4680BD8014002050EB000880B582B0E8
:105A200000AF03463960FB713A680449044807F047
:105A300083FF024B18460837BD4680BD8014002006
:105A40005CEB000880B582B000AF03463960FB71A3
:105A50003B681A221A8000F02FF8024B18460837CC
:105A6000BD4680BD5408002080B582B000AF03461B
:105A70003960FB713A680449044807F05DFF024B46
:105A800018460837BD4680BD8014002060EB000832
:105A900080B582B000AF03463960FB713A680449B3
:105AA000044807F049FF024B18460837BD4680BD41
:105AB000801400206CEB000880B584B000AF0F4B61
:105AC0001B68FB600E4B1B68BB600E4B1B687B604A
:105AD000FA687B681344FB60FB68002B09D008223E
