:020000040800F2
:100000000000022039220008E9170008F71700084D
:10001000FD17000803180008091800080000000078
:100020000000000000000000000000000F180008A1
:100030001D180008000000002B18000839180008DF
:100040008D2200088D2200088D2200088D220008D4
:100050008D2200088D2200088D2200088D220008C4
:100060008D2200088D2200088D2200088D220008B4
:100070008D2200088D2200088D2200088D220008A4
:100080008D2200088D220008491800088D220008E2
:100090008D2200088D2200088D2200088D22000884
:1000A0008D2200088D2200088D2200088D22000874
:1000B0008D2200088D2200088D2200088D22000864
:1000C0008D2200088D2200088D2200088D22000854
:1000D0008D2200088D2200088D2200088D22000844
:1000E0008D2200088D2200088D2200088D22000834
:1000F0008D220008711800088D2200088D2200084A
:100100008D2200088D2200088D2200088518000825
:100110008D2200088D22000899180008AD180008EB
:10012000C1180008D5180008E91800088D22000839
:100130008D22000800000000000000008D22000851
:100140008D2200088D2200088D220008FD1800086D
:100150008D2200088D2200088D2200088D220008C3
:100160008D2200088D2200088D2200088D220008B3
:100170008D2200088D220008000000000000000011
:080180008D2200088D22000809
:1001900010B5054C237833B9044B13B10448AFF3C1
:1001A00000800123237010BDE00800200000000043
:1001B00080ED000808B5034B1BB103490348AFF3BA
:1001C000008008BD00000000E408002080ED000869
:1001D00001F0FF01102A2BDB10F0070F08D010F8F8
:1001E000013B013A8B422DD010F0070F42B3F6D1FC
:1001F000F0B441EA012141EA014122F007047FF015
:1002000000070023F0E80256083C85EA010586EA6B
:10021000010685FA47F5A3FA87F586FA47F6A5FAA7
:1002200087F68EB9EED1F0BC01F0FF0102F00702B3
:1002300032B110F8013B013A83EA010313B1F8D15E
:100240000020704701387047002D06BF354603383F
:10025000073815F0010F07D1013015F4807F02BF78
:10026000013015F4C03F0130F0BC0138704700BFC9
:1002700070B54FF0FF0C4CF4E06C1CEA11541DBF3C
:100280001CEA135594EA0C0F95EA0C0F00F0DEF807
:100290002C4481EA030621EA4C5123EA4C5350EAEC
:1002A000013518BF52EA033541F4801143F480133D
:1002B00038D0A0FB02CE4FF00005E1FB02E506F0CE
:1002C0000042E0FB03E54FF00006E1FB03569CF023
:1002D000000F18BF4EF0010EA4F1FF04B6F5007F29
:1002E00064F5407404D25FEA4E0E6D4146EB06069B
:1002F00042EAC62141EA55514FEAC52040EA5E5024
:100300004FEACE2EB4F1FD0C88BFBCF5E06F1ED8CD
:10031000BEF1004F08BF5FEA500E50F1000041EB04
:10032000045170BD06F0004646EA010140EA0200B1
:1003300081EA0301B4EB5C04C2BFD4EB0C0541EAD3
:10034000045170BD41F480114FF0000E013C00F3E8
:10035000AB8014F1360FDEBF002001F0004170BD0C
:10036000C4F10004203C35DA0C341BDC04F1140425
:10037000C4F1200500FA05F320FA04F001FA05F2B1
:1003800040EA020001F0004221F0004110EBD3707E
:1003900021FA04F642EB06015EEA430E08BF20EAAA
:1003A000D37070BDC4F10C04C4F1200500FA04F34D
:1003B00020FA05F001FA04F240EA020001F00041DF
:1003C00010EBD37041F100015EEA430E08BF20EA52
:1003D000D37070BDC4F1200500FA05F24EEA020E9A
:1003E00020FA04F301FA05F243EA020321FA04F0C9
:1003F00001F0004121FA04F220EA020000EBD37080
:100400005EEA430E08BF20EAD37070BD94F0000F7F
:100410000FD101F00046400041EB010111F4801FB3
:1004200008BF013CF7D041EA060195F0000F18BF64
:10043000704703F00046520043EB030313F4801FA0
:1004400008BF013DF7D043EA0603704794EA0C0F5A
:100450000CEA135518BF95EA0C0F0CD050EA410670
:1004600018BF52EA4306D1D181EA030101F00041ED
:100470004FF0000070BD50EA410606BF1046194615
:1004800052EA430619D094EA0C0F02D150EA013621
:1004900013D195EA0C0F05D152EA03361CBF104662
:1004A00019460AD181EA030101F0004141F0FE4101
:1004B00041F470014FF0000070BD41F0FE4141F485
:1004C000780170BD81F0004102E000BF83F000437D
:1004D00030B54FEA41044FEA430594EA050F08BFDF
:1004E00090EA020F1FBF54EA000C55EA020C7FEAA3
:1004F000645C7FEA655C00F0E2804FEA5454D4EB20
:100500005555B8BF6D420CDD2C4480EA020281EAE9
:10051000030382EA000083EA010180EA020281EA21
:100520000303362D88BF30BD11F0004F4FEA013173
:100530004FF4801C4CEA113102D0404261EB410182
:1005400013F0004F4FEA03334CEA133302D0524208
:1005500063EB430394EA050F00F0A780A4F10104C4
:10056000D5F1200E0DDB02FA0EFC22FA05F28018FE
:1005700041F1000103FA0EF2801843FA05F35941E4
:100580000EE0A5F120050EF1200E012A03FA0EFC63
:1005900028BF4CF0020C43FA05F3C01851EBE3718D
:1005A00001F0004507D54FF0000EDCF1000C7EEBAA
:1005B00000006EEB0101B1F5801F1BD3B1F5001FE8
:1005C0000CD349085FEA30004FEA3C0C04F1010407
:1005D0004FEA445212F5800F80F09A80BCF1004F30
:1005E00008BF5FEA500C50F1000041EB045141EAB2
:1005F000050130BD5FEA4C0C404141EB0101013C7B
:1006000028BFB1F5801FE9D291F0000F04BF014669
:100610000020B1FA81F308BF2033A3F10B03B3F13B
:1006200020020CDA0C3208DD02F1140CC2F10C02CB
:1006300001FA0CF021FA02F10CE002F11402D8BF29
:10064000C2F1200C01FA02F120FA0CFCDCBF41EAF5
:100650000C019040E41AA2BF01EB0451294330BDC4
:100660006FEA04041F3C1CDA0C340EDC04F11404A1
:10067000C4F1200220FA04F001FA02F340EA030078
:1006800021FA04F345EA030130BDC4F10C04C4F1BE
:10069000200220FA02F001FA04F340EA030029469E
:1006A00030BD21FA04F0294630BD94F0000F83F4E8
:1006B000801306BF81F480110134013D4EE77FEACB
:1006C000645C18BF7FEA655C29D094EA050F08BF17
:1006D00090EA020F05D054EA000C04BF19461046F8
:1006E00030BD91EA030F1EBF0021002030BD5FEA3C
:1006F000545C05D14000494128BF41F0004130BD64
:1007000014F580043CBF01F5801130BD01F00045B7
:1007100045F0FE4141F470014FF0000030BD7FEA2A
:10072000645C1ABF194610467FEA655C1CBF0B4625
:10073000024650EA013406BF52EA033591EA030F3C
:1007400041F4002130BD00BF90F0000F04BF002134
:10075000704730B54FF4806404F132044FF0000567
:100760004FF0000150E700BF90F0000F04BF0021E0
:10077000704730B54FF4806404F1320410F0004546
:1007800048BF40424FF000013EE700BF42004FEA41
:10079000E2014FEA31014FEA02701FBF12F07F43BE
:1007A00093F07F4F81F06051704732F07F4208BF75
:1007B000704793F07F4F04BF41F40021704730B57C
:1007C0004FF4607401F0004521F000411CE700BFC8
:1007D00050EA010208BF704730B54FF000050AE04B
:1007E00050EA010208BF704730B511F0004502D54C
:1007F000404261EB41014FF4806404F132045FEA4E
:10080000915C3FF4D8AE4FF003025FEADC0C18BFF6
:1008100003325FEADC0C18BF033202EBDC02C2F1E8
:10082000200300FA03FC20FA02F001FA03FE40EA7A
:100830000E0021FA02F11444BDE600BF4FEA410266
:10084000B2F1E04324BFB3F5001CDCF1FE5C0DD92E
:1008500001F0004C4FEAC0024CEA5070B2F1004F78
:1008600040EB830008BF20F00100704711F0804F7B
:1008700021D113F13872BCBF01F00040704741F440
:1008800080114FEA5252C2F11802C2F1200C10FA44
:100890000CF320FA02F018BF40F001004FEAC12328
:1008A0004FEAD32303FA0CFC40EA0C0023FA02F3CC
:1008B0004FEA4303CCE77FEA625307D150EA0133A2
:1008C0001EBF4FF0FE4040F44000704701F0004072
:1008D00040F0FE4040F40000704700BF53B94AB9F1
:1008E000002908BF00281CBF4FF0FF314FF0FF3038
:1008F00000F06EB9ADF1080C6DE904CE00F006F819
:10090000DDF804E0DDE9022304B070472DE9F0478B
:10091000089D04468C46002B40F083808A4217468F
:1009200047D9B2FA82F242B1C2F1200024FA00F0B3
:100930009140974040EA010C94404FEA1748230C3D
:10094000BCFBF8F61FFA87FE08FB16C143EA014319
:1009500006FB0EF1994209D9FB1806F1FF3080F031
:100960001981994240F21681023E3B445B1AA4B2BF
:10097000B3FBF8F008FB103344EA034400FB0EFE1F
:10098000A64509D93C1900F1FF3380F00581A64541
:1009900040F2028102383C4440EA0640A4EB0E04D7
:1009A00000261DB1D4400023C5E900433146BDE80F
:1009B000F08702B9FFDEB2FA82F2002A50D1CB1BD7
:1009C0004FEA174E1FFA87F80126B3FBFEFC210CF5
:1009D0000EFB1C3341EA034108FB0CF38B4207D9A1
:1009E00079180CF1FF3002D28B4200F2E980844684
:1009F000C91AA3B2B1FBFEF00EFB101143EA014489
:100A000008FB00F8A04507D93C1900F1FF3302D2DA
:100A1000A04500F2D9801846A4EB080440EA0C4037
:100A2000BFE78B4209D9002D00F0B1800026C5E94F
:100A3000000130463146BDE8F087B3FA83F6002E58
:100A40004AD18B4202D3824200F2B880841A61EB11
:100A5000030101208C46002DA8D0C5E9004CA5E774
:100A6000C2F1200320FA03F6974001FA02F04FEAA0
:100A7000174ED9403043030CB1FBFEF61FFA87F83E
:100A80000EFB161143EA014306FB08F1994204FAF2
:100A900002F409D9FB1806F1FF3C80F08D809942E1
:100AA00040F28A80023E3B445B1A81B2B3FBFEF007
:100AB0000EFB103341EA034100FB08F38B4207D9D8
:100AC000791800F1FF3C73D28B4271D90238394456
:100AD000CB1A40EA064678E7C6F1200C03FA06F482
:100AE00022FA0CF31C4320FA0CF701FA06F34FEA42
:100AF000144E21FA0CF11F433B0CB1FBFEF91FFA17
:100B000084F80EFB191143EA014109FB08FA8A45F2
:100B100002FA06F200FA06F308D9611809F1FF306B
:100B200048D28A4546D9A9F102092144A1EB0A011C
:100B3000BFB2B1FBFEF00EFB101147EA014700FB0C
:100B400008F8B84507D9E71900F1FF312ED2B845AA
:100B50002CD90238274440EA0940A7EB0807A0FB3C
:100B600002894F45C64649461AD317D05DB1B3EB4B
:100B70000E0267EB010707FA0CFCF2404CEA020296
:100B8000F740C5E9002700263146BDE8F0872E462C
:100B900028460BE70646E9E61846FDE64345E5D25A
:100BA000B8EB020E69EB04010138DFE70846D2E733
:100BB00060468DE78146B9E7664675E730464AE705
:100BC000ACF1020C394413E702383C4424E700BF7F
:100BD000704700BF80B590B000AF07F1340300222A
:100BE0001A605A609A6007F1240300221A605A6062
:100BF0009A60DA603B1D2022002118460DF02EF984
:100C0000394B3A4A1A60384B4FF480325A60364BAF
:100C100000229A60344B00221A61334B00221A766C
:100C2000314B002283F820202F4B0022DA622E4B1A
:100C30002F4A9A622C4B0022DA602B4B0122DA6198
:100C4000294B012283F83020274B01225A61264884
:100C500005F026F90346002B01D000F0B3FC112368
:100C60007B634FF48043BB630023FB6307F13403D2
:100C700019461D4806F0EEF80346002B01D000F09F
:100C8000A1FC06237B620123BB620123FB6207F107
:100C900024031946144805F0AFFA0346002B01D08F
:100CA00000F090FC06237B600123BB6001237B6185
:100CB0000123FB604FF480133B620023FB610023A0
:100CC0007B7600233B7600233B613B1D194606489B
:100CD00005F02AFF0346002B01D000F073FC00BF93
:100CE0004037BD4680BD00BF400A002000200140C3
:100CF0000100000F80B58CB000AF07F12003002287
:100D00001A605A609A60DA603B4620220021184639
:100D10000DF0A4F82A4B2B4A1A60294B4FF480326D
:100D20005A60274B00229A60254B00221A61244BFF
:100D300000221A76224B002283F82020204B00222A
:100D4000DA601F4B0122DA611D4B012283F830204B
:100D50001B4B01225A611A4805F0A2F80346002BEA
:100D600001D000F02FFC0D233B6201237B620123A5
:100D7000BB6207F120031946114805F03DFA03460E
:100D8000002B01D000F01EFC0A233B6001237B6096
:100D900001233B610123BB6001237B7500233B756D
:100DA0000023FB603B461946054805F0BDFE03469F
:100DB000002B01D000F006FC00BF3037BD4680BDDF
:100DC000980900200021014080B58CB000AF07F1E8
:100DD000200300221A605A609A60DA603B462022A3
:100DE000002118460DF03AF82A4B2B4A1A60294B7D
:100DF0004FF480325A60274B00229A60254B002224
:100E00001A61244B00221A76224B002283F82020FC
:100E1000204B0022DA601F4B0122DA611D4B0122B8
:100E200083F830201B4B01225A611A4805F038F82C
:100E30000346002B01D000F0C5FB0C233B620123CD
:100E40007B620123BB6207F120031946114805F0BC
:100E5000D3F90346002B01D000F0B4FB0B233B6019
:100E600001237B6001233B610123BB6001237B7570
:100E700000233B750023FB603B461946054805F0FF
:100E800053FE0346002B01D000F09CFB00BF30371F
:100E9000BD4680BD880A00200022014080B590B088
:100EA00000AF786007F12C0300221A605A609A6044
:100EB000DA601A617B681B687F4A93427AD100230B
:100EC000BB627E4B5B6C7D4A43F4807353647B4B07
:100ED0005B6C03F48073BB62BB6A00237B62774B5D
:100EE0001B6B764A43F004031363744B1B6B03F0D4
:100EF00004037B627B6A00233B62704B1B6B6F4A6F
:100F000043F0010313636D4B1B6B03F001033B6262
:100F10003B6A2F23FB6203233B6300237B6307F1C0
:100F20002C031946664806F015FF7023FB62032365
:100F30003B6300237B6307F12C031946614806F0ED
:100F400009FF614B614A1A605F4B00225A605E4B99
:100F500000229A605C4B0022DA605B4B4FF48062A7
:100F60001A61594B4FF400625A61574B4FF40052CB
:100F70009A61554B4FF48072DA61534B00221A622A
:100F8000514B00225A62504806F054F90346002B98
:100F900001D000F017FB7B684B4A9A634A4A7B6892
:100FA000936300220021122006F0CAF8122006F0F6
:100FB000E3F8F9E07B681B68454A934240F08E8075
:100FC0000023FB613D4B5B6C3C4A43F4007353646C
:100FD0003A4B5B6C03F40073FB61FB690023BB615C
:100FE000364B1B6B354A43F004031363334B1B6BC7
:100FF00003F00403BB61BB6900237B612F4B1B6BB8
:101000002E4A43F0010313632C4B1B6B03F00103C7
:101010007B617B692F23FB6203233B6300237B639C
:1010200007F12C031946264806F094FE7023FB6254
:1010300003233B6300237B6307F12C0319462148FC
:1010400006F088FE234B244A1A60224B4FF00072B0
:101050005A60204B00229A601E4B0022DA601D4B22
:101060004FF480621A611B4B4FF400625A61194BB6
:101070004FF400529A61174B4FF48072DA61154BAE
:1010800000221A62134B00225A62124806F0D2F86C
:101090000346002B01D000F095FA7B680D4A9A6355
:1010A0000C4A7B68936300220021122006F048F866
:1010B000122006F061F877E000200140003802407D
:1010C0000008024000000240D00A002010640240E4
:1010D00000210140300B0020406402407B681B6807
:1010E000334A934260D100233B61324B5B6C314AFF
:1010F00043F4806353642F4B5B6C03F480633B6168
:101100003B690023FB602B4B1B6B2A4A43F0040313
:101110001363284B1B6B03F00403FB60FB680F2376
:10112000FB6203233B6300237B6307F12C03194617
:10113000214806F00FFE214B214A1A601F4B4FF049
:1011400080625A601D4B00229A601C4B0022DA60BC
:101150001A4B4FF480621A61184B4FF400625A61C7
:10116000164B4FF400529A61144B4FF48072DA61BF
:10117000124B00221A62114B00225A620F4806F0ED
:1011800059F80346002B01D000F01CFA7B680B4A8B
:101190009A630A4A7B68936300220021122005F0BB
:1011A000CFFF122005F0E8FF00BF4037BD4680BDED
:1011B000002201400038024000080240E0090020FF
:1011C0002864024080B500AF064B074A1A60054804
:1011D00005F0E0FF0346002B01D000F0F3F900BF5B
:1011E00080BD00BF900B00200030024080B485B06D
:1011F00000AF78607B681B680B4A93420DD10023D7
:10120000FB600A4B1B6B094A43F480531363074B83
:101210001B6B03F48053FB60FB6800BF1437BD46B3
:101220005DF8047B704700BF003002400038024088
:1012300080B582B000AF00237B60144B1B6B134A58
:1012400043F480031363114B1B6B03F480037B6037
:101250007B6800220021382005F072FF382005F05D
:101260008BFF00220021392005F06AFF392005F0AC
:1012700083FF002200213A2005F062FF3A2005F0AA
:101280007BFF00BF0837BD4680BD00BF003802406D
:1012900080B58AB000AF07F1140300221A605A60CB
:1012A0009A60DA601A6100233B616C4B1B6B6B4ADE
:1012B00043F004031363694B1B6B03F004033B61AE
:1012C0003B690023FB60654B1B6B644A43F0800362
:1012D0001363624B1B6B03F08003FB60FB6800230E
:1012E000BB605E4B1B6B5D4A43F0010313635B4BBA
:1012F0001B6B03F00103BB60BB6800237B60574B93
:101300001B6B564A43F002031363544B1B6B03F0F1
:1013100002037B607B6800233B60504B1B6B4F4A92
:1013200043F0080313634D4B1B6B03F008033B6052
:101330003B6801224FF40051494806F0BFFE0022ED
:101340000321484806F0BAFE00224FF48051464877
:1013500006F0B4FE00220421444806F0AFFE4FF42C
:1013600000537B610123BB610023FB6100233B62CF
:1013700007F1140319463A4806F0ECFC4CF2D0137E
:101380007B610323BB610023FB6107F11403194652
:10139000334806F0DFFC03237B610123BB6100239C
:1013A000FB6100233B6207F1140319462D4806F048
:1013B000D1FC04237B610023BB610023FB6107F1A7
:1013C00014031946274806F0C5FC48F280037B61E8
:1013D0000323BB610023FB6107F114031946214875
:1013E00006F0B8FC40F2CF337B610323BB610023DE
:1013F000FB6107F1140319461B4806F0ABFC4FF4E0
:1014000080537B610123BB610023FB6100233B62AE
:1014100007F114031946144806F09CFC4FF40073BE
:101420007B610023BB610123FB6107F114031946B3
:101430000B4806F08FFC04237B610123BB61002372
:10144000FB6103233B6207F114031946074806F0CA
:1014500081FC00BF2837BD4680BD00BF0038024078
:10146000000802400000024000040240000C02405C
:1014700080B500AF04F0AEFC00F026F8FFF708FFDF
:10148000FFF7D6FE00F020FB03F020FA00F0DCFCB2
:1014900000F010FD00F09EF8FFF79CFBFFF72AFC20
:1014A000FFF792FC00F022FCFFF78CFE00F0B6FB89
:1014B00000F070FC03F03CF903F010FE02F0A6FF10
:1014C00002F0BAFCFCE7000080B594B000AF07F171
:1014D00020033022002118460CF0C0FC07F10C0359
:1014E00000221A605A609A60DA601A610023BB60B9
:1014F000284B1B6C274A43F080531364254B1B6C0D
:1015000003F08053BB60BB6800237B60224B1B68E9
:10151000214A43F4804313601F4B1B6803F480434C
:101520007B607B6801233B624FF480337B62022344
:10153000BB634FF48003FB6304233B64A8237B64F9
:101540000223BB640723FB6407F12003184607F05E
:1015500039FF0346002B01D000F034F80F23FB6065
:1015600002233B6100237B614FF4A053BB614FF426
:101570008053FB6107F10C030521184608F092F92E
:101580000346002B01D000F01DF800BF5037BD46C8
:1015900080BD00BF003802400070004080B582B0BE
:1015A00000AF7860786802F015FD7B681B68044A1C
:1015B000934201D104F030FC00BF0837BD4680BD26
:1015C0000020004080B400AF00BFBD465DF8047B42
:1015D0007047000080B500AF184B194A1A60174BCE
:1015E0004FF482725A60154B00229A60134B4FF4ED
:1015F0000062DA60114B00221A61104B01225A611D
:101600000E4B4FF400729A610C4B2022DA610B4BA7
:1016100000221A62094B00225A62084B00229A6289
:10162000064B0A22DA62054808F056FB0346002BF7
:1016300001D0FFF7C7FF00BF80BD00BF980B00209F
:10164000003C004080B58AB000AF786007F1140319
:1016500000221A605A609A60DA601A617B681B681F
:101660001D4A934234D100233B611C4B1B6C1B4A27
:1016700043F400431364194B1B6C03F400433B61B8
:101680003B690023FB60154B1B6B144A43F00403BA
:101690001363124B1B6B03F00403FB60FB684FF4F6
:1016A000E0537B610223BB610023FB6103233B62A8
:1016B00006237B6207F114031946094806F04AFB2A
:1016C00000220021332005F03BFD332005F054FDBE
:1016D00000BF2837BD4680BD003C004000380240B6
:1016E0000008024080B483B000AF00237B60104B41
:1016F0005B6C0F4A43F4804353640D4B5B6C03F403
:1017000080437B607B6800233B60094B1B6C084A6D
:1017100043F080531364064B1B6C03F080533B6013
:101720003B6800BF0C37BD465DF8047B704700BFC7
:101730000038024080B58CB000AF78600023FB62B7
:101740000023BB62002279682D2005F0F9FC2D20D2
:1017500005F012FD0023FB601F4B1B6C1E4A43F477
:10176000807313641C4B1B6C03F48073FB60FB6879
:1017700007F1100207F114031146184608F07AFA2F
:1017800008F064FA03465B00FB62FB6A134AA2FBA3
:1017900003239B0C013BBB62114B124A1A60104B96
:1017A00040F2E732DA600E4ABB6A53600C4B00220B
:1017B0001A610B4B00229A60094808F091FF03461A
:1017C000002B04D1064808F0B6FF034600E00123D1
:1017D00018463037BD4680BD0038024083DE1B43CB
:1017E000F00B00200020004080B400AF00BFBD46D9
:1017F0005DF8047B704780B400AFFEE780B400AFB3
:10180000FEE780B400AFFEE780B400AFFEE780B42F
:1018100000AF00BFBD465DF8047B704780B400AFE9
:1018200000BFBD465DF8047B704780B400AF00BFC9
:10183000BD465DF8047B704780B400AF00BFBD4675
:101840005DF8047B7047000080B500AF054804F0E8
:101850006AFB054804F067FB044804F064FB00BF22
:1018600080BD00BF400A002098090020880A00209F
:1018700080B500AF024809F0B5F800BF80BD00BFD9
:10188000F00B002080B500AF024808F05FFD00BFFC
:1018900080BD00BF980B002080B500AF024809F062
:1018A000A1F800BF80BD00BFB00C002080B500AF24
:1018B000024809F097F800BF80BD00BF700D0020FE
:1018C00080B500AF024805F0DDFD00BF80BD00BF60
:1018D000D00A002080B500AF024805F0D3FD00BF5C
:1018E00080BD00BFE009002080B500AF024805F0D0
:1018F000C9FD00BF80BD00BF300B002080B500AF28
:10190000024806F044FD00BF80BD00BF80100020EB
:1019100080B400AF01231846BD465DF8047B7047D4
:1019200080B582B000AF786039600CF03DFA0346B4
:1019300016221A604FF0FF3318460837BD4680BDA7
:1019400080B582B000AF78604FF0FF317868FFF764
:10195000E7FFFEE780B586B000AFF860B9607A6057
:1019600000237B610AE0AFF300800146BB685A1C8C
:10197000BA60CAB21A707B6901337B617A697B688D
:101980009A42F0DB7B6818461837BD4680BD80B5AB
:1019900086B000AFF860B9607A6000237B6109E02F
:1019A000BB685A1CBA601B781846AFF300807B698D
:1019B00001337B617A697B689A42F1DB7B68184668
:1019C0001837BD4680BD80B483B000AF78604FF05B
:1019D000FF3318460C37BD465DF8047B704780B472
:1019E00083B000AF786039603B684FF400525A60B2
:1019F000002318460C37BD465DF8047B704780B461
:101A000083B000AF7860012318460C37BD465DF8FF
:101A1000047B704780B485B000AFF860B9607A602D
:101A2000002318461437BD465DF8047B704700005C
:101A300080B586B000AF7860144A154BD31A7B612D
:101A40007B693B61134B1B68002B02D1114B124A7F
:101A50001A60104B1A687B6813443A699A4207D29D
:101A60000CF0A2F903460C221A604FF0FF3309E094
:101A7000084B1B68FB60074B1A687B681344054AD8
:101A80001360FB6818461837BD4680BD0000022071
:101A900000040000FC080020C016002080B400AF45
:101AA000084BD3F88830074A43F47003C2F88830F3
:101AB000044B4FF000629A6000BFBD465DF8047BA6
:101AC000704700BF00ED00E080B592B000AF07F1B5
:101AD000400300221A605A6007F1240300221A60B2
:101AE0005A609A60DA601A615A619A613B1D20223D
:101AF000002118460CF0B2F9464B474A1A60454B94
:101B000000225A60434B60229A60424B41F26702C6
:101B1000DA60404B00221A613E4B00225A613D4B75
:101B200080229A613B4808F02AFE0346002B01D030
:101B3000FFF748FD70233B6400237B6407F14003FB
:101B40001946344809F0E4FB0346002B01D0FFF7A7
:101B500039FD70237B620023BB620023FB620023FC
:101B60003B6300237B630023BB630023FB6307F11C
:101B7000240300221946274809F03CF80346002BAD
:101B800001D0FFF71FFD07F1240304221946214865
:101B900009F030F80346002B01D0FFF713FD07F1E1
:101BA0002403082219461B4809F024F80346002B99
:101BB00001D0FFF707FD3223BB6207F124030C229B
:101BC0001946144809F016F80346002B01D0FFF718
:101BD000F9FC00237B600023BB600023FB60002333
:101BE0003B6100237B614FF40053BB6100233B62E8
:101BF0003B1D1946074809F007FC0346002B01D09E
:101C0000FFF7E0FC034800F071FA00BF4837BD461B
:101C100080BD00BFF00C00200000014080B58AB0FC
:101C200000AF07F1200300221A605A603B1D00221A
:101C30001A605A609A60DA601A615A619A612A4B96
:101C40004FF080421A60284B00225A60264B6022D7
:101C50009A60254B41F26702DA60234B00221A6139
:101C6000214B00229A61204808F089FD0346002B91
:101C700001D0FFF7A7FC00233B6200237B6207F142
:101C800020031946184809F043FB0346002B01D0F6
:101C9000FFF798FC60237B6041F26703BB6002237F
:101CA000FB6000237B613B1D082219460E4808F0AB
:101CB000A1FF0346002B01D0FFF784FC0023BB608B
:101CC0000023FB603B1D0C221946074808F092FFD9
:101CD0000346002B01D0FFF775FC034800F006FA1D
:101CE00000BF2837BD4680BD300D002080B58CB0C8
:101CF00000AF07F10C032422002118460CF0AEF8C7
:101D00003B1D00221A605A60204B214A1A601F4B6B
:101D100000225A601D4B00229A601C4B4FF6FF7246
:101D2000DA601A4B00221A61184B00229A610323D1
:101D3000FB6000233B6101237B610023BB61042323
:101D4000FB6100233B6201237B620023BB6204230F
:101D5000FB6207F10C0319460C4808F079FD0346B5
:101D6000002B01D0FFF72EFC00237B600023BB601B
:101D70003B1D1946054809F0CBFA0346002B01D05C
:101D8000FFF720FC00BF3037BD4680BD700C00203F
:101D90000004004080B58AB000AF07F120030022A4
:101DA0001A605A603B1D00221A605A609A60DA601D
:101DB0001A615A619A61224B224A1A60204B002212
:101DC0005A601F4B60229A601D4B40F63302DA6066
:101DD0001B4B00221A611A4B00229A61184808F026
:101DE000CEFC0346002B01D0FFF7ECFB00233B6247
:101DF00000237B6207F120031946114809F088FA95
:101E00000346002B01D0FFF7DDFB60237B6000233E
:101E1000BB600023FB6000237B613B1D0C22194645
:101E2000074808F0E7FE0346002B01D0FFF7CAFB86
:101E3000034800F05BF900BF2837BD4680BD00BFF6
:101E4000300C0020000C004080B582B000AF3B4653
:101E500000221A605A60154B154A1A60134B012272
:101E60005A60124B00229A60104B41F26702DA600E
:101E70000E4B00229A610D4808F032FC0346002BFD
:101E800001D0FFF79FFB20233B6000237B603B4694
:101E90001946064809F03CFA0346002B01D0FFF72B
:101EA00091FB00BF0837BD4680BD00BFB00C0020CD
:101EB0000010004080B582B000AF3B4600221A609F
:101EC0005A60154B154A1A60134B63225A60124B25
:101ED00000229A60104B41F26702DA600E4B00223A
:101EE0009A610D4808F0FCFB0346002B01D0FFF778
:101EF00069FB20233B6000237B603B461946064874
:101F000009F006FA0346002B01D0FFF75BFB00BF88
:101F10000837BD4680BD00BF700D00200014004092
:101F200080B487B000AF78607B681B681F4A93421B
:101F30000ED100237B611E4B5B6C1D4A43F00103F5
:101F400053641B4B5B6C03F001037B617B6926E0F0
:101F50007B681B68B3F1804F0ED100233B61144BAB
:101F60001B6C134A43F001031364114B1B6C03F009
:101F700001033B613B6912E07B681B680D4A934299
:101F80000DD10023FB600A4B1B6C094A43F0080388
:101F90001364074B1B6C03F00803FB60FB6800BF76
:101FA0001C37BD465DF8047B704700BF0000014050
:101FB00000380240000C004080B58AB000AF786065
:101FC00007F1140300221A605A609A60DA601A61FD
:101FD0007B681B681E4A934235D100233B611D4B31
:101FE0001B6C1C4A43F0020313641A4B1B6C03F076
:101FF00002033B613B690023FB60164B1B6B154AD8
:1020000043F002031363134B1B6B03F00203FB60EB
:10201000FB6830237B610223BB610F4B1B68B3F865
:1020200011309BB2002B02D00123FB6101E00023A1
:10203000FB6100233B6202237B6207F11403194614
:10204000064805F087FE00BF2837BD4680BD00BFAB
:102050000004004000380240B001002000040240AB
:1020600080B584B000AF78607B681B681C4A9342DF
:1020700016D10023FB601B4B1B6C1A4A43F0100364
:102080001364184B1B6C03F01003FB60FB68002209
:102090000021362005F054F8362005F06DF81AE0DE
:1020A0007B681B68104A934215D10023BB600D4B1F
:1020B0001B6C0C4A43F0200313640A4B1B6C03F0A7
:1020C0002003BB60BB6800220021372005F038F8F0
:1020D000372005F051F800BF1037BD4680BD00BF66
:1020E00000100040003802400014004080B58CB061
:1020F00000AF786007F11C0300221A605A609A60F2
:10210000DA601A617B681B68464A93423ED100231D
:10211000BB61454B1B6B444A43F002031363424BC4
:102120001B6B03F00203BB61BB6900237B613E4B69
:102130001B6B3D4A43F0010313633B4B1B6B03F0E6
:1021400001037B617B694FF46043FB6102233B62C7
:1021500000237B620023BB620123FB6207F11C03A7
:102160001946324805F0F6FD4FF4E063FB610223A7
:102170003B6200237B620023BB620123FB6207F109
:102180001C0319462A4805F0E5FD47E07B681B68FB
:10219000B3F1804F1FD100233B61234B1B6B224ABD
:1021A00043F002031363204B1B6B03F002033B61FC
:1021B0003B694FF44063FB6102233B6200237B6277
:1021C0000023BB620123FB6207F11C031946174879
:1021D00005F0C0FD22E07B681B68164A93421DD1C2
:1021E0000023FB60104B1B6B0F4A43F0010313638A
:1021F0000D4B1B6B03F00103FB60FB680823FB61C5
:1022000002233B6200237B620023BB620223FB624A
:1022100007F11C031946064805F09CFD00BF303746
:10222000BD4680BD0000014000380240000402406D
:1022300000000240000C0040DFF838D0002103E02D
:102240000D4B5B58435004310C480D4B42189A42D9
:10225000F6D30C4A02E0002342F8043B0A4B9A42B0
:10226000F9D3FFF71BFC01F0E7FE0BF0B5FDFFF71C
:10227000FFF87047000002209CEF000800000020DB
:10228000DC080020E0080020BC160020FEE700006B
:1022900080B588B000AF87ED010AC7ED000A4FF0A6
:1022A0000003FB604FF00003BB604FF00003FB61D5
:1022B0004FF00003BB614FF000037B61D7ED007A64
:1022C000F5EEC07AF1EE10FA2ADBD7ED017AF5EEE1
:1022D000C07AF1EE10FA11DBD7ED007A9FEDE27AC9
:1022E00067EE877A97ED017AB4EEE77AF1EE10FAAD
:1022F00001D5022300E001233B613BE0D7ED007AEA
:102300009FEDDA7A67EE877A97ED017AB4EEE77A95
:10231000F1EE10FA01D5032300E002233B6129E02E
:10232000D7ED017AF5EEC07AF1EE10FA11DBD7EDB8
:10233000007A9FEDCE7A67EE877A97ED017AB4EE58
:10234000E77AF1EE10FA01D5052300E006233B61A0
:1023500010E0D7ED007A9FEDC47A67EE877A97EDAB
:10236000017AB4EEE77AF1EE10FA01D5042300E029
:1023700005233B61D7ED017A9FEDBD7A67EE877A41
:10238000C7ED017AD7ED007A9FEDB97A67EE877ACB
:10239000C7ED007A3B69013B052B00F2598101A290
:1023A00052F823F0BD2300082724000899240008D0
:1023B0000725000871250008E7250008D7ED007AF9
:1023C0009FEDA97A67EE877A97ED017A77EE677AC3
:1023D000C7ED037AD7ED007A9FEDA67A67EE877A8C
:1023E000C7ED027AB7EE007AD7ED037A37EE677A57
:1023F000D7ED027A77EE677AB6EE007A67EE877AE3
:10240000C7ED077A97ED077AD7ED037A77EE277A4B
:10241000C7ED067A97ED067AD7ED027A77EE277A3E
:10242000C7ED057A14E1D7ED007A9FED8F7A67EE5C
:10243000877A97ED017A77EE277AC7ED037AD7EDA1
:10244000007A9FED897A27EE877AD7ED017A77EEC9
:10245000677AC7ED027AB7EE007AD7ED037A37EEE6
:10246000677AD7ED027A77EE677AB6EE007A67EE92
:10247000877AC7ED067A97ED067AD7ED027A77EE7E
:10248000277AC7ED077A97ED077AD7ED037A77EECB
:10249000277AC7ED057ADBE0D7ED007A9FED757AF4
:1024A00067EE877AC7ED037AD7ED017AB1EE677AE6
:1024B000D7ED007ADFED6C6A67EEA67A77EE677A81
:1024C000C7ED027AB7EE007AD7ED037A37EE677A76
:1024D000D7ED027A77EE677AB6EE007A67EE877A02
:1024E000C7ED067A97ED067AD7ED037A77EE277A6D
:1024F000C7ED057A97ED057AD7ED027A77EE277A60
:10250000C7ED077AA4E0D7ED007A9FED577A27EE62
:10251000877AD7ED017A77EE677AC7ED037AD7ED40
:10252000007A9FED557A67EE877AC7ED027AB7EEAB
:10253000007AD7ED037A37EE677AD7ED027A77EE35
:10254000677AB6EE007A67EE877AC7ED057A97ED7F
:10255000057AD7ED027A77EE277AC7ED067A97EDFE
:10256000067AD7ED037A77EE277AC7ED077A6FE020
:10257000D7ED017AB1EE677AD7ED007ADFED3A6AEE
:1025800067EEA67A77EE677AC7ED037AD7ED007A21
:102590009FED357A67EE877A97ED017A77EE677A65
:1025A000C7ED027AB7EE007AD7ED037A37EE677A95
:1025B000D7ED027A77EE677AB6EE007A67EE877A21
:1025C000C7ED057A97ED057AD7ED037A77EE277A8E
:1025D000C7ED077A97ED077AD7ED027A77EE277A7B
:1025E000C7ED067A34E0D7ED007A9FED237A67EEE7
:1025F000877AC7ED037AD7ED007A9FED1B7A67EEF5
:10260000877A97ED017A77EE277AC7ED027AB7EEEF
:10261000007AD7ED037A37EE677AD7ED027A77EE54
:10262000677AB6EE007A67EE877AC7ED077A97ED9C
:10263000077AD7ED027A77EE277AC7ED057A97ED1C
:10264000057AD7ED037A77EE277AC7ED067A00BFD1
:1026500097ED051AD7ED060A97ED070A00F038F84E
:1026600000BF2037BD4680BDEFC9133FEFC913BF80
:102670002DB25D3FEFC9933FEFC993BF80B584B0E2
:1026800000AF87ED010AC7ED000A97ED010A01F0DE
:1026900091FDB0EE407AD7ED007A67EE877AC7ED0C
:1026A000037A97ED010A01F035FDB0EE407AD7EDDF
:1026B000007A67EE877AC7ED027AD7ED020A97EDC6
:1026C000030AFFF7E5FD00BF1037BD4680BD0000DF
:1026D00080B48DB000AF87ED030AC7ED020A87ED25
:1026E000011A284B1B68DB68FB62FB6A07EE903A15
:1026F000B8EE677AD7ED037A67EE277AFCEEE77AD1
:1027000017EE903ABB62FB6A07EE903AB8EE677A32
:10271000D7ED027A67EE277AFCEEE77A17EE903A69
:102720007B62FB6A07EE903AB8EE677AD7ED017AE2
:1027300067EE277AFCEEE77A17EE903A3B62EFF30A
:1027400010837B617B69FB6172B600BF0D4B1B6818
:102750001B68BA6A5A630B4B1B681B687A6A9A63D8
:10276000084B1B681B683A6ADA63FB69BB61BB698B
:1027700083F3108800BF00BF3437BD465DF8047B8B
:10278000704700BF9801002080B487B000AF786028
:1027900039607A683B68D31A272B21DDEFF3108369
:1027A000FB60FB687B6172B600BF104B1B6841F297
:1027B0006702DA630D4B1B6800221A640B4B1B681F
:1027C0007A68DA63094B1B683A681A64084B1B681D
:1027D0003A681A647B693B613B6983F3108800BFE8
:1027E00000BF1C37BD465DF8047B7047300D0020EC
:1027F000300C00202DE9B04388B000AF87ED030A0C
:10280000C7ED020A786097ED027AD7ED037A77EE8A
:10281000677AC7ED077A494B1B68D3F82530D7EDA7
:10282000077A07EE103A67EE877AC7ED067A7B687B
:102830001B681846FDF7AAFF04460D463F4B1B6870
:10284000D3F82930DFED3E7A07EE103A87EE277A8B
:1028500017EE100AFDF79AFF4FF00002394BFDF713
:1028600007FD02460B46904699467B6893ED017A38
:10287000D7ED077A77EE277A17EE900AFDF786FFF5
:1028800002460B4640464946FDF7F2FC02460B461F
:1028900020462946FDF71CFE02460B461046194607
:1028A000FDF7CCFF03467B61D7ED057AB7EE007AE2
:1028B000F4EEC77AF1EE10FA02DD4FF07E530BE032
:1028C000D7ED057ABFEE007AF4EEC77AF1EE10FA92
:1028D00001D51D4B00E07B697B6197ED067AD7ED52
:1028E000057A77EE277AC7ED047AD7ED047AB7EE4A
:1028F000007AF4EEC77AF1EE10FA02DD4FF07E5363
:102900000BE0D7ED047ABFEE007AF4EEC77AF1EE71
:1029100010FA01D50C4B00E03B693B617B687A699A
:102920001A607B68FA695A603B6907EE903AB0EE2C
:10293000670A2037BD46BDE8B08300BFB001002064
:1029400000401C460000E03F000080BFB0B592B0E0
:1029500000AFB54BD3ED007AB7EE007AF4EEC77A4C
:10296000F1EE10FA03DD4FF00004B04D14E0AE4B71
:10297000D3ED007ABFEE007AF4EEC77AF1EE10FAEA
:1029800003D54FF00004AA4D06E0A74B1B6818467C
:10299000FDF7FCFE04460D46A64B1B68D3F8193024
:1029A0001846FDF7F3FE02460B4620462946FDF782
:1029B0005FFC02460B4610461946FDF73FFF0346F3
:1029C0007B647B6C3B644FF00003FB639A4B1B689A
:1029D00007EE903AF1EE677A974B5B6807EE103A94
:1029E00077EEC77AC7ED0E7A934B1A6813461A46EC
:1029F000914B5B6807EE902A07EE103A77EEC77AA4
:102A00009FED8E7A67EE877AC7ED0D7A01F08CF92B
:102A100087ED0C0A97ED0C0A01F03CFB87ED0B0AE1
:102A200097ED0B0A01F0C6FB87ED0A0A97ED0B0A3A
:102A300001F070FB87ED090A97ED0E7AD7ED0A7A5F
:102A400027EE277AD7ED0D6AD7ED097A66EEA77AD9
:102A500077EE277AC7ED087A97ED0D7AD7ED0A7AE7
:102A600027EE277AD7ED0E6AD7ED097A66EEA77AB8
:102A700077EE677AC7ED077A7148D7ED080A97EDC8
:102A80000F0AFFF7B7FE87ED060A6E48D7ED070A73
:102A900097ED100AFFF7AEFE87ED050A97ED067A6F
:102AA000D7ED087A27EE277AD7ED056AD7ED077AB2
:102AB00066EEA77A77EE277A9FED637A67EE877ADC
:102AC0005C4B1B68D3F81D3007EE103AF4EEC77A62
:102AD000F1EE10FA04DD574B1B68D3F81D302DE0E2
:102AE00097ED067AD7ED087A27EE277AD7ED056AB3
:102AF000D7ED077A66EEA77A77EE277A9FED527ABE
:102B000067EE877AF5EEC07AF1EE10FA02D54FF053
:102B1000000313E097ED067AD7ED087A27EE277ABF
:102B2000D7ED056AD7ED077A66EEA77A77EE277AB2
:102B30009FED457A67EE877A17EE903A3B61D7EDC5
:102B4000047A9FED427A27EE877A3A4B1B68D3F8D6
:102B50001D30DFED3E7A06EE903A66EEA77AB4EECF
:102B6000E77AF1EE10FA0CDD324B1B68D3F81D301A
:102B7000DFED367A07EE103A67EE277AFDEEE77A58
:102B800015E0D7ED047A9FED317A67EE877AF5EE9E
:102B9000C07AF1EE10FA02D5DFED2D7A07E0D7ED1D
:102BA000047A9FED2A7A67EE877AFDEEE77AC7ED21
:102BB000037AFB682833BB6097ED0A7AD7ED067A73
:102BC00027EE277AD7ED096AD7ED057A66EEA77A60
:102BD00077EE677AC7ED017A97ED0A7AD7ED057A35
:102BE00027EE277AD7ED096AD7ED067A66EEA77A3F
:102BF00077EE277AC7ED007AD7ED017AB1EE677AE2
:102C0000D7ED007AF1EE677AF0EE670AB0EE470A88
:102C1000FFF73EFBBB68FA6811461846FFF7B4FDA4
:102C200000BF4837BD46B0BD000900200000F03F9E
:102C30000000F0BFB00100203C090020EFC9133FA5
:102C4000040900200C0900200000074200388345D9
:102C50000000000080B485B000AF0346FB800B4647
:102C6000BB8013467B80FA88BB8813439BB21AB2A1
:102C7000B7F90230C3F30A031BB213431BB2FB8143
:102C8000FB8918461437BD465DF8047B704780B554
:102C900082B000AF78607B6858687B681B8901222E
:102CA000194605F00BFA0A2003F0D6F800BF002100
:102CB000786800F00DF8034603F48063002BF6D12A
:102CC000012003F0C9F800BF0837BD4680BD0000F1
:102CD00080B586B002AF78600B467B807B68D86891
:102CE0007B681B8A0022194605F0E8F9012000F0F4
:102CF00035FB0023FB817B88002219464FF40040FE
:102D0000FFF7A8FF0346BB814BF6EF637B817B682F
:102D1000186807F10C014FF47A73012207F040F8AC
:102D20007B68D8687B681B8A0122194605F0C6F9C2
:102D3000012000F013FB7B68D8687B681B8A0022A7
:102D4000194605F0BBF9012000F008FB7B68186804
:102D500007F10A0207F10E014FF47A730093012381
:102D600007F052F9012000F0F9FA7B68D8687B6817
:102D70001B8A0122194605F0A1F9012000F0EEFAA4
:102D80007B894BF6EF62934206D1074B074A40F22C
:102D9000691107480AF0EAFF7B89C3F30A039BB273
:102DA00018461037BD4680BD98ED00080CEE0008AF
:102DB000ACED000880B584B000AF78600B467B8036
:102DC0004FF480517868FFF783FF0346FB81FB894E
:102DD00023F4F863FB81FA897B881343FB81FB8929
:102DE0001A464FF48051786800F067F800BF10373A
:102DF000BD4680BD80B584B000AF78600B46FB70E7
:102E00004FF480517868FFF763FF0346FB81FB892D
:102E100023F03003FB81FB789AB2FB891343FB81DB
:102E2000FB891A464FF48051786800F046F800BFDD
:102E30001037BD4680BD80B584B000AF78600B46CA
:102E4000FB704FF480517868FFF742FF0346FB8127
:102E5000FB8923F00803FB81FB789AB2FB891343BB
:102E6000FB81FB891A464FF48051786800F025F801
:102E700000BF1037BD4680BD80B584B000AF78601C
:102E80000B46FB704FF4C0517868FFF721FF0346F3
:102E9000FB81FB8923F00C03FB81FB789AB2FB8951
:102EA0001343FB81FB891A464FF4C051786800F048
:102EB00004F800BF1037BD4680BD80B584B000AFB8
:102EC00078600B467B8013463B807B68D8687B68C4
:102ED0001B8A0022194605F0F1F8012000F03EFAA5
:102EE0003A887B8819460020FFF7B4FE0346FB8131
:102EF0007B68186807F10E014FF47A73012206F01F
:102F00004FFF012000F02AFA7B68D8687B681B8A93
:102F10000122194605F0D2F8012000F01FFA00BF87
:102F20001037BD4680BD80B584B000AF7860396091
:102F30003B6893F82330002B00F0F4800023FB81E2
:102F4000FB8919467868FFF7C3FE0346BB81BB893E
:102F500003F48063002B14BF01230023DAB23B6823
:102F60001A70BB8903F40073002B14BF01230023E4
:102F7000DAB23B685A70BB8903F48073002B14BF2C
:102F800001230023DAB23B689A70BB8903F0800307
:102F9000002B14BF01230023DAB23B68DA70BB892F
:102FA00003F04003002B14BF01230023DAB23B6877
:102FB0001A71BB8903F02003002B14BF01230023E7
:102FC000DAB23B685A71BB8903F01003002B14BFBF
:102FD00001230023DAB23B689A71BB8903F008032E
:102FE000002B14BF01230023DAB23B68DA71BB89DE
:102FF00003F00403002B14BF01230023DAB23B6863
:103000001A72BB8903F00203002B14BF01230023B3
:10301000DAB23B685A72BB8903F00103002B14BF7C
:1030200001230023DAB23B689A723B68BA895A835B
:103030004FF40063FB81FB8919467868FFF748FE6F
:103040000346BB81BB8903F08003002B14BF01231F
:103050000023DAB23B681A73BB8903F00F039AB2FC
:103060003B68DA813B68BA899A834FF48053FB81CD
:10307000FB8919467868FFF72BFE0346BB81BB89A5
:10308000DBB203F00303DAB23B681A74BB89DBB22C
:1030900003F00403DAB23B685A74BB89DBB203F075
:1030A0000803DAB23B689A74BB89DBB203F03003E1
:1030B000DAB23B68DA74BB8903F4F8639AB23B680E
:1030C0009A823B68BA89DA834FF4C053FB81FB894B
:1030D00019467868FFF7FCFD0346BB81BB89DBB26C
:1030E00003F00303DAB23B689A75BB89DBB203F0E5
:1030F0000C03DAB23B68DA75BB89DBB203F030034C
:10310000DAB23B681A76BB89DBB203F04003DAB26D
:103110003B685A763B68BA891A843B68002283F878
:10312000232000BF00BF1037BD4680BD80B584B0EE
:1031300000AF786039603B68002283F822203B684A
:10314000002283F82320012002F086FE0023FB8169
:10315000FB8919467868FFF7BBFD0346BB81BB8935
:1031600003F48063002B14BF01230023DAB23B6811
:103170001A70BB8903F40073002B14BF01230023D2
:10318000DAB23B685A70BB8903F48073002B14BF1A
:1031900001230023DAB23B689A70BB8903F08003F5
:1031A000002B14BF01230023DAB23B68DA70BB891D
:1031B00003F04003002B14BF01230023DAB23B6865
:1031C0001A71BB8903F02003002B14BF01230023D5
:1031D000DAB23B685A71BB8903F01003002B14BFAD
:1031E00001230023DAB23B689A71BB8903F008031C
:1031F000002B14BF01230023DAB23B68DA71BB89CC
:1032000003F00403002B14BF01230023DAB23B6850
:103210001A72BB8903F00203002B14BF01230023A1
:10322000DAB23B685A72BB8903F00103002B14BF6A
:1032300001230023DAB23B689A724FF40063FB81EA
:10324000FB8919467868FFF743FD0346BB81BB89BC
:1032500003F08003002B14BF01230023DAB23B6884
:103260001A73BB8903F00F039AB23B68DA814FF4FB
:103270008053FB81FB8919467868FFF729FD0346D7
:10328000BB81BB89DBB203F00303DAB23B681A747B
:10329000BB89DBB203F00403DAB23B685A74BB8922
:1032A000DBB203F00803DAB23B689A74BB89DBB285
:1032B00003F03003DAB23B68DA74BB8903F4F863D5
:1032C0009AB23B689A824FF4C053FB81FB8919463E
:1032D0007868FFF7FDFC0346BB81BB89DBB203F0D6
:1032E0000303DAB23B689A75BB89DBB203F00C03C7
:1032F000DAB23B68DA75BB89DBB203F03003DAB2CD
:103300003B681A76BB89DBB203F04003DAB23B6854
:103310005A7600BF1037BD4680BD000080B400AFB4
:103320000C4BDB6803F08073002B0ED1094BDB687C
:10333000084A43F08073D360074B00225A60064B63
:103340001B68054A43F00103136000BFBD465DF8EA
:10335000047B7047F0ED00E0001000E080B485B021
:1033600000AF78600D4B5B68FB600D4B1B680D4A2E
:10337000A2FB03239A0C7B6802FB03F3BB6000BF34
:10338000064B5A68FB68D31ABA689A42F8D800BF4D
:1033900000BF1437BD465DF8047B7047001000E0A5
:1033A0000000002083DE1B4380B582B000AF87EDB4
:1033B000010AC7ED000AD7ED017A9FED097A67EEA1
:1033C000877AB0EE670A00F0A5FEB0EE407AD7ED3E
:1033D000007A67EE277AB0EE670A0837BD4680BDEF
:1033E0000000B44380B483B000AF87ED010AC7ED9D
:1033F000000AD7ED017AB6EE007AF4EEC77AF1EE64
:1034000010FA02D8B7EE007A01E0BFEE007AD7EDED
:10341000007A67EE277AB0EE670A0C37BD465DF892
:10342000047B704780B483B000AF87ED010AC7ED1D
:10343000000AD7ED017AB6EE007AF4EEC77AF1EE23
:1034400010FA02D8D7ED017A05E0B7EE007AD7ED91
:10345000017A77EE677AB1EE007A67EE877AB7EE97
:10346000007A37EEC77AD7ED007A67EE277AB0EEAA
:10347000670A0C37BD465DF8047B704780B483B0A3
:1034800000AF87ED010AC7ED000AD7ED017A77EEAC
:10349000A77AB7EE007A37EEC77AD7ED007A67EEF3
:1034A000277AB0EE670A0C37BD465DF8047B70479B
:1034B00080B483B000AF87ED010AC7ED000AD7EDF5
:1034C000017A77EEA77AB7EE007A37EE677AD7ED12
:1034D000007A67EE277AB0EE670A0C37BD465DF8D2
:1034E000047B704780B483B000AF786039603B687C
:1034F0005B78DBB2022B1AD13B685B889BB21A4621
:103500003B689B889BB203FB02F31A467B6893429D
:103510000BD33B685B889BB247F6FE72934204D89C
:103520003B685B889BB2002B01D1012300E00023A4
:10353000DBB218460C37BD465DF8047B704780B59A
:1035400088B000AFF860B9607A60BB681B6AFA683F
:103550009A426ED9BB681B6AFB61BB68FA681A6243
:10356000BB689B68FA68D31ABA6811461846FFF719
:10357000B9FF0346002B58D0BB689B8B9BB2002B36
:1035800053D0FA68FB69D31ABA68928B92B20132AF
:10359000B3FBF2F102FB01F29B1A07EE903AF8EE50
:1035A000676ABB689B8B9BB207EE903AB8EE677A6E
:1035B000C6EE877AC7ED067ABB68D3ED067A97ED3B
:1035C000067A77EE277AC7ED057AD7ED057AB7EE5A
:1035D000007AF4EEC77AF1EE10FA0ADDD7ED057A3B
:1035E000FDEEE77AF8EEE77A97ED057A77EE677AFF
:1035F00001E0D7ED057ABB68C3ED067ABB68D3ED71
:10360000067ABB6893ED047A7B68F0EE470AB0EE69
:10361000670A9847B0EE407ABB68D3ED057A77EE3B
:10362000277AC7ED047A3B6905E0BB684FF00002DA
:103630009A614FF0000307EE903AB0EE670A203728
:10364000BD4680BD80B582B000AF786039603B6810
:103650009B687A68D31A3A6811461846FFF742FF0A
:103660000346002B02D03B681B6901E04FF00003CA
:1036700007EE903AB0EE670A0837BD4680BD0000FD
:1036800080B584B000AF786039603B689B687A6829
:10369000D31AFB603B681946F868FFF723FF03461F
:1036A000002B2CD03B685B889BB2002B27D03B685B
:1036B00093ED047A3B68D3ED056A3B68D3ED047A59
:1036C00076EEE76A3B685B889BB201331A46FB687B
:1036D000B3FBF2F102FB01F29B1A07EE903AF8EE0F
:1036E000677A26EEA76A3B685B889BB207EE903A42
:1036F000F8EEE76AC6EE267A77EE277A01E0DFED8C
:10370000037AB0EE670A1037BD4680BD00000000A6
:1037100080B588B000AFF860B96087ED010A3A6003
:103720003B689B68FA68D31A3A6811461846FFF757
:10373000D9FE0346002B2AD0BB68DA0F13445B1076
:10374000FB61FB6907EE903AF8EEE77AD7ED016A84
:1037500086EEA77A3B68D3ED047A77EE677AC7EDF9
:10376000067AD7ED067AF5EEC07AF1EE10FA02DDB0
:103770003B685B6901E03B689B697B6197ED067A7A
:10378000D7ED057A67EE277AF1EE677A01E0DFED93
:10379000037AB0EE670A2037BD4680BD0000000006
:1037A00080B489B000AF786087ED000A7B68DA0FDB
:1037B00013445B10FB61D7ED007AF0EEE77AC7EDBA
:1037C000067AFB6907EE903AF8EEE77A97ED067A0B
:1037D000B4EEE77AF1EE10FA4ADD2A4B1B68D3F813
:1037E0003730FA6907EE902AF8EEE77A07EE103ADA
:1037F00067EE277AC7ED057AFB6907EE903AF8EE97
:10380000E77A97ED067A77EE677AC7ED047A97ED57
:10381000047AD7ED057AB4EEE77AF1EE10FA02DD1C
:10382000D7ED057A11E0D7ED057AF1EE677A97EDDD
:10383000047AB4EEE77AF1EE10FA04D5D7ED057A02
:10384000F1EE677A01E0D7ED047AC7ED037AD7EDA0
:10385000036AD7ED057A86EEA77AD7ED007A67EE90
:10386000276A97ED067AC6EE877AF1EE677A01E06D
:10387000DFED057AB0EE670A2437BD465DF8047BBC
:10388000704700BFB40100200000000080B588B080
:1038900000AFF860B96087ED010A4FF00003FB61EB
:1038A0000023BB61EBE0864ABB6952F823307B61A1
:1038B0007B693B613B691B78DBB2082B00F2DB8044
:1038C00001A252F823F000BFED38000817390008B4
:1038D000413900086B39000897390008C3390008DE
:1038E000EF3900081B3A0008473A00087969F86880
:1038F000FFF7A8FEF0EE407A724B1B68D3F80B304E
:1039000007EE103A67EE877A97ED077A77EE277A17
:10391000C7ED077AB0E07969F868FFF793FEF0EE3B
:10392000407A684B1B68D3F80F3007EE103A67EE09
:10393000877A97ED077A77EE277AC7ED077A9BE0CB
:103940007969F868FFF79CFEF0EE407A5D4B1B68E2
:10395000D3F8133007EE103A67EE877A97ED077ABF
:1039600077EE277AC7ED077A86E0574A7969F868D3
:10397000FFF7E5FDF0EE407A524B1B68D3F81730A5
:1039800007EE103A67EE877A97ED077A77EE277A97
:10399000C7ED077A70E04D4A7969F868FFF7CFFD07
:1039A000F0EE407A474B1B68D3F81B3007EE103A15
:1039B00067EE877A97ED077A77EE277AC7ED077A71
:1039C0005AE0434A7969F868FFF7B9FDF0EE407AAA
:1039D0003C4B1B68D3F81F3007EE103A67EE877A2E
:1039E00097ED077A77EE277AC7ED077A44E0394AF0
:1039F0007969F868FFF7A3FDF0EE407A314B1B6858
:103A0000D3F8233007EE103A67EE877A97ED077AFE
:103A100077EE277AC7ED077A2EE02F4A7969F868A2
:103A2000FFF78DFDF0EE407A264B1B68D3F8273068
:103A300007EE103A67EE877A97ED077A77EE277AE6
:103A4000C7ED077A18E07A6997ED010AB968F86856
:103A5000FFF75EFEF0EE407A1A4B1B68D3F82B306E
:103A600007EE103A67EE877A97ED077A77EE277AB6
:103A7000C7ED077A00E000BFBB690133BB61BB69DA
:103A80000B2B7FF710AF97ED010AB868FFF788FEA0
:103A9000F0EE407A0B4B1B68D3F8333007EE103A48
:103AA00067EE877A97ED077A77EE277AC7ED077A80
:103AB000FB6907EE903AB0EE670A2037BD4680BD3D
:103AC00004000020B4010020E5330008A9330008F9
:103AD000253400087D340008B134000880B586B074
:103AE00000AF664B1B68DA68644B1B681B685208A2
:103AF0005A62624B1B681B685B6AFB6000237B6138
:103B00001EE05F4B1B68D3F82D307A6907EE902AD0
:103B1000F8EEE77A07EE103A27EE277ADFED596ADA
:103B2000C7EE267AC7ED017AD7ED010A9FED560A56
:103B3000FEF7A4FD142002F08FF97B6901337B614D
:103B40007B69632BDDDD642002F086F9FA684B4B5C
:103B50001B681B685B6AD31ABB60484B1B68DA683A
:103B6000464B1B681B6852085A62444B1B681B6813
:103B70005B6A1A46454B1A60444B1A68BB6813448B
:103B8000434A136000233B6100233B6114E03B691F
:103B900007EE903AF8EEE77A394B1B68D3F82D30F0
:103BA00000EE903AB0EE670AFEF768FD012002F0E1
:103BB00053F93B6902333B613B69B3F5B47FE6DD02
:103BC0002E4B1B681B685B6A304A1268934203D90C
:103BD000304B01221A6003E02E4B4FF0FF321A6087
:103BE000642002F039F94FF4B4733B6114E03B698F
:103BF00007EE903AF8EEE77A214B1B68D3F82D30A8
:103C000000EE903AB0EE670AFEF738FD012002F0B0
:103C100023F93B69023B3B613B6913F5B47FE6DA6C
:103C2000642002F019F91C4B3B6114E03B6907EE7C
:103C3000903AF8EEE77A124B1B68D3F82D3000EE7D
:103C4000903AB0EE670AFEF719FD012002F004F980
:103C50003B6902333B613B69002BE7DD3B6907EEC3
:103C6000903AF8EEE77ADFED080AB0EE670AFEF761
:103C700005FD00BF1837BD4680BD00BF9401002080
:103C8000B00100200000C842000000002C09002004
:103C9000280900208401002098FEFFFF80B483B033
:103CA00000AF1C4B1B68B3F811309BB2002B28D01F
:103CB000194B1B681B685B6A7B60184B1B687A6832
:103CC000D31A3B603B6807EE903AF8EEE77A9FED37
:103CD000147A67EE876A0F4B1B68B3F811309BB2FA
:103CE00007EE903AF8EEE77A86EEA77A094B1B6862
:103CF00093F9143007EE903AF8EEE77A67EE277AF8
:103D000001E0DFED087AB0EE670A0C37BD465DF8DA
:103D1000047B7047B0010020940100202809002096
:103D20000000B4430000000080B485B000AF244B15
:103D30001B68B3F811309BB2002B38D0204B1B68A6
:103D40001B7C002B33D01E4B1B68B3F811309BB289
:103D500007EE903AF8EE676A194B1B681B7C07EE7A
:103D6000903AB8EE677AC6EE877AC7ED037A154BBC
:103D70001B681B685B6ABB60134B1B68BA68D31A6D
:103D80007B607B6807EE903AF8EEE77A9FED0F7A5A
:103D900067EE876AD7ED037A86EEA77A0C4B1B682D
:103DA00007EE903AF8EEE77A67EE277A01E0DFED6A
:103DB000097AB0EE670A1437BD465DF8047B704798
:103DC000B0010020940100202C0900200000B44321
:103DD000840100200000000080B500AF4FF40071A6
:103DE000074804F053F90346002B06D1054B1B6826
:103DF0001B685B6A1A46044B1A6000BF80BD00BF97
:103E000000080240940100202809002080B400AF7F
:103E1000BFF34F8F00BF064BDB6803F4E062044939
:103E2000044B1343CB60BFF34F8F00BF00BFFDE7D0
:103E300000ED00E00400FA0580B582B000AF01F0AB
:103E4000FFFF7860114B1B687A689A4205D90F4AC8
:103E50007B681360786800F027F80D4B1B78DBB2A5
:103E6000002B04D00A4B00221A7000F015F8094B01
:103E70001B78DBB2002B04D0064B00221A7000F036
:103E80003DF800BF0837BD4680BD00BF34090020A3
:103E9000380900203909002080B500AF00F0F6FA9B
:103EA000FEF754FD00BF80BD80B584B000AF7860E0
:103EB000FFF792FFFFF7F2FE87ED030A0D4B1B6839
:103EC000B3F805309BB297ED030A19467868FFF7FF
:103ED000DDFCF0EE407A074B1B68D3F8073007EEA5
:103EE000103A67EE877A044BC3ED007A00BF1037B3
:103EF000BD4680BDB40100200009002080B500AFA0
:103F00000B4B1B78DBB2002B04D0094B00221A703C
:103F100000F0ACFB074B1B78DBB2002B04D0054B49
:103F200000221A7000F0A8FB00F006F800BF80BD68
:103F3000300900203109002080B584B000AF204B4B
:103F40001B68B3F805309BB25B089BB2FB60FFF7C0
:103F5000A5FE87ED020AFB6807EE903AB8EEE77A15
:103F6000D7ED026AC6EE877A9FED167A27EE877A3A
:103F7000F0EE006AC7EE267A9FED137A77EE877A25
:103F8000FDEEE77A17EE903A7B607B68B3F5004F61
:103F900004DA7B6823EAE3739BB201E047F6FF7320
:103FA0000A4AA2F8093000F059FC094B1B68192293
:103FB0000649184601F094FD00BF1037BD4680BD8C
:103FC000B401002000FEFF4600FC7F469007002061
:103FD0009001002080B483B000AF78607B681A68DD
:103FE0000B4B1B681B689A4202D10A4B01221A70C4
:103FF0007B681A68084B1B681B689A4202D1074B02
:1040000001221A7000BF0C37BD465DF8047B704773
:1040100088010020380900208C0100203909002087
:1040200080B500AF024B034A1A60FFF7EFFE00BFF6
:10403000DC080020EFBEADDE80B582B000AF104BD3
:104040001B68104A93420DD10D4B0F4A1A600F4B5B
:104050003B603B6883F3088800BF0D4B1B687B60A7
:104060007B689847064B1B682A2B04D0044B2A22F6
:104070001A60FFF7CBFE00BF0837BD4680BD00BF0A
:10408000DC080020EFBEADDEEDFEFECA000002201F
:104090000400FF1F80B485B000AF87ED010AD7EDA3
:1040A000017AFDEEE77A17EE903A184A82FB031286
:1040B0001A441212DB17D31AFB60FB684FF4B47278
:1040C00002FB03F307EE903AF8EEE77A97ED017AF8
:1040D00077EE677AC7ED017AD7ED017AF5EEC07A0F
:1040E000F1EE10FA07D5D7ED017A9FED097A77EE58
:1040F000877AC7ED017A7B6807EE903AB0EE670ADF
:104100001437BD465DF8047B704700BFB7600BB63F
:104110000000B44380B584B000AF87ED010A97ED8D
:10412000010AFFF7B7FF87ED010AD7ED017AFDEE2F
:10413000E77A17EE901A1D4B83FB01239A10CB17D9
:10414000D31AFB60FB6807EE903AF8EEE77AB2EE1E
:10415000047A67EE877A97ED017A37EE677AF2EEA6
:10416000046AC7EE267AC7ED027A114AFB689B0003
:10417000134493ED007AFB6801330D4A9B0013440E
:10418000D3ED006A0A4AFB689B001344D3ED007A22
:1041900076EEE76AD7ED027A66EEA77A77EE277AAF
:1041A000B0EE670A1037BD4680BD00BF6766666621
:1041B0001CEE000880B582B000AF87ED010AD7ED94
:1041C000017A9FED077A77EE877AB0EE670AFFF7FC
:1041D000A1FFF0EE407AB0EE670A0837BD4680BD19
:1041E0000000B44280B485B000AF786039607A686E
:1041F0003B68D31AFB60FB6807EE903AB8EEE77AAB
:10420000DFED076AC7EE267AC7ED027ABB6807EED4
:10421000903AB0EE670A1437BD465DF8047B7047EC
:104220000000004580B500AF1048FEF730FD104992
:104230000E48FEF77BFF08210C48FEF7FCFD20210D
:104240000A48FEF7D7FD4FF410710848FEF7B2FD9B
:104250000C210648FEF710FE054B012283F82320AF
:1042600003490248FEF75FFE00BF80BD9C010020AD
:104270005C09002080B500AF264B1B6840F6330276
:104280005A63244B1B6840F633029A63214B1B6828
:1042900040F63302DA631F4B1B6832221A64002196
:1042A0001C4806F097FA04211A4806F093FA0821F0
:1042B000184806F08FFA0021164806F0FEFF042188
:1042C000144806F0FAFF0821124806F0F6FF0C2108
:1042D000104806F07FFA08210F4806F07BFA0C21FF
:1042E0000D4806F077FA0C210C4806F073FA0C4BD7
:1042F0001B68184606F01FFA0A4B1B68184606F0A2
:104300001AFA094B1B683C21184606F033FB00BF24
:1043100080BD00BFF00C0020300D0020300C0020CC
:10432000880100208C0100209401002080B500AF9E
:10433000074802F07FF9074802F07CF9064802F0CE
:1043400037FA03220549044802F030FB00BF80BD64
:10435000880A002098090020400A00204409002013
:1043600080B584B000AF4FF00003FB604FF0000356
:10437000BB60642001F070FD00237B601FE0204BD8
:104380005B889BB207EE903AF8EEE77A97ED037AF6
:1043900077EE277AC7ED037A194B9B889BB207EE1D
:1043A000903AF8EEE77A97ED027A77EE277AC7ED42
:1043B000027A012001F050FD7B6801337B607B684D
:1043C000632BDCDD97ED037ADFED0E6AC7EE267A0C
:1043D000FCEEE77A17EE903A9AB20B4B5A8097EDC3
:1043E000027ADFED086AC7EE267AFCEEE77A17EE6E
:1043F000903A9AB2044B9A8000BF1037BD4680BDF8
:104400004C0900200000C8425409002080B500AFCC
:10441000FEF784FFFFF706FFFFF788FFFFF72AFF8D
:10442000FFF79EFFFFF75AFB01F00AFD0346024A21
:10443000136000BF80BD00BF3409002080B582B08A
:1044400000AF786001210D4802F078FA03469AB275
:104450000B4B1A8001210B4802F070FA03469AB206
:10446000074B5A800121084802F068FA03469AB2C5
:10447000034B9A8000BF0837BD4680BD400A00202C
:104480004C09002098090020880A002080B582B0DD
:1044900000AF2A4B5B889BB21A46294B5B889BB2C4
:1044A00019461046FFF79EFE87ED010A234B9B88B5
:1044B0009BB21A46224B9B889BB219461046FFF7C7
:1044C00091FE87ED000A1F4B93ED007A1D4BD3ED53
:1044D000007AD7ED016A76EEE76A1B4B1B68D3F8CA
:1044E0002130F7EE007A06EE103A77EEC67A66EEE5
:1044F000A77A77EE277A134BC3ED007A114B93ED31
:10450000017A104BD3ED017AD7ED006A76EEE76AB7
:104510000D4B1B68D3F82130F7EE007A06EE103A07
:1045200077EEC67A66EEA77A77EE277A054BC3ED6B
:10453000017A00BF0837BD4680BD00BF4C0900208E
:10454000540900203C090020B0010020B0B586B01D
:1045500000AFF860C7E9002303F052FA144BB3220E
:10456000DA600221F86803F0ADFB00237B6114E000
:1045700039687B69BA6A13441B78DAB24FF00003DA
:10458000002003F0E9F9D7E90023541C43F10005AA
:10459000C7E900457B6901337B61BB8D7A699A422B
:1045A000E6DB03F04FFA00BF1837BD46B0BD00BFD1
:1045B000003C024080B582B002AF084B084A1A6046
:1045C0003B230193054B0093064A4FF000030A205A
:1045D000FFF7BCFF00BFBD4680BD00BFEC0100205F
:1045E000FFACAAAA00000C0880B582B002AF084B4D
:1045F000084A1A6031230193054B0093064A4FF095
:1046000000030B20FFF7A2FF00BFBD4680BD00BF27
:10461000B8010020FFACAAAA00000E0880B582B045
:1046200000AF064B1B687B607B68054A934201D054
:10463000FFF7DAFF00BF0837BD4680BD00000E0857
:10464000FFACAAAA80B582B000AF064B1B687B60A6
:104650007B68054A934201D0FFF7ACFF00BF0837E3
:10466000BD4680BD00000C08FFACAAAA80B500AF13
:10467000FFF7A0FF00BF80BD80B588B000AF032268
:104680002649274802F0A2FDF86101222349244867
:1046900002F09CFDB86101222249214802F096FDFA
:1046A0007861012220491E4802F090FD38611F4BBD
:1046B0005B68FA695340FB601C4B9B68FA69534086
:1046C000BB601A4BDB68FA6953407B60FA68BB69D0
:1046D0009A420CBF01230023DAB2B9687B69994280
:1046E0000CBF01230023DBB21340DBB219467A680A
:1046F0003B699A420CBF01230023DBB20B40002B25
:1047000014BF01230023FB70FB78002B01D0FFF7BF
:104710006BFF00BF2037BD4680BD00BF107AFF1F72
:10472000900B0020147AFF1F187AFF1FB801002099
:1047300080B500AFFFF786FFFFF770FF00BF80BDB9
:1047400080B584B000AF78607B685B889BB24FF621
:10475000FF72934215D07B681B889BB21A460C4BA4
:104760001344FB607B685B889BB23A2B28BF3A23DB
:104770007B817B6804337A891946F86809F060FB0D
:1047800002E0044B01221A7000BF1037BD4680BD05
:10479000EC0100203009002080B584B000AF7860C3
:1047A0007B685B889BB24FF6FF72934215D07B68A3
:1047B0001B889BB21A460C4B1344FB607B685B88DA
:1047C0009BB23A2B28BF3A237B817B6804337A89DA
:1047D0001946F86809F034FB02E0044B01221A7014
:1047E00000BF1037BD4680BDB80100203109002050
:1047F00080B582B000AF00237B600023FB7023E014
:1048000001220221144803F059FC0220FEF7A6FD04
:1048100000220221104803F051FC0220FEF79EFD09
:1048200004210D4803F032FC0346002B0CBF01238A
:104830000023DBB21A46FB7802FA03F37A681343CB
:104840007B60FB780133FB70FB78072BD8D97B6842
:1048500018460837BD4680BD0000024080B582B0D2
:1048600000AF00220121164803F028FC0A20FEF7C1
:1048700075FD00237B6016E0FFF7BAFF03465AB2CE
:10488000104B19687B680B4415331B785BB253409F
:104890005BB2D9B20C4A7B68134401330A461A70E2
:1048A0007B6801337B607B68032BE5DD01220121FE
:1048B000034803F003FC00BF0837BD4680BD00BFBE
:1048C00000000240B00100209007002080B500AF3A
:1048D00000220E490E4808F035F90346002B01D09E
:1048E000FCF770FE0B490A4808F062F90346002BFA
:1048F00001D0FCF767FE064808F07BF90346002B61
:1049000001D0FCF75FFE00BF80BD00BF2008002083
:10491000B00D0020B007002080B483B000AF7860F5
:1049200000BF0C37BD465DF8047B704780B483B090
:1049300000AF786000BF0C37BD465DF8047B704760
:1049400080B485B000AF786039603B681B781A4648
:104950001B4B53F82230FB603B685B889AB2FB68C4
:104960005A80FB687A689A603B68DB7A07EE903A77
:10497000F8EEE77A9FED137A27EE877ADFED126A79
:10498000C7EE267AFB68C3ED037AFB681B78DBB2BF
:10499000042B0FD10D4B1B681B79002B0AD0084B41
:1049A0001B68BB603B685B889AB2BB685A80BB6877
:1049B0007A689A6000BF1437BD465DF8047B704783
:1049C000040000200000B44300007F43B401002035
:1049D00080B485B000AF786039603B681B781A46B8
:1049E0002B4B53F82230FB60FB681B78DBB2042BA7
:1049F00020D1284B1B681B79002B1BD03B68B3F8D8
:104A000001309BB2002B15D1214B1B68BB603B686A
:104A1000B3F903301BB207EE903AB8EEE77ADFED58
:104A20001E6AC7EE267ABB68C3ED047ABB687A6853
:104A30009A6027E03B68B3F801309BB207EE903AEA
:104A4000B8EEE77ADFED146AC7EE267AFB68C3EDAD
:104A5000047A3B68B3F903301BB207EE903AB8EE24
:104A6000E77ADFED0D6AC7EE267AFB68C3ED057ABB
:104A70003B68B3F807309AB2FB689A83FB687A68A0
:104A80009A6000BF00BF1437BD465DF8047B7047D5
:104A900004000020B401002000401C4680B485B012
:104AA00000AF786039603B681B781A462A4B53F890
:104AB0002230FB603B68B3F902301BB2002B15D1EA
:104AC0003B68B3F904301BB2002B0FD13B68B3F93C
:104AD00006301BB2002B09D13B681B899BB2002B0F
:104AE00004D13B685B899BB2002B2FD03B68B3F9A4
:104AF00002301BB207EE903AB8EEE77ADFED176AA4
:104B0000C7EE267AFB68C3ED047A3B68B3F904303C
:104B10001BB207EE903AB8EEE77ADFED106AC7EE07
:104B2000267AFB68C3ED057A3B68B3F906301BB201
:104B300007EE903AB8EEE77ADFED086AC7EE267A1C
:104B4000FB68C3ED067AFB687A689A6000BF143789
:104B5000BD465DF8047B70470400002000401C4601
:104B600080B485B000AF786039603B681B781A4626
:104B70000D4B53F82230FB603B68B3F901301BB298
:104B800007EE903AB8EEE77ADFED086AC7EE267ACC
:104B9000FB68C3ED047AFB687A689A6000BF14373B
:104BA000BD465DF8047B70470400002000401C46B1
:104BB00080B485B000AF786039603B681B781A46D6
:104BC000154B53F82230FB603B68B3F901301BB240
:104BD00007EE903AB8EEE77ADFED106AC7EE267A74
:104BE000FB68C3ED047A3B68B3F903301BB207EEF0
:104BF000903AB8EEE77ADFED096AC7EE267AFB68ED
:104C0000C3ED057AFB687A689A6000BF1437BD4629
:104C10005DF8047B704700BF0400002000401C4684
:104C200080B485B000AF0346FB71FB790A4A52F8A5
:104C30002330FB60FB6801225A70FB6800225A8017
:104C4000FB6800229A80FB6800229A6000BF14373C
:104C5000BD465DF8047B70470400002080B485B039
:104C600000AF78600B46FB701346BB70FB780B2BD4
:104C700023D8FB78144A52F82330FB60FB680222E9
:104C80005A70BB789AB2FB689A80FB687A689A601F
:104C9000FB78042B11D10D4B1B681B79002B0CD01A
:104CA000094B1B68BB60BB6802225A70BB789AB282
:104CB000BB689A80BB687A689A6000BF1437BD46AB
:104CC0005DF8047B704700BF04000020B4010020A1
:104CD00080B485B000AF0346FB71FB790B2B15D870
:104CE000FB790D4A52F82330FB60FB6803225A70AF
:104CF000FB79042B0AD1094B1B681B79002B05D0CB
:104D0000054B1B68BB60BB6803225A7000BF143799
:104D1000BD465DF8047B704704000020B40100200C
:104D200080B582B000AF0123FB7106E0FB79184625
:104D3000FFF7CEFFFB790133FB71FB790B2BF5D924
:104D400000BF00BF0837BD4680BD000080B485B0FD
:104D500000AF0346FB71FB790B2B10D8FB790B4A94
:104D600052F82330FB60FB6800225A70FB68002277
:104D70005A80FB6800229A80FB6800229A6000BF7C
:104D80001437BD465DF8047B704700BF0400002067
:104D900080B582B000AF0123FB7106E0FB791846B5
:104DA000FFF7D4FFFB790133FB71FB790B2BF5D9AE
:104DB00000BF00BF0837BD4680BD80B400AF00BF54
:104DC000BD465DF8047B704780B400AF00BFBD46B0
:104DD0005DF8047B704780B500AFFFF7A1FF00BF0F
:104DE00080BD80B500AFFFF7D3FF00BF80BD80B4AA
:104DF00000AF00BFBD465DF8047B704780B400AFD4
:104E000000BFBD465DF8047B704780B582B000AF3F
:104E100078607B685B78032B1CD0032B20DC012B94
:104E200002D0022B0AD01BE001F00AF87B68197847
:104E30007B689B781A46FFF711FF12E0FFF770FFBF
:104E400000F0FEFF7B6819787B689B781A46FFF7B5
:104E500005FF06E07B681B781846FFF739FF00E086
:104E600000BF00BF0837BD4680BD000080B582B0DE
:104E700000AF78607B681B78013B052B20D801A22E
:104E800052F823F09D4E0008A34E0008A94E0008DA
:104E9000AF4E0008B54E0008BB4E0008FFF78DFF6F
:104EA0000FE0FFF791FF0CE0FFF795FF09E0FFF738
:104EB00098FF06E0FFF79BFF03E0FFF79FFF00E08E
:104EC00000BF00BF0837BD4680BD00BF80B582B0BF
:104ED00000AF78607B681B78FF2B02D1FFF758FF8B
:104EE00004E07B681B781846FFF730FF00BF0837E7
:104EF000BD4680BD80B584B000AF78607B681B780C
:104F0000FB73FB7B013B0A2B0AD8FB7B1846FFF7A0
:104F100087FE0E4AFB7B53700C4B01229A7006E011
:104F20000A4B00225A70094B03229A7000BFFB7B88
:104F3000042B07D1064B1B681B79002B02D00020E5
:104F4000FFF76EFE00BF1037BD4680BD880700200A
:104F5000B401002080B584B000AF78607B68D3F8DE
:104F6000C032FB60FB681B78112B02D01F2B06D0D0
:104F70000BE0FB6801331846FFF7BCFF05E0FB6858
:104F80000133184600F086F800BF00BF1037BD4659
:104F900080BD000080B584B000AF78607B68D3F836
:104FA000C032FB60FB681B78113B0C2B6CD801A254
:104FB00052F823F0E94F0008FD4F00081D5000088B
:104FC0000950000831500008455000088950000879
:104FD0008950000889500008595000087150000895
:104FE000655000087D50000800F02AFF0246FB686B
:104FF000013319461046FFF7A3FC46E0FB68013376
:105000001846FFF793FC40E000F01AFF0246FB68E9
:10501000013319461046FFF7DBFC36E000F010FFC5
:105020000246FB68013319461046FFF737FD2CE0B6
:1050300000F006FF0246FB68013319461046FFF7F1
:105040008FFD22E000F0FCFE0246FB6801331946AA
:105050001046FFF7ADFD18E0FB6801331846FFF777
:10506000D4FE12E0FB6801331846FFF7FFFE0CE0A8
:10507000FB6801331846FFF729FF06E0FB680133A0
:105080001846FFF749FC00E000BF00BF1037BD46DF
:1050900080BD00BF80B582B000AF78607B681B78B0
:1050A000032B0FD0032B13DC012B02D0022B03D0D8
:1050B0000EE0FEF7B5FF0CE07B6801331846FFF702
:1050C0003FFB06E07B6801331846FFF765FB00E015
:1050D00000BF00BF0837BD4680BD000080B485B06A
:1050E00000AF0F4B1B681B68FB600D4B1B685B68B8
:1050F000BB600B4B1B689B687B600A4B1B680A4AB2
:1051000013600A4B1B68084A5360094B1B68064A28
:10511000936000BF1437BD465DF8047B704700BF45
:10512000AC070020107AFF1F80090020147AFF1FAF
:10513000187AFF1F80B58AB000AF786007F11403BA
:1051400000221A605A609A60DA601A617B681B68F4
:10515000B3F1A04F3AD100233B611E4B1B6B1D4A9C
:1051600043F0010313631B4B1B6B03F001033B6113
:105170003B694FF4C0537B610223BB610023FB6199
:1051800003233B620A237B6207F11403194612488A
:1051900002F0E0FD0F4B5B6B0E4A43F0800353635C
:1051A0000023FB600B4B5B6C0A4A43F4804353645F
:1051B000084B5B6C03F48043FB60FB68002200211A
:1051C000432001F0BDFF432001F0D6FF00BF283788
:1051D000BD4680BD003802400000024080B582B06C
:1051E00000AF78607B68D3F804247B6803F57173A3
:1051F0001946104607F048FD00BF0837BD4680BD80
:1052000080B582B000AF78600B46FB707B68D3F846
:105210000404FA7879681346DB009B1A9B000B4460
:1052200003F502731A68FB78194607F082FD00BF88
:105230000837BD4680BD80B582B000AF78600B46B0
:10524000FB707B68D3F80404FA7879681346DB00B6
:105250009B1A9B000B4448331A68FB78194607F0E9
:10526000CBFD00BF0837BD4680BD80B582B000AF22
:1052700078607B68D3F80434184607F0CFFE00BF8F
:105280000837BD4680BD80B584B000AF786001238B
:10529000FB737B68DB68002B02D10023FB7308E003
:1052A0007B68DB68022B02D10123FB7301E0FCF772
:1052B00089F97B68D3F80434FA7B1146184607F065
:1052C00072FE7B68D3F80434184607F02BFE00BF4B
:1052D0001037BD4680BD000080B582B000AF786059
:1052E0007B68D3F80434184607F06DFE7B681B68B2
:1052F00003F560631B687A68126802F5606243F028
:10530000010313607B681B6A002B05D0044B1B69EB
:10531000034A43F00603136100BF0837BD4680BD52
:1053200000ED00E080B582B000AF78607B68D3F814
:105330000434184607F05CFE00BF0837BD4680BD48
:1053400080B582B000AF78600B46FB707B68D3F805
:105350000434FA781146184607F087FE00BF083774
:10536000BD4680BD80B582B000AF78600B46FB7053
:105370007B68D3F80434FA781146184607F068FEC3
:1053800000BF0837BD4680BD80B582B000AF7860F1
:105390007B68D3F80434184607F074FE00BF083762
:1053A000BD4680BD80B582B000AF78607B68D3F821
:1053B0000434184607F071FE00BF0837BD4680BDB3
:1053C00080B582B000AF78607B681B78002B3CD141
:1053D000204A7B68C2F804347B681E4AC3F8C422A2
:1053E0001C4B4FF0A0421A601A4B04225A60194B12
:1053F0000222DA60174B00221A61164B02229A61D0
:10540000144B0022DA61134B00221A62114B002266
:105410005A62104B0022DA620E4B00221A630D48CA
:1054200002F065FE0346002B01D0FCF7CBF880218B
:10543000084803F0AAFF40220021064803F05EFF5F
:1054400080220121034803F059FF00231846083742
:10545000BD4680BD8010002080B584B000AF78606C
:105460000023FB730023BB737B68D3F8C432184658
:1054700002F05AFF0346FB73FB7B184600F018F955
:105480000346BB73BB7B18461037BD4680BD80B555
:1054900084B000AF7860084611461A460346FB7098
:1054A0000B46BB7013463B800023FB730023BB738A
:1054B0007B68D3F8C402BB783A88F97803F03EFBE6
:1054C0000346FB73FB7B184600F0F2F80346BB7300
:1054D000BB7B18461037BD4680BD80B584B000AF99
:1054E00078600B46FB700023FB730023BB737B6863
:1054F000D3F8C432FA781146184603F087FB034606
:10550000FB73FB7B184600F0D3F80346BB73BB7BF1
:1055100018461037BD4680BD80B584B000AF7860B6
:105520000B46FB700023FB730023BB737B68D3F82F
:10553000C432FA781146184603F047FC0346FB7361
:10554000FB7B184600F0B4F80346BB73BB7B1846E0
:105550001037BD4680BD80B584B000AF78600B4683
:10556000FB700023FB730023BB737B68D3F8C4324A
:10557000FA781146184603F08CFC0346FB73FB7B5C
:10558000184600F095F80346BB73BB7B18461037EE
:10559000BD4680BD80B485B000AF78600B46FB701F
:1055A0007B68D3F8C432FB6097F90330002B0BDA29
:1055B000FB7803F07F02F9681346DB009B1A9B001F
:1055C0000B443E331B780BE0FB7803F07F02F96855
:1055D0001346DB009B1A9B000B4403F5FF731B78FB
:1055E00018461437BD465DF8047B704780B584B01B
:1055F00000AF78600B46FB700023FB730023BB7386
:105600007B68D3F8C432FA781146184603F071FA71
:105610000346FB73FB7B184600F04AF80346BB7356
:10562000BB7B18461037BD4680BD80B586B000AF45
:10563000F8607A603B600B46FB720023FB75002329
:10564000BB75FB68D3F8C402F97A3B687A6803F04B
:1056500072FB0346FB75FB7D184600F029F80346F4
:10566000BB75BB7D18461837BD4680BD80B586B07A
:1056700000AFF8607A603B600B46FB720023FB755D
:105680000023BB75FB68D3F8C402F97A3B687A68DB
:1056900003F006FB0346FB75FB7D184600F008F897
:1056A0000346BB75BB7D18461837BD4680BD00005C
:1056B00080B485B000AF0346FB710023FB73FB7918
:1056C000032B17D801A252F823F000BFDD560008C3
:1056D000E3560008E9560008EF5600080023FB7364
:1056E0000BE00323FB7308E00123FB7305E00323B6
:1056F000FB7302E00323FB7300BFFB7B18461437E8
:10570000BD465DF8047B704780B584B000AF78601B
:105710000B46FB70102008F083FB0346FB60FB6820
:10572000002B05D17B680022C3F8BC22022331E0A4
:105730007B68FA68C3F8BC22402008F071FB03467E
:105740001A467B68C3F8C0227B6801225A877B68AF
:105750000122A3F87A214023032281217868FFF7F0
:1057600096FE7B6801221A87402303220121786874
:10577000FFF78DFE7B680122A3F87821FB680022E9
:105780001A737B68D3F8C022402301217868FFF7A1
:105790006DFF002318461037BD4680BD80B582B02E
:1057A00000AF78600B46FB7081217868FFF795FEAB
:1057B0007B6800221A877B6800225A87012178685B
:1057C000FFF78BFE7B680022A3F878217B6800221C
:1057D000A3F87A217B68D3F8BC32002B09D07B6810
:1057E000D3F8BC32184608F023FB7B680022C3F8CC
:1057F000C0227B68D3F8C032002B09D07B68D3F875
:10580000C032184608F014FB7B680022C3F8C0229F
:10581000002318460837BD4680BD000080B584B01F
:1058200000AF786039607B68D3F8BC32FB603B68BE
:105830001B7803F06003402B00F00781402B00F23F
:105840003681002B00F0B980202B40F030813B687E
:105850005B78013B0A2B00F2A68001A252F823F0EC
:10586000FD580008BB5800089B580008A7590008BD
:10587000A7590008A7590008A7590008A759000808
:10588000CB580008A95800088D5800083B685B8871
:10589000DBB21A46FB681A608EE0FB6801221946EB
:1058A000786808F0E3F987E03B685B881B0A9BB2E5
:1058B000DBB21A46FB685A607EE0FB6804330122C3
:1058C0001946786808F0D2F976E03B685B881B0AD5
:1058D0009BB2DBB2032B6CD13B685B88DBB2112B34
:1058E00001D01F2B65D17B68D3F8C0123B68DB88E1
:1058F0001A46786808F0E6F900BF5AE03B685B8812
:105900001B0A9BB2DBB2032B55D13B685B88DBB231
:10591000123B0F2B4FD801A252F823F0695900080F
:105920005D590008B7590008B7590008B759000871
:10593000B7590008B7590008B7590008B759000807
:10594000B7590008B7590008B75900087559000839
:10595000B75900088559000895590008052259498A
:10596000786808F083F91DE005225749786808F047
:105970007DF917E0554B1B683B221946786808F003
:1059800075F90FE0524B1B6831221946786808F010
:105990006DF907E04F4B1B680C221946786808F038
:1059A00065F900BF07E03968786808F0EEF803236E
:1059B00084E000BF81E000BF7FE03B685B780B2B99
:1059C00034D00B2B39DC062B02D00A2B26D034E046
:1059D0003B685B881B0A9BB2222B0DD13B68DB889E
:1059E00040F25652934228BF13469BB21A463A4998
:1059F000786808F03BF926E03B685B881B0A9BB29D
:105A0000212B20D135493B68DB88092B28BF09238E
:105A10009BB21A46786808F029F914E0FB6808334D
:105A200001221946786808F021F90DE03B685B888F
:105A3000DBB21A46FB689A6006E03968786808F0BD
:105A4000A4F803233AE000BF37E03B685B78012B02
:105A500025D13B685B881B0A9BB2DBB2032B24D1A8
:105A60003B685B88DBB2212B12D0212B1DDC1E2B67
:105A700002D0202B06D018E004221449786808F0E0
:105A8000F5F80BE004221249786808F0EFF805E019
:105A900004221049786808F0E9F800BF05E0396889
:105AA000786808F072F8032308E000BF05E0396861
:105AB000786808F06AF8032300E0002318461037DE
:105AC000BD4680BD8007002088070020B40100206B
:105AD000B0010020AC07002028020020FA070020B7
