:020000040800F2
:1000000000000220FD4900086D4200087B42000804
:1000100081420008874200088D420008000000006D
:1000200000000000000000000000000093420008F3
:10003000A142000800000000AF420008BD420008D5
:100040004D4A00084D4A00084D4A00084D4A000834
:100050004D4A00084D4A00084D4A00084D4A000824
:100060004D4A00084D4A00084D4A00084D4A000814
:100070004D4A00084D4A00084D4A00084D4A000804
:100080004D4A00084D4A0008CD4200084D4A00087C
:100090004D4A00084D4A00084D4A00084D4A0008E4
:1000A0004D4A00084D4A0008F54200084D4A000834
:1000B0004D4A00084D4A00084D4A00084D4A0008C4
:1000C0004D4A00084D4A00084D4A000809430008FF
:1000D0004D4A00084D4A00084D4A00084D4A0008A4
:1000E0004D4A00084D4A00084D4A00084D4A000894
:1000F0004D4A00081D4300084D4A00084D4A0008BB
:100100004D4A00084D4A00084D4A0008394300088E
:100110004D4A00084D4A00084D430008614300085D
:1001200075430008894300089D4300084D4A0008B4
:100130004D4A000800000000000000004D4A000881
:100140004D4A00084D4A00084D4A0008B1430008D6
:100150004D4A00084D4A00084D4A00084D4A000823
:100160004D4A00084D4A00084D4A00084D4A000813
:100170004D4A00084D4A0008000000000000000041
:080180004D4A00084D4A000839
:1001880010B5054C237833B9044B13B10448AFF3C9
:1001980000800123237010BD00080020000000002B
:1001A80080C4000808B5034B1BB103490348AFF3EB
:1001B800008008BD000000000408002080C400087A
:1001C80053B94AB9002908BF00281CBF4FF0FF31B6
:1001D8004FF0FF3000F06EB9ADF1080C6DE904CEB8
:1001E80000F006F8DDF804E0DDE9022304B070470A
:1001F8002DE9F047089D04468C46002B40F083808B
:100208008A42174647D9B2FA82F242B1C2F12000B7
:1002180024FA00F09140974040EA010C94404FEADC
:100228001748230CBCFBF8F61FFA87FE08FB16C11B
:1002380043EA014306FB0EF1994209D9FB1806F17E
:10024800FF3080F01981994240F21681023E3B440A
:100258005B1AA4B2B3FBF8F008FB103344EA03447A
:1002680000FB0EFEA64509D93C1900F1FF3380F0CA
:100278000581A64540F2028102383C4440EA064026
:10028800A4EB0E0400261DB1D4400023C5E90043A9
:100298003146BDE8F08702B9FFDEB2FA82F2002AE1
:1002A80050D1CB1B4FEA174E1FFA87F80126B3FB34
:1002B800FEFC210C0EFB1C3341EA034108FB0CF346
:1002C8008B4207D979180CF1FF3002D28B4200F229
:1002D800E9808446C91AA3B2B1FBFEF00EFB1011E7
:1002E80043EA014408FB00F8A04507D93C1900F18E
:1002F800FF3302D2A04500F2D9801846A4EB0804C7
:1003080040EA0C40BFE78B4209D9002D00F0B180CC
:100318000026C5E9000130463146BDE8F087B3FA4A
:1003280083F6002E4AD18B4202D3824200F2B88073
:10033800841A61EB030101208C46002DA8D0C5E981
:10034800004CA5E7C2F1200320FA03F6974001FA12
:1003580002F04FEA174ED9403043030CB1FBFEF6CA
:100368001FFA87F80EFB161143EA014306FB08F152
:10037800994204FA02F409D9FB1806F1FF3C80F00F
:100388008D80994240F28A80023E3B445B1A81B2DA
:10039800B3FBFEF00EFB103341EA034100FB08F308
:1003A8008B4207D9791800F1FF3C73D28B4271D97F
:1003B80002383944CB1A40EA064678E7C6F1200CE1
:1003C80003FA06F422FA0CF31C4320FA0CF701FA9C
:1003D80006F34FEA144E21FA0CF11F433B0CB1FB14
:1003E800FEF91FFA84F80EFB191143EA014109FBD3
:1003F80008FA8A4502FA06F200FA06F308D96118E3
:1004080009F1FF3048D28A4546D9A9F102092144A9
:10041800A1EB0A01BFB2B1FBFEF00EFB101147EAD7
:10042800014700FB08F8B84507D9E71900F1FF3183
:100438002ED2B8452CD90238274440EA0940A7EB08
:100448000807A0FB02894F45C64649461AD317D06C
:100458005DB1B3EB0E0267EB010707FA0CFCF24043
:100468004CEA0202F740C5E9002700263146BDE8FC
:10047800F0872E4628460BE70646E9E61846FDE6CD
:100488004345E5D2B8EB020E69EB04010138DFE71A
:100498000846D2E760468DE78146B9E7664675E7C4
:1004A80030464AE7ACF1020C394413E702383C44C1
:1004B80024E700BF704700BF80B500AF084801F0CF
:1004C800EFF8074B1B699AB2064BA3F80920064BB5
:1004D8001B6819220349184602F0CCFE00BF80BDF4
:1004E80024000020A40600200000002080B500AFF2
:1004F8000A4801F0D5F8094B1A69094B5B685B6833
:1005080092B21A80064B5868054B1B68DB6842F2AA
:100518001072194600F014FE00BF80BD24000020B0
:100528001400002080B584B000AF6C4B5B889BB290
:100538001A466A4BB3F81F309BB203FB02F3684AB2
:1005480082FB03121A445212DB17D31ABB60654BA5
:100558001B689B6883EAE372A2EBE372BB68D21A5A
:10056800BB68614981FB03018910DB17CB1A9A42EA
:1005780007DDBB685C4A82FB03129210DB17D31AB3
:100588000AE0584B1B689B6883EAE372A2EBE372AC
:10059800BB68D31A23EAE3737B607B6842F210726C
:1005A80002FB03F2BB6892FBF3F34F4A82FB031290
:1005B8009210DB17D31A642202FB03F3FB60494B4A
:1005C8001B689A68BB685B429A4202DAFB685B4226
:1005D800FB60444B1B689B68BA689A42414B93E89E
:1005E800030001F005FD03463C4AB2F9052012B2AA
:1005F80002FB03F33D4A82FB03125211DB17D21AA6
:10060800364BB3F905301BB21946FB6803FB01F3FF
:100618003249B1F9051009B20029B8BF494289B277
:1006280093FBF1F3134441F64C5293424FDC2D4BAC
:1006380093E8030001F0DCFC0346284AB2F90520E0
:1006480012B202FB03F3294A82FB03125211DB1791
:10065800D21A224BB3F905301BB21946FB6803FBCB
:1006680001F31E49B1F9051009B20029B8BF494282
:1006780089B293FBF1F313441D4A934225DB194BCE
:1006880093E8030001F0B4FC0346144AB2F90520CC
:1006980012B202FB03F3154A82FB03125211DB1755
:1006A800D21A0E4BB3F905301BB21946FB6803FB8F
:1006B80001F30A49B1F9051009B20029B8BF494246
:1006C80089B293FBF1F3134403E0094B01E041F6CF
:1006D8004C5318461037BD4680BD00BF2008002087
:1006E800B7600BB614000020676666661F85EB517D
:1006F800B4E2FFFFB0B584B000AF7860786801F06D
:100708005BFC1A4B9B691A4AB2F81D2092B29B1ADD
:10071800174A92F91C2002FB03F3FB60154B1B6878
:100728009B68FA68D31A1946134B1B687A68D31A60
:10073800B1FBF3F20F4B1B685A600E4B1B68FA684B
:100748009A600C4B1B68DD68FFF7ECFE0146084B0E
:10075800DB79084A14681A46284601F039F9034635
:10076800E36000BF1037BD46B0BD00BF24000020C5
:100778002008002014000020D809002080B483B08D
:1007880000AF194B5B889BB21A46174BB3F81F3062
:100798009BB203FB02F3154A82FB03121A4452125E
:1007A800DB17D31A7B60124B1B689B687A689A42E6
:1007B80008DB0F4B1B689A687B685B429342B8BFA3
:1007C800134600E07B687A681A441346DB039A1ADA
:1007D8007B6892FBF3F3DA0F13445B1018460C376F
:1007E800BD465DF8047B704720080020B7600BB653
:1007F8001400002098B500AF114BB3F809309BB234
:100808001C46FFF7BBFF01460E4B1B791A462046D4
:1008180001F0DEF803469AB2094BA3F80920084B09
:100828004FF0FF32DA72002242F03F021A73064B91
:100838001B6819220249184602F01CFD00BF98BD2A
:10084800A4060020200800200000002080B582B007
:1008580000AF7860114B1B78DBB2002B04D0FFF798
:1008680045FE0E4B00221A700D4B1B687A689A429F
:1008780005D97868FFF73EFF094A7B681360094B82
:100888001B78DBB2002B04D0FFF7B4FF054B002226
:100898001A7000BF0837BD4680BD00BF1C08002085
:1008A800D80900201D08002080B500AF024800F0DC
:1008B800D5FE00BF80BD00BF2400002080B500AF7A
:1008C800FFF7F2FF00BF80BD80B483B000AF78604F
:1008D8007B681A680B4B1B681B689A4202D10A4B4B
:1008E80001221A707B681A68084B1B681B689A42B9
:1008F80002D1074B01221A7000BF0C37BD465DF8C4
:10090800047B7047040000201C0800200800002019
:100918001D08002080B584B000AF78600F4B1B68BD
:10092800FB6001210E4804F0B5FC03461AB2FB68CF
:100938001A8201210B4804F0ADFC03461AB2FB6889
:100948005A820121084804F0A5FC03461AB2FB6844
:100958009A8200BF1037BD4680BD00BF140000203A
:1009680074130020CC120020BC13002080B584B082
:1009780000AF0346FB710023FB6008E0084800F065
:100988008FFE0A2004F0A2F8FB680133FB60FB79B4
:10099800FA689A42F2DB00BF00BF1037BD4680BD3F
:1009A8002400002080B5D0B000AF3B1D186007F1CF
:1009B800080318464FF480731A4600210BF08CFC8C
:1009C8000023C7F8383111E0994B5868D7F8383107
:1009D8009AB242F21073002100F034FB012004F0B7
:1009E80075F8D7F838310133C7F83831D7F83831C6
:1009F800B3F5FA6FE8DB642004F068F88D4800F07E
:100A08004FFE8C4B1B69A7F83E310023C7F83431E1
:100A180012E0874B5868D7F8343199B242F2107314
:100A28004FF4FA6200F00EFB012004F04FF8D7F8FB
:100A380034310133C7F83431D7F83431B3F5B47FE2
:100A4800E7DB4FF4FA7004F041F87A4800F028FE2A
:100A5800784B1B69A7F80A31B7F80A21B7F83E3175
:100A68009A4201D9012301E04FF0FF3387F8093199
:100A78004FF4B473C7F8303112E06D4B5868D7F8AB
:100A8800303199B242F210734FF4FA6200F0DAFA98
:100A9800012004F01BF8D7F83031013BC7F830319A
:100AA800D7F83031002BE8DA0023C7F82C310023BF
:100AB80087F82B31D7F82C31013BC7F82C315C4B28
:100AC8005868D7F82C3199B242F210734FF4FA6291
:100AD80000F0B8FA012003F0F9FFD7F82C3113F52C
:100AE800B47F28DA534800F0DBFD524B1B69A7F8A6
:100AF8000A3197F90931012B08D1B7F83E21B7F827
:100B08000A319A4202D2012387F82B3197F9093129
:100B1800B3F1FF3F08D1B7F83E21B7F80A319A423E
:100B280002D9012387F82B31B7F80A31A7F83E31EB
:100B38000023C7F82C3197F82B31002BBAD04FF48B
:100B4800FA7003F0C3FF0023C7F8243112E0384BD2
:100B58005868D7F8243199B242F210734FF4FA6208
:100B680000F070FA012003F0B1FFD7F82431013BFF
:100B7800C7F82431D7F8243113F12D0FE7DA6420B0
:100B880003F0A4FF2B4800F08BFD2A4B1B69A7F844
:100B98003E316FF02C03C7F8203112E0244B58681F
:100BA800D7F8203199B242F210734FF4FA6200F08C
:100BB80049FA012003F08AFFD7F820310133C7F83A
:100BC8002031D7F82031002BE8DD002387F81F31CA
:100BD800002387F81E31002387F81D31002387F88A
:100BE8001C310023C7F82C31114B5868D7F82C3129
:100BF80099B242F210734FF4FA6200F023FA01201E
:100C080003F064FFD7F82C310B4A82FB03121A4415
:100C18009111DA178A1A5A2101FB02F29A1A002A4C
:100C280040F0CC804FF4FA63C7F8183119E000BFE0
:100C38001400002024000020B7600BB6AC4B5868A5
:100C4800D7F82C3199B242F210734FF4FA6200F0DF
:100C5800F9F9012003F03AFFD7F818310533C7F83E
:100C68001831D7F81831B3F57A6FE7DB0620FFF7AC
:100C78007DFEA04B1B6997F81D2119B207F10803E7
:100C880023F8121097F90931012B15D197F81F3164
:100C9800002B11D097F81D2107F1080333F9122012
:100CA80097F81D31591E07F1080333F911309A429C
:100CB80002DA012387F81E3197F90931B3F1FF3FB2
:100CC80015D197F81F31002B11D097F81D2107F186
:100CD800080333F9122097F81D31591E07F108034C
:100CE80033F911309A4202DD012387F81E3197F853
:100CF8001D31002B32D097F81F31002B2ED197F9D8
:100D08000931012B0ED197F81D2107F1080333F99A
:100D1800122007F10803B3F900309A4202DA0123DE
:100D280087F81F3197F90931B3F1FF3F0ED197F8D2
:100D38001D2107F1080333F9122007F10803B3F95D
:100D480000309A4202DD012387F81F3197F81F31DE
:100D5800002B03D097F81D3187F81C3197F81E3106
:100D6800002B26D097F90931012B0ED197F81C21B9
:100D780007F1080333F912309AB25F4BB3F81F300A
:100D88009BB213449BB21BB20DE097F81C2107F1EC
:100D9800080333F912309AB2574BB3F81F309BB29D
:100DA800D31A9BB21BB297F81D1107F1080222F85B
:100DB800113097F81D31013387F81D31D7F82C31E0
:100DC800B3F5B47F02DD0023C7F82C31D7F82C31F6
:100DD8000133C7F82C3197F81E31002B3FF404AFCC
:100DE800434B5B6842F210720021184600F0A8F9E4
:100DF8000023C7F814312BE097F90931012B0ED1E4
:100E080007F10803D7F8142133F912309AB23A4B94
:100E1800B3F81F309BB2D31A9BB21BB20DE007F197
:100E28000803D7F8142133F912309AB2324BB3F8C9
:100E38001F309BB213449BB21BB207F10802D7F8CC
:100E4800141122F81130D7F814310133C7F81431CE
:100E580097F81C31D7F814219A42CDDB002387F884
:100E6800133197F8131197F8133107F1080232F983
:100E78001110224A5B0013440A469A8097F81331EE
:100E8800013387F8133197F8132197F81D319A42E7
:100E9800E7D90023C7F80C3111E007F10803D7F8A8
:100EA8000C2133F91210154AD7F80C315B001344A2
:100EB8000A469A80D7F80C310133C7F80C3197F8F5
:100EC8001D31D7F80C219A42E7DB97F81D319AB209
:100ED8000A4B5A80094A97F80931137001F01CFD32
:100EE800074B084A1A6000BF07F5A077BD4680BDCA
:100EF80014000020240000202008002044080020BE
:100F0800D40900205508000880B584B000AF786087
:100F18000023FB6008E00D4800F0C2FB012003F04D
:100F2800D5FDFB680133FB60FB680F2BF3DD074B36
:100F38001B699AB2064BA3F81D2001F003FD054B6F
:100F4800054A1A6000BF1037BD4680BD2400002046
:100F580020080020D40900205508000880B582B078
:100F680000AF786001F0EEFC034B044A1A6000BF42
:100F78000837BD4680BD00BFD409002055080008C9
:100F880080B400AF034B044A1A6000BFBD465DF849
:100F9800047B7047D4090020650F000880B400AFB7
:100FA800034B044A1A6000BFBD465DF8047B7047D6
:100FB800D4090020110F000880B400AF034B044A85
:100FC8001A6000BFBD465DF8047B7047D409002055
:100FD800AD09000880B586B000AF78603960EFF3DE
:100FE8001083FB60FB687B6172B600BF3B68786862
:100FF80098477B693B613B6983F3108800BF00BF5A
:101008001837BD4680BD80B483B000AF78607B6878
:101018005A687B681B681B6852685A637B685A6801
:101028007B681B681B6892689A637B685A687B6850
:101038001B681B68D268DA6300BF0C37BD465DF8D1
:10104800047B704780B586B000AFF860084611464B
:101058001A4603467B810B463B811346FB803A893F
:10106800FB88934228BF13463B817B89184600F0D2
:101078005BFC02463B8903FB02F3104A82FB031226
:101088001213DB17D31A7B617B89C3F15A03184605
:1010980000F04AFC02463B8903FB02F3074A82FB45
:1010A80003121213DB17D31A3B613A697969F8689E
:1010B80000F03AF900BF1837BD4680BDAD8BDB683C
:1010C80090B482B000AF0446084611461A4623463B
:1010D800FB800346BB800B467B8013463B80B7F9F9
:1010E8000030012B10D1B7F90220B7F906309A4227
:1010F80007DDB7F90220B7F904309A4201DA012373
:1011080000E00023DBB216E0B7F90030B3F1FF3F8F
:1011180010D1B7F90220B7F906309A4207DAB7F9C1
:101128000220B7F904309A4201DD012300E00023D0
:10113800DBB200E0002318460837BD4690BC704774
:1011480080B58CB000AFF860B9601346FB80BB680F
:10115800002BB8BF5B42BB62BB6A002B6FDDBB686C
:10116800002B01DD012301E04FF0FF3387F8273022
:10117800002387F82F3097F82F303B4A5B00134441
:101188009B88BB8497F82F300133374A5B001344A0
:101198009B887B84FB685B681B881AB2324B93F987
:1011A80000301BB2B7F92210B7F92400FFF788FF07
:1011B8000346002B36D0BA8C7B8CD31A9BB23B8467
:1011C80097F82F309BB21A46520013441A46120160
:1011D800D31A5B009AB2B7F92430F96849680988CC
:1011E8005B1A5A2101FB03F1B7F9203091FBF3F3A5
:1011F8009BB213449BB2FB83B7F91E2097F92730A3
:101208005A2101FB03F31344BB61B86900F068FB82
:101218000346FB82BB6A9AB2FB88F98AF868FFF733
:1012280011FF1EE097F82F30013387F82F3097F819
:101238002F200D4B5B88013B9A429CDB11E0FB6839
:101248005B6840F633025A60FB685B6840F633021D
:101258009A60FB685B6840F63302DA60F868FFF76B
:10126800D2FE3037BD4680BD4408002080B483B02C
:1012780000AF786039603B68002B25DB7B68002B6A
:1012880011DB3B6841F28D6202FB03F3244A82FBC7
:1012980003121213DB17D31A7A689A4201DA02236F
:1012A80037E0012335E03B681E4A02FB03F31C4A82
:1012B80082FB03121213DB17D31A7A689A4201DAF7
:1012C800032326E0022324E07B68002B10DB3B6825
:1012D800144A02FB03F3124A82FB03121213DB17B0
:1012E800D31A7A689A4201DA052312E0062310E03D
:1012F8003B6841F28D6202FB03F3094A82FB031249
:101308001213DB17D31A7A689A4201DA042300E031
:10131800052318460C37BD465DF8047B704700BFAF
:10132800AD8BDB6873E9FFFF80B58CB000AFF86068
:10133800B9607A600023FB620023BB6200237B62F2
:101348007968B868FFF792FF034687F82330BB68CF
:1013580042F2D41202FB03F3854A82FB03121213F2
:10136800DB17D31ABB607B6842F2D41202FB03F38B
:101378007F4A82FB03121213DB17D31A7B6097F89C
:101388002330013B052B00F2238101A252F823F000
:10139800B11300080B14000869140008C3140008EE
:1013A8001B150008811500087B6841F28D6202FB5D
:1013B80003F36F4A82FB03121213DB179B1ABA68F6
:1013C8001344FB617B6842F61A5202FB03F3684A36
:1013D80082FB03121213DB17D31ABB61FB69C3F537
:1013E8001C531033BA699B1ADA0F13445B10FB6263
:1013F800FB69FA6A1344BB62BB69BA6A13447B622D
:10140800E6E07B6841F28D6202FB03F3584A82FBF7
:1014180003121213DB17D31ABA681344FB617B68F3
:1014280041F28D6202FB03F3514A82FB031212134D
:10143800DB17D21ABB68D31ABB61FB69C3F51C530F
:101448001033BA699B1ADA0F13445B10BB62BB698D
:10145800BA6A1344FB62FB69FA6A13447B62B7E019
:101468007B6842F61A5202FB03F3414A82FB0312DD
:101478001213DB17D31AFB617B6841F28D6202FB02
:1014880003F33B4A82FB03121213DB179A1ABB6859
:10149800D31ABB61FB69C3F51C531033BA699B1A95
:1014A800DA0F13445B10BB62FB69BA6A13447B62B0
:1014B800BB697A6A1344FB628AE07B6841F28D62F9
:1014C80002FB03F32A4A82FB03121213DB17D21A18
:1014D800BB68D31AFB617B68264A02FB03F3244AE4
:1014E80082FB03121213DB17D31ABB61FB69C3F526
:1014F8001C531033BA699B1ADA0F13445B107B62D2
:10150800BB697A6A1344BB62FB69BA6A1344FB621B
:101518005EE07B6841F28D6202FB03F3144A82FBB2
:1015280003121213DB179A1ABB68D31AFB617B6884
:1015380041F28D6202FB03F30D4A82FB0312121380
:10154800DB179B1ABA681344BB61FB69C3F51C53CC
:101558001033BA699B1ADA0F13445B107B62FB697C
:101568007A6A1344FB62BB69FA6A1344BB622FE0D0
:10157800AD8BDB68E6D2FFFF7B68344A02FB03F3DE
:10158800334A82FB03121213DB17D31AFB617B6801
:1015980041F28D6202FB03F32D4A82FB0312121300
:1015A800DB17D31ABA681344BB61FB69C3F51C5334
:1015B8001033BA699B1ADA0F13445B10FB62BB69DC
:1015C800FA6A13447B62FB697A6A1344BB6200BF00
:1015D800FB681B687B61FB6A42F21072934228BF6A
:1015E80013467A69D26802FB03F2FB685B68194903
:1015F800A1FB0212520B5A60BB6A42F2107293426C
:1016080028BF13467A69D26802FB03F2FB685B685D
:101618001049A1FB0212520B9A607B6A42F21072C7
:10162800934228BF13467A69D26802FB03F2FB682B
:101638005B680849A1FB0212520BDA600649F86898
:10164800FFF7C8FC00BF3037BD4680BDE6D2FFFFBC
:10165800AD8BDB685917B7D10F10000880B584B07F
:1016680000AF78607B6858687B681B89012219463F
:1016780004F0ACFF0A2003F029FA0023FB6005E020
:10168800786800F00DF8FB680133FB60FB68052BF8
:10169800F6DD7B6800225A6100BF1037BD4680BD69
:1016A80090B587B002AF78600023FB817B685868EB
:1016B8007B681B890022194604F088FF012000F08E
:1016C800A5FA7B68186807F10E020123009301232D
:1016D8002E4906F033FF7B6858687B681B89012216
:1016E800194604F073FF012000F090FAFB89C3F358
:1016F8000D039BB2FB81FB89002B33D0FB8943F69A
:10170800FF7293422ED0FB891BB21A467B681B6975
:10171800D31AB3F5005F05DB7B685B695A1E7B68EB
:101728005A610DE0FB891BB21A467B681B69D31A04
:1017380013F5005F04DC7B685B695A1C7B685A619F
:10174800FB891BB21A467B681A617B68D8687B687C
:1017580019697B685A6913469B039B1A0B441946FF
:1017680000F016F87B689C697B68DB68184600F017
:1017780031F8034632221946204600F029F902467C
:101788007B689A6100BF1437BD4690BDCAC4000883
:1017980080B483B000AF786039607B685B790133CF
:1017A800DAB27B685A717B685A797B681B799A42EE
:1017B80002D97B6800225A717B681A687B685B795A
:1017C8009B0013443A681A6000BF0C37BD465DF8A9
:1017D800047B7047B0B588B000AF78606B461D4693
:1017E8007B681C792346013B3B61E0B24FF0000166
:1017F8004FF000024FF000034B0143EAD06342016F
:10180800E0B24FF000014FF000024FF000034B012F
:1018180043EAD063420123469B000733DB08DB0021
:10182800ADEB030D6B4603339B089B00FB60F86828
:101838007B6819687B681B799B001A460AF03EFD95
:1018480000237B612DE07B681A797B69DBB2D31AB0
:10185800DBB2013BFB720023FB760023FB610EE049
:10186800FB68FA6953F82220F97EFB6853F82130A7
:101878009A4201DBFB69FB76FB690133FB61FB7A6A
:10188800FA699A42ECDBFB7E9B00FA68D018FB7A77
:101898009B00FA681344194600F0A3F97B690133E9
:1018A8007B617B681B791A467B699342CBDB7B683B
:1018B8001B795B08DBB21A46FB6853F822207B6869
:1018C8001B795B08DBB2591CFB6853F821301344C1
:1018D800DA0F13445B10AD4618462037BD46B0BD3D
:1018E80080B483B000AF78607B680E4A82FB031235
:1018F8001A441112DA178A1A4FF4B47101FB02F272
:101908009B1A7B607B68002B03DA7B6803F5B47352
:101918007B607B689BB218460C37BD465DF8047B3C
:10192800704700BFB7600BB680B584B000AF786071
:101938007868FFF7D5FF03467B607B68214A82FB06
:1019480003129210DB17D21A1F4B83FB0213D91014
:10195800D317C91A0B46DB000B449B00D11A0B4660
:10196800FB817A68174B83FB02139910D317C91AA6
:101978000B469B000B445B00D11A0B46BB81B7F9A1
:101988000E30124A32F913301946B7F90E300133C6
:101998000E4A32F913301846B7F90E300B4A32F9AD
:1019A8001330C31AB7F90C2002FB03F3054A82FB74
:1019B80003029210DB17D31A0B4418461037BD46A2
:1019C80080BD00BF67666666398EE338CCC4000800
:1019D80080B485B000AFF860B9601346FB71FB793D
:1019E800C3F16403BA6802FB03F30B4A82FB0312D8
:1019F8005211DB17D21AFB79F96801FB03F3064988
:101A080081FB03014911DB17CB1A1344184614371D
:101A1800BD465DF8047B70471F85EB5190B583B0D8
:101A280000AF0446084611461A462346FB80034683
:101A3800BB800B467B8013463B80B7F90240FB888E
:101A48004FF4B47202FB03F2BB8892FBF3F318461F
:101A5800FFF76AFF0246B7F9003003FB02F3084AB2
:101A680082FB03121213DB17D31A03FB04F2B7F934
:101A7800003092FBF3F31BB218460C37BD4690BDFD
:101A8800AD8BDB6890B482B000AF044608461146BF
:101A98001A462346FB800346BB800B467B801346D1
:101AA8003B80B7F90220BB885B089BB2F988994252
:101AB80002D8B7F9003002E0B7F900305B4202FB08
:101AC80003F2B7F9003092FBF3F31BB2184608375C
:101AD800BD4690BC704790B482B000AF044608463B
:101AE80011461A462346FB800346BB800B467B8083
:101AF80013463B80B7F90220F988BB885B089BB284
:101B08000133994201DCFB8802E0B988FB88CB1AD3
:101B1800B7F9001001FB03F39900BB8891FBF3F1BF
:101B2800B7F90030CB1A03FB02F2B7F9003092FB89
:101B3800F3F31BB218460837BD4690BC704790B403
:101B480082B000AF0446084611461A462346FB8079
:101B58000346BB800B467B8013463B80B7F90230B7
:101B6800FA88B7F9001001FB02F25100BA8891FB1C
:101B7800F2F1B7F900208A1A02FB03F2B7F9003034
:101B880092FBF3F31BB218460837BD4690BC70476A
:101B980090B482B000AF0446084611461A46234660
:101BA800FB800346BB800B467B8013463B80B7F91E
:101BB8000230B7F90010FA88B7F9000000FB02F20A
:101BC8005000BA8890FBF2F28A1A02FB03F2B7F9C6
:101BD800003092FBF3F31BB218460837BD4690BCA1
:101BE800704780B485B000AF786039607B681B6847
:101BF800FB603B681A687B681A603B68FA681A6081
:101C080000BF1437BD465DF8047B704780B485B0CB
:101C180000AF78600D4B5B68FB600D4B1B680D4A8D
:101C2800A2FB03239A0C7B6802FB03F3BB6000BF93
:101C3800064B5A68FB68D31ABA689A42F8D800BFAC
:101C480000BF1437BD465DF8047B7047001000E004
:101C58009007002083DE1B4380B483B000AF786018
:101C680039603B685B78DBB2022B1AD13B689B88F2
:101C78009BB21A463B68DB889BB203FB02F31A4609
:101C88007B6893420BD33B689B889BB247F6FE72F6
:101C9800934204D83B689B889BB2002B01D1012357
:101CA80000E00023DBB218460C37BD465DF8047B24
:101CB8007047000090B585B000AFF860B9607A60F1
:101CC800BB689B69FA689A4256D9BB689B68FA68F0
:101CD800D31ABA6811461846FFF7BEFF0346002B11
:101CE80041D0BB689B8A9BB2002B3CD0BB68DB8A87
:101CF8009BB21846BB689B69FA68D31ABA68928A7D
:101D080092B20132B3FBF2F102FB01F29A1A1346C6
:101D1800DB039B1ABA68928A92B2B3FBF2F3C21839
:101D2800174BA3FB0213D11A49080B44990B0B4616
:101D3800DB035B1AD11A8AB2BB68DA82BB68DB8A1A
:101D480098B2BB681B8A1AB27C6842F2107347F6D5
:101D5800FF71A04703461A46BB685B8A1BB21A4448
:101D6800BB68DA6005E0BB680022DA82BB68002243
:101D7800DA60BB68FA689A6100BF1437BD4690BD47
:101D88000500020080B582B000AF786039603B681A
:101D98009B687A68D31A3A6811461846FFF75CFFC1
:101DA8000346002B06D03B681B8A1BB21A463B68C9
:101DB800DA6002E03B680022DA6000BF0837BD46FF
:101DC80080BD90B585B000AF786039603B689B688E
:101DD8007A68D31AFB603B681946F868FFF73CFF3E
:101DE8000346002B28D03B689B889BB2002B23D04E
:101DF8003B681B8A1BB218463B685B8A1BB21A46B3
:101E08003B681B8A1BB2D31A1C463B689B889BB253
:101E180001331A46FB68B3FBF2F102FB01F29B1A8D
:101E280003FB04F33A68928892B2B3FBF2F30344DB
:101E38001A463B68DA6003E03B680022DA6000BFBC
:101E480000BF1437BD4690BD80B586B000AF78603E
:101E580039603B689B687A68D31A3A681146184615
:101E6800FFF7FAFE0346002B38D0204B5B889BB265
:101E78001A461E4BB3F81F309BB203FB02F31C4AF1
:101E880082FB03121A445212DB17D31A7B61194BD7
:101E98001B689B6842F2107202FB03F27B6992FB9B
:101EA800F3F33A68128A12B29B1A3B613B69002B22
:101EB80003DD3B685B8A1BB202E03B689B8A1BB26E
:101EC800FB603B69FA6802FB03F30B4A82FB0312CF
:101ED8001213DB179A1A3B68DA6002E03B680022AB
:101EE800DA6000BF1837BD4680BD00BF200800205B
:101EF800B7600BB614000020AD8BDB6880B584B0EA
:101F080000AF786039603B68FB60FB681B78DBB228
:101F1800082B42D801A252F823F000BF491F00083D
:101F2800491F0008531F00085D1F0008691F0008AB
:101F3800751F0008811F00088D1F0008991F0008E1
:101F480039687868FFF71EFF27E039687868FFF777
:101F580038FF22E0134A39687868FFF7ABFE1CE0C7
:101F6800114A39687868FFF7A5FE16E00F4A396804
:101F78007868FFF79FFE10E00D4A39687868FFF728
:101F880099FE0AE00B4A39687868FFF793FE04E087
:101F980039687868FFF758FF00BF00BF1037BD46A3
:101FA80080BD00BF8D1A0008251A0008DF1A000836
:101FB800471B0008991B000880B584B000AF786003
:101FC8000023FB600AE0094AFB6852F823301946EF
:101FD8007868FFF793FFFB680133FB60FB68092B08
:101FE800F1DD00BF00BF1037BD4680BD40000020B6
:101FF80080B485B000AF0023FB600023BB602DE0F8
:102008001B4ABB6852F823307B607B685B78DBB285
:10201800002B20D07B68DB687A689278D2B202FB0A
:1020280003F3144A82FB03121A44D211DB17D31AA2
:102038007A681278D2B21049043231F9122012B2F9
:1020480002FB03F30D4A82FB03125211DB17D31A6A
:10205800FA681344FB60BB680133BB60BB68092B9B
:10206800CEDDFB6818461437BD465DF8047B704723
:102078004000002081808080200800201F85EB51CF
:10208800F0B400AF0F4B01221A700E4A0E4B501CD1
:1020980003F1200402461946D1F800C04E688D6845
:1020A800C968C2F800C056609560D160103310301E
:1020B800A342EFD102461B78137000BFBD46F0BCA7
:1020C800704700BF8409002020080020F0B482B0C7
:1020D80000AF78607B6801330D4A104603F1200495
:1020E80002461946D1F800C04E688D68C968C2F822
:1020F80000C056609560D16010331030A342EFD114
:1021080002461B78137000BF0837BD46F0BC704705
:102118002008002080B582B000AF78607B681B780B
:10212800013B042B1BD801A252F823F049210008D7
:102138004F21000867210008612100085B21000881
:10214800FFF79EFF0BE07868FFF7C0FFFEF718FF68
:1021580005E0FEF723FF02E0FEF72EFF00BF00BFF9
:102168000837BD4680BD00BF80B582B000AF78603B
:1021780040220449786809F0E7FF00BF0837BD46E8
:1021880080BD00BF8409002080B483B000AF7860B0
:1021980000BF0C37BD465DF8047B704780B483B040
:1021A80000AF786000BF0C37BD465DF8047B704710
:1021B80080B485B000AF786039603B681B781A46F8
:1021C800164B53F82230FB603B685B889AB2FB6879
:1021D8009A803B681A7AFB689A70FB687A689A60FA
:1021E800FB681B78DBB2042B12D10D4B1B78002B3C
:1021F8000ED00A4B1B68BB603B685B889AB2BB6811
:102208009A803B681A7ABB689A70BB687A689A6049
:1022180000BF1437BD465DF8047B704740000020BE
:102228002008002080B485B000AF786039603B6832
:102238001B781A46224B53F82230FB60FB681B7848
:10224800DBB2042B1AD11F4B1B78002B16D03B682E
:10225800B3F801309BB2002B10D1194B1B68BB603F
:102268003B68B3F903301AB2BB681A82154B5B7826
:10227800002B1ED0BB687A689A601AE03B68B3F8F6
:1022880001309BB21AB2FB681A823B68B3F903307B
:102298001AB2FB685A823B68B3F807309AB2FB68F7
:1022A8009A82084B5B78002B04D0FB687A689A60A6
:1022B80000E000BF00BF1437BD465DF8047B7047DF
:1022C800400000202008002080B485B000AF78606E
:1022D80039603B681B781A46134B53F82230FB6071
:1022E8003B685B78002B11D13B68B3F902301AB216
:1022F800FB681A823B68B3F904301AB2FB685A8249
:102308003B68B3F906301AB2FB689A82074B5B78D0
:10231800002B02D0FB687A689A6000BF1437BD466C
:102328005DF8047B704700BF4000002020080020B3
:1023380080B485B000AF786039603B681B781A4676
:102348000B4B53F82230FB603B68B3F901301AB2EB
:10235800FB681A82074B5B78002B02D0FB687A680F
:102368009A6000BF1437BD465DF8047B704700BF14
:10237800400000202008002080B485B000AF7860BD
:1023880039603B681B781A460E4B53F82230FB60C5
:102398003B68B3F901301AB2FB681A823B68B3F99B
:1023A80003301AB2FB685A82074B5B78002B02D0C5
:1023B800FB687A689A6000BF1437BD465DF8047BF5
:1023C800704700BF400000202008002080B485B07E
:1023D80000AF0346FB71FB790D4A52F82330FB60CE
:1023E800FB6801225A70FB6800229A70FB68002281
:1023F8009A80FB680022DA80FB6800229A60FB68FA
:102408000022DA6000BF1437BD465DF8047B7047D0
:102418004000002080B485B000AF78600B46FB70A8
:102428001346BB70FB78092B22D8FB78134A52F865
:102438002330FB60FB6802225A70BB789AB2FB68B3
:10244800DA80FB687A689A60FB78042B10D10C4B11
:102458001B78002B0CD0094B1B68BB60BB680222A1
:102468005A70BB789AB2BB68DA80BB687A689A609F
:1024780000BF1437BD465DF8047B7047400000205C
:102488002008002080B485B000AF0346FB71FB79BB
:10249800092B1AD8FB79104A52F82330FB60FB68E5
:1024A80003225A70FB680022DA60FB79042B0CD1F6
:1024B8000A4B1B78002B08D0074B1B68BB60BB6816
:1024C80003225A70BB680022DA6000BF1437BD4689
:1024D8005DF8047B704700BF400000202008002002
:1024E80080B582B000AF0123FB7106E0FB79184686
:1024F800FFF7C8FFFB790133FB71FB79092BF5D98D
:1025080000BF00BF0837BD4680BD000080B485B05D
:1025180000AF0346FB71FB79092B16D8FB790E4AED
:1025280052F82330FB60FB6800225A70FB680022D7
:102538009A70FB6800229A80FB680022DA80FB68A8
:1025480000229A60FB680022DA6000BF1437BD469B
:102558005DF8047B704700BF4000002080B582B062
:1025680000AF0123FB7106E0FB791846FFF7CEFFA9
:10257800FB790133FB71FB79092BF5D900BF00BF4B
:102588000837BD4680BD80B400AF00BFBD465DF8CA
:10259800047B704780B400AF00BFBD465DF8047B84
:1025A800704780B500AFFFF79BFF00BF80BD80B5C7
:1025B80000AFFFF7D3FF00BF80BD80B400AF00BFFE
:1025C800BD465DF8047B704780B400AF00BFBD46D0
:1025D8005DF8047B704780B582B000AF78607B6897
:1025E8005B78032B1CD0032B20DC012B02D0022BA1
:1025F8000AD01BE002F05EFA7B6819787B689B784A
:102608001A46FFF707FF12E0FFF76AFF02F052FAD7
:102618007B6819787B689B781A46FFF7FBFE06E013
:102628007B681B781846FFF72DFF00E000BF00BF4E
:102638000837BD4680BD000080B582B000AF786025
:102648007B681B78013B052B20D801A252F823F0A8
:1026580071260008772600087D26000883260008D2
:10266800892600088F260008FFF78DFF0FE0FFF787
:1026780091FF0CE0FFF795FF09E0FFF798FF06E0F0
:10268800FFF79BFF03E0FFF79FFF00E000BF00BFDD
:102698000837BD4680BD00BF80B582B000AF786006
:1026A8007B681B78FF2B02D1FFF758FF04E07B689B
:1026B8001B781846FFF72AFF00BF0837BD4680BDC4
:1026C80080B584B000AF78607B681B78FB73FB7BB8
:1026D800013B0A2B0AD8FB7B1846FFF777FE0E4A08
:1026E800FB7B53700C4B01229A7006E00A4B0022C8
:1026F8005A70094B03229A7000BFFB7B042B06D14A
:10270800064B1B78002B02D00020FFF75FFE00BFAE
:102718001037BD4680BD00BFC0060020200800203D
:1027280080B584B000AF78607B68D3F8C032FB60B6
:10273800FB681B781F2B10D01F2B14DC112B02D029
:10274800132B06D00FE0FB6801331846FFF7B8FFDC
:102758000AE0786800F09CF806E0FB680133184648
:10276800FFF7D8FC00E000BF00BF1037BD4680BDB2
:1027780080B584B000AF78607B68D3F8C032FB6066
:10278800FB681B78113B0C2B6CD801A252F823F084
:10279800CD270008E127000801280008ED270008D8
:1027A80015280008292800086D2800086D28000849
:1027B8006D2800083D280008552800084928000809
:1027C8006128000802F076F90246FB6801331946D1
:1027D8001046FFF7EDFC46E0FB6801331846FFF7AB
:1027E800DDFC40E002F066F90246FB680133194659
:1027F8001046FFF717FD36E002F05CF90246FB6869
:10280800013319461046FFF75FFD2CE002F052F93C
:102818000246FB68013319461046FFF789FD22E09E
:1028280002F048F90246FB68013319461046FFF7E3
:10283800A3FD18E0FB6801331846FFF7CCFE12E051
:10284800FB6801331846FFF7F7FE0CE0FB6801331D
:102858001846FFF721FF06E0FB6801331846FFF72B
:1028680093FC00E000BF00BF1037BD4680BD00BF2D
:1028780080B582B000AF786005220449786809F015
:1028880063FC00BF0837BD4680BD00BFC0060020FE
:1028980080B582B000AF786005220449786809F0F5
:1028A80053FC00BF0837BD4680BD00BFC8060020E6
:1028B800B0B586B000AFF860C7E9002303F040FB6D
:1028C800144BB322DA600221F86803F09BFC002362
:1028D8007B6114E039687B69BA6A13441B78DAB201
:1028E8004FF00003002003F0D7FAD7E90023541C67
:1028F80043F10005C7E900457B6901337B61BB8D66
:102908007A699A42E6DB03F03DFB00BF1837BD4603
:10291800B0BD00BF003C024080B582B002AF4FF4AA
:1029280082730193054B0093054A4FF000030B2077
:10293800FFF7BEFF00BFBD4680BD00BF44080020B2
:1029480000000E0880B582B002AF21230193054B29
:102958000093054A4FF000030A20FFF7A9FF00BFC4
:10296800BD4680BD2008002000000C0880B500AFDF
:1029780000220E490E4808F053FB0346002B01D0F5
:1029880001F0E8FA0B490A4808F080FB0346002BDF
:1029980001D001F0DFFA064808F099FB0346002B46
:1029A80001D001F0D7FA00BF80BD00BF400700206A
:1029B800F4090020D006002080B58AB000AF786006
:1029C80007F1140300221A605A609A60DA601A61EB
:1029D8007B681B68B3F1A04F3AD100233B611E4BC3
:1029E8001B6B1D4A43F0010313631B4B1B6B03F066
:1029F80001033B613B694FF4C0537B610223BB6118
:102A08000023FB6103233B620A237B6207F1140363
:102A18001946124803F03EFC0F4B5B6B0E4A43F01D
:102A2800800353630023FB600B4B5B6C0A4A43F43F
:102A380080435364084B5B6C03F48043FB60FB6882
:102A480000220021432002F0F1FE432002F00AFF99
:102A580000BF2837BD4680BD003802400000024054
:102A680080B582B000AF78607B68D3F804247B68B7
:102A780003F571731946104608F074FB00BF083758
:102A8800BD4680BD80B582B000AF78600B46FB7054
:102A98007B68D3F80404FA7879681346DB009B1A3C
:102AA8009B000B4403F502731A68FB78194608F07B
:102AB800AEFB00BF0837BD4680BD80B582B000AF11
:102AC80078600B46FB707B68D3F80404FA78796861
:102AD8001346DB009B1A9B000B4448331A68FB78AB
:102AE800194608F0F7FB00BF0837BD4680BD80B522
:102AF80082B000AF78607B68D3F80434184608F0D9
:102B0800FBFC00BF0837BD4680BD80B584B000AF70
:102B180078600123FB737B68DB68002B02D10023FC
:102B2800FB7308E07B68DB68022B02D10123FB738F
:102B380001E001F00FFA7B68D3F80434FA7B114600
:102B4800184608F09EFC7B68D3F80434184608F051
:102B580057FC00BF1037BD4680BD000080B582B06D
:102B680000AF78607B68D3F80434184608F099FC05
:102B78007B681B6803F560631B687A68126802F556
:102B8800606243F0010313607B681B6A002B05D069
:102B9800044B1B69034A43F00603136100BF08375F
:102BA800BD4680BD00ED00E080B582B000AF786022
:102BB8007B68D3F80434184608F088FC00BF08374F
:102BC800BD4680BD80B582B000AF78600B46FB7013
:102BD8007B68D3F80434FA781146184608F0B3FC39
:102BE80000BF0837BD4680BD80B582B000AF7860B1
:102BF8000B46FB707B68D3F80434FA781146184604
:102C080008F094FC00BF0837BD4680BD80B582B08F
:102C180000AF78607B68D3F80434184608F0A0FC4D
:102C280000BF0837BD4680BD80B582B000AF786070
:102C38007B68D3F80434184608F09DFC00BF0837B9
:102C4800BD4680BD80B582B000AF78607B681B78D8
:102C5800002B3CD1204A7B68C2F804347B681E4AAA
:102C6800C3F8C4221C4B4FF0A0421A601A4B04222E
:102C78005A60194B0222DA60174B00221A61164B70
:102C880002229A61144B0022DA61134B00221A6265
:102C9800114B00225A62104B0022DA620E4B0022BE
:102CA8001A630D4803F0F0FD0346002B01D001F034
:102CB80051F98021084804F036FF402200210648D7
:102CC80004F0EAFE80220121034804F0E5FE002317
:102CD80018460837BD4680BDC40C002080B584B0B6
:102CE80000AF78600023FB730023BB737B68D3F8C5
:102CF800C432184603F0E5FE0346FB73FB7B184617
:102D080000F018F90346BB73BB7B18461037BD4665
:102D180080BD80B584B000AF7860084611461A4679
:102D28000346FB700B46BB7013463B800023FB73C6
:102D38000023BB737B68D3F8C402BB783A88F97860
:102D480004F0C9FA0346FB73FB7B184600F0F2F85F
:102D58000346BB73BB7B18461037BD4680BD80B5A4
:102D680084B000AF78600B46FB700023FB73002330
:102D7800BB737B68D3F8C432FA781146184604F05E
:102D880012FB0346FB73FB7B184600F0D3F803469F
:102D9800BB73BB7B18461037BD4680BD80B584B079
:102DA80000AF78600B46FB700023FB730023BB73F6
:102DB8007B68D3F8C432FA781146184604F0D2FB7F
:102DC8000346FB73FB7B184600F0B4F80346BB735D
:102DD800BB7B18461037BD4680BD80B584B000AFB8
:102DE80078600B46FB700023FB730023BB737B6882
:102DF800D3F8C432FA781146184604F017FC034693
:102E0800FB73FB7B184600F095F80346BB73BB7B4E
:102E180018461037BD4680BD80B485B000AF7860D5
:102E28000B46FB707B68D3F8C432FB6097F903301C
:102E3800002B0BDAFB7803F07F02F9681346DB00FE
:102E48009B1A9B000B443E331B780BE0FB7803F086
:102E58007F02F9681346DB009B1A9B000B4403F5BD
:102E6800FF731B7818461437BD465DF8047B70471E
:102E780080B584B000AF78600B46FB700023FB730D
:102E88000023BB737B68D3F8C432FA78114618461E
:102E980004F0FCF90346FB73FB7B184600F04AF884
:102EA8000346BB73BB7B18461037BD4680BD80B553
:102EB80086B000AFF8607A603B600B46FB72002377
:102EC800FB750023BB75FB68D3F8C402F97A3B682D
:102ED8007A6804F0FDFA0346FB75FB7D184600F09E
:102EE80029F80346BB75BB7D18461837BD4680BD1B
:102EF80080B586B000AFF8607A603B600B46FB7225
:102F08000023FB750023BB75FB68D3F8C402F97A6C
:102F18003B687A6804F091FA0346FB75FB7D184616
:102F280000F008F80346BB75BB7D18461837BD4648
:102F380080BD000080B485B000AF0346FB7100235C
:102F4800FB73FB79032B17D801A252F823F000BFBB
:102F5800692F00086F2F0008752F00087B2F0008C5
:102F68000023FB730BE00323FB7308E00123FB73CF
:102F780005E00323FB7302E00323FB7300BFFB7B25
:102F880018461437BD465DF8047B704780B584B099
:102F980000AF78600B46FB70102009F07FF90346FC
:102FA800FB60FB68002B05D17B680022C3F8BC22BC
:102FB800022331E07B68FA68C3F8BC22402009F09C
:102FC8006DF903461A467B68C3F8C0227B68012264
:102FD8005A877B680122A3F87A21402303228121A2
:102FE8007868FFF796FE7B6801221A874023032240
:102FF80001217868FFF78DFE7B680122A3F878210C
:10300800FB6800221A737B68D3F8C0224023012191
:103018007868FFF76DFF002318461037BD4680BD5E
:1030280080B582B000AF78600B46FB70812178686C
:10303800FFF795FE7B6800221A877B6800225A8773
:1030480001217868FFF78BFE7B680022A3F87821BE
:103058007B680022A3F87A217B68D3F8BC32002B66
:1030680009D07B68D3F8BC32184609F01FF97B6891
:103078000022C3F8C0227B68D3F8C032002B09D0E5
:103088007B68D3F8C032184609F010F97B68002233
:10309800C3F8C022002318460837BD4680BD00008B
:1030A80080B584B000AF786039607B68D3F8BC32F3
:1030B800FB603B681B7803F06003002B00F0838003
:1030C800202B40F0C8803B685B78013B0A2B70D806
:1030D80001A252F823F000BF7D3100083B310008FF
:1030E8001B310008BB310008BB310008BB310008A8
:1030F800BB310008BB3100084B31000829310008FA
:103108000D3100083B685B88DBB21A46FB681A6021
:1031180058E0FB6801221946786809F015F851E073
:103128003B685B881B0A9BB2DBB21A46FB685A6095
:1031380048E0FB68043301221946786809F004F86E
:1031480040E03B685B881B0A9BB2DBB2032B36D19D
:103158003B685B88DBB2112B01D01F2B2FD17B681A
:10316800D3F8C0123B68DB881A46786809F018F86B
:1031780000BF24E03B685B881B0A9BB2DBB2032BD1
:103188001FD13B685B88DBB21F2B0DD01F2B18DCCF
:10319800122B05D0132B14D17868FFF779FB07E0C1
:1031A8007868FFF765FB03E07868FEF7DDFF00BF8E
:1031B80007E03968786808F056FF032352E000BF3B
:1031C8004FE000BF4DE03B685B780B2B34D00B2BF6
:1031D80039DC062B02D00A2B26D034E03B685B880A
:1031E8001B0A9BB2222B0DD13B68DB88B3F5A46F79
:1031F80028BF4FF4A4639BB21A461C49786808F0AC
:10320800A3FF26E03B685B881B0A9BB2212B20D1D9
:1032180017493B68DB88092B28BF09239BB21A464C
:10322800786808F091FF14E0FB680833012219461A
:10323800786808F089FF0DE03B685B88DBB21A46C6
:10324800FB689A6006E03968786808F00CFF032389
:1032580008E000BF05E03968786808F004FF032338
:1032680000E0002318461037BD4680BD84010020C9
:103278001A07002080B586B000AFF860B960134621
:10328800FB80FB68D3F8BC32002B01D1032319E083
:10329800FB68D3F8BC327B61FB6893F89C32032B44
:1032A8000FD17B691B7B002B09D17B6901221A7323
:1032B800FB88BA688121F868FFF7F9FD01E001236E
:1032C80000E0002318461837BD4680BD80B483B09F
:1032D80000AF78607B6829221A80034B18460C37A8
:1032E800BD465DF8047B70470807002080B483B0B2
:1032F80000AF78600B46FB707B68D3F8BC320022C5
:103308001A73002318460C37BD465DF8047B7047D6
:1033180080B582B000AF78600B46FB707B68D3F84D
:10332800BC32002B01D103230BE07868FFF720FAA9
:103338007B68D3F8C022402301217868FFF7D8FDC5
:10334800002318460837BD4680BD80B582B000AF5F
:1033580078607868FFF7E4F9002318460837BD4617
:1033680080BD000080B483B000AF78607B680A221B
:103378001A80034B18460C37BD465DF8047B70472E
:103388003407002080B483B000AF03463960FB7176
:103398003B6812221A80034B18460C37BD465DF86D
:1033A800047B70475C07002080B483B000AF0346FD
:1033B8003960FB713B6804221A80034B18460C37AE
:1033C800BD465DF8047B70477007002080B582B069
:1033D80000AF03463960FB713A680449044808F0B5
:1033E80053FE024B18460837BD4680BDCC1000205E
:1033F80098C4000880B582B000AF03463960FB71FD
:103408003A680449044808F03FFE024B184608375A
:10341800BD4680BDCC100020ACC4000880B582B089
:1034280000AF03463960FB713B681A221A8000F02E
:103438002FF8024B18460837BD4680BD7407002098
:1034480080B582B000AF03463960FB713A68044921
:10345800044808F019FE024B18460837BD4680BDDF
:10346800CC100020B0C4000880B582B000AF03467D
:103478003960FB713A680449044808F005FE024BBC
:1034880018460837BD4680BDCC100020BCC40008D3
:1034980080B584B000AF0F4B1B68FB600E4B1B68F8
:1034A800BB600E4B1B687B60FA687B681344FB604B
:1034B800FB68002B09D008220949F86800F014F8C5
:1034C80004220849B86800F00FF800BF1037BD465D
:1034D80080BD00BF107AFF1F147AFF1F187AFF1FE4
:1034E800760700208607002080B487B000AFF86018
:1034F800B9601346FB710023FB750023FB7527E0B9
:10350800FB681B0F092B0BD8FB681B0FDAB2FB7D7E
:103518005B001946BB680B443032D2B21A700AE01D
:10352800FB681B0FDAB2FB7D5B001946BB680B44D6
:103538003732D2B21A70FB681B01FB60FB7D5B005F
:103548000133BA68134400221A70FB7D0133FB75FE
:10355800FA7DFB799A42D3D300BF00BF1C37BD4622
:103568005DF8047B7047000080B590B000AF07F1AC
:10357800340300221A605A609A6007F1240300227B
:103588001A605A609A60DA603B1D202200211846B2
:1035980008F0A2FE3A4B3B4A1A60394B4FF480328E
:1035A8005A60374B00229A60354B00221A61344B1F
:1035B80000221A76324B002283F82020304B4FF03D
:1035C8008052DA622E4B4FF060629A622C4B0022D6
:1035D800DA602B4B0122DA61294B012283F8302073
:1035E800274B00225A61264801F094FA0346002B23
:1035F80001D000F0AFFC11237B634FF48043BB6321
:103608000023FB6307F1340319461D4802F010F844
:103618000346002B01D000F09DFC04237B620123AC
:10362800BB620123FB6207F124031946144801F029
:1036380013FC0346002B01D000F08CFC0F237B60A9
:103648000123BB6001237B610123FB604FF48013DE
:103658003B624FF48033FB6100237B7600233B768B
:1036680000233B613B1D1946054801F04BFE03460C
:10367800002B01D000F06EFC00BF4037BD4680BD76
:10368800741300200020014080B58CB000AF07F112
:10369800200300221A605A609A60DA603B462022B2
:1036A8000021184608F018FE2A4B2B4A1A60294BAD
:1036B8004FF480325A60274B00229A60254B002233
:1036C8001A61244B00221A76224B002283F820200C
:1036D800204B0022DA601F4B0122DA611D4B0122C8
:1036E80083F830201B4B00225A611A4801F012FA65
:1036F8000346002B01D000F02DFC0D233B62012373
:103708007B620123BB6207F120031946114801F0CF
:10371800A3FB0346002B01D000F01CFC0A233B60EE
:1037280001237B6001233B610123BB6001237B757F
:1037380000233B750023FB603B461946054801F012
:10374800E1FD0346002B01D000F004FC00BF303738
:10375800BD4680BDCC1200200021014080B58CB050
:1037680000AF07F1200300221A605A609A60DA60FD
:103778003B4620220021184608F0AEFD2A4B2B4A72
:103788001A60294B4FF480325A60274B00229A6006
:10379800254B00221A61244B00221A76224B002264
:1037A80083F82020204B0022DA601F4B0122DA61C7
:1037B8001D4B012283F830201B4B00225A611A4806
:1037C80001F0A8F90346002B01D000F0C3FB0C233D
:1037D8003B6201237B620123BB6207F12003194688
:1037E800114801F039FB0346002B01D000F0B2FB71
:1037F8000B233B6001237B6001233B610123BB60FA
:1038080001237B7500233B750023FB603B4619466B
:10381800054801F077FD0346002B01D000F09AFB24
:1038280000BF3037BD4680BDBC13002000220140D8
:1038380080B58EB000AF786007F1240300221A60CB
:103848005A609A60DA601A617B681B68734A93420F
:103858007BD100233B62724B5B6C714A43F48073EB
:1038680053646F4B5B6C03F480733B623B6A0023C9
:10387800FB616B4B1B6B6A4A43F001031363684B94
:103888001B6B03F00103FB61FB690023BB61644B05
:103898001B6B634A43F004031363614B1B6B03F018
:1038A8000403BB61BB6910237B620323BB62002353
:1038B800FB6207F1240319465A4802F0EBFC202367
:1038C8007B620323BB620023FB6207F124031946D2
:1038D800554802F0DFFC554B554A1A60534B0022FD
:1038E8005A60524B00229A60504B0022DA604F4BCC
:1038F8004FF480621A614D4B4FF400625A614B4B92
:103908004FF400529A61494B4FF48072DA61474B89
:103918004FF480321A62454B00225A62434801F044
:10392800AFFF0346002B01D000F014FB7B683F4A31
:103938009A633E4A7B68936300220021122001F0BB
:1039480075FF122001F08EFFE1E07B681B68394AA1
:10395800934275D100237B61314B5B6C304A43F451
:10396800007353642E4B5B6C03F400737B617B69BB
:1039780000233B612A4B1B6B294A43F00403136362
:10398800274B1B6B03F004033B613B6909237B62F4
:103998000323BB620023FB6207F124031946224874
:1039A80002F078FC244B254A1A60234B4FF0007232
:1039B8005A60214B00229A601F4B0022DA601E4B8E
:1039C8004FF480621A611C4B4FF400625A611A4B23
:1039D8004FF400529A61184B4FF48072DA61164B1B
:1039E8004FF480321A62144B00225A62124801F0D6
:1039F80047FF0346002B01D000F0ACFA7B680E4A63
:103A08009A630D4A7B68936300220021122001F01B
:103A18000DFF122001F026FF79E000BF00200140D1
:103A28000038024000000240000802400414002050
:103A380010640240002101406414002040640240E8
:103A48007B681B68344A934261D10023FB60334B87
:103A58005B6C324A43F480635364304B5B6C03F411
:103A68008063FB60FB680023BB602C4B1B6B2B4AFD
:103A780043F004031363294B1B6B03F00403BB607F
:103A8800BB6806237B620323BB620023FB6207F14A
:103A980024031946224802F0FDFB224B224A1A60F1
:103AA800204B4FF080625A601E4B00229A601D4BDB
:103AB8000022DA601B4B4FF480621A61194B4FF4F5
:103AC80000625A61174B4FF400529A61154B4FF43C
:103AD8008072DA61134B4FF480321A62114B002264
:103AE8005A62104801F0CCFE0346002B01D000F0CA
:103AF80031FA7B680B4A9A630A4A7B68936300220F
:103B08000021122001F092FE122001F0ABFE00BF4E
:103B18003837BD4680BD00BF002201400038024052
:103B280000080240141300202864024080B582B0C7
:103B380000AF00237B60144B1B6B134A43F48003D4
:103B48001363114B1B6B03F480037B607B680022BB
:103B58000021382001F06AFE382001F083FE00229F
:103B68000021392001F062FE392001F07BFE00229D
:103B780000213A2001F05AFE3A2001F073FE00BFFE
:103B88000837BD4680BD00BF0038024080B58AB006
:103B980000AF07F1140300221A605A609A60DA60D5
:103BA8001A6100233B61574B1B6B564A43F00403D1
:103BB8001363544B1B6B03F004033B613B69002305
:103BC800FB60504B1B6B4F4A43F0800313634D4B14
:103BD8001B6B03F08003FB60FB680023BB60494B51
:103BE8001B6B484A43F001031363464B1B6B03F0FE
:103BF8000103BB60BB6800237B60424B1B6B414ADF
:103C080043F0020313633F4B1B6B03F002037B601B
:103C18007B6800233B603B4B1B6B3A4A43F008032D
:103C28001363384B1B6B03F008033B603B680022AF
:103C380046F21001344802F0C9FC002248F20F0194
:103C4800324802F0C3FC002241F20401304802F07D
:103C5800BDFC4FF4C0437B610123BB610023FB61C2
:103C680000233B6207F114031946274802F012FBB0
:103C780048F20F037B610123BB610023FB61022330
:103C88003B6207F114031946204802F003FB102396
:103C98007B610123BB610023FB6102233B6207F1C7
:103CA80014031946184802F0F5FA04237B6101232E
:103CB800BB610023FB6102233B6207F11403194631
:103CC800134802F0E7FA4FF480537B610123BB618C
:103CD8000023FB6100233B6207F1140319460C48DB
:103CE80002F0D8FA04237B610A4BBB610023FB6115
:103CF80007F114031946084802F0CCFA00BF283728
:103D0800BD4680BD00380240000802400000024065
:103D18000004024000001110000C024080B500AF02
:103D2800124B134A1A60114B124A5A600F4B002269
:103D38009A600E4B0022DA600C4B4FF480421A61F5
:103D48000A4B00225A61094B00229A61074B002254
:103D5800DA61064B00221A62044802F051FC03465D
:103D6800002B01D000F0F6F800BF80BDC41400207D
:103D780000540040A086010080B58AB000AF78608A
:103D880007F1140300221A605A609A60DA601A6117
:103D98007B681B68194A93422BD100233B61184B5F
:103DA8001B6B174A43F002031363154B1B6B03F09D
:103DB80002033B613B69C0237B611223BB61012382
:103DC800FB6103233B6204237B6207F1140319465A
:103DD8000C4802F05FFA0023FB60094B1B6C084A91
:103DE80043F400131364064B1B6C03F40013FB60CD
:103DF800FB6800BF2837BD4680BD00BF00540040A7
:103E0800003802400004024080B500AF00F01CFEFC
:103E180000F022F8FFF7BAFEFFF788FEFFF7A4FBD1
:103E2800FFF732FCFFF79AFC00F0D4F800F012FB21
:103E380000F0BAFB00F0EEFB00F022FCFEF796FD66
:103E4800FFF76CFF00F08EF8FCF738FDFCF734FB49
:103E58000A2000F03BFEF9E780B594B000AF07F107
:103E6800200330220021184608F036FA07F10C0327
:103E780000221A605A609A60DA601A610023BB60F7
:103E8800284B1B6C274A43F080531364254B1B6C4B
:103E980003F08053BB60BB6800237B60224B1B6828
:103EA800214A43F4804313601F4B1B6803F480438B
:103EB8007B607B6801233B624FF480337B62022383
:103EC800BB634FF48003FB6304233B64A8237B6438
:103ED8000223BB640723FB6407F12003184603F0A1
:103EE8003FFE0346002B01D000F034F80F23FB609F
:103EF80002233B6100237B614FF4A053BB614FF465
:103F08008053FB6107F10C030521184604F098F86B
:103F18000346002B01D000F01DF800BF5037BD4606
:103F280080BD00BF003802400070004080B582B0FC
:103F380000AF78607868FCF7C7FC7B681B68044AA8
:103F4800934201D100F0A2FD00BF0837BD4680BDF5
:103F58000020004080B400AF00BFBD465DF8047B80
:103F68007047000080B500AF184B194A1A60174B0C
:103F78004FF482725A60154B00229A60134B4FF42B
:103F88000062DA60114B00221A61104B01225A615B
:103F98000E4B4FF400729A610C4B2822DA610B4BDE
:103FA80000221A62094B00225A62084B00229A62C8
:103FB800064B0A22DA62054804F05CFA0346002B35
:103FC80001D0FFF7C7FF00BF80BD00BF70150020FC
:103FD8000030014080B500AF184B194A1A60174BE2
:103FE8004FF482725A60154B00229A60134B4FF4BB
:103FF8000062DA60114B00221A61104B01225A61EB
:104008000E4B4FF400729A610C4B2022DA610B4B75
:1040180000221A62094B00225A62084B00229A6257
:10402800064B0A22DA62054804F024FA0346002BFC
:1040380001D0FFF78FFF00BF80BD00BF181500201B
:10404800003C004080B58CB000AF786007F11C03DD
:1040580000221A605A609A60DA601A617B681B68ED
:104068003A4A934234D10023BB61394B5B6C384ADE
:1040780043F480535364364B5B6C03F48053BB6149
:10408800BB6900237B61324B1B6B314A43F002034F
:1040980013632F4B1B6B03F002037B617B6938238F
:1040A800FB6102233B6200237B620323BB6205237F
:1040B800FB6207F11C031946264802F0EBF80022C0
:1040C8000021232001F0B2FB232001F0CBFB39E0D3
:1040D8007B681B68204A934234D100233B611C4B08
:1040E8001B6C1B4A43F400431364194B1B6C03F409
:1040F80000433B613B690023FB60154B1B6B144A73
:1041080043F004031363124B1B6B03F00403FB60BF
:10411800FB684FF4E053FB6102233B6200237B62A0
:104128000323BB620623FB6207F11C0319460B48F5
:1041380002F0B0F800220021332001F077FB332091
:1041480001F090FB00BF3037BD4680BD0030014014
:104158000038024000040240003C004000080240D1
:1041680080B483B000AF00237B60104B5B6C0F4AB8
:1041780043F4804353640D4B5B6C03F480437B60D2
:104188007B6800233B60094B1B6C084A43F0805353
:104198001364064B1B6C03F080533B603B6800BF05
:1041A8000C37BD465DF8047B704700BF00380240FD
:1041B80080B58CB000AF78600023FB620023BB623F
:1041C800002279682D2001F031FB2D2001F04AFBF7
:1041D8000023FB601F4B1B6C1E4A43F4807313645F
:1041E8001C4B1B6C03F48073FB60FB6807F1100227
:1041F80007F114031146184604F00AF904F0F4F81C
:1042080003465B00FB62FB6A134AA2FB03239B0C79
:10421800013BBB62114B124A1A60104B40F2E73265
:10422800DA600E4ABB6A53600C4B00221A610B4BD2
:1042380000229A60094804F0EDFC0346002B04D1E3
:10424800064804F012FD034600E001231846303703
:10425800BD4680BD0038024083DE1B43C8150020E0
:104268000020004080B400AF00BFBD465DF8047B6D
:10427800704780B400AFFEE780B400AFFEE780B4BB
:1042880000AFFEE780B400AFFEE780B400AF00BF28
:10429800BD465DF8047B704780B400AF00BFBD46E3
:1042A8005DF8047B704780B400AF00BFBD465DF881
:1042B800047B704780B400AF00BFBD465DF8047B47
:1042C8007047000080B500AF054800F066FC05485F
:1042D80000F063FC044800F060FC00BF80BD00BF34
:1042E80074130020CC120020BC13002080B500AF4E
:1042F800024804F009FD00BF80BD00BF88160020F9
:1043080080B500AF024804F0BBFA00BF80BD00BF13
:104318007015002080B500AF034804F0F5FC034891
:1043280004F0F2FC00BF80BD08160020C81500206C
:1043380080B500AF024804F0A3FA00BF80BD00BFFB
:104348001815002080B500AF024804F0DDFC00BF5E
:1043580080BD00BF4816002080B500AF024804F0B9
:10436800D3FC00BF80BD00BFC816002080B500AFD9
:10437800024801F055FB00BF80BD00BF04140020B7
:1043880080B500AF024801F04BFB00BF80BD00BF05
:104398001413002080B500AF024801F041FB00BFB4
:1043A80080BD00BF6414002080B500AF024802F051
:1043B800BBFB00BF80BD00BFC40C002080B586B029
:1043C80000AF7860144A154BD31A7B617B693B6157
:1043D800134B1B68002B02D1114B124A1A60104B69
:1043E8001A687B6813443A699A4207D207F02CFF8F
:1043F80003460C221A604FF0FF3309E0084B1B6894
:10440800FB60074B1A687B681344054A1360FB6816
:1044180018461837BD4680BD000002200004000081
:10442800C40900204017002080B400AF084BD3F81F
:104438008830074A43F47003C2F88830044B4FF0C1
:1044480000629A6000BFBD465DF8047B704700BFFC
:1044580000ED00E080B592B000AF07F14003002204
:104468001A605A6007F1240300221A605A609A60A1
:10447800DA601A615A619A613B1D202200211846B0
:1044880007F02AFF464B474A1A60454B00225A60FC
:10449800434B60229A60424B41F26702DA60404B1C
:1044A80000221A613E4B01225A613D4B80229A61DB
:1044B8003B4804F0FEFB0346002B01D0FFF74AFD02
:1044C80070233B6480237B6407F14003194634481A
:1044D80005F0B0F90346002B01D0FFF73BFD602340
:1044E8007B620023BB620023FB6200233B63002343
:1044F8007B630023BB630023FB6307F124030022D3
:104508001946274804F008FD0346002B01D0FFF7A1
:1045180021FD07F1240304221946214804F0FCFC7C
:104528000346002B01D0FFF715FD07F124030822ED
:1045380019461B4804F0F0FC0346002B01D0FFF796
:1045480009FD40F6A253BB6207F124030C22194669
:10455800134804F0E1FC0346002B01D0FFF7FAFCF6
:1045680000237B600023BB600023FB6000233B61CA
:1045780000237B614FF40053BB6100233B623B1D6A
:104588001946074805F0D2F90346002B01D0FFF77A
:10459800E1FC034800F0CAF900BF4837BD4680BDBA
:1045A800881600200000014080B582B000AF3B466D
:1045B80000221A605A60154B154A1A60134B0922DB
:1045C8005A60124B00229A60104B41F26702DA607F
:1045D8000E4B00229A610D4804F01CFB0346002B89
:1045E80001D0FFF7B7FC20233B6000237B603B46EC
:1045F8001946064805F01EF90346002B01D0FFF7BF
:10460800A9FC00BF0837BD4680BD00BF4816002082
:104618000010004080B582B000AF3B4600221A600F
:104628005A60154B154A1A60134B63225A60124B95
:1046380000229A60104B41F26702DA600E4B0022AA
:104648009A610D4804F0E6FA0346002B01D0FFF703
:1046580081FC20233B6000237B603B4619460648CB
:1046680005F0E8F80346002B01D0FFF773FC00BF04
:104678000837BD4680BD00BFC816002000140040A2
:1046880080B596B000AF07F1440300221A605A6063
:104698009A60DA601A6107F13C0300221A605A60D6
:1046A80007F1200300221A605A609A60DA601A61E2
:1046B8005A619A613B4620220021184607F00CFEF9
:1046C800524B534A1A60514B00225A604F4B60229A
:1046D8009A604E4B41F26702DA604C4B00221A6135
:1046E8004A4B00225A61494B80229A61474804F09C
:1046F80091FA0346002B01D0FFF72CFC434804F045
:10470800D8FA0346002B01D0FFF724FC06237B646C
:104718000023BB6407F1440319463C4804F0C2FC7B
:104728000346002B01D0FFF715FC7023FB638023A1
:104738003B6407F13C031946344805F07BF803460F
:10474800002B01D0FFF706FC60233B6200237B624D
:104758000023BB620023FB6200233B6300237B63CF
:104768000023BB6307F1200300221946274804F001
:10477800D3FB0346002B01D0FFF7ECFB07F1200326
:1047880004221946214804F0C7FB0346002B01D038
:10479800FFF7E0FB07F12003082219461B4804F045
:1047A800BBFB0346002B01D0FFF7D4FB40F6A25316
:1047B8007B6207F120030C221946144804F0ACFB75
:1047C8000346002B01D0FFF7C5FB00233B60002305
:1047D8007B600023BB600023FB6000233B614FF438
:1047E80000537B610023FB613B461946074805F0EF
:1047F8009DF80346002B01D0FFF7ACFB034800F0FF
:1048080095F800BF5837BD4680BD00BF0816002088
:104818000004014080B584B000AF78607B681B68F5
:104828000E4A934215D10023FB600D4B5B6C0C4A7A
:1048380043F0010353640A4B5B6C03F00103FB6014
:10484800FB68002200211A2000F0F0FF1A2001F076
:1048580009F800BF1037BD4680BD00BF0000014009
:104868000038024080B586B000AF78607B681B686E
:104878002A4A934216D100237B61294B1B6C284A94
:1048880043F010031364264B1B6C03F010037B6189
:104898007B6900220021362000F0C8FF362000F096
:1048A800E1FF36E07B681B681E4A934216D100235D
:1048B8003B611B4B1B6C1A4A43F020031364184BD3
:1048C8001B6C03F020033B613B6900220021372069
:1048D80000F0ACFF372000F0C5FF1AE07B681B68CA
:1048E800114A934215D10023FB600D4B5B6C0C4AB7
:1048F80043F0020353640A4B5B6C03F00203FB6052
:10490800FB68002200212D2000F090FF2D2000F0F0
:10491800A9FF00BF1837BD4680BD00BF001000408A
:1049280000380240001400400004014080B58AB0FD
:1049380000AF786007F1140300221A605A609A6089
:10494800DA601A617B681B68254A93421FD10023ED
:104958003B61244B1B6B234A43F001031363214B38
:104968001B6B03F001033B613B694FF4E0637B6120
:104978000223BB610023FB6100233B6201237B62AE
:1049880007F114031946184801F084FC23E07B68FA
:104998001B68164A93421ED10023FB60114B1B6B08
:1049A800104A43F0040313630E4B1B6B03F004031C
:1049B800FB60FB684FF4E0737B610223BB6100235B
:1049C800FB6100233B6203237B6207F11403194652
:1049D800074801F05FFC00BF2837BD4680BD00BF17
:1049E800000001400038024000000240000401407D
:1049F80000080240DFF834D0002103E00C4B5B587C
:104A0800435004310B480C4B42189A42F6D30B4AD8
:104A180002E0002342F8043B094B9A42F9D3FFF71E
:104A280003FD07F017FCFFF7EFF9704700000220BD
:104A3800A8C5000800000020000800200008002089
:104A48003C170020FEE7000080B500AF0E4B1B6846
:104A58000D4A43F4007313600B4B1B680A4A43F476
:104A680080631360084B1B68074A43F48073136024
:104A7800032000F0D0FE0020FFF79AFBFFF770FB41
:104A88000023184680BD00BF003C024080B400AF40
:104A9800064B1B781A46064B1B681344044A1360DE
:104AA80000BFBD465DF8047B704700BF9807002033
:104AB8000817002080B400AF034B1B681846BD469A
:104AC8005DF8047B704700BF0817002080B584B0EC
:104AD80000AF7860FFF7EEFFB8607B68FB60FB68AB
:104AE800B3F1FF3F05D00A4B1B781A46FB68134405
:104AF800FB6000BFFFF7DEFF0246BB68D31AFA6807
:104B08009A42F7D800BF00BF1037BD4680BD00BF2E
:104B18009807002080B584B000AF78600023FB734D
:104B28007B68002B01D1012333E07B681B6C002BD1
:104B380009D17868FEF77CFE7B6800225A647B689E
:104B4800002283F83C207B681B6C03F01003002BC9
:104B580018D17B681B6C23F4885323F0020343F0BD
:104B680002027B681A64786800F098FA7B68002271
:104B78005A647B681B6C23F0030343F001027B68D3
:104B88001A6401E00123FB737B68002283F83C2050
:104B9800FB7B18461037BD4680BD80B584B000AF9A
:104BA80078600023FB600023BB607B681B681B6880
:104BB80003F00203022B0CBF01230023DBB2FB60CE
:104BC8007B681B685B6803F02003202B0CBF012364
:104BD8000023DBB2BB60FB68002B49D0BB68002B0D
:104BE80046D07B681B6C03F01003002B05D17B6853
:104BF8001B6C43F400727B681A647B681B689B68B3
:104C080003F04053002B2BD17B681B7E002B27D150
:104C18007B681B68DB6A03F47003002B06D07B6893
:104C28001B689B6803F48063002B19D17B681B68A1
:104C38005A687B681B6822F020025A607B681B6CEC
:104C480023F480727B681A647B681B6C03F48053BE
:104C5800002B05D17B681B6C43F001027B681A644A
:104C6800786800F0DBF87B681B686FF012021A6046
:104C78007B681B681B6803F00403042B0CBF01232B
:104C88000023DBB2FB607B681B685B6803F0800372
:104C9800802B0CBF01230023DBB2BB60FB68002B19
:104CA80057D0BB68002B54D07B681B6C03F01003F3
:104CB800002B05D17B681B6C43F400527B681A6497
:104CC8007B681B689B6803F44013002B39D17B6811
:104CD8001B689B6B03F44013002B06D07B681B6892
:104CE8009B6803F48063002B2BD17B681B685B688F
:104CF80003F48063002B24D17B681B689B6803F056
:104D08004053002B1DD17B681B7E002B19D17B687B
:104D18001B685A687B681B6822F080025A607B68AF
:104D28001B6C23F480527B681A647B681B6C03F449
:104D38008073002B05D17B681B6C43F001027B68F4
:104D48001A647868FBF7E6FD7B681B686FF00C0255
:104D58001A607B681B681B6803F00103012B0CBFFA
:104D680001230023DBB2FB607B681B685B6803F0F0
:104D78004003402B0CBF01230023DBB2BB60FB6860
:104D8800002B17D0BB68002B14D07B681B681B68EE
:104D980003F00103012B0DD17B681B6C43F48032B7
:104DA8007B681A64786800F043F87B681B686FF0CA
:104DB80001021A607B681B681B6803F02003202B24
:104DC8000CBF01230023DBB2FB607B681B685B68B8
:104DD80003F08063B3F1806F0CBF01230023DBB2C3
:104DE800BB60FB68002B15D0BB68002B12D07B681A
:104DF8005B6C43F002027B685A647B681B686FF047
:104E080020021A60786800F01DF87B681B686FF054
:104E180020021A6000BF1037BD4680BD80B483B041
:104E280000AF786000BF0C37BD465DF8047B704763
:104E380080B483B000AF786000BF0C37BD465DF822
:104E4800047B704780B483B000AF786000BF0C3734
:104E5800BD465DF8047B704780B485B000AF7860CC
:104E680039600023BB607B6893F83C30012B01D18B
:104E7800022305E17B68012283F83C203B681B681C
:104E8800092B25D97B681B68D9683B681B689BB2CE
:104E98001A4613465B0013441E3B072202FA03F32B
:104EA800DA437B681B680A40DA607B681B68D9684C
:104EB8003B689A683B681B689BB2184603465B00D0
:104EC80003441E3B9A407B681B680A43DA6022E071
:104ED8007B681B6819693B681B689BB21A461346B6
:104EE8005B001344072202FA03F3DA437B681B686A
:104EF8000A401A617B681B6819693B689A683B68B5
:104F08001B689BB2184603465B0003449A407B68C3
:104F18001B680A431A613B685B68062B24D87B68C8
:104F28001B68596B3B685A6813469B001344053B42
:104F38001F2202FA03F3DA437B681B680A405A63AC
:104F48007B681B68596B3B681B689BB218463B68BB
:104F58005A6813469B001344053B00FA03F27B682A
:104F68001B680A435A634CE03B685B680C2B24D8E7
:104F78007B681B68196B3B685A6813469B0013448F
:104F8800233B1F2202FA03F3DA437B681B680A40BB
:104F98001A637B681B68196B3B681B689BB21846D1
:104FA8003B685A6813469B001344233B00FA03F2FC
:104FB8007B681B680A431A6323E07B681B68D96A0D
:104FC8003B685A6813469B001344413B1F2202FA70
:104FD80003F3DA437B681B680A40DA627B681B6864
:104FE800D96A3B681B689BB218463B685A681346E7
:104FF8009B001344413B00FA03F27B681B680A4399
:10500800DA62224BFB607B681B68214A934209D114
:105018003B681B68122B05D1FB685B6843F4800270
:10502800FB685A607B681B68194A934223D13B6826
:105038001B68102B03D03B681B68112B1BD1FB6826
:105048005B6843F40002FB685A603B681B68102BDE
:1050580011D1104B1B68104AA2FB03239A0C13466C
:105068009B0013445B00BB6002E0BB68013BBB6074
:10507800BB68002BF9D17B68002283F83C20002311
:1050880018461437BD465DF8047B7047002301407D
:10509800002001409007002083DE1B4380B485B0C8
:1050A80000AF7860794BFB60FB685B6823F44032A3
:1050B800FB685A60FB685A687B685B681A43FB6840
:1050C8005A607B681B685A687B681B6822F4807288
:1050D8005A607B681B6859687B681B691A027B6881
:1050E8001B680A435A607B681B685A687B681B68A0
:1050F80022F040725A607B681B6859687B689A681E
:105108007B681B680A435A607B681B689A687B68DF
:105118001B6822F400629A607B681B6899687B6848
:10512800DA687B681B680A439A607B689B6A584AFE
:10513800934222D07B681B689A687B681B6822F0C0
:1051480070629A607B681B6899687B689A6A7B685A
:105158001B680A439A607B681B689A687B681B68AF
:1051680022F040529A607B681B6899687B68DA6A0B
:105178007B681B680A439A600FE07B681B689A6823
:105188007B681B6822F070629A607B681B689A686B
:105198007B681B6822F040529A607B681B689A689B
:1051A8007B681B6822F002029A607B681B6899681A
:1051B8007B681B7E5A007B681B680A439A607B6881
:1051C80093F82030002B1BD07B681B685A687B68DB
:1051D8001B6842F400625A607B681B685A687B68E7
:1051E8001B6822F460425A607B681B6859687B68B8
:1051F8005B6A013B5A037B681B680A435A6007E0F5
:105208007B681B685A687B681B6822F400625A60D6
:105218007B681B68DA6A7B681B6822F47002DA62B2
:105228007B681B68D96A7B68DB69013B1A057B6868
:105238001B680A43DA627B681B689A687B681B688C
:1052480022F400729A607B681B6899687B6893F8FF
:1052580030305A027B681B680A439A607B681B6877
:105268009A687B681B6822F480629A607B681B6876
:1052780099687B685B699A027B681B680A439A6035
:1052880000BF1437BD465DF8047B7047002301401A
:105298000100000F80B485B000AF7860396000234A
:1052A800FB607B681B686FF004021A603B68013B77
:1052B800032B1FD801A252F823F000BFF3520008B5
:1052C800E9520008DF520008D55200087B681B68C5
:1052D8009B6CFB600FE07B681B685B6CFB600AE003
:1052E8007B681B681B6CFB6005E07B681B68DB6BDD
:1052F800FB6000E000BFFB6818461437BD465DF848
:10530800047B704780B485B000AF786039607B68F3
:1053180093F83C30012B01D102237DE17B68012207
:1053280083F83C203B681B68092B25D97B681B68E0
:10533800D9683B681B689BB21A4613465B00134446
:105348001E3B072202FA03F3DA437B681B680A4014
:10535800DA607B681B68D9683B689A683B681B6899
:105368009BB2184603465B0003441E3B9A407B6889
:105378001B680A43DA6022E07B681B6819693B688E
:105388001B689BB21A4613465B001344072202FAB5
:1053980003F3DA437B681B680A401A617B681B6861
:1053A80019693B689A683B681B689BB218460346B4
:1053B8005B0003449A407B681B680A431A617B6858
:1053C8001B689A6B7B681B6822F440129A637B689F
:1053D8001B68996B3B681B69013B1A057B681B6856
:1053E8000A439A637B681B68996B3B685B68DAB20F
:1053F8003B681B69DBB2D31ADBB20333DBB21A4654
:1054080013469B0013441F2202FA03F3DA437B6816
:105418001B680A409A637B681B68996B3B681B682A
:105428009BB218463B685B68DAB23B681B69DBB223
:10543800D31ADBB20333DBB21A4613469B0013447C
:1054480000FA03F27B681B680A439A633B689B690E
:10545800744A934222D07B681B689A687B681B68F1
:1054680022F470229A607B681B6899683B689A6985
:105478007B681B680A439A607B681B689A687B682C
:105488001B6822F440129A607B681B6899683B6825
:10549800DA697B681B680A439A600FE07B681B68BF
:1054A8009A687B681B6822F470229A607B681B6884
:1054B8009A687B681B6822F440129A603B685B7D9F
:1054C800002B08D07B681B685A687B681B6842F40D
:1054D80080625A6007E07B681B685A687B681B68B3
:1054E80022F480625A603B681B7D002B08D07B68E1
:1054F8001B685A687B681B6842F480525A6007E050
:105508007B681B685A687B681B6822F480525A6063
:105518003B685B68032B2ED0032B40D8012B02D0AD
:10552800022B14D03BE07B681B685B697A681268C1
:1055380023F47F6323F00F0353617B681B68596969
:105548003B68DA687B681B680A435A613BE07B6802
:105558001B689B697A68126823F47F6323F00F0342
:1055680093617B681B6899693B68DA687B681B688C
:105578000A439A6127E07B681B68DB697A681268CE
:1055880023F47F6323F00F03D3617B681B68D96919
:105598003B68DA687B681B680A43DA6113E07B685A
:1055A8001B681B6A7A68126823F47F6323F00F0371
:1055B80013627B681B68196A3B68DA687B681B683A
:1055C8000A431A6200BF184BFB607B681B68174AC6
:1055D800934209D13B681B68122B05D1FB685B68B5
:1055E80043F48002FB685A607B681B680F4A934249
:1055F8000DD13B681B68102B03D03B681B68112B2F
:1056080005D1FB685B6843F40002FB685A607B685D
:10561800002283F83C20002318461437BD465DF865
:10562800047B704701000F00002301400020014067
:1056380080B485B000AF786039607B6893F83C30FF
:10564800012B01D1022331E07B68012283F83C2041
:10565800194BFB60FB685B6823F01F02FB685A600C
:10566800FB685A683B681B681A43FB685A60FB680A
:105678005B6823F44042FB685A60FB685A683B68E1
:105688005B681A43FB685A60FB685B6823F47062C6
:10569800FB685A60FB685A683B689B681A43FB685A
:1056A8005A607B68002283F83C2000231846143790
:1056B800BD465DF8047B70470023014080B485B087
:1056C80000AF78607B6803F00703FB600C4BDB6876
:1056D800BB60BA684FF6FF031340BB60FB681A0251
:1056E800BB68134343F0BF6343F40033BB60044A11
:1056F800BB68D36000BF1437BD465DF8047B7047B4
:1057080000ED00E080B400AF044BDB681B0A03F037
:1057180007031846BD465DF8047B704700ED00E0BE
:1057280080B483B000AF0346FB7197F90730002BB4
:105738000BDBFB7903F01F02074997F907305B0978
:10574800012000FA02F241F8232000BF0C37BD46C1
:105758005DF8047B704700BF00E100E080B483B0CF
:1057680000AF03463960FB7197F90730002B0ADB5D
:105778003B68DAB20C4997F907301201D2B20B44F0
:1057880083F800230AE03B68DAB20849FB7903F0A2
:105798000F03043B1201D2B20B441A7600BF0C3738
:1057A800BD465DF8047B704700E100E000ED00E0D5
:1057B80080B489B000AFF860B9607A60FB6803F024
:1057C8000703FB61FB69C3F10703042B28BF04230C
:1057D800BB61FB690433062B02D9FB69033B00E07C
:1057E80000237B614FF0FF32BB6902FA03F3DA430F
:1057F800BB681A407B699A404FF0FF317B6901FA18
:1058080003F3D9437B680B40134318462437BD463E
:105818005DF8047B704780B582B000AF7860786827
:10582800FFF74CFF00BF0837BD4680BD80B586B086
:1058380000AF0346B9607A60FB7300237B61FFF712
:1058480061FF78617A68B9687869FFF7B1FF024645
:1058580097F90F3011461846FFF780FF00BF183739
:10586800BD4680BD80B582B000AF0346FB7197F995
:1058780007301846FFF754FF00BF0837BD4680BD04
:1058880080B586B000AF786000237B61FFF712F91E
:1058980038617B68002B01D1012399E07B680022E5
:1058A80083F834207B68022283F835207B681B68E4
:1058B8001A687B681B6822F001021A600FE0FFF784
:1058C800F9F802463B69D31A052B08D97B682022D0
:1058D8005A657B68032283F83520032378E07B68C8
:1058E8001B681B6803F00103002BE8D17B681B6869
:1058F8001B687B617A69384B13407B617B685A6807
:105908007B689B681A437B68DB681A437B681B6962
:105918001A437B685B691A437B689B691A437B68F7
:10592800DB691A437B681B6A13437A6913437B61FB
:105938007B685B6A042B07D17B68DA6A7B681B6B20
:1059480013437A6913437B617B681B687A691A6021
:105958007B681B685B697B617B6923F007037B615C
:105968007B685B6A7A6913437B617B685B6A042B9B
:1059780017D17B689B6A7A6913437B617B68DB6A12
:10598800002B0ED0786800F00BFA0346002B08D0E5
:105998007B6840225A657B68012283F83520012301
:1059A80016E07B681B687A695A61786800F0C2F96A
:1059B8000346FB607B68DB6D3F229A40FB689A6078
:1059C8007B6800225A657B68012283F83520002312
:1059D80018461837BD4680BD3F8010F080B483B0AC
:1059E80000AF78607B6893F83530DBB2022B04D0C7
:1059F8007B6880225A6501230CE07B68052283F8C6
:105A080035207B681B681A687B681B6822F00102D6
:105A18001A60002318460C37BD465DF8047B7047B2
:105A280080B586B000AF78600023BB60924B1B68DE
:105A3800924AA2FB03239B0A7B617B689B6D3B61B7
:105A48003B691B68FB607B68DB6D08229A40FB683A
:105A58001340002B1AD07B681B681B6803F00403F3
:105A6800002B13D07B681B681A687B681B6822F0C0
:105A780004021A607B68DB6D08229A403B699A60D1
:105A88007B685B6D43F001027B685A657B68DB6D60
:105A980001229A40FB681340002B12D07B681B68D8
:105AA8005B6903F08003002B0BD07B68DB6D012260
:105AB8009A403B699A607B685B6D43F002027B68A1
:105AC8005A657B68DB6D04229A40FB681340002B03
