:020000040800F2
:100000000000022055540008A54B0008B34B00081F
:10001000B94B0008BF4B0008C54B000800000000AA
:10002000000000000000000000000000CB4B0008B2
:10003000D94B000800000000E74B0008F54B000812
:10004000A5540008A5540008A5540008A5540008AC
:10005000A5540008A5540008A5540008A55400089C
:10006000A5540008A5540008A5540008A55400088C
:10007000A5540008A5540008A5540008A55400087C
:10008000A5540008A5540008054C0008A554000814
:10009000A5540008A5540008A5540008A55400085C
:1000A000A5540008A55400082D4C0008A5540008CC
:1000B000A5540008A5540008A5540008A55400083C
:1000C000A5540008A5540008A5540008414C000898
:1000D000A5540008A5540008A5540008A55400081C
:1000E000A5540008A5540008A5540008A55400080C
:1000F000A5540008554C0008A5540008A554000854
:10010000A5540008A5540008A5540008714C000827
:10011000A5540008A5540008854C0008994C000817
:10012000AD4C0008C14C0008D54C0008A55400088F
:10013000A55400080000000000000000A5540008BD
:10014000A5540008A5540008A5540008E94C00086F
:10015000A5540008A5540008A5540008A55400089B
:10016000A5540008A5540008A5540008A55400088B
:10017000A5540008A554000800000000000000007D
:08018000A5540008A554000875
:1001900010B5054C237833B9044B13B10448AFF3C1
:1001A00000800123237010BD1C0800200000000007
:1001B0007CE6000808B5034B1BB103490348AFF3C5
:1001C000008008BD00000000200800207CE6000838
:1001D00001F0FF01102A2BDB10F0070F08D010F8F8
:1001E000013B013A8B422DD010F0070F42B3F6D1FC
:1001F000F0B441EA012141EA014122F007047FF015
:1002000000070023F0E80256083C85EA010586EA6B
:10021000010685FA47F5A3FA87F586FA47F6A5FAA7
:1002200087F68EB9EED1F0BC01F0FF0102F00702B3
:1002300032B110F8013B013A83EA010313B1F8D15E
:100240000020704701387047002D06BF354603383F
:10025000073815F0010F07D1013015F4807F02BF78
:10026000013015F4C03F0130F0BC0138704700BFC9
:1002700053B94AB9002908BF00281CBF4FF0FF310D
:100280004FF0FF3000F06EB9ADF1080C6DE904CE0F
:1002900000F006F8DDF804E0DDE9022304B0704761
:1002A0002DE9F047089D04468C46002B40F08380E2
:1002B0008A42174647D9B2FA82F242B1C2F120000F
:1002C00024FA00F09140974040EA010C94404FEA34
:1002D0001748230CBCFBF8F61FFA87FE08FB16C173
:1002E00043EA014306FB0EF1994209D9FB1806F1D6
:1002F000FF3080F01981994240F21681023E3B4462
:100300005B1AA4B2B3FBF8F008FB103344EA0344D1
:1003100000FB0EFEA64509D93C1900F1FF3380F021
:100320000581A64540F2028102383C4440EA06407D
:10033000A4EB0E0400261DB1D4400023C5E9004300
:100340003146BDE8F08702B9FFDEB2FA82F2002A38
:1003500050D1CB1B4FEA174E1FFA87F80126B3FB8B
:10036000FEFC210C0EFB1C3341EA034108FB0CF39D
:100370008B4207D979180CF1FF3002D28B4200F280
:10038000E9808446C91AA3B2B1FBFEF00EFB10113E
:1003900043EA014408FB00F8A04507D93C1900F1E5
:1003A000FF3302D2A04500F2D9801846A4EB08041E
:1003B00040EA0C40BFE78B4209D9002D00F0B18024
:1003C0000026C5E9000130463146BDE8F087B3FAA2
:1003D00083F6002E4AD18B4202D3824200F2B880CB
:1003E000841A61EB030101208C46002DA8D0C5E9D9
:1003F000004CA5E7C2F1200320FA03F6974001FA6A
:1004000002F04FEA174ED9403043030CB1FBFEF621
:100410001FFA87F80EFB161143EA014306FB08F1A9
:10042000994204FA02F409D9FB1806F1FF3C80F066
:100430008D80994240F28A80023E3B445B1A81B231
:10044000B3FBFEF00EFB103341EA034100FB08F35F
:100450008B4207D9791800F1FF3C73D28B4271D9D6
:1004600002383944CB1A40EA064678E7C6F1200C38
:1004700003FA06F422FA0CF31C4320FA0CF701FAF3
:1004800006F34FEA144E21FA0CF11F433B0CB1FB6B
:10049000FEF91FFA84F80EFB191143EA014109FB2A
:1004A00008FA8A4502FA06F200FA06F308D961183A
:1004B00009F1FF3048D28A4546D9A9F10209214401
:1004C000A1EB0A01BFB2B1FBFEF00EFB101147EA2F
:1004D000014700FB08F8B84507D9E71900F1FF31DB
:1004E0002ED2B8452CD90238274440EA0940A7EB60
:1004F0000807A0FB02894F45C64649461AD317D0C4
:100500005DB1B3EB0E0267EB010707FA0CFCF2409A
:100510004CEA0202F740C5E9002700263146BDE853
:10052000F0872E4628460BE70646E9E61846FDE624
:100530004345E5D2B8EB020E69EB04010138DFE771
:100540000846D2E760468DE78146B9E7664675E71B
:1005500030464AE7ACF1020C394413E702383C4418
:1005600024E700BF704700BF98B500AF064B1B687B
:10057000002B06D0044B1C6804F0CCFF0346184641
:10058000A04700BF98BD00BF180A002080B500AF8B
:100590000A4801F073F9094B1A69094B5B685B68FB
:1005A00092B21A80064B5868054B1B68DB6842F212
:1005B0001072194600F0B2FE00BF80BD240000207A
:1005C0001400002080B584B000AF6C4B5B889BB2F8
:1005D0001A466A4BB3F81F309BB203FB02F3684A1A
:1005E00082FB03121A445212DB17D31ABB60654B0D
:1005F0001B689B6883EAE372A2EBE372BB68D21AC2
:10060000BB68614981FB03018910DB17CB1A9A4251
:1006100007DDBB685C4A82FB03129210DB17D31A1A
:100620000AE0584B1B689B6883EAE372A2EBE37213
:10063000BB68D31A23EAE3737B607B6842F21072D3
:1006400002FB03F2BB6892FBF3F34F4A82FB0312F7
:100650009210DB17D31A642202FB03F3FB60494BB1
:100660001B689A68BB685B429A4202DAFB685B428D
:10067000FB60444B1B689B68BA689A42414B93E805
:10068000030002F027F903463C4AB2F9052012B2F2
:1006900002FB03F33D4A82FB03125211DB17D21A0D
:1006A000364BB3F905301BB21946FB6803FB01F367
:1006B0003249B1F9051009B20029B8BF494289B2DF
:1006C00093FBF1F3134441F64C5293424FDC2D4B14
:1006D00093E8030002F0FEF80346284AB2F9052029
:1006E00012B202FB03F3294A82FB03125211DB17F9
:1006F000D21A224BB3F905301BB21946FB6803FB33
:1007000001F31E49B1F9051009B20029B8BF4942E9
:1007100089B293FBF1F313441D4A934225DB194B35
:1007200093E8030002F0D6F80346144AB2F9052014
:1007300012B202FB03F3154A82FB03125211DB17BC
:10074000D21A0E4BB3F905301BB21946FB6803FBF6
:1007500001F30A49B1F9051009B20029B8BF4942AD
:1007600089B293FBF1F3134403E0094B01E041F636
:100770004C5318461037BD4680BD00BF40080020CE
:10078000B7600BB614000020676666661F85EB51E4
:10079000B4E2FFFFB0B584B000AF7860786802F0D3
:1007A0007DF81A4B9B691A4AB2F81D2092B29B1A27
:1007B000174A92F91C2002FB03F3FB60154B1B68E0
:1007C0009B68FA68D31A1946134B1B687A68D31AC8
:1007D000B1FBF3F20F4B1B685A600E4B1B68FA68B3
:1007E0009A600C4B1B68DD68FFF7ECFE0146084B76
:1007F000DB79084A14681A46284601F0D7F90346FF
:10080000E36000BF1037BD46B0BD00BF240000202C
:1008100040080020140000201C0A002080B483B08F
:1008200000AF194B5B889BB21A46174BB3F81F30C9
:100830009BB203FB02F3154A82FB03121A445212C5
:10084000DB17D31A7B60124B1B689B687A689A424D
:1008500008DB0F4B1B689A687B685B429342B8BF0A
:10086000134600E07B687A681A441346DB039A1A41
:100870007B6892FBF3F3DA0F13445B1018460C37D6
:10088000BD465DF8047B704740080020B7600BB69A
:100890001400002098B500AF114BB3F809309BB29B
:1008A0001C46FFF7BBFF01460E4B1B791A4620463C
:1008B00001F07CF903469AB2094BA3F80920084BD2
:1008C0004FF0FF32DA72002242F03F021A73064BF9
:1008D0001B6819220249184603F06EF900BF98BD43
:1008E000C0060020400800200000002080B582B033
:1008F00000AF7860114B1B78DBB2002B04D0FFF700
:1009000045FE0E4B00221A700D4B1B687A689A4206
:1009100005D97868FFF73EFF094A7B681360094BE9
:100920001B78DBB2002B04D0FFF7B4FF054B00228D
:100930001A7000BF0837BD4680BD00BF3E080020CA
:100940001C0A00203F08002080B584B000AF164B81
:10095000FB60FB681B68BB60FB685B687B60B8681A
:1009600001F05FFA7968B86801F0AAFC0821B8685C
:1009700001F02BFB2021B86801F006FB4FF4107149
:10098000B86801F0E1FA0C21B86801F03FFB7B6820
:10099000012283F823207968B86801F08EFB00BF3C
:1009A0001037BD4680BD00BF5400002080B500AFA9
:1009B000174B1B6840F633025A63154B1B6840F611
:1009C00033029A63124B1B6840F63302DA63104B12
:1009D0001B6832221A6400210D4809F043FB0421F0
:1009E0000B4809F03FFB0821094809F03BFB0C21AB
:1009F000074809F037FB074B1B68184609F0E3FA74
:100A0000054B1B68184609F0DEFA00BF80BD00BF29
:100A1000CC160020040000200800002080B500AFA4
:100A2000024800F009FF00BF80BD00BF2400002085
:100A300080B500AF074805F067F9074805F064F98D
:100A4000064805F01FFA03220549044805F018FB83
:100A500000BF80BD0014002010130020B813002038
:100A60003808002080B500AF02F0F0FB02F0C6FBB2
:100A700001F01EFDFFF768FFFFF7D0FFFFF7D8FF7B
:100A8000FFF794FF04F046FD0346034A1360034B4F
:100A9000034A1A6000BF80BD1C0A0020180A00200B
:100AA000ED08000880B483B000AF78607B681A68F6
:100AB0000B4B1B681B689A4202D10A4B01221A7029
:100AC0007B681A68084B1B681B689A4202D1074B67
:100AD00001221A7000BF0C37BD465DF8047B7047D9
:100AE000040000203E080020080000203F080020ED
:100AF00080B584B000AF78600F4B1B68FB600121AC
:100B00000E4805F085FA03461AB2FB681A820121E5
:100B10000B4805F07DFA03461AB2FB685A820121A0
:100B2000084805F075FA03461AB2FB689A8200BFBE
:100B30001037BD4680BD00BF14000020B813002050
:100B4000101300200014002080B584B000AF0346CD
:100B5000FB710023FB6008E0084800F08FFE0A20CC
:100B600004F0E4FCFB680133FB60FB79FA689A420D
:100B7000F2DB00BF00BF1037BD4680BD240000205F
:100B800080B5D0B000AF3B1D186007F108031846D0
:100B90004FF480731A4600210CF0DEFD0023C7F8E5
:100BA000383111E0994B5868D7F838319AB242F28F
:100BB0001073002100F034FB012004F0B7FCD7F8DB
:100BC00038310133C7F83831D7F83831B3F5FA6F17
:100BD000E8DB642004F0AAFC8D4800F04FFE8C4B4B
:100BE0001B69A7F83E310023C7F8343112E0874B68
:100BF0005868D7F8343199B242F210734FF4FA6260
:100C000000F00EFB012004F091FCD7F834310133E1
:100C1000C7F83431D7F83431B3F5B47FE7DB4FF49C
:100C2000FA7004F083FC7A4800F028FE784B1B69C8
:100C3000A7F80A31B7F80A21B7F83E319A4201D92C
:100C4000012301E04FF0FF3387F809314FF4B4730B
:100C5000C7F8303112E06D4B5868D7F8303199B28F
:100C600042F210734FF4FA6200F0DAFA012004F055
:100C70005DFCD7F83031013BC7F83031D7F830315F
:100C8000002BE8DA0023C7F82C31002387F82B313A
:100C9000D7F82C31013BC7F82C315C4B5868D7F89A
:100CA0002C3199B242F210734FF4FA6200F0B8FAA4
:100CB000012004F03BFCD7F82C3113F5B47F28DA7F
:100CC000534800F0DBFD524B1B69A7F80A3197F936
:100CD0000931012B08D1B7F83E21B7F80A319A4201
:100CE00002D2012387F82B3197F90931B3F1FF3F85
:100CF00008D1B7F83E21B7F80A319A4202D9012348
:100D000087F82B31B7F80A31A7F83E310023C7F82E
:100D10002C3197F82B31002BBAD04FF4FA7004F035
:100D200005FC0023C7F8243112E0384B5868D7F887
:100D3000243199B242F210734FF4FA6200F070FA63
:100D4000012004F0F3FBD7F82431013BC7F824312C
:100D5000D7F8243113F12D0FE7DA642004F0E6FB15
:100D60002B4800F08BFD2A4B1B69A7F83E316FF032
:100D70002C03C7F8203112E0244B5868D7F82031F3
:100D800099B242F210734FF4FA6200F049FA01206E
:100D900004F0CCFBD7F820310133C7F82031D7F865
:100DA0002031002BE8DD002387F81F31002387F86E
:100DB0001E31002387F81D31002387F81C310023E2
:100DC000C7F82C31114B5868D7F82C3199B242F240
:100DD00010734FF4FA6200F023FA012004F0A6FB2E
:100DE000D7F82C310B4A82FB03121A449111DA17FF
:100DF0008A1A5A2101FB02F29A1A002A40F0CC808A
:100E00004FF4FA63C7F8183119E000BF140000204E
:100E100024000020B7600BB6AC4B5868D7F82C31D3
:100E200099B242F210734FF4FA6200F0F9F901201E
:100E300004F07CFBD7F818310533C7F81831D7F820
:100E40001831B3F57A6FE7DB0620FFF77DFEA04B84
:100E50001B6997F81D2119B207F1080323F8121036
:100E600097F90931012B15D197F81F31002B11D0BB
:100E700097F81D2107F1080333F9122097F81D3167
:100E8000591E07F1080333F911309A4202DA01239F
:100E900087F81E3197F90931B3F1FF3F15D197F863
:100EA0001F31002B11D097F81D2107F1080333F9EA
:100EB000122097F81D31591E07F1080333F911303C
:100EC0009A4202DD012387F81E3197F81D31002B6D
:100ED00032D097F81F31002B2ED197F90931012B11
:100EE0000ED197F81D2107F1080333F9122007F1FD
:100EF0000803B3F900309A4202DA012387F81F3160
:100F000097F90931B3F1FF3F0ED197F81D2107F191
:100F1000080333F9122007F10803B3F900309A42AD
:100F200002DD012387F81F3197F81F31002B03D012
:100F300097F81D3187F81C3197F81E31002B26D009
:100F400097F90931012B0ED197F81C2107F10803FD
:100F500033F912309AB25F4BB3F81F309BB213448F
:100F60009BB21BB20DE097F81C2107F1080333F97F
:100F700012309AB2574BB3F81F309BB2D31A9BB2C0
:100F80001BB297F81D1107F1080222F8113097F8EB
:100F90001D31013387F81D31D7F82C31B3F5B47FFB
:100FA00002DD0023C7F82C31D7F82C310133C7F804
:100FB0002C3197F81E31002B3FF404AF434B5B6894
:100FC00042F210720021184600F0A8F90023C7F879
:100FD00014312BE097F90931012B0ED107F10803E9
:100FE000D7F8142133F912309AB23A4BB3F81F30C4
:100FF0009BB2D31A9BB21BB20DE007F10803D7F8DE
:10100000142133F912309AB2324BB3F81F309BB22D
:1010100013449BB21BB207F10802D7F8141122F84F
:101020001130D7F814310133C7F8143197F81C3157
:10103000D7F814219A42CDDB002387F8133197F8B3
:10104000131197F8133107F1080232F91110224AEF
:101050005B0013440A469A8097F81331013387F8EE
:10106000133197F8132197F81D319A42E7D90023DD
:10107000C7F80C3111E007F10803D7F80C2133F958
:101080001210154AD7F80C315B0013440A469A80B7
:10109000D7F80C310133C7F80C3197F81D31D7F868
:1010A0000C219A42E7DB97F81D319AB20A4B5A801D
:1010B000094A97F80931137002F0B2F8074B084A51
:1010C0001A6000BF07F5A077BD4680BD1400002060
:1010D000240000204008002064080020180A002096
:1010E000ED08000880B584B000AF78600023FB6095
:1010F00008E00D4800F0C2FB012004F017FAFB687D
:101100000133FB60FB680F2BF3DD074B1B699AB2C1
:10111000064BA3F81D2002F0B7F8054B054A1A60EC
:1011200000BF1037BD4680BD2400002040080020CD
:10113000180A0020ED08000880B582B000AF786082
:1011400002F0A2F8034B044A1A6000BF0837BD46FC
:1011500080BD00BF180A0020ED08000880B400AF71
:10116000034B044A1A6000BFBD465DF8047B70471C
:10117000180A00203911000880B400AF034B044A5C
:101180001A6000BFBD465DF8047B7047180A002056
:10119000E510000880B400AF034B044A1A6000BF9A
:1011A000BD465DF8047B7047180A0020810B0008DB
:1011B00080B586B000AF78603960EFF31083FB60D4
:1011C000FB687B6172B600BF3B68786898477B69B3
:1011D0003B613B6983F3108800BF00BF1837BD46F1
:1011E00080BD80B483B000AF78607B685A687B684C
:1011F0001B681B6852685A637B685A687B681B6867
:101200001B6892689A637B685A687B681B681B68D6
:10121000D268DA6300BF0C37BD465DF8047B7047C7
:1012200080B586B000AFF860084611461A460346FE
:101230007B810B463B811346FB803A89FB889342B6
:1012400028BF13463B817B89184600F05BFC0246B1
:101250003B8903FB02F3104A82FB03121213DB17D4
:10126000D31A7B617B89C3F15A03184600F04AFC0C
:1012700002463B8903FB02F3074A82FB0312121367
:10128000DB17D31A3B613A697969F86800F03AF9DB
:1012900000BF1837BD4680BDAD8BDB6890B482B00F
:1012A00000AF0446084611461A462346FB80034613
:1012B000BB800B467B8013463B80B7F90030012B87
:1012C00010D1B7F90220B7F906309A4207DDB7F915
:1012D0000220B7F904309A4201DA012300E000232A
:1012E000DBB216E0B7F90030B3F1FF3F10D1B7F928
:1012F0000220B7F906309A4207DAB7F90220B7F9A7
:1013000004309A4201DD012300E00023DBB200E05B
:10131000002318460837BD4690BC704780B58CB096
:1013200000AFF860B9601346FB80BB68002BB8BF04
:101330005B42BB62BB6A002B6FDDBB68002B01DD2B
:10134000012301E04FF0FF3387F82730002387F8AF
:101350002F3097F82F303B4A5B0013449B88BB84A7
:1013600097F82F300133374A5B0013449B887B8406
:10137000FB685B681B881AB2324B93F900301BB2D2
:10138000B7F92210B7F92400FFF788FF0346002BB6
:1013900036D0BA8C7B8CD31A9BB23B8497F82F3013
:1013A0009BB21A46520013441A461201D31A5B002C
:1013B0009AB2B7F92430F968496809885B1A5A214A
:1013C00001FB03F1B7F9203091FBF3F39BB2134417
:1013D0009BB2FB83B7F91E2097F927305A2101FBF6
:1013E00003F31344BB61B86900F068FB0346FB825A
:1013F000BB6A9AB2FB88F98AF868FFF711FF1EE012
:1014000097F82F30013387F82F3097F82F200D4BA6
:101410005B88013B9A429CDB11E0FB685B6840F60D
:1014200033025A60FB685B6840F633029A60FB68DF
:101430005B6840F63302DA60F868FFF7D2FE3037B7
:10144000BD4680BD6408002080B483B000AF7860E2
:1014500039603B68002B25DB7B68002B11DB3B6888
:1014600041F28D6202FB03F3244A82FB0312121342
:10147000DB17D31A7A689A4201DA022337E0012394
:1014800035E03B681E4A02FB03F31C4A82FB031251
:101490001213DB17D31A7A689A4201DA032326E083
:1014A000022324E07B68002B10DB3B68144A02FB1C
:1014B00003F3124A82FB03121213DB17D31A7A6862
:1014C0009A4201DA052312E0062310E03B6841F25C
:1014D0008D6202FB03F3094A82FB03121213DB172E
:1014E000D31A7A689A4201DA042300E005231846E9
:1014F0000C37BD465DF8047B704700BFAD8BDB68E1
:1015000073E9FFFF80B58CB000AFF860B9607A6016
:101510000023FB620023BB6200237B627968B8680A
:10152000FFF792FF034687F82330BB6842F2D412DC
:1015300002FB03F3854A82FB03121213DB17D31A53
:10154000BB607B6842F2D41202FB03F37F4A82FB4A
:1015500003121213DB17D31A7B6097F82330013B79
:10156000052B00F2238101A252F823F08515000813
:10157000DF1500083D16000897160008EF16000852
:10158000551700087B6841F28D6202FB03F36F4A36
:1015900082FB03121213DB179B1ABA681344FB6118
:1015A0007B6842F61A5202FB03F3684A82FB03127D
:1015B0001213DB17D31ABB61FB69C3F51C5310333D
:1015C000BA699B1ADA0F13445B10FB62FB69FA6A73
:1015D0001344BB62BB69BA6A13447B62E6E07B6872
:1015E00041F28D6202FB03F3584A82FB031212138D
:1015F000DB17D31ABA681344FB617B6841F28D6232
:1016000002FB03F3514A82FB03121213DB17D21AB7
:10161000BB68D31ABB61FB69C3F51C531033BA69AD
:101620009B1ADA0F13445B10BB62BB69BA6A13449E
:10163000FB62FB69FA6A13447B62B7E07B6842F69F
:101640001A5202FB03F3414A82FB03121213DB1707
:10165000D31AFB617B6841F28D6202FB03F33B4AC4
:1016600082FB03121213DB179A1ABB68D31ABB61F1
:10167000FB69C3F51C531033BA699B1ADA0F134484
:101680005B10BB62FB69BA6A13447B62BB697A6A0E
:101690001344FB628AE07B6841F28D6202FB03F334
:1016A0002A4A82FB03121213DB17D21ABB68D31A21
:1016B000FB617B68264A02FB03F3244A82FB031288
:1016C0001213DB17D31ABB61FB69C3F51C5310332C
:1016D000BA699B1ADA0F13445B107B62BB697A6AA2
:1016E0001344BB62FB69BA6A1344FB625EE07B6829
:1016F00041F28D6202FB03F3144A82FB03121213C0
:10170000DB179A1ABB68D31AFB617B6841F28D62C2
:1017100002FB03F30D4A82FB03121213DB179B1A21
:10172000BA681344BB61FB69C3F51C531033BA6933
:101730009B1ADA0F13445B107B62FB697A6A1344CD
:10174000FB62BB69FA6A1344BB622FE0AD8BDB68B6
:10175000E6D2FFFF7B68344A02FB03F3334A82FB85
:1017600003121213DB17D31AFB617B6841F28D62FF
:1017700002FB03F32D4A82FB03121213DB17D31A69
:10178000BA681344BB61FB69C3F51C531033BA69D3
:101790009B1ADA0F13445B10FB62BB69FA6A1344AD
:1017A0007B62FB697A6A1344BB6200BFFB681B68FB
:1017B0007B61FB6A42F21072934228BF13467A693A
:1017C000D26802FB03F2FB685B681949A1FB0212B5
:1017D000520B5A60BB6A42F21072934228BF134602
:1017E0007A69D26802FB03F2FB685B681049A1FBCF
:1017F0000212520B9A607B6A42F21072934228BF27
:1018000013467A69D26802FB03F2FB685B680849F9
:10181000A1FB0212520BDA600649F868FFF7C8FC18
:1018200000BF3037BD4680BDE6D2FFFFAD8BDB6821
:101830005917B7D1E311000880B584B000AF7860C4
:101840007B6858687B681B890122194605F038FFC0
:101850000A2003F06BFE0023FB6005E0786800F0CF
:101860000DF8FB680133FB60FB68052BF6DD7B6838
:1018700000225A6100BF1037BD4680BD90B587B0C9
:1018800002AF78600023FB817B6858687B681B8906
:101890000022194605F014FF012000F029FE7B68A4
:1018A000186807F10E020123009301232E4907F067
:1018B000F3FF7B6858687B681B890122194605F095
:1018C000FFFE012000F014FEFB89C3F30D039BB261
:1018D000FB81FB89002B33D0FB8943F6FF729342D7
:1018E0002ED0FB891BB21A467B681B69D31AB3F54D
:1018F000005F05DB7B685B695A1E7B685A610DE0FF
:10190000FB891BB21A467B681B69D31A13F5005F6B
:1019100004DC7B685B695A1C7B685A61FB891BB2DB
:101920001A467B681A617B68D8687B6819697B688E
:101930005A6913469B039B1A0B44194600F016F88C
:101940007B689C697B68DB68184600F031F80346C9
:1019500032221946204600F029F902467B689A6136
:1019600000BF1437BD4690BDF2E6000880B483B0D6
:1019700000AF786039607B685B790133DAB27B68ED
:101980005A717B685A797B681B799A4202D97B68C5
:1019900000225A717B681A687B685B799B0013444C
:1019A0003A681A6000BF0C37BD465DF8047B70478B
:1019B000B0B588B000AF78606B461D467B681C7977
:1019C0002346013B3B61E0B24FF000014FF00002C3
:1019D0004FF000034B0143EAD0634201E0B24FF005
:1019E00000014FF000024FF000034B0143EAD063C7
:1019F000420123469B000733DB08DB00ADEB030D00
:101A00006B4603339B089B00FB60F8687B68196892
:101A10007B681B799B001A460BF090FE00237B61CC
:101A20002DE07B681A797B69DBB2D31ADBB2013B0C
:101A3000FB720023FB760023FB610EE0FB68FA6972
:101A400053F82220F97EFB6853F821309A4201DBDB
:101A5000FB69FB76FB690133FB61FB7AFA699A4209
:101A6000ECDBFB7E9B00FA68D018FB7A9B00FA68DF
:101A70001344194600F0A3F97B6901337B617B684D
:101A80001B791A467B699342CBDB7B681B795B0829
:101A9000DBB21A46FB6853F822207B681B795B088F
:101AA000DBB2591CFB6853F821301344DA0F13449E
:101AB0005B10AD4618462037BD46B0BD80B483B03C
:101AC00000AF78607B680E4A82FB03121A44111241
:101AD000DA178A1A4FF4B47101FB02F29B1A7B6089
:101AE0007B68002B03DA7B6803F5B4737B607B684B
:101AF0009BB218460C37BD465DF8047B704700BFAB
:101B0000B7600BB680B584B000AF78607868FFF737
:101B1000D5FF03467B607B68214A82FB031292104B
:101B2000DB17D21A1F4B83FB0213D910D317C91A24
:101B30000B46DB000B449B00D11A0B46FB817A68F5
:101B4000174B83FB02139910D317C91A0B469B003E
:101B50000B445B00D11A0B46BB81B7F90E30124A19
:101B600032F913301946B7F90E3001330E4A32F903
:101B700013301846B7F90E300B4A32F91330C31A36
:101B8000B7F90C2002FB03F3054A82FB0302921013
:101B9000DB17D31A0B4418461037BD4680BD00BF73
:101BA00067666666398EE338F4E6000880B485B06F
:101BB00000AFF860B9601346FB71FB79C3F16403B1
:101BC000BA6802FB03F30B4A82FB03125211DB17C4
:101BD000D21AFB79F96801FB03F3064981FB030183
:101BE0004911DB17CB1A134418461437BD465DF86C
:101BF000047B70471F85EB5190B583B000AF04465E
:101C0000084611461A462346FB800346BB800B4616
:101C10007B8013463B80B7F90240FB884FF4B472D7
:101C200002FB03F2BB8892FBF3F31846FFF76AFF4F
:101C30000246B7F9003003FB02F3084A82FB0312A5
:101C40001213DB17D31A03FB04F2B7F9003092FB2F
:101C5000F3F31BB218460C37BD4690BDAD8BDB6865
:101C600090B482B000AF0446084611461A46234697
:101C7000FB800346BB800B467B8013463B80B7F955
:101C80000220BB885B089BB2F988994202D8B7F959
:101C9000003002E0B7F900305B4202FB03F2B7F913
:101CA000003092FBF3F31BB218460837BD4690BCD8
:101CB000704790B482B000AF0446084611461A46F9
:101CC0002346FB800346BB800B467B8013463B804C
:101CD000B7F90220F988BB885B089BB201339942AF
:101CE00001DCFB8802E0B988FB88CB1AB7F9001049
:101CF00001FB03F39900BB8891FBF3F1B7F90030C6
:101D0000CB1A03FB02F2B7F9003092FBF3F31BB2DC
:101D100018460837BD4690BC704790B482B000AFFB
:101D20000446084611461A462346FB800346BB80FC
:101D30000B467B8013463B80B7F90230FA88B7F92F
:101D4000001001FB02F25100BA8891FBF2F1B7F9E1
:101D500000208A1A02FB03F2B7F9003092FBF3F37A
:101D60001BB218460837BD4690BC704790B482B08D
:101D700000AF0446084611461A462346FB80034638
:101D8000BB800B467B8013463B80B7F90230B7F926
:101D90000010FA88B7F9000000FB02F25000BA8880
:101DA00090FBF2F28A1A02FB03F2B7F9003092FBC1
:101DB000F3F31BB218460837BD4690BC704780B499
:101DC00085B000AF786039607B681B68FB603B685A
:101DD0001A687B681A603B68FA681A6000BF14379B
:101DE000BD465DF8047B704780B485B000AF034604
:101DF000FB800B46BB8013467B80FA88BB8813436D
:101E00009BB21AB2B7F90230C3F30A031BB21343F1
:101E10001BB2FB81FB8918461437BD465DF8047B75
:101E2000704780B582B000AF78607B6858687B6887
:101E30001B890122194605F043FC0A2003F076FBBA
:101E400000BF0021786800F00DF8034603F48063BA
:101E5000002BF6D1012003F069FB00BF0837BD4617
:101E600080BD000080B586B002AF78600B467B80F5
:101E70007B68D8687B681B8A0022194605F020FC25
:101E8000012000F035FB0023FB817B8800221946EE
:101E90004FF40040FFF7A8FF0346BB814BF6EF630A
:101EA0007B817B68186807F10C014FF47A7301227B
:101EB00007F0BEFB7B68D8687B681B8A0122194645
:101EC00005F0FEFB012000F013FB7B68D8687B68FF
:101ED0001B8A0022194605F0F3FB012000F008FBE5
:101EE0007B68186807F10A0207F10E014FF47A7354
:101EF0000093012307F0D0FC012000F0F9FA7B6881
:101F0000D8687B681B8A0122194605F0D9FB01209D
:101F100000F0EEFA7B894BF6EF62934206D1074B55
:101F2000074A40F2691107480BF09EFB7B89C3F317
:101F30000A039BB218461037BD4680BD94E60008E0
:101F400040E70008A8E6000880B584B000AF7860DC
:101F50000B467B804FF480517868FFF783FF034680
:101F6000FB81FB8923F4F863FB81FA897B881343A7
:101F7000FB81FB891A464FF48051786800F067F8BE
:101F800000BF1037BD4680BD80B584B000AF78601B
:101F90000B46FB704FF480517868FFF763FF0346F0
:101FA000FB81FB8923F03003FB81FB789AB2FB892C
:101FB0001343FB81FB891A464FF48051786800F087
:101FC00046F800BF1037BD4680BD80B584B000AF75
:101FD00078600B46FB704FF480517868FFF742FF42
:101FE0000346FB81FB8923F00803FB81FB789AB24F
:101FF000FB891343FB81FB891A464FF480517868B3
:1020000000F025F800BF1037BD4680BD80B584B014
:1020100000AF78600B46FB704FF4C0517868FFF753
:1020200021FF0346FB81FB8923F00C03FB81FB7836
:102030009AB2FB891343FB81FB891A464FF4C051C6
:10204000786800F004F800BF1037BD4680BD80B549
:1020500084B000AF78600B467B8013463B807B6882
:10206000D8687B681B8A0022194605F029FB0120ED
:1020700000F03EFA3A887B8819460020FFF7B4FE4C
:102080000346FB817B68186807F10E014FF47A73F1
:10209000012207F0CDFA012000F02AFA7B68D86807
:1020A0007B681B8A0122194605F00AFB012000F01B
:1020B0001FFA00BF1037BD4680BD80B584B000AFA9
:1020C000786039603B6893F82330002B00F0F4808F
:1020D0000023FB81FB8919467868FFF7C3FE03469E
:1020E000BB81BB8903F48063002B14BF0123002351
:1020F000DAB23B681A70BB8903F40073002B14BF7B
:1021000001230023DAB23B685A70BB8903F4807361
:10211000002B14BF01230023DAB23B689A70BB89FD
:1021200003F08003002B14BF01230023DAB23B68C5
:10213000DA70BB8903F04003002B14BF0123002396
:10214000DAB23B681A71BB8903F02003002B14BF7D
:1021500001230023DAB23B685A71BB8903F01003F4
:10216000002B14BF01230023DAB23B689A71BB89AC
:1021700003F00803002B14BF01230023DAB23B68ED
:10218000DA71BB8903F00403002B14BF0123002381
:10219000DAB23B681A72BB8903F00203002B14BF4A
:1021A00001230023DAB23B685A72BB8903F00103B2
:1021B000002B14BF01230023DAB23B689A723B68FC
:1021C000BA895A834FF40063FB81FB89194678680A
:1021D000FFF748FE0346BB81BB8903F08003002B59
:1021E00014BF01230023DAB23B681A73BB8903F0E2
:1021F0000F039AB23B68DA813B68BA899A834FF43D
:102200008053FB81FB8919467868FFF72BFE034654
:10221000BB81BB89DBB203F00303DAB23B681A74FB
:10222000BB89DBB203F00403DAB23B685A74BB89A2
:10223000DBB203F00803DAB23B689A74BB89DBB205
:1022400003F03003DAB23B68DA74BB8903F4F86355
:102250009AB23B689A823B68BA89DA834FF4C053DA
:10226000FB81FB8919467868FFF7FCFD0346BB81BB
:10227000BB89DBB203F00303DAB23B689A75BB8912
:10228000DBB203F00C03DAB23B68DA75BB89DBB270
:1022900003F03003DAB23B681A76BB89DBB203F095
:1022A0004003DAB23B685A763B68BA891A843B68C5
:1022B000002283F8232000BF00BF1037BD4680BD39
:1022C00080B584B000AF786039603B68002283F845
:1022D00022203B68002283F82320012003F026F906
:1022E0000023FB81FB8919467868FFF7BBFD034695
:1022F000BB81BB8903F48063002B14BF012300233F
:10230000DAB23B681A70BB8903F40073002B14BF68
:1023100001230023DAB23B685A70BB8903F480734F
:10232000002B14BF01230023DAB23B689A70BB89EB
:1023300003F08003002B14BF01230023DAB23B68B3
:10234000DA70BB8903F04003002B14BF0123002384
:10235000DAB23B681A71BB8903F02003002B14BF6B
:1023600001230023DAB23B685A71BB8903F01003E2
:10237000002B14BF01230023DAB23B689A71BB899A
:1023800003F00803002B14BF01230023DAB23B68DB
:10239000DA71BB8903F00403002B14BF012300236F
:1023A000DAB23B681A72BB8903F00203002B14BF38
:1023B00001230023DAB23B685A72BB8903F00103A0
:1023C000002B14BF01230023DAB23B689A724FF44A
:1023D0000063FB81FB8919467868FFF743FD0346DC
:1023E000BB81BB8903F08003002B14BF01230023B2
:1023F000DAB23B681A73BB8903F00F039AB23B68E9
:10240000DA814FF48053FB81FB8919467868FFF726
:1024100029FD0346BB81BB89DBB203F00303DAB2BB
:102420003B681A74BB89DBB203F00403DAB23B6881
:102430005A74BB89DBB203F00803DAB23B689A74C2
:10244000BB89DBB203F03003DAB23B68DA74BB89D4
:1024500003F4F8639AB23B689A824FF4C053FB814D
:10246000FB8919467868FFF7FDFC0346BB81BB89F1
:10247000DBB203F00303DAB23B689A75BB89DBB2C7
:1024800003F00C03DAB23B68DA75BB89DBB203F008
:102490003003DAB23B681A76BB89DBB203F0400343
:1024A000DAB23B685A7600BF1037BD4680BD0000E7
:1024B00080B400AF0C4BDB6803F08073002B0ED1AF
:1024C000094BDB68084A43F08073D360074B002256
:1024D0005A60064B1B68054A43F00103136000BFB6
:1024E000BD465DF8047B7047F0ED00E0001000E0B1
:1024F00080B485B000AF78600D4B5B68FB600D4B1E
:102500001B680D4AA2FB03239A0C7B6802FB03F3B2
:10251000BB6000BF064B5A68FB68D31ABA689A4280
:10252000F8D800BF00BF1437BD465DF8047B704784
:10253000001000E0AC07002083DE1B4380B483B0B2
:1025400000AF786039603B685B78DBB2022B1AD150
:102550003B689B889BB21A463B68DB889BB203FBB7
:1025600002F31A467B6893420BD33B689B889BB26D
:1025700047F6FE72934204D83B689B889BB2002BBF
:1025800001D1012300E00023DBB218460C37BD4621
:102590005DF8047B7047000090B585B000AFF8602F
:1025A000B9607A60BB689B69FA689A4256D9BB6881
:1025B0009B68FA68D31ABA6811461846FFF7BEFF3F
:1025C0000346002B41D0BB689B8A9BB2002B3CD0BA
:1025D000BB68DB8A9BB21846BB689B69FA68D31A52
:1025E000BA68928A92B20132B3FBF2F102FB01F2B5
:1025F0009A1A1346DB039B1ABA68928A92B2B3FB0B
:10260000F2F3C218174BA3FB0213D11A49080B446B
:10261000990B0B46DB035B1AD11A8AB2BB68DA82CC
:10262000BB68DB8A98B2BB681B8A1AB27C6842F22C
:10263000107347F6FF71A04703461A46BB685B8AD2
:102640001BB21A44BB68DA6005E0BB680022DA827C
:10265000BB680022DA60BB68FA689A6100BF143771
:10266000BD4690BD0500020080B582B000AF786025
:1026700039603B689B687A68D31A3A6811461846F5
:10268000FFF75CFF0346002B06D03B681B8A1BB29A
:102690001A463B68DA6002E03B680022DA6000BF5D
:1026A0000837BD4680BD90B585B000AF7860396011
:1026B0003B689B687A68D31AFB603B681946F868E8
:1026C000FFF73CFF0346002B28D03B689B889BB25A
:1026D000002B23D03B681B8A1BB218463B685B8AE1
:1026E0001BB21A463B681B8A1BB2D31A1C463B68B6
:1026F0009B889BB201331A46FB68B3FBF2F102FBE5
:1027000001F29B1A03FB04F33A68928892B2B3FB7E
:10271000F2F303441A463B68DA6003E03B680022A8
:10272000DA6000BF00BF1437BD4690BD80B586B0EB
:1027300000AF786039603B689B687A68D31A3A6862
:1027400011461846FFF7FAFE0346002B38D0204BFF
:102750005B889BB21A461E4BB3F81F309BB203FB3B
:1027600002F31C4A82FB03121A445212DB17D31ADB
:102770007B61194B1B689B6842F2107202FB03F2EB
:102780007B6992FBF3F33A68128A12B29B1A3B619F
:102790003B69002B03DD3B685B8A1BB202E03B68B0
:1027A0009B8A1BB2FB603B69FA6802FB03F30B4A8E
:1027B00082FB03121213DB179A1A3B68DA6002E0FD
:1027C0003B680022DA6000BF1837BD4680BD00BFFD
:1027D00040080020B7600BB614000020AD8BDB680A
:1027E00080B584B000AF786039603B68FB60FB68FF
:1027F0001B78DBB2082B42D801A252F823F000BFAD
:1028000025280008252800082F2800083928000856
:1028100045280008512800085D280008692800089C
:102820007528000839687868FFF71EFF27E03968C7
:102830007868FFF738FF22E0134A39687868FFF7B5
:10284000ABFE1CE0114A39687868FFF7A5FE16E078
:102850000F4A39687868FFF79FFE10E00D4A396823
:102860007868FFF799FE0AE00B4A39687868FFF745
:1028700093FE04E039687868FFF758FF00BF00BF97
:102880001037BD4680BD00BF611C0008F91B000861
:10289000B31C00081B1D00086D1D000880B584B026
:1028A00000AF78600023FB600AE0094AFB6852F839
:1028B000233019467868FFF793FFFB680133FB600C
:1028C000FB68092BF1DD00BF00BF1037BD4680BD9E
:1028D0005C00002080B485B000AF0023FB600023C3
:1028E000BB602DE01B4ABB6852F823307B607B68DD
:1028F0005B78DBB2002B20D07B68DB687A6892784B
:10290000D2B202FB03F3144A82FB03121A44D2111F
:10291000DB17D31A7A681278D2B21049043231F92F
:10292000122012B202FB03F30D4A82FB0312521172
:10293000DB17D31AFA681344FB60BB680133BB6032
:10294000BB68092BCEDDFB6818461437BD465DF821
:10295000047B70475C00002081808080400800205C
:102960001F85EB51F0B400AF0F4B01221A700E4AD5
:102970000E4B501C03F1200402461946D1F800C04A
:102980004E688D68C968C2F800C056609560D16015
:1029900010331030A342EFD102461B78137000BFF2
:1029A000BD46F0BC704700BFC809002040080020A9
:1029B000F0B482B000AF78607B6801330D4A1046F6
:1029C00003F1200402461946D1F800C04E688D6814
:1029D000C968C2F800C056609560D16010331030ED
:1029E000A342EFD102461B78137000BF0837BD46E3
:1029F000F0BC70474008002080B582B000AF78601E
:102A00007B681B78013B042B1BD801A252F823F0F2
:102A1000252A00082B2A0008432A00083D2A00081E
:102A2000372A0008FFF79EFF0BE07868FFF7C0FF2A
:102A3000FEF794FB05E0FEF79FFB02E0FEF7AAFB22
:102A400000BF00BF0837BD4680BD00BF80B582B063
:102A500000AF78604022044978680AF085FD00BF25
:102A60000837BD4680BD00BFC809002080B483B0D0
:102A700000AF786000BF0C37BD465DF8047B70473F
:102A800080B483B000AF786000BF0C37BD465DF8FE
:102A9000047B704780B485B000AF786039603B68D4
:102AA0001B781A46164B53F82230FB603B685B8854
:102AB0009AB2FB689A803B681A7AFB689A70FB6846
:102AC0007A689A60FB681B78DBB2042B12D10D4B3D
:102AD0001B78002B0ED00A4B1B68BB603B685B88E1
:102AE0009AB2BB689A803B681A7ABB689A70BB68D6
:102AF0007A689A6000BF1437BD465DF8047B704762
:102B00005C0000204008002080B485B000AF7860F1
:102B100039603B681B781A46224B53F82230FB6021
:102B2000FB681B78DBB2042B1AD11F4B1B78002BE0
:102B300016D03B68B3F801309BB2002B10D1194B73
:102B40001B68BB603B68B3F903301AB2BB681A82DA
:102B5000154B5B78002B1ED0BB687A689A601AE030
:102B60003B68B3F801309BB21AB2FB681A823B682B
:102B7000B3F903301AB2FB685A823B68B3F80730E6
:102B80009AB2FB689A82084B5B78002B04D0FB68F2
:102B90007A689A6000E000BF00BF1437BD465DF858
:102BA000047B70475C0000204008002080B485B0A2
:102BB00000AF786039603B681B781A46134B53F8B6
:102BC0002230FB603B685B78002B11D13B68B3F986
:102BD00002301AB2FB681A823B68B3F904301AB2A9
:102BE000FB685A823B68B3F906301AB2FB689A82D6
:102BF000074B5B78002B02D0FB687A689A6000BFB5
:102C00001437BD465DF8047B704700BF5C000020B0
:102C10004008002080B485B000AF786039603B6820
:102C20001B781A460B4B53F82230FB603B68B3F914
:102C300001301AB2FB681A82074B5B78002B02D076
:102C4000FB687A689A6000BF1437BD465DF8047B64
:102C5000704700BF5C0000204008002080B485B0B1
:102C600000AF786039603B681B781A460E4B53F80A
:102C70002230FB603B68B3F901301AB2FB681A825C
:102C80003B68B3F903301AB2FB685A82074B5B7892
:102C9000002B02D0FB687A689A6000BF1437BD46EB
:102CA0005DF8047B704700BF5C00002040080020F6
:102CB00080B485B000AF0346FB71FB790D4A52F832
:102CC0002330FB60FB6801225A70FB6800229A7077
:102CD000FB6800229A80FB680022DA80FB680022F1
:102CE0009A60FB680022DA6000BF1437BD465DF8C9
:102CF000047B70475C00002080B485B000AF786032
:102D00000B46FB701346BB70FB78092B22D8FB786F
:102D1000134A52F82330FB60FB6802225A70BB78DA
:102D20009AB2FB68DA80FB687A689A60FB78042BB9
:102D300010D10C4B1B78002B0CD0094B1B68BB60CF
:102D4000BB6802225A70BB789AB2BB68DA80BB6853
:102D50007A689A6000BF1437BD465DF8047B7047FF
:102D60005C0000204008002080B485B000AF03461E
:102D7000FB71FB79092B1AD8FB79104A52F82330E2
:102D8000FB60FB6803225A70FB680022DA60FB7963
:102D9000042B0CD10A4B1B78002B08D0074B1B6867
:102DA000BB60BB6803225A70BB680022DA6000BFB8
:102DB0001437BD465DF8047B704700BF5C000020FF
:102DC0004008002080B582B000AF0123FB7106E00F
:102DD000FB791846FFF7C8FFFB790133FB71FB79DC
:102DE000092BF5D900BF00BF0837BD4680BD0000E4
:102DF00080B485B000AF0346FB71FB79092B16D870
:102E0000FB790E4A52F82330FB60FB6800225A70AF
:102E1000FB6800229A70FB6800229A80FB680022FF
:102E2000DA80FB6800229A60FB680022DA6000BF4B
:102E30001437BD465DF8047B704700BF5C0000207E
:102E400080B582B000AF0123FB7106E0FB79184624
:102E5000FFF7CEFFFB790133FB71FB79092BF5D925
:102E600000BF00BF0837BD4680BD80B400AF00BFC3
:102E7000BD465DF8047B704780B400AF00BFBD461F
:102E80005DF8047B704780B500AFFFF79BFF00BF84
:102E900080BD80B500AFFFF7D3FF00BF80BD80B419
:102EA00000AF00BFBD465DF8047B704780B400AF43
:102EB00000BFBD465DF8047B704780B582B000AFAF
:102EC00078607B685B78032B1CD0032B20DC012B04
:102ED00002D0022B0AD01BE002F01CFB7B681978A1
:102EE0007B689B781A46FFF707FF12E0FFF76AFF3F
:102EF00002F010FB7B6819787B689B781A46FFF715
:102F0000FBFE06E07B681B781846FFF72DFF00E00C
:102F100000BF00BF0837BD4680BD000080B582B04D
:102F200000AF78607B681B78013B052B20D801A29D
:102F300052F823F04D2F0008532F0008592F000896
:102F40005F2F0008652F00086B2F0008FFF78DFF2B
:102F50000FE0FFF791FF0CE0FFF795FF09E0FFF7A7
:102F600098FF06E0FFF79BFF03E0FFF79FFF00E0FD
:102F700000BF00BF0837BD4680BD00BF80B582B02E
:102F800000AF78607B681B78FF2B02D1FFF758FFFA
:102F900004E07B681B781846FFF72AFF00BF08375C
:102FA000BD4680BD80B584B000AF78607B681B787B
:102FB000FB73FB7B013B0A2B0AD8FB7B1846FFF710
:102FC00077FE0E4AFB7B53700C4B01229A7006E091
:102FD0000A4B00225A70094B03229A7000BFFB7BF8
:102FE000042B06D1064B1B78002B02D00020FFF7E4
:102FF0005FFE00BF1037BD4680BD00BFDC0600206D
:103000004008002080B584B000AF78607B68D3F8BA
:10301000C032FB60FB681B781F2B10D01F2B14DC09
:10302000112B02D0132B06D00FE0FB68013318469A
:10303000FFF7B8FF0AE0786800F09CF806E0FB684C
:1030400001331846FFF7D8FC00E000BF00BF10377F
:10305000BD4680BD80B584B000AF78607B68D3F892
:10306000C032FB60FB681B78113B0C2B6CD801A2B3
:1030700052F823F0A9300008BD300008DD30000808
:10308000C9300008F1300008053100084931000856
:103090004931000849310008193100083131000870
:1030A000253100083D31000802F034FA0246FB6881
:1030B000013319461046FFF7EDFC46E0FB6801338B
:1030C0001846FFF7DDFC40E002F024FA0246FB68F8
:1030D000013319461046FFF717FD36E002F01AFAE1
:1030E0000246FB68013319461046FFF75FFD2CE0EE
:1030F00002F010FA0246FB68013319461046FFF74A
:1031000089FD22E002F006FA0246FB680133194607
:103110001046FFF7A3FD18E0FB6801331846FFF7E0
:10312000CCFE12E0FB6801331846FFF7F7FE0CE017
:10313000FB6801331846FFF721FF06E0FB68013307
:103140001846FFF793FC00E000BF00BF1037BD46F4
:1031500080BD00BF80B582B000AF78600522044911
:1031600078680AF001FA00BF0837BD4680BD00BF8D
:10317000DC06002080B582B000AF786005220449EB
:1031800078680AF0F1F900BF0837BD4680BD00BF7E
:10319000E4060020B0B586B000AFF860C7E90023B0
:1031A00003F048FF144BB322DA600221F86804F000
:1031B000A3F800237B6114E039687B69BA6A134481
:1031C0001B78DAB24FF00003002003F0DFFED7E9EE
:1031D0000023541C43F10005C7E900457B69013316
:1031E0007B61BB8D7A699A42E6DB03F045FF00BF45
:1031F0001837BD46B0BD00BF003C024080B500AFEF
:10320000054A064B104619464FF482731A460AF0D7
:1032100095FA00BF80BD00BF6408002000000E08C2
:1032200080B582B002AF4FF482730193054B0093D7
:10323000054A4FF000030B20FFF7ACFF00BFBD466F
:1032400080BD00BF6408002000000E08F0B500AF8C
:103250000B4B0C4A14469C4604F1200E654626464C
:103260000FCE28606960AA60EB6010340CF1100C7E
:103270007445F3D16346224612781A7000BFF0BD40
:103280004008002000000C0880B582B002AF212366
:103290000193054B0093054A4FF000030A20FFF706
:1032A00079FF00BFBD4680BD4008002000000C082B
:1032B00080B500AF00220E490E4809F0C1F8034660
:1032C000002B01D001F0E6FA0B490A4809F0EEF8AC
:1032D0000346002B01D001F0DDFA064809F007F99A
:1032E0000346002B01D001F0D5FA00BF80BD00BF1E
:1032F0005C070020380A0020EC06002080B58AB068
:1033000000AF786007F1140300221A605A609A60D7
:10331000DA601A617B681B68B3F1A04F3AD10023D1
:103320003B611E4B1B6B1D4A43F0010313631B4B98
:103330001B6B03F001033B613B694FF4C0537B619E
:103340000223BB610023FB6103233B620A237B62F0
:1033500007F114031946124804F016F80F4B5B6B83
:103360000E4A43F0800353630023FB600B4B5B6CFE
:103370000A4A43F480435364084B5B6C03F4804374
:10338000FB60FB6800220021432003F043FA432046
:1033900003F05CFA00BF2837BD4680BD003802400C
:1033A0000000024080B582B000AF78607B68D3F83F
:1033B00004247B6803F571731946104609F0E2F89E
:1033C00000BF0837BD4680BD80B582B000AF7860D1
:1033D0000B46FB707B68D3F80404FA7879681346CF
:1033E000DB009B1A9B000B4403F502731A68FB7801
:1033F000194609F01CF900BF0837BD4680BD80B5ED
:1034000082B000AF78600B46FB707B68D3F8040491
:10341000FA7879681346DB009B1A9B000B4448330B
:103420001A68FB78194609F065F900BF0837BD46F0
:1034300080BD80B582B000AF78607B68D3F804347B
:10344000184609F069FA00BF0837BD4680BD80B54F
:1034500084B000AF78600123FB737B68DB68002BCE
:1034600002D10023FB7308E07B68DB68022B02D1EA
:103470000123FB7301E001F00DFA7B68D3F80434FB
:10348000FA7B1146184609F00CFA7B68D3F804342D
:10349000184609F0C5F900BF1037BD4680BD0000D1
:1034A00080B582B000AF78607B68D3F804341846EA
:1034B00009F007FA7B681B6803F560631B687A688C
:1034C000126802F5606243F0010313607B681B6AB7
:1034D000002B05D0044B1B69034A43F0060313611C
:1034E00000BF0837BD4680BD00ED00E080B582B06A
:1034F00000AF78607B68D3F80434184609F0F6F919
:1035000000BF0837BD4680BD80B582B000AF78608F
:103510000B46FB707B68D3F80434FA7811461846E2
:1035200009F021FA00BF0837BD4680BD80B582B0E2
:1035300000AF78600B46FB707B68D3F80434FA78F0
:103540001146184609F002FA00BF0837BD4680BD93
:1035500080B582B000AF78607B68D3F80434184639
:1035600009F00EFA00BF0837BD4680BD80B582B0B5
:1035700000AF78607B68D3F80434184609F00BFA82
:1035800000BF0837BD4680BD80B582B000AF78600F
:103590007B681B78002B3CD1204A7B68C2F804343E
:1035A0007B681E4AC3F8C4221C4B4FF0A0421A602D
:1035B0001A4B04225A60194B0222DA60174B002280
:1035C0001A61164B02229A61144B0022DA61134BE6
:1035D00000221A62114B00225A62104B0022DA625A
:1035E0000E4B00221A630D4804F0C8F90346002B65
:1035F00001D001F04FF98021084805F00EFB402270
:103600000021064805F0C2FA80220121034805F096
:10361000BDFA002318460837BD4680BD080D0020BE
:1036200080B584B000AF78600023FB730023BB73C8
:103630007B68D3F8C432184604F0BDFA0346FB7326
:10364000FB7B184600F018F90346BB73BB7B18469A
:103650001037BD4680BD80B584B000AF78600846A5
:1036600011461A460346FB700B46BB7013463B805F
:103670000023FB730023BB737B68D3F8C402BB78C1
:103680003A88F97804F0A1FE0346FB73FB7B1846E9
:1036900000F0F2F80346BB73BB7B18461037BD46FB
:1036A00080BD80B584B000AF78600B46FB7000230E
:1036B000FB730023BB737B68D3F8C432FA781146DE
:1036C000184604F0EAFE0346FB73FB7B184600F045
:1036D000D3F80346BB73BB7B18461037BD4680BD8D
:1036E00080B584B000AF78600B46FB700023FB739D
:1036F0000023BB737B68D3F8C432FA7811461846AE
:1037000004F0AAFF0346FB73FB7B184600F0B4F8F5
:103710000346BB73BB7B18461037BD4680BD80B5E2
:1037200084B000AF78600B46FB700023FB7300236E
:10373000BB737B68D3F8C432FA781146184604F09C
:10374000EFFF0346FB73FB7B184600F095F803463A
:10375000BB73BB7B18461037BD4680BD80B485B0B7
:1037600000AF78600B46FB707B68D3F8C432FB6017
:1037700097F90330002B0BDAFB7803F07F02F9682E
:103780001346DB009B1A9B000B443E331B780BE077
:10379000FB7803F07F02F9681346DB009B1A9B005D
:1037A0000B4403F5FF731B7818461437BD465DF8CC
:1037B000047B704780B584B000AF78600B46FB7027
:1037C0000023FB730023BB737B68D3F8C432FA7801
:1037D0001146184604F0D4FD0346FB73FB7B1846E4
:1037E00000F04AF80346BB73BB7B18461037BD4652
:1037F00080BD80B586B000AFF8607A603B600B4654
:10380000FB720023FB750023BB75FB68D3F8C40271
:10381000F97A3B687A6804F0D5FE0346FB75FB7DB8
:10382000184600F029F80346BB75BB7D18461837CB
:10383000BD4680BD80B586B000AFF8607A603B6061
:103840000B46FB720023FB750023BB75FB68D3F8A6
:10385000C402F97A3B687A6804F069FE0346FB7596
:10386000FB7D184600F008F80346BB75BB7D184683
:103870001837BD4680BD000080B485B000AF034658
:10388000FB710023FB73FB79032B17D801A252F8BD
:1038900023F000BFA5380008AB380008B138000895
:1038A000B73800080023FB730BE00323FB7308E029
:1038B0000123FB7305E00323FB7302E00323FB7387
:1038C00000BFFB7B18461437BD465DF8047B70478C
:1038D00080B584B000AF78600B46FB70102009F013
:1038E0001DFF0346FB60FB68002B05D17B680022AF
:1038F000C3F8BC22022331E07B68FA68C3F8BC221B
:10390000402009F00BFF03461A467B68C3F8C0222B
:103910007B6801225A877B680122A3F87A21402321
:10392000032281217868FFF796FE7B6801221A87BF
:103930004023032201217868FFF78DFE7B68012276
:10394000A3F87821FB6800221A737B68D3F8C022A1
:10395000402301217868FFF76DFF002318461037D8
:10396000BD4680BD80B582B000AF78600B46FB706D
:1039700081217868FFF795FE7B6800221A877B68B3
:1039800000225A8701217868FFF78BFE7B680022AE
:10399000A3F878217B680022A3F87A217B68D3F80A
:1039A000BC32002B09D07B68D3F8BC32184609F032
:1039B000BDFE7B680022C3F8C0227B68D3F8C0320A
:1039C000002B09D07B68D3F8C032184609F0AEFE50
:1039D0007B680022C3F8C022002318460837BD4682
:1039E00080BD000080B584B000AF786039607B682E
:1039F000D3F8BC32FB603B681B7803F06003002BFC
:103A000000F08380202B40F0C8803B685B78013B4E
:103A10000A2B70D801A252F823F000BFB93A00086F
:103A2000773A0008573A0008F73A0008F73A0008D2
:103A3000F73A0008F73A0008F73A0008873A000812
:103A4000653A0008493A00083B685B88DBB21A46D1
:103A5000FB681A6058E0FB6801221946786809F093
:103A600083FD51E03B685B881B0A9BB2DBB21A46C0
:103A7000FB685A6048E0FB68043301221946786805
:103A800009F072FD40E03B685B881B0A9BB2DBB229
:103A9000032B36D13B685B88DBB2112B01D01F2B87
:103AA0002FD17B68D3F8C0123B68DB881A46786850
:103AB00009F086FD00BF24E03B685B881B0A9BB2CF
:103AC000DBB2032B1FD13B685B88DBB21F2B0DD011
:103AD0001F2B18DC122B05D0132B14D17868FFF79D
:103AE00049FB07E07868FFF735FB03E07868FEF7ED
:103AF000ADFF00BF07E03968786809F0C4FC032314
:103B000052E000BF4FE000BF4DE03B685B780B2BFD
:103B100034D00B2B39DC062B02D00A2B26D034E014
:103B20003B685B881B0A9BB2222B0DD13B68DB886C
:103B3000B3F5A46F28BF4FF4A4639BB21A461C4987
:103B4000786809F011FD26E03B685B881B0A9BB290
:103B5000212B20D117493B68DB88092B28BF09237B
:103B60009BB21A46786809F0FFFC14E0FB68083342
:103B700001221946786809F0F7FC0DE03B685B8884
:103B8000DBB21A46FB689A6006E03968786809F08B
:103B90007AFC032308E000BF05E03968786809F083
:103BA00072FC032300E0002318461037BD4680BD99
:103BB000A00100203607002080B586B000AFF86075
:103BC000B9601346FB80FB68D3F8BC32002B01D1EF
:103BD000032319E0FB68D3F8BC327B61FB6893F8E0
:103BE0009C32032B0FD17B691B7B002B09D17B6996
:103BF00001221A73FB88BA688121F868FFF7F9FD82
:103C000001E0012300E0002318461837BD4680BDBF
:103C100080B483B000AF78607B6829221A80034BA0
:103C200018460C37BD465DF8047B7047240700201A
:103C300080B483B000AF78600B46FB707B68D3F82C
:103C4000BC3200221A73002318460C37BD465DF8BB
:103C5000047B704780B582B000AF78600B46FB7084
:103C60007B68D3F8BC32002B01D103230BE07868CA
:103C7000FFF7F0F97B68D3F8C02240230121786870
:103C8000FFF7D8FD002318460837BD4680BD80B534
:103C900082B000AF78607868FFF7B4F90023184667
:103CA0000837BD4680BD000080B483B000AF7860A7
:103CB0007B680A221A80034B18460C37BD465DF814
:103CC000047B70475007002080B483B000AF0346E8
:103CD0003960FB713B6812221A80034B18460C377F
:103CE000BD465DF8047B70477807002080B483B040
:103CF00000AF03463960FB713B6804221A80034B16
:103D000018460C37BD465DF8047B70478C070020D1
:103D100080B582B000AF03463960FB713A68044950
:103D2000044809F0C1FB024B18460837BD4680BD68
:103D300010110020C0E6000880B582B000AF034635
:103D40003960FB713A680449044809F0ADFB024B45
:103D500018460837BD4680BD10110020D4E6000883
:103D600080B582B000AF03463960FB713B681A2210
:103D70001A8000F02FF8024B18460837BD4680BD68
:103D80009007002080B582B000AF03463960FB7118
:103D90003A680449044809F087FB024B1846083783
:103DA000BD4680BD10110020D8E6000880B582B065
:103DB00000AF03463960FB713A680449044809F0D2
:103DC00073FB024B18460837BD4680BD101100201A
:103DD000E4E6000880B584B000AF0F4B1B68FB60C1
:103DE0000E4B1B68BB600E4B1B687B60FA687B68E0
:103DF0001344FB60FB68002B09D008220949F868CE
:103E000000F014F804220849B86800F00FF800BF69
:103E10001037BD4680BD00BF107AFF1F147AFF1F08
:103E2000187AFF1F92070020A207002080B487B0F5
:103E300000AFF860B9601346FB710023FB750023E7
:103E4000FB7527E0FB681B0F092B0BD8FB681B0FCA
:103E5000DAB2FB7D5B001946BB680B443032D2B24C
:103E60001A700AE0FB681B0FDAB2FB7D5B00194693
:103E7000BB680B443732D2B21A70FB681B01FB607F
:103E8000FB7D5B000133BA68134400221A70FB7D8E
:103E90000133FB75FA7DFB799A42D3D300BF00BF93
:103EA0001C37BD465DF8047B7047000080B590B0BC
:103EB00000AF07F1340300221A605A609A6007F1DC
:103EC000240300221A605A609A60DA603B1D2022A7
:103ED0000021184609F040FC3A4B3B4A1A60394B26
:103EE0004FF480325A60374B00229A60354B0022E3
:103EF0001A61344B00221A76324B002283F82020BC
:103F0000304B4FF08052DA622E4B4FF060629A6273
:103F10002C4B0022DA602B4B0122DA61294B012263
:103F200083F83020274B00225A61264801F022FBFB
:103F30000346002B01D000F0ADFC11237B634FF44E
:103F40008043BB630023FB6307F1340319461D481C
:103F500002F0EAFA0346002B01D000F09BFC042398
:103F60007B620123BB620123FB6207F12403194634
:103F7000144801F0ABFC0346002B01D000F08AFC92
:103F80000F237B600123BB6001237B610123FB6066
:103F90004FF480133B624FF48033FB6100237B7648
:103FA00000233B7600233B613B1D1946054802F088
:103FB00025F90346002B01D000F06CFC00BF403710
:103FC000BD4680BDB81300200020014080B58CB0F4
:103FD00000AF07F1200300221A605A609A60DA608D
:103FE0003B4620220021184609F0B6FB2A4B2B4AFB
:103FF0001A60294B4FF480325A60274B00229A6096
:10400000254B00221A61244B00221A76224B0022F3
:1040100083F82020204B0022DA601F4B0122DA6156
:104020001D4B012283F830201B4B00225A611A4895
:1040300001F0A0FA0346002B01D000F02BFC0D2369
:104040003B6201237B620123BB6207F12003194617
:10405000114801F03BFC0346002B01D000F01AFC94
:104060000A233B6001237B6001233B610123BB608A
:1040700001237B7500233B750023FB603B461946FB
:10408000054802F0BBF80346002B01D000F002FC0B
:1040900000BF3037BD4680BD101300200021014015
:1040A00080B58CB000AF07F1200300221A605A607F
:1040B0009A60DA603B4620220021184609F04CFB4A
:1040C0002A4B2B4A1A60294B4FF480325A60274BF7
:1040D00000229A60254B00221A61244B00221A7696
:1040E000224B002283F82020204B0022DA601F4B55
:1040F0000122DA611D4B012283F830201B4B002284
:104100005A611A4801F036FA0346002B01D000F03C
:10411000C1FB0C233B6201237B620123BB6207F1DD
:1041200020031946114801F0D1FB0346002B01D0B2
:1041300000F0B0FB0B233B6001237B6001233B615C
:104140000123BB6001237B7500233B750023FB60CB
:104150003B461946054802F051F80346002B01D0B2
:1041600000F098FB00BF3037BD4680BD0014002032
:104170000022014080B58EB000AF786007F12403C3
:1041800000221A605A609A60DA601A617B681B68C4
:10419000734A93427BD100233B62724B5B6C714A42
:1041A00043F4807353646F4B5B6C03F480733B6226
:1041B0003B6A0023FB616B4B1B6B6A4A43F00103B4
:1041C0001363684B1B6B03F00103FB61FB69002366
:1041D000BB61644B1B6B634A43F004031363614B85
:1041E0001B6B03F00403BB61BB6910237B620323D9
:1041F000BB620023FB6207F1240319465A4803F00F
:10420000C3F820237B620323BB620023FB6207F118
:1042100024031946554803F0B7F8554B554A1A6020
:10422000534B00225A60524B00229A60504B00229E
:10423000DA604F4B4FF480621A614D4B4FF40062CD
:104240005A614B4B4FF400529A61494B4FF48072C4
:10425000DA61474B4FF480321A62454B00225A62B2
:10426000434802F001FB0346002B01D000F012FB93
:104270007B683F4A9A633E4A7B6893630022002131
:10428000122002F0C7FA122002F0E0FAE1E07B68A7
:104290001B68394A934275D100237B61314B5B6CBB
:1042A000304A43F4007353642E4B5B6C03F4007389
:1042B0007B617B6900233B612A4B1B6B294A43F0DE
:1042C00004031363274B1B6B03F004033B613B693F
:1042D00009237B620323BB620023FB6207F12403F3
:1042E0001946224803F050F8244B254A1A60234B04
:1042F0004FF000725A60214B00229A601F4B00223F
:10430000DA601E4B4FF480621A611C4B4FF400625E
:104310005A611A4B4FF400529A61184B4FF4807255
:10432000DA61164B4FF480321A62144B00225A6243
:10433000124802F099FA0346002B01D000F0AAFAC5
:104340007B680E4A9A630D4A7B68936300220021C2
:10435000122002F05FFA122002F078FA79E000BF32
:1043600000200140003802400000024000080240E6
:10437000481400201064024000210140A8140020CD
:10438000406402407B681B68344A934261D1002339
:10439000FB60334B5B6C324A43F480635364304BB5
:1043A0005B6C03F48063FB60FB680023BB602C4BF9
:1043B0001B6B2B4A43F004031363294B1B6B03F065
:1043C0000403BB60BB6806237B620323BB6200233C
:1043D000FB6207F124031946224802F0D5FF224B65
:1043E000224A1A60204B4FF080625A601E4B002216
:1043F0009A601D4B0022DA601B4B4FF480621A61F9
:10440000194B4FF400625A61174B4FF400529A61F6
:10441000154B4FF48072DA61134B4FF480321A62FD
:10442000114B00225A62104802F01EFA0346002B7C
:1044300001D000F02FFA7B680B4A9A630A4A7B6826
:10444000936300220021122002F0E4F9122002F00E
:10445000FDF900BF3837BD4680BD00BF00220140D6
:10446000003802400008024058130020286402402F
:1044700080B582B000AF00237B60144B1B6B134AE6
:1044800043F480031363114B1B6B03F480037B60C5
:104490007B6800220021382002F0BCF9382002F0AD
:1044A000D5F900220021392002F0B4F9392002F0B8
:1044B000CDF9002200213A2002F0ACF93A2002F0B6
:1044C000C5F900BF0837BD4680BD00BF00380240B7
:1044D00080B58AB000AF07F1140300221A605A6059
:1044E0009A60DA601A6100233B61574B1B6B564A96
:1044F00043F004031363544B1B6B03F004033B6151
:104500003B690023FB60504B1B6B4F4A43F0800319
:1045100013634D4B1B6B03F08003FB60FB680023B0
:10452000BB60494B1B6B484A43F001031363464B86
:104530001B6B03F00103BB60BB6800237B60424B35
:104540001B6B414A43F0020313633F4B1B6B03F0A9
:1045500002037B607B6800233B603B4B1B6B3A4A4A
:1045600043F008031363384B1B6B03F008033B60F5
:104570003B68002246F21001344803F0A1F8002203
:1045800048F20F01324803F09BF8002241F2040187
:10459000304803F095F84FF4C0437B610123BB61C1
:1045A0000023FB6100233B6207F1140319462748EF
:1045B00002F0EAFE48F20F037B610123BB61002396
:1045C000FB6102233B6207F114031946204802F005
:1045D000DBFE10237B610123BB610023FB6102230F
:1045E0003B6207F114031946184802F0CDFE04237C
:1045F0007B610123BB610023FB6102233B6207F166
:1046000014031946134802F0BFFE4FF480537B6138
:104610000123BB610023FB6100233B6207F114030C
:1046200019460C4802F0B0FE04237B610A4BBB61C3
:104630000023FB6107F114031946084802F0A4FEA9
:1046400000BF2837BD4680BD003802400008024048
:10465000000002400004024000001110000C024063
:1046600080B500AF124B134A1A60114B124A5A60C0
:104670000F4B00229A600E4B0022DA600C4B4FF475
:1046800080421A610A4B00225A61094B00229A614A
:10469000074B0022DA61064B00221A62044803F03D
:1046A00029F80346002B01D000F0F4F800BF80BDCC
:1046B0000815002000540040A086010080B58AB093
:1046C00000AF786007F1140300221A605A609A6004
:1046D000DA601A617B681B68194A93422BD1002368
:1046E0003B61184B1B6B174A43F002031363154BD6
:1046F0001B6B03F002033B613B69C0237B61122308
:10470000BB610123FB6103233B6204237B6207F14E
:10471000140319460C4802F037FE0023FB60094BD6
:104720001B6C084A43F400131364064B1B6C03F420
:104730000013FB60FB6800BF2837BD4680BD00BF8B
:1047400000540040003802400004024080B500AF31
:1047500000F0AAFE00F020F8FFF7BAFEFFF788FE8F
:10476000FFF7A4FBFFF732FCFFF79AFC00F0D2F84A
:1047700000F0A0FB00F048FC00F07CFC00F0B0FC76
:10478000FEF796FDFFF76CFF00F08CF8FCF76AF976
:10479000FBF7EAFEFCE7000080B594B000AF07F13C
:1047A000200330220021184608F0D6FF07F10C0341
:1047B00000221A605A609A60DA601A610023BB60B6
:1047C000284B1B6C274A43F080531364254B1B6C0A
:1047D00003F08053BB60BB6800237B60224B1B68E7
:1047E000214A43F4804313601F4B1B6803F480434A
:1047F0007B607B6801233B624FF480337B62022342
:10480000BB634FF48003FB6304233B64A8237B64F6
:104810000223BB640723FB6407F12003184604F05E
:1048200019FA0346002B01D000F034F80F23FB6087
:1048300002233B6100237B614FF4A053BB614FF423
:104840008053FB6107F10C030521184604F072FC4C
:104850000346002B01D000F01DF800BF5037BD46C5
:1048600080BD00BF003802400070004080B582B0BB
:1048700000AF78607868FCF715F97B681B68044A1C
:10488000934201D100F032FE00BF0837BD4680BD23
:104890000020004080B400AF00BFBD465DF8047B3F
:1048A0007047000080B500AF184B194A1A60174BCB
:1048B0004FF482725A60154B00229A60134B4FF4EA
:1048C0000062DA60114B00221A61104B01225A611A
:1048D0000E4B4FF400729A610C4B2822DA610B4B9D
:1048E00000221A62094B00225A62084B00229A6287
:1048F000064B0A22DA62054804F036FE0346002B16
:1049000001D0FFF7C7FF00BF80BD00BFB415002076
:104910000030014080B500AF184B194A1A60174BA0
:104920004FF482725A60154B00229A60134B4FF479
:104930000062DA60114B00221A61104B01225A61A9
:104940000E4B4FF400729A610C4B2022DA610B4B34
:1049500000221A62094B00225A62084B00229A6216
:10496000064B0A22DA62054804F0FEFD0346002BDE
:1049700001D0FFF78FFF00BF80BD00BF5C15002096
:10498000003C004080B58CB000AF786007F11C039C
:1049900000221A605A609A60DA601A617B681B68AC
:1049A0003A4A934234D10023BB61394B5B6C384A9D
:1049B00043F480535364364B5B6C03F48053BB6108
:1049C000BB6900237B61324B1B6B314A43F002030E
:1049D00013632F4B1B6B03F002037B617B6938234E
:1049E000FB6102233B6200237B620323BB6205233E
:1049F000FB6207F11C031946264802F0C5FC0022A1
:104A00000021232001F006FF232001F01FFF39E0E1
:104A10007B681B68204A934234D100233B611C4BC6
:104A20001B6C1B4A43F400431364194B1B6C03F4C7
:104A300000433B613B690023FB60154B1B6B144A31
:104A400043F004031363124B1B6B03F00403FB607E
:104A5000FB684FF4E053FB6102233B6200237B625F
:104A60000323BB620623FB6207F11C0319460B48B4
:104A700002F08AFC00220021332001F0CBFE33201B
:104A800001F0E4FE00BF3037BD4680BD003001407C
:104A90000038024000040240003C00400008024090
:104AA00080B483B000AF00237B60104B5B6C0F4A77
:104AB00043F4804353640D4B5B6C03F480437B6091
:104AC0007B6800233B60094B1B6C084A43F0805312
:104AD0001364064B1B6C03F080533B603B6800BFC4
:104AE0000C37BD465DF8047B704700BF00380240BC
:104AF00080B58CB000AF78600023FB620023BB62FE
:104B0000002279682D2001F085FE2D2001F09EFE07
:104B10000023FB601F4B1B6C1E4A43F4807313641D
:104B20001C4B1B6C03F48073FB60FB6807F11002E5
:104B300007F114031146184604F0E4FC04F0CEFC1F
:104B400003465B00FB62FB6A134AA2FB03239B0C38
:104B5000013BBB62114B124A1A60104B40F2E73224
:104B6000DA600E4ABB6A53600C4B00221A610B4B91
:104B700000229A60094805F0FBF90346002B04D196
:104B8000064805F020FA034600E0012318463037B6
:104B9000BD4680BD0038024083DE1B430C1600205A
:104BA0000020004080B400AF00BFBD465DF8047B2C
:104BB000704780B400AFFEE780B400AFFEE780B47A
:104BC00000AFFEE780B400AFFEE780B400AF00BFE7
:104BD000BD465DF8047B704780B400AF00BFBD46A2
:104BE0005DF8047B704780B400AF00BFBD465DF840
:104BF000047B704780B400AF00BFBD465DF8047B06
:104C00007047000080B500AF054800F0F6FC05488D
:104C100000F0F3FC044800F0F0FC00BF80BD00BFD2
:104C2000B8130020101300200014002080B500AF3E
:104C3000024805F055FA00BF80BD00BFCC16002029
:104C400080B500AF024804F0C9FF00BF80BD00BFBF
:104C5000B415002080B500AF034805F041FA0348C1
:104C600005F03EFA00BF80BD4C1600200C16002057
:104C700080B500AF024804F0B1FF00BF80BD00BFA7
:104C80005C15002080B500AF024805F029FA00BF8E
:104C900080BD00BF8C16002080B500AF024805F033
:104CA0001FFA00BF80BD00BF0C17002080B500AF09
:104CB000024801F001FF00BF80BD00BF4814002082
:104CC00080B500AF024801F0F7FE00BF80BD00BF15
:104CD0005813002080B500AF024801F0EDFE00BF80
:104CE00080BD00BFA814002080B500AF024802F0CC
:104CF00095FF00BF80BD00BF080D002080B400AF4D
:104D000001231846BD465DF8047B704780B582B02C
:104D100000AF7860396008F0C5FC034616221A60BF
:104D20004FF0FF3318460837BD4680BD80B582B0CE
:104D300000AF78604FF0FF317868FFF7E7FFFEE7DC
:104D400080B586B000AFF860B9607A6000237B61FF
:104D50000AE0AFF300800146BB685A1CBA60CAB2D1
:104D60001A707B6901337B617A697B689A42F0DB58
:104D70007B6818461837BD4680BD80B586B000AF49
:104D8000F860B9607A6000237B6109E0BB685A1C57
:104D9000BA601B781846AFF300807B6901337B61F2
:104DA0007A697B689A42F1DB7B6818461837BD4602
:104DB00080BD80B483B000AF78604FF0FF331846F9
:104DC0000C37BD465DF8047B704780B483B000AFFC
:104DD000786039603B684FF400525A6000231846EF
:104DE0000C37BD465DF8047B704780B483B000AFDC
:104DF0007860012318460C37BD465DF8047B704788
:104E000080B485B000AFF860B9607A6000231846BE
:104E10001437BD465DF8047B7047000080B586B04E
:104E200000AF7860144A154BD31A7B617B693B61F4
:104E3000134B1B68002B02D1114B124A1A60104B06
:104E40001A687B6813443A699A4207D208F02AFC30
:104E500003460C221A604FF0FF3309E0084B1B6831
:104E6000FB60074B1A687B681344054A1360FB68B4
:104E700018461837BD4680BD00000220000400001F
:104E8000080A00208017002080B400AF084BD3F838
:104E90008830074A43F47003C2F88830044B4FF05F
:104EA00000629A6000BFBD465DF8047B704700BF9A
:104EB00000ED00E080B592B000AF07F140030022A2
:104EC0001A605A6007F1240300221A605A609A603F
:104ED000DA601A615A619A613B1D2022002118464E
:104EE00008F03AFC464B474A1A60454B00225A608C
:104EF000434B60229A60424B41F26702DA60404BBA
:104F000000221A613E4B01225A613D4B80229A6178
:104F10003B4805F07CF80346002B01D0FFF7BAFCB4
:104F200070233B6480237B6407F1400319463448B7
:104F300005F090FE0346002B01D0FFF7ABFC602389
:104F40007B620023BB620023FB6200233B630023E0
:104F50007B630023BB630023FB6307F12403002270
:104F60001946274805F0C4F90346002B01D0FFF786
:104F700091FC07F1240304221946214805F0B8F9F1
:104F80000346002B01D0FFF785FC07F1240308221C
:104F900019461B4805F0ACF90346002B01D0FFF77A
:104FA00079FC40F6A253BB6207F124030C22194698
:104FB000134805F09DF90346002B01D0FFF76AFC6A
:104FC00000237B600023BB600023FB6000233B6168
:104FD00000237B614FF40053BB6100233B623B1D08
:104FE0001946074805F0B2FE0346002B01D0FFF733
:104FF00051FC034800F0CAF900BF4837BD4680BDE8
:10500000CC1600200000014080B582B000AF3B46C6
:1050100000221A605A60154B154A1A60134B092278
:105020005A60124B00229A60104B41F26702DA601C
:105030000E4B00229A610D4804F09AFF0346002BA4
:1050400001D0FFF727FC20233B6000237B603B4619
:105050001946064805F0FEFD0346002B01D0FFF778
:1050600019FC00BF0837BD4680BD00BF8C1600206C
:105070000010004080B582B000AF3B4600221A60AD
:105080005A60154B154A1A60134B63225A60124B33
:1050900000229A60104B41F26702DA600E4B002248
:1050A0009A610D4804F064FF0346002B01D0FFF71E
:1050B000F1FB20233B6000237B603B4619460648FA
:1050C00005F0C8FD0346002B01D0FFF7E3FB00BF4E
:1050D0000837BD4680BD00BF0C17002000140040FB
:1050E00080B596B000AF07F1440300221A605A6001
:1050F0009A60DA601A6107F13C0300221A605A6074
:1051000007F1200300221A605A609A60DA601A617F
:105110005A619A613B4620220021184608F01CFB88
:10512000524B534A1A60514B00225A604F4B602237
:105130009A604E4B41F26702DA604C4B00221A61D2
:105140004A4B00225A61494B80229A61474804F039
:105150000FFF0346002B01D0FFF79CFB434804F0F0
:1051600056FF0346002B01D0FFF794FB06237B6418
:105170000023BB6407F1440319463C4805F07EF95F
:105180000346002B01D0FFF785FB7023FB638023D0
:105190003B6407F13C031946344805F05BFD0346C8
:1051A000002B01D0FFF776FB60233B6200237B627C
:1051B0000023BB620023FB6200233B6300237B636D
:1051C0000023BB6307F1200300221946274805F09E
:1051D0008FF80346002B01D0FFF75CFB07F120039B
:1051E00004221946214805F083F80346002B01D01C
:1051F000FFF750FB07F12003082219461B4805F072
:1052000077F80346002B01D0FFF744FB40F6A2538A
:105210007B6207F120030C221946144805F068F858
:105220000346002B01D0FFF735FB00233B60002332
:105230007B600023BB600023FB6000233B614FF4D5
:1052400000537B610023FB613B461946074805F08C
:105250007DFD0346002B01D0FFF71CFB034800F047
:1052600095F800BF5837BD4680BD00BF4C160020E2
:105270000004014080B584B000AF78607B681B6893
:105280000E4A934215D10023FB600D4B5B6C0C4A18
:1052900043F0010353640A4B5B6C03F00103FB60B2
:1052A000FB68002200211A2001F0B4FA1A2001F054
:1052B000CDFA00BF1037BD4680BD00BF00000140E1
:1052C0000038024080B586B000AF78607B681B680C
:1052D0002A4A934216D100237B61294B1B6C284A32
:1052E00043F010031364264B1B6C03F010037B6127
:1052F0007B6900220021362001F08CFA362001F073
:10530000A5FA36E07B681B681E4A934216D100233B
:105310003B611B4B1B6C1A4A43F020031364184B70
:105320001B6C03F020033B613B6900220021372006
:1053300001F070FA372001F089FA1AE07B681B68E7
:10534000114A934215D10023FB600D4B5B6C0C4A54
:1053500043F0020353640A4B5B6C03F00203FB60EF
:10536000FB68002200212D2001F054FA2D2001F0CD
:105370006DFA00BF1837BD4680BD00BF0010004069
:1053800000380240001400400004014080B58AB09B
:1053900000AF786007F1140300221A605A609A6027
:1053A000DA601A617B681B68254A93421FD100238B
:1053B0003B61244B1B6B234A43F001031363214BD6
:1053C0001B6B03F001033B613B694FF4E0637B61BE
:1053D0000223BB610023FB6100233B6201237B624C
:1053E00007F114031946184801F0CEFF23E07B684B
:1053F0001B68164A93421ED10023FB60114B1B6BA6
:10540000104A43F0040313630E4B1B6B03F00403B9
:10541000FB60FB684FF4E0737B610223BB610023F8
:10542000FB6100233B6203237B6207F114031946EF
:10543000074801F0A9FF00BF2837BD4680BD00BF67
:10544000000001400038024000000240000401401A
:1054500000080240DFF834D0002103E00C4B5B5819
:10546000435004310B480C4B42189A42F6D30B4A76
:1054700002E0002342F8043B094B9A42F9D3FFF7BC
:1054800003FD08F027F9FFF761F9704700000220DB
:1054900054E80008000000201C0800201C08002020
:1054A00080170020FEE7000080B500AF0E4B1B68A0
:1054B0000D4A43F4007313600B4B1B680A4A43F414
:1054C00080631360084B1B68074A43F480731360C2
:1054D000032001F094F90020FFF70AFBFFF7E0FA40
:1054E0000023184680BD00BF003C024080B400AFDE
:1054F000064B1B781A46064B1B681344044A13607C
:1055000000BFBD465DF8047B704700BFB4070020B4
:105510004C17002080B400AF034B1B681846BD46F3
:105520005DF8047B704700BF4C17002080B584B045
:1055300000AF7860FFF7EEFFB8607B68FB60FB6848
:10554000B3F1FF3F05D00A4B1B781A46FB681344A2
:10555000FB6000BFFFF7DEFF0246BB68D31AFA68A4
:105560009A42F7D800BF00BF1037BD4680BD00BFCC
:10557000B407002080B584B000AF78600023FB73CF
:105580007B68002B01D1012333E07B681B6C002B6F
:1055900009D17868FEF7EEFD7B6800225A647B68CB
:1055A000002283F83C207B681B6C03F01003002B67
:1055B00018D17B681B6C23F4885323F0020343F05B
:1055C00002027B681A64786800F0A2FA7B68002205
:1055D0005A647B681B6C23F0030343F001027B6871
:1055E0001A6401E00123FB737B68002283F83C20EE
:1055F000FB7B18461037BD4680BD80B584B000AF38
:1056000078600023FB600023BB607B681B681B681D
:1056100003F00203022B0CBF01230023DBB2FB606B
:105620007B681B685B6803F02003202B0CBF012301
:105630000023DBB2BB60FB68002B49D0BB68002BAA
:1056400046D07B681B6C03F01003002B05D17B68F0
:105650001B6C43F400727B681A647B681B689B6850
:1056600003F04053002B2BD17B681B7E002B27D1EE
:105670007B681B68DB6A03F47003002B06D07B6831
:105680001B689B6803F48063002B19D17B681B683F
:105690005A687B681B6822F020025A607B681B6C8A
:1056A00023F480727B681A647B681B6C03F480535C
:1056B000002B05D17B681B6C43F001027B681A64E8
:1056C000786800F0DBF87B681B686FF012021A60E4
:1056D0007B681B681B6803F00403042B0CBF0123C9
:1056E0000023DBB2FB607B681B685B6803F0800310
:1056F000802B0CBF01230023DBB2BB60FB68002BB7
:1057000057D0BB68002B54D07B681B6C03F0100390
:10571000002B05D17B681B6C43F400527B681A6434
:105720007B681B689B6803F44013002B39D17B68AE
:105730001B689B6B03F44013002B06D07B681B682F
:105740009B6803F48063002B2BD17B681B685B682C
:1057500003F48063002B24D17B681B689B6803F0F3
:105760004053002B1DD17B681B7E002B19D17B6819
:105770001B685A687B681B6822F080025A607B684D
:105780001B6C23F480527B681A647B681B6C03F4E7
:105790008073002B05D17B681B6C43F001027B6892
:1057A0001A647868FBF7A4F97B681B686FF00C0239
:1057B0001A607B681B681B6803F00103012B0CBF98
:1057C00001230023DBB2FB607B681B685B6803F08E
:1057D0004003402B0CBF01230023DBB2BB60FB68FE
:1057E000002B17D0BB68002B14D07B681B681B688C
:1057F00003F00103012B0DD17B681B6C43F4803255
:105800007B681A64786800F04DF87B681B686FF05D
:1058100001021A607B681B681B6803F02003202BC1
:105820000CBF01230023DBB2FB607B681B685B6855
:1058300003F08063B3F1806F0CBF01230023DBB260
:10584000BB60FB68002B15D0BB68002B12D07B68B7
:105850005B6C43F002027B685A647B681B686FF0E4
:1058600020021A60786800F027F87B681B686FF0E8
:1058700020021A6000BF1037BD4680BD80B483B0DF
:1058800000AF786000BF0C37BD465DF8047B704701
:1058900080B483B000AF786000BF0C37BD465DF8C0
:1058A000047B704780B483B000AF786000BF0C37D2
:1058B000BD465DF8047B704780B483B000AF78606C
:1058C00000BF0C37BD465DF8047B704780B485B0DF
:1058D00000AF786039600023BB607B6893F83C3090
:1058E000012B01D1022305E17B68012283F83C20D2
:1058F0003B681B68092B25D97B681B68D9683B6806
:105900001B689BB21A4613465B0013441E3B0722DA
:1059100002FA03F3DA437B681B680A40DA607B68AB
:105920001B68D9683B689A683B681B689BB218463D
:1059300003465B0003441E3B9A407B681B680A4396
:10594000DA6022E07B681B6819693B681B689BB2C0
:105950001A4613465B001344072202FA03F3DA43A4
:105960007B681B680A401A617B681B6819693B6881
:105970009A683B681B689BB2184603465B00034469
:105980009A407B681B680A431A613B685B68062B78
:1059900024D87B681B68596B3B685A6813469B0088
:1059A0001344053B1F2202FA03F3DA437B681B68AA
:1059B0000A405A637B681B68596B3B681B689BB243
:1059C00018463B685A6813469B001344053B00FA8F
:1059D00003F27B681B680A435A634CE03B685B68D0
:1059E0000C2B24D87B681B68196B3B685A681346DC
:1059F0009B001344233B1F2202FA03F3DA437B6824
:105A00001B680A401A637B681B68196B3B681B683C
:105A10009BB218463B685A6813469B001344233BCD
:105A200000FA03F27B681B680A431A6323E07B6871
:105A30001B68D96A3B685A6813469B001344413B74
:105A40001F2202FA03F3DA437B681B680A40DA621A
:105A50007B681B68D96A3B681B689BB218463B6829
:105A60005A6813469B001344413B00FA03F27B68DB
:105A70001B680A43DA62224BFB607B681B68214A81
:105A8000934209D13B681B68122B05D1FB685B6808
:105A900043F48002FB685A607B681B68194A934292
:105AA00023D13B681B68102B03D03B681B68112B6C
:105AB0001BD1FB685B6843F40002FB685A603B68DB
:105AC0001B68102B11D1104B1B68104AA2FB03233B
:105AD0009A0C13469B0013445B00BB6002E0BB685A
