:020000040800F2
:1000000000000220391B0008F9110008071200083F
:100010000D12000813120008191200080000000059
:100020000000000000000000000000001F12000897
:100030002D120008000000003B12000849120008C1
:10004000891B0008891B0008891B0008891B000800
:10005000891B0008891B0008891B0008891B0008F0
:10006000891B0008891B0008891B0008891B0008E0
:10007000891B0008891B0008891B0008891B0008D0
:10008000891B0008891B000859120008811200080A
:1000900095120008A9120008BD120008891B00086B
:1000A000891B0008891B0008D1120008891B000861
:1000B000891B0008891B0008891B0008891B000890
:1000C000891B0008891B0008891B0008891B000880
:1000D000891B0008891B0008891B0008891B000870
:1000E000891B0008891B0008891B0008891B000860
:1000F000891B0008E5120008891B0008891B0008FD
:10010000891B0008891B0008891B0008F9120008D8
:10011000891B0008891B00080D1300082113000823
:1001200035130008491300085D130008891B0008F7
:10013000891B00080000000000000000891B000867
:10014000891B0008891B0008891B0008711300081F
:10015000891B0008891B0008891B0008891B0008EF
:10016000891B0008891B0008891B0008891B0008DF
:10017000891B0008891B0008000000000000000027
:08018000891B0008891B00081F
:1001900010B5054C237833B9044B13B10448AFF3C1
:1001A00000800123237010BD4808002000000000DB
:1001B000A8E6000808B5034B1BB103490348AFF399
:1001C000008008BD000000004C080020A8E60008E0
:1001D00001F0FF01102A2BDB10F0070F08D010F8F8
:1001E000013B013A8B422DD010F0070F42B3F6D1FC
:1001F000F0B441EA012141EA014122F007047FF015
:1002000000070023F0E80256083C85EA010586EA6B
:10021000010685FA47F5A3FA87F586FA47F6A5FAA7
:1002200087F68EB9EED1F0BC01F0FF0102F00702B3
:1002300032B110F8013B013A83EA010313B1F8D15E
:100240000020704701387047002D06BF354603383F
:10025000073815F0010F07D1013015F4807F02BF78
:10026000013015F4C03F0130F0BC0138704700BFC9
:1002700053B94AB9002908BF00281CBF4FF0FF310D
:100280004FF0FF3000F06EB9ADF1080C6DE904CE0F
:1002900000F006F8DDF804E0DDE9022304B0704761
:1002A0002DE9F047089D04468C46002B40F08380E2
:1002B0008A42174647D9B2FA82F242B1C2F120000F
:1002C00024FA00F09140974040EA010C94404FEA34
:1002D0001748230CBCFBF8F61FFA87FE08FB16C173
:1002E00043EA014306FB0EF1994209D9FB1806F1D6
:1002F000FF3080F01981994240F21681023E3B4462
:100300005B1AA4B2B3FBF8F008FB103344EA0344D1
:1003100000FB0EFEA64509D93C1900F1FF3380F021
:100320000581A64540F2028102383C4440EA06407D
:10033000A4EB0E0400261DB1D4400023C5E9004300
:100340003146BDE8F08702B9FFDEB2FA82F2002A38
:1003500050D1CB1B4FEA174E1FFA87F80126B3FB8B
:10036000FEFC210C0EFB1C3341EA034108FB0CF39D
:100370008B4207D979180CF1FF3002D28B4200F280
:10038000E9808446C91AA3B2B1FBFEF00EFB10113E
:1003900043EA014408FB00F8A04507D93C1900F1E5
:1003A000FF3302D2A04500F2D9801846A4EB08041E
:1003B00040EA0C40BFE78B4209D9002D00F0B18024
:1003C0000026C5E9000130463146BDE8F087B3FAA2
:1003D00083F6002E4AD18B4202D3824200F2B880CB
:1003E000841A61EB030101208C46002DA8D0C5E9D9
:1003F000004CA5E7C2F1200320FA03F6974001FA6A
:1004000002F04FEA174ED9403043030CB1FBFEF621
:100410001FFA87F80EFB161143EA014306FB08F1A9
:10042000994204FA02F409D9FB1806F1FF3C80F066
:100430008D80994240F28A80023E3B445B1A81B231
:10044000B3FBFEF00EFB103341EA034100FB08F35F
:100450008B4207D9791800F1FF3C73D28B4271D9D6
:1004600002383944CB1A40EA064678E7C6F1200C38
:1004700003FA06F422FA0CF31C4320FA0CF701FAF3
:1004800006F34FEA144E21FA0CF11F433B0CB1FB6B
:10049000FEF91FFA84F80EFB191143EA014109FB2A
:1004A00008FA8A4502FA06F200FA06F308D961183A
:1004B00009F1FF3048D28A4546D9A9F10209214401
:1004C000A1EB0A01BFB2B1FBFEF00EFB101147EA2F
:1004D000014700FB08F8B84507D9E71900F1FF31DB
:1004E0002ED2B8452CD90238274440EA0940A7EB60
:1004F0000807A0FB02894F45C64649461AD317D0C4
:100500005DB1B3EB0E0267EB010707FA0CFCF2409A
:100510004CEA0202F740C5E9002700263146BDE853
:10052000F0872E4628460BE70646E9E61846FDE624
:100530004345E5D2B8EB020E69EB04010138DFE771
:100540000846D2E760468DE78146B9E7664675E71B
:1005500030464AE7ACF1020C394413E702383C4418
:1005600024E700BF704700BF80B590B000AF07F12F
:10057000340300221A605A609A6007F124030022B3
:100580001A605A609A60DA603B1D202200211846EA
:100590000DF0F8F83A4B3B4A1A60394B4FF4803271
:1005A0005A60374B00229A60354B00221A61344B57
:1005B00000221A76324B002283F82020304B4FF075
:1005C0008052DA622E4B4FF060629A622C4B00220E
:1005D000DA602B4B0122DA61294B012283F83020AB
:1005E000274B00225A61264801F036FB0346002BB8
:1005F00001D000F0EFFC11237B634FF48043BB6319
:100600000023FB6307F1340319461D4802F0FEFA8C
:100610000346002B01D000F0DDFC04237B620123A4
:10062000BB620123FB6207F124031946144801F061
:10063000BFFC0346002B01D000F0CCFC0F237B60F5
:100640000123BB6001237B610123FB604FF4801316
:100650003B624FF48033FB6100237B7600233B76C3
:1006600000233B613B1D1946054802F039F903465A
:10067000002B01D000F0AEFC00BF4037BD4680BD6E
:10068000C40900200020014080B58CB000AF07F104
:10069000200300221A605A609A60DA603B462022EA
:1006A000002118460DF06EF82A4B2B4A1A60294B90
:1006B0004FF480325A60274B00229A60254B00226B
:1006C0001A61244B00221A76224B002283F8202044
:1006D000204B0022DA601F4B0122DA611D4B012200
:1006E00083F830201B4B00225A611A4801F0B4FAFB
:1006F0000346002B01D000F06DFC0D233B6201236B
:100700007B620123BB6207F120031946114801F007
:100710004FFC0346002B01D000F05CFC0A233B6039
:1007200001237B6001233B610123BB6001237B75B7
:1007300000233B750023FB603B461946054802F049
:10074000CFF80346002B01D000F044FC00BF303747
:10075000BD4680BD1C0900200021014080B58CB041
:1007600000AF07F1200300221A605A609A60DA6035
:100770003B462022002118460DF004F82A4B2B4A54
:100780001A60294B4FF480325A60274B00229A603E
:10079000254B00221A61244B00221A76224B00229C
:1007A00083F82020204B0022DA601F4B0122DA61FF
:1007B0001D4B012283F830201B4B00225A611A483E
:1007C00001F04AFA0346002B01D000F003FC0C2391
:1007D0003B6201237B620123BB6207F120031946C0
:1007E000114801F0E5FB0346002B01D000F0F2FBBD
:1007F0000B233B6001237B6001233B610123BB6032
:1008000001237B7500233B750023FB603B461946A3
:10081000054802F065F80346002B01D000F0DAFB32
:1008200000BF3037BD4680BD0C0A002000220140C9
:1008300080B58EB000AF786007F1240300221A6003
:100840005A609A60DA601A617B681B68734A934247
:100850007BD100233B62724B5B6C714A43F4807323
:1008600053646F4B5B6C03F480733B623B6A002301
:10087000FB616B4B1B6B6A4A43F001031363684BCC
:100880001B6B03F00103FB61FB690023BB61644B3D
:100890001B6B634A43F004031363614B1B6B03F050
:1008A0000403BB61BB6910237B620323BB6200238B
:1008B000FB6207F1240319465A4803F00BFC20237E
:1008C0007B620323BB620023FB6207F1240319460A
:1008D000554803F0FFFB554B554A1A60534B002215
:1008E0005A60524B00229A60504B0022DA604F4B04
:1008F0004FF480621A614D4B4FF400625A614B4BCA
:100900004FF400529A61494B4FF48072DA61474BC1
:100910004FF480321A62454B00225A62434802F07B
:1009200049FE0346002B01D000F054FB7B683F4A90
:100930009A633E4A7B68936300220021122002F0F2
:100940000FFE122002F028FEE1E07B681B68394AA6
:10095000934275D100237B61314B5B6C304A43F489
:10096000007353642E4B5B6C03F400737B617B69F3
:1009700000233B612A4B1B6B294A43F0040313639A
:10098000274B1B6B03F004033B613B6909237B622C
:100990000323BB620023FB6207F1240319462248AC
:1009A00003F098FB244B254A1A60234B4FF000724A
:1009B0005A60214B00229A601F4B0022DA601E4BC6
:1009C0004FF480621A611C4B4FF400625A611A4B5B
:1009D0004FF400529A61184B4FF48072DA61164B53
:1009E0004FF480321A62144B00225A62124802F00D
:1009F000E1FD0346002B01D000F0ECFA7B680E4AC3
:100A00009A630D4A7B68936300220021122002F052
:100A1000A7FD122002F0C0FD79E000BF00200140D8
:100A2000003802400000024000080240540A002042
:100A30001064024000210140B40A002040640240DA
:100A40007B681B68344A934261D10023FB60334BBF
:100A50005B6C324A43F480635364304B5B6C03F449
:100A60008063FB60FB680023BB602C4B1B6B2B4A35
:100A700043F004031363294B1B6B03F00403BB60B7
:100A8000BB6806237B620323BB620023FB6207F182
:100A900024031946224803F01DFB224B224A1A6008
:100AA000204B4FF080625A601E4B00229A601D4B13
:100AB0000022DA601B4B4FF480621A61194B4FF42D
:100AC00000625A61174B4FF400529A61154B4FF474
:100AD0008072DA61134B4FF480321A62114B00229C
:100AE0005A62104802F066FD0346002B01D000F068
:100AF00071FA7B680B4A9A630A4A7B689363002207
:100B00000021122002F02CFD122002F045FD00BF52
:100B10003837BD4680BD00BF00220140003802408A
:100B200000080240640900202864024080B500AF3C
:100B3000174B184A1A60164B07225A60144B0022B2
:100B40009A60134B0022DA60114B4FF4A0221A6115
:100B50000F4B4FF480025A610D4B00221A760C4B5A
:100B600000225A760A4B00229A76094B0022DA7646
:100B7000074B00221A77064B00225A77044802F0EE
:100B800003F90346002B01D000F024FA00BF80BD1A
:100B9000140B00200064004080B58AB000AF78607C
:100BA00007F1140300221A605A609A60DA601A6131
:100BB0007B681B68294A93424CD100233B61284B38
:100BC0001B6C274A43F000731364254B1B6C03F026
:100BD00000733B613B690023FB60214B1B6B204A88
:100BE00043F0020313631E4B1B6B03F00203FB6015
:100BF000FB684FF440737B610223BB610023FB6100
:100C000003233B6209237B6207F11403194615484D
:100C100003F060FA00220021132002F0A1FC13204F
:100C200002F0BAFC00220021142002F099FC1420EA
:100C300002F0B2FC00220021152002F091FC1520E8
:100C400002F0AAFC00220021162002F089FC1620E6
:100C500002F0A2FC00BF2837BD4680BD0064004002
:100C6000003802400004024080B582B000AF00238B
:100C70007B60144B1B6B134A43F480031363114BCB
:100C80001B6B03F480037B607B680022002138200B
:100C900002F066FC382002F07FFC0022002139209F
:100CA00002F05EFC392002F077FC002200213A209D
:100CB00002F056FC3A2002F06FFC00BF0837BD4638
:100CC00080BD00BF0038024080B58AB000AF07F198
:100CD000140300221A605A609A60DA601A610023D5
:100CE0003B61644B1B6B634A43F004031363614B2A
:100CF0001B6B03F004033B613B690023FB605D4B0E
:100D00001B6B5C4A43F0800313635A4B1B6B03F06D
:100D10008003FB60FB680023BB60564B1B6B554A8E
:100D200043F001031363534B1B6B03F00103BB60E0
:100D3000BB6800237B604F4B1B6B4E4A43F00203A2
:100D400013634C4B1B6B03F002037B607B68002337
:100D50003B60484B1B6B474A43F008031363454B0A
:100D60001B6B03F008033B603B68002242F210015A
:100D7000414803F063FB002248F20F013F4803F0B3
:100D80005DFB002241F204013D4803F057FB4FF4A4
:100D900000537B610123BB610023FB6100233B62A5
:100DA00007F114031946344803F094F948F20F038D
:100DB0007B610123BB610023FB6102233B6207F1DE
:100DC000140319462D4803F085F910237B61012394
:100DD000BB610023FB6102233B6207F11403194648
:100DE000254803F077F904237B610123BB610023CD
:100DF000FB6102233B6207F114031946204803F00C
:100E000069F94FF480537B610123BB610023FB61CF
:100E100000233B6207F114031946194803F05AF9FD
:100E20004FF400737B610023BB610123FB6107F179
:100E300014031946104803F04DF904237B61114B4C
:100E4000BB610023FB6107F1140319460E4803F050
:100E500041F908237B610023BB610123FB6107F19A
:100E600014031946064803F035F900BF2837BD467C
:100E700080BD00BF00380240000802400000024070
:100E80000004024000001110000C024080B500AFC9
:100E900000F07CFE00F020F8FFF716FFFFF7E4FEFD
:100EA000FFF762FBFFF7F0FBFFF758FC00F09AF842
:100EB00000F044FB00F0A8FC00F0DCFC0AF0E8FCC9
:100EC000FFF734FE00F0E4FB00F04AFC08F016FEE9
:100ED00008F04CFEFCE7000080B594B000AF07F1CD
:100EE00020033022002118460CF04CFC07F10C03C3
:100EF00000221A605A609A60DA601A610023BB60AF
:100F0000284B1B6C274A43F080531364254B1B6C02
:100F100003F08053BB60BB6800237B60224B1B68DF
:100F2000214A43F4804313601F4B1B6803F4804342
:100F30007B607B6801233B624FF480337B6202233A
:100F4000BB634FF48003FB6304233B64A8237B64EF
:100F50000223BB640723FB6407F12003184604F057
:100F6000F1FB0346002B01D000F034F80F23FB60A7
:100F700002233B6100237B614FF4A053BB614FF41C
:100F80008053FB6107F10C030521184604F04AFE6B
:100F90000346002B01D000F01DF800BF5037BD46BE
:100FA00080BD00BF003802400070004080B582B0B4
:100FB00000AF7860786808F0EBFD7B681B68044A36
:100FC000934201D100F004FE00BF0837BD4680BD4A
:100FD0000020004080B400AF00BFBD465DF8047B38
:100FE0007047000080B500AF184B194A1A60174BC4
:100FF0004FF482725A60154B00229A60134B4FF4E3
:101000000062DA60114B00221A61104B01225A6112
:101010000E4B4FF400729A610C4B1822DA610B4BA5
:1010200000221A62094B00225A62084B00229A627F
:10103000064B0A22DA62054805F00EF80346002B3B
:1010400001D0FFF7C7FF00BF80BD00BF3C0B0020F1
:10105000003C004080B58AB000AF786007F114030F
:1010600000221A605A609A60DA601A617B681B6815
:101070001D4A934234D100233B611C4B1B6C1B4A1D
:1010800043F400431364194B1B6C03F400433B61AE
:101090003B690023FB60154B1B6B144A43F00403B0
:1010A0001363124B1B6B03F00403FB60FB684FF4EC
:1010B000E0537B610223BB610023FB6103233B629E
:1010C00006237B6207F114031946094803F002F86E
:1010D00000220021332002F043FA332002F05CFAB0
:1010E00000BF2837BD4680BD003C004000380240AC
:1010F0000008024080B483B000AF00237B60104B37
:101100005B6C0F4A43F4804353640D4B5B6C03F4F8
:1011100080437B607B6800233B60094B1B6C084A63
:1011200043F080531364064B1B6C03F080533B6009
:101130003B6800BF0C37BD465DF8047B704700BFBD
:101140000038024080B58CB000AF78600023FB62AD
:101150000023BB62002279682D2002F001FA2D20C5
:1011600002F01AFA0023FB601F4B1B6C1E4A43F46B
:10117000807313641C4B1B6C03F48073FB60FB686F
:1011800007F1100207F114031146184604F032FF6C
:1011900004F01CFF03465B00FB62FB6A134AA2FBE0
:1011A00003239B0C013BBB62114B124A1A60104B8C
:1011B00040F2E732DA600E4ABB6A53600C4B002201
:1011C0001A610B4B00229A60094805F049FC03465E
:1011D000002B04D1064805F06EFC034600E0012315
:1011E00018463037BD4680BD0038024083DE1B43C1
:1011F000940B00200020004080B400AF00BFBD462B
:101200005DF8047B704780B400AFFEE780B400AFA8
:10121000FEE780B400AFFEE780B400AFFEE780B425
:1012200000AF00BFBD465DF8047B704780B400AFDF
:1012300000BFBD465DF8047B704780B400AF00BFBF
:10124000BD465DF8047B704780B400AF00BFBD466B
:101250005DF8047B7047000080B500AF054800F0E2
:101260003EFD054800F03BFD044800F038FD00BF9E
:1012700080BD00BFC40900201C0900200C0A00200A
:1012800080B500AF024801F07AFE00BF80BD00BF0C
:10129000140B002080B500AF024801F070FE00BFC3
:1012A00080BD00BF140B002080B500AF024801F0E4
:1012B00066FE00BF80BD00BF140B002080B500AFEC
:1012C000024801F05CFE00BF80BD00BF140B00208F
:1012D00080B500AF024805F045FD00BF80BD00BFEE
:1012E000540C002080B500AF024805F03BFD00BF64
:1012F00080BD00BF940B002080B500AF024805F010
:10130000E5F900BF80BD00BF3C0B002080B500AFF9
:10131000024805F027FD00BF80BD00BF140C00206F
:1013200080B500AF024805F01DFD00BF80BD00BFC5
:10133000D40C002080B500AF024802F063FA00BF71
:1013400080BD00BF540A002080B500AF024802F003
:1013500059FA00BF80BD00BF6409002080B500AF0E
:10136000024802F04FFA00BF80BD00BFB40A00205F
:1013700080B500AF024803F0CAF900BF80BD00BFCE
:101380001010002080B400AF01231846BD465DF860
:10139000047B704780B582B000AF786039600CF094
:1013A000A5F9034616221A604FF0FF331846083796
:1013B000BD4680BD80B582B000AF78604FF0FF3190
:1013C0007868FFF7E7FFFEE780B586B000AFF8600A
:1013D000B9607A6000237B610AE0AFF300800146C8
:1013E000BB685A1CBA60CAB21A707B6901337B6150
:1013F0007A697B689A42F0DB7B6818461837BD46ED
:1014000080BD80B586B000AFF860B9607A60002317
:101410007B6109E0BB685A1CBA601B781846AFF3C1
:1014200000807B6901337B617A697B689A42F1DBDA
:101430007B6818461837BD4680BD80B483B000AFC6
:1014400078604FF0FF3318460C37BD465DF8047BDB
:10145000704780B483B000AF786039603B684FF468
:1014600000525A60002318460C37BD465DF8047BD5
:10147000704780B483B000AF7860012318460C3702
:10148000BD465DF8047B704780B485B000AFF8605E
:10149000B9607A60002318461437BD465DF8047BB6
:1014A0007047000080B586B000AF7860144A154BD5
:1014B000D31A7B617B693B61134B1B68002B02D104
:1014C000114B124A1A60104B1A687B6813443A6930
:1014D0009A4207D20CF00AF903460C221A604FF028
:1014E000FF3309E0084B1B68FB60074B1A687B68F9
:1014F0001344054A1360FB6818461837BD4680BD83
:1015000000000220000400006408002028160020CB
:1015100080B400AF084BD3F88830074A43F4700317
:10152000C2F88830044B4FF000629A6000BFBD469D
:101530005DF8047B704700BF00ED00E080B592B01D
:1015400000AF07F1400300221A605A6007F124033C
:1015500000221A605A609A60DA601A615A619A61D0
:101560003B1D2022002118460CF00CF9464B474A3F
:101570001A60454B00225A60434B60229A60424BEE
:1015800041F26702DA60404B00221A613E4B0122B1
:101590005A613D4B80229A613B4805F0B0FA034600
:1015A000002B01D0FFF716FD70233B6480237B6482
:1015B00007F140031946344806F040F80346002B73
:1015C00001D0FFF707FD60237B620023BB6200238D
:1015D000FB6200233B6300237B630023BB63002388
:1015E000FB6307F1240300221946274805F0C2FCDB
:1015F0000346002B01D0FFF7EDFC07F12403042282
:101600001946214805F0B6FC0346002B01D0FFF730
:10161000E1FC07F12403082219461B4805F0AAFC47
:101620000346002B01D0FFF7D5FC40F6A253BB6266
:1016300007F124030C221946134805F09BFC0346CE
:10164000002B01D0FFF7C6FC00237B600023BB60AA
:101650000023FB6000233B6100237B614FF40053B8
:10166000BB6100233B623B1D1946074806F062F848
:101670000346002B01D0FFF7ADFC034800F0FAF958
:1016800000BF4837BD4680BD540C0020000001401B
:1016900080B58AB000AF07F1200300221A605A60BB
:1016A0003B1D00221A605A609A60DA601A615A6122
:1016B0009A612A4B4FF080421A60284B00225A60F0
:1016C000264B60229A60254B4FF48052DA60234B00
:1016D00000221A61214B00229A61204805F00FFA7E
:1016E0000346002B01D0FFF775FC00233B6200236B
:1016F0007B6207F120031946184805F09FFF034657
:10170000002B01D0FFF766FC70237B600023BB60D9
:101710000223FB6000237B613B1D082219460F4812
:1017200005F028FC0346002B01D0FFF753FC4FF4D3
:101730008053BB600023FB603B1D0C221946074809
:1017400005F018FC0346002B01D0FFF743FC0348CB
:1017500000F090F900BF2837BD4680BD940C0020F2
:1017600080B58CB000AF07F10C032422002118468D
:101770000CF008F83B1D00221A605A60204B214AE9
:101780001A601F4B00225A601D4B00229A601C4BAE
:101790004FF6FF72DA601A4B00221A61184B0022D2
:1017A0009A610323FB6000233B6101237B610023DB
:1017B000BB610423FB6100233B6201237B620023A6
:1017C000BB620423FB6207F10C0319460C4805F0C9
:1017D000FFF90346002B01D0FFF7FCFB00237B60E1
:1017E0000023BB603B1D1946054805F027FF034653
:1017F000002B01D0FFF7EEFB00BF3037BD4680BDA8
:10180000D40B00200004004080B582B000AF3B46FE
:1018100000221A605A60154B154A1A60134B0922B0
:101820005A60124B00229A60104B41F26702DA6054
:101830000E4B00229A610D4805F012F90346002B69
:1018400001D0FFF7C7FB20233B6000237B603B46B2
:101850001946064805F0F2FE0346002B01D0FFF7BB
:10186000B9FB00BF0837BD4680BD00BF140C002087
:101870000010004080B582B000AF3B4600221A60E5
:101880005A60154B154A1A60134B63225A60124B6B
:1018900000229A60104B41F26702DA600E4B002280
:1018A0009A610D4805F0DCF80346002B01D0FFF7E4
:1018B00091FB20233B6000237B603B461946064892
:1018C00005F0BCFE0346002B01D0FFF783FB00BFF1
:1018D0000837BD4680BD00BFD40C00200014004076
:1018E00080B584B000AF78607B681B68184A93426B
:1018F00016D10023FB60174B5B6C164A43F00103C3
:101900005364144B5B6C03F00103FB60FB68002223
:1019100000211A2001F024FE1A2001F03DFE12E001
:101920007B681B68B3F1804F0DD10023BB60094B6E
:101930001B6C084A43F001031364064B1B6C03F055
:101940000103BB60BB6800BF1037BD4680BD00BF50
:10195000000001400038024080B58AB000AF7860D6
:1019600007F1140300221A605A609A60DA601A6163
:101970007B681B68194A93422BD100233B61184BAB
:101980001B6C174A43F002031364154B1B6C03F0E6
:1019900002033B613B690023FB60114B1B6B104A48
:1019A00043F0020313630E4B1B6B03F00203FB6057
:1019B000FB6830237B610223BB610023FB610023B2
:1019C0003B6202237B6207F114031946054802F0CB
:1019D00081FB00BF2837BD4680BD00BF000400402A
:1019E000003802400004024080B584B000AF786047
:1019F0007B681B681C4A934216D10023FB601B4B7B
:101A00001B6C1A4A43F010031364184B1B6C03F051
:101A10001003FB60FB6800220021362001F0A0FDCE
:101A2000362001F0B9FD1AE07B681B68104A93422A
:101A300015D10023BB600D4B1B6C0C4A43F02003F7
:101A400013640A4B1B6C03F02003BB60BB680022CD
:101A50000021372001F084FD372001F09DFD00BFFB
:101A60001037BD4680BD00BF001000400038024066
:101A70000014004080B58AB000AF786007F114030D
:101A800000221A605A609A60DA601A617B681B68EB
:101A9000254A93421FD100233B61244B1B6B234AF1
:101AA00043F001031363214B1B6B03F001033B6104
:101AB0003B694FF4E0637B610223BB610023FB6160
:101AC00000233B6201237B6207F114031946184887
:101AD00002F000FB23E07B681B68B3F1804F1ED14E
:101AE0000023FB60114B1B6B104A43F0020313638E
:101AF0000E4B1B6B03F00203FB60FB684FF440636B
:101B00007B610223BB610023FB6100233B62012355
:101B10007B6207F114031946064802F0DBFA00BFA6
:101B20002837BD4680BD00BF00000140003802409C
:101B30000000024000040240DFF834D0002103E03E
:101B40000C4B5B58435004310B480C4B42189A42E3
:101B5000F6D30B4A02E0002342F8043B094B9A42B9
:101B6000F9D3FFF7D5FC0BF0D9FDFFF78FF97047DC
:101B70000000022088E8000800000020480800203B
:101B80004808002028160020FEE7000080B500AFBE
:101B90000E4B1B680D4A43F4007313600B4B1B681C
:101BA0000A4A43F480631360084B1B68074A43F4F6
:101BB00080731360032001F0C8FC0020FFF7C2FA15
:101BC000FFF798FA0023184680BD00BF003C024092
:101BD00080B400AF064B1B781A46064B1B681344B3
:101BE000044A136000BFBD465DF8047B704700BF28
:101BF00008000020140D002080B400AF034B1B68C8
:101C00001846BD465DF8047B704700BF140D0020E8
:101C100080B584B000AF7860FFF7EEFFB8607B68F6
:101C2000FB60FB68B3F1FF3F05D00A4B1B781A46F7
:101C3000FB681344FB6000BFFFF7DEFF0246BB6892
:101C4000D31AFA689A42F7D800BF00BF1037BD46D2
:101C500080BD00BF0800002080B584B000AF786070
:101C60000023FB737B68002B01D1012333E07B68E9
:101C70001B6C002B09D17868FEF7DAFD7B68002227
:101C80005A647B68002283F83C207B681B6C03F05D
:101C90001003002B18D17B681B6C23F4885323F0AE
:101CA000020343F002027B681A64786800F0A2FA2B
:101CB0007B6800225A647B681B6C23F0030343F0AB
:101CC00001027B681A6401E00123FB737B68002238
:101CD00083F83C20FB7B18461037BD4680BD80B59D
:101CE00084B000AF78600023FB600023BB607B689A
:101CF0001B681B6803F00203022B0CBF01230023A7
:101D0000DBB2FB607B681B685B6803F02003202B61
:101D10000CBF01230023DBB2BB60FB68002B49D062
:101D2000BB68002B46D07B681B6C03F01003002BB4
:101D300005D17B681B6C43F400727B681A647B6876
:101D40001B689B6803F04053002B2BD17B681B7EE4
:101D5000002B27D17B681B68DB6A03F47003002B20
:101D600006D07B681B689B6803F48063002B19D145
:101D70007B681B685A687B681B6822F020025A60E7
:101D80007B681B6C23F480727B681A647B681B6C15
:101D900003F48053002B05D17B681B6C43F00102D8
:101DA0007B681A64786800F0DBF87B681B686FF06A
:101DB00012021A607B681B681B6803F00403042B83
:101DC0000CBF01230023DBB2FB607B681B685B68F0
:101DD00003F08003802B0CBF01230023DBB2BB6028
:101DE000FB68002B57D0BB68002B54D07B681B6C62
:101DF00003F01003002B05D17B681B6C43F40052E9
:101E00007B681A647B681B689B6803F44013002B93
:101E100039D17B681B689B6B03F44013002B06D001
:101E20007B681B689B6803F48063002B2BD17B6865
:101E30001B685B6803F48063002B24D17B681B68FC
:101E40009B6803F04053002B1DD17B681B7E002B49
:101E500019D17B681B685A687B681B6822F0800276
:101E60005A607B681B6C23F480527B681A647B6821
:101E70001B6C03F48073002B05D17B681B6C43F053
:101E800001027B681A64786807F040FF7B681B6872
:101E90006FF00C021A607B681B681B6803F001037B
:101EA000012B0CBF01230023DBB2FB607B681B68A6
:101EB0005B6803F04003402B0CBF01230023DBB21F
:101EC000BB60FB68002B17D0BB68002B14D07B686D
:101ED0001B681B6803F00103012B0DD17B681B6C91
:101EE00043F480327B681A64786800F04DF87B68B0
:101EF0001B686FF001021A607B681B681B6803F0A7
:101F00002003202B0CBF01230023DBB2FB607B6886
:101F10001B685B6803F08063B3F1806F0CBF012323
:101F20000023DBB2BB60FB68002B15D0BB68002B25
:101F300012D07B685B6C43F002027B685A647B685A
:101F40001B686FF020021A60786800F027F87B6841
:101F50001B686FF020021A6000BF1037BD4680BDBD
:101F600080B483B000AF786000BF0C37BD465DF829
:101F7000047B704780B483B000AF786000BF0C373B
:101F8000BD465DF8047B704780B483B000AF7860D5
:101F900000BF0C37BD465DF8047B704780B483B04A
:101FA00000AF786000BF0C37BD465DF8047B70471A
:101FB00080B485B000AF786039600023BB607B6877
:101FC00093F83C30012B01D1022305E17B6801220B
:101FD00083F83C203B681B68092B25D97B681B686C
:101FE000D9683B681B689BB21A4613465B001344D2
:101FF0001E3B072202FA03F3DA437B681B680A40A0
:10200000DA607B681B68D9683B689A683B681B6824
:102010009BB2184603465B0003441E3B9A407B6814
:102020001B680A43DA6022E07B681B6819693B6819
:102030001B689BB21A4613465B001344072202FA40
:1020400003F3DA437B681B680A401A617B681B68EC
:1020500019693B689A683B681B689BB2184603463F
:102060005B0003449A407B681B680A431A613B6823
:102070005B68062B24D87B681B68596B3B685A68E1
:1020800013469B001344053B1F2202FA03F3DA4375
:102090007B681B680A405A637B681B68596B3B6806
:1020A0001B689BB218463B685A6813469B00134452
:1020B000053B00FA03F27B681B680A435A634CE055
:1020C0003B685B680C2B24D87B681B68196B3B68EA
:1020D0005A6813469B001344233B1F2202FA03F362
:1020E000DA437B681B680A401A637B681B68196BBC
:1020F0003B681B689BB218463B685A6813469B00B6
:102100001344233B00FA03F27B681B680A431A63FB
:1021100023E07B681B68D96A3B685A6813469B00BA
:102120001344413B1F2202FA03F3DA437B681B6826
:102130000A40DA627B681B68D96A3B681B689BB2FD
:1021400018463B685A6813469B001344413B00FA0B
:1021500003F27B681B680A43DA62224BFB607B68F0
:102160001B68214A934209D13B681B68122B05D199
:10217000FB685B6843F48002FB685A607B681B68FD
:10218000194A934223D13B681B68102B03D03B684C
:102190001B68112B1BD1FB685B6843F40002FB68D2
:1021A0005A603B681B68102B11D1104B1B68104AFA
:1021B000A2FB03239A0C13469B0013445B00BB60F5
:1021C00002E0BB68013BBB60BB68002BF9D17B68B8
:1021D000002283F83C20002318461437BD465DF8E2
:1021E000047B7047002301400020014000000020D4
:1021F00083DE1B4380B485B000AF7860794BFB6011
:10220000FB685B6823F44032FB685A60FB685A68DD
:102210007B685B681A43FB685A607B681B685A6876
:102220007B681B6822F480725A607B681B6859685F
:102230007B681B691A027B681B680A435A607B68CB
:102240001B685A687B681B6822F040725A607B6882
:102250001B6859687B689A687B681B680A435A60E8
:102260007B681B689A687B681B6822F400629A602E
:102270007B681B6899687B68DA687B681B680A431F
:102280009A607B689B6A584A934222D07B681B689D
:102290009A687B681B6822F070629A607B681B6892
:1022A00099687B689A6A7B681B680A439A607B68B6
:1022B0001B689A687B681B6822F040529A607B68B2
:1022C0001B6899687B68DA6A7B681B680A439A60B6
:1022D0000FE07B681B689A687B681B6822F070625D
:1022E0009A607B681B689A687B681B6822F0405282
:1022F0009A607B681B689A687B681B6822F0020200
:102300009A607B681B6899687B681B7E5A007B68B3
:102310001B680A439A607B6893F82030002B1BD01F
:102320007B681B685A687B681B6842F400625A60CD
:102330007B681B685A687B681B6822F460425A609D
:102340007B681B6859687B685B6A013B5A037B6842
:102350001B680A435A6007E07B681B685A687B6801
:102360001B6822F400625A607B681B68DA6A7B682B
:102370001B6822F47002DA627B681B68D96A7B688A
:10238000DB69013B1A057B681B680A43DA627B68DC
:102390001B689A687B681B6822F400729A607B68ED
:1023A0001B6899687B6893F830305A027B681B6819
:1023B0000A439A607B681B689A687B681B6822F4F2
:1023C00080629A607B681B6899687B685B699A0287
:1023D0007B681B680A439A6000BF1437BD465DF8EE
:1023E000047B7047002301400100000F80B487B0D8
:1023F00000AF78600023BB6000237B6100233B615A
:102400007B6893F83C30012B01D102239DE07B686F
:10241000012283F83C207B681B689B6803F0010362
:10242000012B18D07B681B689A687B681B6842F098
:1024300001029A60484B1B68484AA2FB03239A0C8E
:1024400013465B001344BB6002E0BB68013BBB600A
:10245000BB68002BF9D17B681B689B6803F0010304
:10246000012B71D17B681B6C23F4405323F00103D3
:1024700043F480527B681A647B681B6C03F480739E
:10248000002B02D17B6800225A647B68002283F80B
:102490003C207B681B686FF004021A60304BFB60C5
:1024A000FB685B6803F01F03002B24D17B681B686B
:1024B0009B6803F44013002B0CBF01230023DBB205
:1024C0007B617B681B685B6803F48063002B0CBF37
:1024D00001230023DBB23B617B69002B34D03B69D5
:1024E000002B31D07B681B689A687B681B6842F4BC
:1024F00080029A6028E07B681B689B6803F44013A5
:10250000002B0CBF01230023DBB27B617B681B68BF
:102510005B6803F48063002B0CBF01230023DBB254
:102520003B617B681B680F4A93420DD17B69002B8E
:102530000AD03B69002B07D07B681B689A687B68D0
:102540001B6842F480029A60002318461C37BD467F
:102550005DF8047B704700BF0000002083DE1B4352
:10256000002301400020014080B487B000AF7860B4
:102570000023BB6000237B6100233B617B6893F8F1
:102580003C30012B01D10223A5E07B68012283F8B6
:102590003C207B681B689B6803F00103012B18D06B
:1025A0007B681B689A687B681B6842F001029A602E
:1025B0004C4B1B684C4AA2FB03239A0C13465B004E
:1025C0001344BB6002E0BB68013BBB60BB68002BEF
:1025D000F9D17B681B689B6803F00103012B79D15B
:1025E0007B681B6C23F4405323F0010343F48052B7
:1025F0007B681A647B681B6C03F48073002B02D128
:102600007B6800225A647B68002283F83C207B6848
:102610001B686FF004021A607B681B685A687B684D
:102620001B6842F080025A60304BFB60FB685B68BD
:1026300003F01F03002B24D17B681B689B6803F405
:102640004013002B0CBF01230023DBB27B617B68AE
:102650001B685B6803F48063002B0CBF012300231D
:10266000DBB23B617B69002B34D03B69002B31D05E
:102670007B681B689A687B681B6842F480029A60DA
:1026800028E07B681B689B6803F44013002B0CBF99
:1026900001230023DBB27B617B681B685B6803F46A
:1026A0008063002B0CBF01230023DBB23B617B68FE
:1026B0001B680F4A93420DD17B69002B0AD03B69FE
:1026C000002B07D07B681B689A687B681B6842F404
:1026D00080029A60002318461C37BD465DF8047BD3
:1026E000704700BF0000002083DE1B430023014031
:1026F0000020014080B485B000AF786039600023CD
:10270000FB607B681B686FF004021A603B68013B4A
:10271000032B1FD801A252F823F000BF4B2700085B
:1027200041270008372700082D2700087B681B6811
:102730009B6CFB600FE07B681B685B6CFB600AE0D6
:102740007B681B681B6CFB6005E07B681B68DB6BB0
:10275000FB6000E000BFFB6818461437BD465DF81B
:10276000047B704780B586B000AFF860B9607A60CE
:1027700000233B61FB6893F83C30012B01D102231D
:102780009EE0FB68012283F83C20FB681B689B6885
:1027900003F00103012B18D0FB681B689A68FB68E3
:1027A0001B6842F001029A60474B1B68474AA2FB34
:1027B00003239A0C13465B0013443B6102E03B6920
:1027C000013B3B613B69002BF9D1FB681B689B68AF
:1027D00003F00103012B72D1FB681B6C23F4E0634F
:1027E00023F0010343F48072FB681A64FB681B68E2
:1027F0005B6803F48063002B07D0FB681B6C23F439
:10280000405343F48052FB681A64FB681B6C03F46A
:102810008053B3F5805F06D1FB685B6C23F0060242
:10282000FB685A6402E0FB6800225A64FB680022DD
:1028300083F83C20FB689B6B254ADA63FB689B6B43
:10284000244A1A64FB689B6B234ADA64FB681B68A2
:102850006FF002021A60FB681B685A68FB681B680D
:1028600042F080625A601D4B7B61FB6893F8303008
:10287000002B06D07B695B6843F400527B695A6089
:1028800005E07B695B6823F400527B695A60FB6852
:10289000986B7B6908331946BA687B6800F038FF8B
:1028A000FB681B689B6803F04053002B07D1FB6853
:1028B0001B689A68FB681B6842F080429A6000239C
:1028C00018461837BD4680BD0000002083DE1B433C
:1028D000992C00083F2D00085B2D000800230140C3
:1028E00080B485B000AF786039607B6893F83C3085
:1028F000012B01D102237DE17B68012283F83C207A
:102900003B681B68092B25D97B681B68D9683B6825
:102910001B689BB21A4613465B0013441E3B0722FA
:1029200002FA03F3DA437B681B680A40DA607B68CB
:102930001B68D9683B689A683B681B689BB218465D
:1029400003465B0003441E3B9A407B681B680A43B6
:10295000DA6022E07B681B6819693B681B689BB2E0
:102960001A4613465B001344072202FA03F3DA43C4
:102970007B681B680A401A617B681B6819693B68A1
:102980009A683B681B689BB2184603465B00034489
:102990009A407B681B680A431A617B681B689A6BC4
:1029A0007B681B6822F440129A637B681B68996BF2
:1029B0003B681B69013B1A057B681B680A439A63E5
:1029C0007B681B68996B3B685B68DAB23B681B6984
:1029D000DBB2D31ADBB20333DBB21A4613469B00D9
:1029E00013441F2202FA03F3DA437B681B680A4090
:1029F0009A637B681B68996B3B681B689BB218469F
:102A00003B685B68DAB23B681B69DBB2D31ADBB2A6
:102A10000333DBB21A4613469B00134400FA03F259
:102A20007B681B680A439A633B689B69744A9342BC
:102A300022D07B681B689A687B681B6822F470222E
:102A40009A607B681B6899683B689A697B681B6819
:102A50000A439A607B681B689A687B681B6822F44B
:102A600040129A607B681B6899683B68DA697B68EA
:102A70001B680A439A600FE07B681B689A687B6852
:102A80001B6822F470229A607B681B689A687B68D6
:102A90001B6822F440129A603B685B7D002B08D0D3
:102AA0007B681B685A687B681B6842F480625A60C6
:102AB00007E07B681B685A687B681B6822F48062A9
:102AC0005A603B681B7D002B08D07B681B685A68E6
:102AD0007B681B6842F480525A6007E07B681B6881
:102AE0005A687B681B6822F480525A603B685B68B6
:102AF000032B2ED0032B40D8012B02D0022B14D055
:102B00003BE07B681B685B697A68126823F47F632B
:102B100023F00F0353617B681B6859693B68DA68CF
:102B20007B681B680A435A613BE07B681B689B69B2
:102B30007A68126823F47F6323F00F0393617B6844
:102B40001B6899693B68DA687B681B680A439A616D
:102B500027E07B681B68DB697A68126823F47F636F
:102B600023F00F03D3617B681B68D9693B68DA687F
:102B70007B681B680A43DA6113E07B681B681B6A89
:102B80007A68126823F47F6323F00F0313627B6873
:102B90001B68196A3B68DA687B681B680A431A621B
:102BA00000BF184BFB607B681B68174A934209D132
:102BB0003B681B68122B05D1FB685B6843F48002FD
:102BC000FB685A607B681B680F4A93420DD13B68D3
:102BD0001B68102B03D03B681B68112B05D1FB68C9
:102BE0005B6843F40002FB685A607B68002283F84C
:102BF0003C20002318461437BD465DF8047B70471F
:102C000001000F00002301400020014080B485B086
:102C100000AF786039607B6893F83C30012B01D1BC
:102C2000022331E07B68012283F83C20194BFB60D2
:102C3000FB685B6823F01F02FB685A60FB685A68F8
:102C40003B681B681A43FB685A60FB685B6823F4A7
:102C50004042FB685A60FB685A683B685B681A43ED
:102C6000FB685A60FB685B6823F47062FB685A601B
:102C7000FB685A683B689B681A43FB685A607B682C
:102C8000002283F83C20002318461437BD465DF827
:102C9000047B70470023014080B584B000AF7860AA
:102CA0007B689B6BFB60FB681B6C03F05003002B85
:102CB0003CD1FB681B6C43F40072FB681A64FB6830
:102CC0001B689B6803F04053002B2BD1FB681B7ED5
:102CD000002B27D1FB681B68DB6A03F47003002B11
:102CE00006D0FB681B689B6803F48063002B19D136
:102CF000FB681B685A68FB681B6822F020025A6058
:102D0000FB681B6C23F48072FB681A64FB681B6C05
:102D100003F48053002B05D1FB681B6C43F00102C8
:102D2000FB681A64F868FFF71BF904E0FB689B6B0B
:102D3000DB6C7868984700BF1037BD4680BD80B512
:102D400084B000AF78607B689B6BFB60F868FFF72E
:102D500011F900BF1037BD4680BD80B584B000AF0B
:102D600078607B689B6BFB60FB6840221A64FB68A1
:102D70005B6C43F00402FB685A64F868FFF70EF9D5
:102D800000BF1037BD4680BD80B584B000AF78600D
:102D90007B68002B01D10123EDE07B6893F82030A4
:102DA000DBB2002B02D17868FDF7F6FE7B681B686A
:102DB0001A687B681B6822F002021A60FEF71CFF8B
:102DC000F86012E0FEF718FF0246FB68D31A0A2BE0
:102DD0000BD97B685B6A43F400327B685A627B687C
:102DE000052283F820200123C5E07B681B685B680F
:102DF00003F00203002BE5D17B681B681A687B682F
:102E00001B6842F001021A60FEF7F6FEF86012E05D
:102E1000FEF7F2FE0246FB68D31A0A2B0BD97B6839
:102E20005B6A43F400327B685A627B68052283F850
:102E3000202001239FE07B681B685B6803F001038F
:102E4000002BE5D07B681B7E012B08D17B681B68BB
:102E50001A687B681B6842F080021A6007E07B6892
:102E60001B681A687B681B6822F080021A607B6806
:102E70005B7E012B08D17B681B681A687B681B6826
:102E800042F040021A6007E07B681B681A687B68A2
:102E90001B6822F040021A607B689B7E012B08D1E0
:102EA0007B681B681A687B681B6842F020021A6006
:102EB00007E07B681B681A687B681B6822F02002A9
:102EC0001A607B68DB7E012B08D17B681B681A685F
:102ED0007B681B6822F010021A6007E07B681B68A1
:102EE0001A687B681B6842F010021A607B681B7FBF
:102EF000012B08D17B681B681A687B681B6842F04D
:102F000008021A6007E07B681B681A687B681B6808
:102F100022F008021A607B685B7F012B08D17B6876
:102F20001B681A687B681B6842F004021A6007E09D
:102F30007B681B681A687B681B6822F004021A60B1
:102F40007B689A687B68DB681A437B681B691A4355
:102F50007B685B6942EA03017B685B685A1E7B6899
:102F60001B680A43DA617B6800225A627B6801228F
:102F700083F82020002318461037BD4680BD80B559
:102F80008AB000AF786000237B627B681B685B6956
:102F90003B627B681B685B68FB617B681B689B68A6
:102FA000BB617B681B68DB687B617B681B681B6996
:102FB0003B617B681B689B69FB603B6A03F0010314
:102FC000002B7CD0BB6903F00103002B23D07B686E
:102FD0001B6801229A60BB6903F00203002B03D037
:102FE000786800F083F916E0BB6903F00403002B56
:102FF00004D07B6A43F400637B620CE0BB6903F09E
:103000000803002B04D07B6A43F480537B6202E008
:10301000786800F089F9BB6903F48073002B24D031
:103020007B681B684FF480729A60BB6903F400737D
:10303000002B03D0786800F063F916E0BB6903F455
:103040008063002B04D07B6A43F400537B620CE066
:10305000BB6903F40063002B04D07B6A43F4804314
:103060007B6202E0786800F069F9BB6903F48033A1
:10307000002B24D07B681B684FF480329A60BB69B8
:1030800003F40033002B03D0786800F043F916E016
:10309000BB6903F48023002B04D07B6A43F4004314
:1030A0007B620CE0BB6903F40023002B04D07B6A35
:1030B00043F480337B6202E0786800F049F93B6AB0
:1030C00003F00803002B0CD07B6903F01003002BE6
:1030D00007D07B6A43F400737B627B681B68102215
:1030E000DA603B6A03F00403002B0BD07B6903F02A
:1030F0000803002B06D07B681B680822DA6078681A
:1031000000F03AF93B6A03F00203002B09D07B6818
:103110001B68DB6803F00303002B02D0786800F023
:1031200021F93B6A03F04003002B0CD03B6903F00C
:103130001003002B07D07B6A43F480637B627B68BB
:103140001B6810221A613B6A03F02003002B0BD08E
:103150003B6903F00803002B06D07B681B6808223C
:103160001A61786800F01CF93B6A03F01003002B29
:1031700009D07B681B681B6903F00303002B02D096
:10318000786800F003F93B6A03F40033002B0BD09E
:10319000FB6903F01003002B06D07B681B6810222C
:1031A0005A60786800F006F93B6A03F48033002B1C
:1031B0000BD0FB6903F00803002B06D07B681B686B
:1031C00008225A60786800F0FFF83B6A03F4004375
:1031D000002B7BD0FB6903F00403002B72D03B6A09
:1031E00003F48073002B08D0FB6803F00103002B6D
:1031F00003D07B6A43F001037B623B6A03F40073F4
:10320000002B08D0FB6803F00203002B03D07B6A7D
:1032100043F002037B623B6A03F48063002B08D017
:10322000FB6803F00403002B03D07B6A43F0040324
:103230007B623B6A03F40063002B43D0FB6803F01E
:103240007003002B3ED0FB6803F07003602B2BD083
:10325000602B2ED8502B22D0502B2AD8402B19D09F
:10326000402B26D8302B10D0302B22D8102B02D058
:10327000202B05D01DE07B6A43F008037B6219E038
:103280007B6A43F010037B6214E07B6A43F0200307
:103290007B620FE07B6A43F040037B620AE07B6A5B
:1032A00043F080037B6205E07B6A43F480737B62BA
:1032B00000E000BF7B681B689A697B681B6822F08E
:1032C00070029A617B681B6804225A607B6A002B3B
:1032D00008D07B685A6A7B6A1A437B685A627868AE
:1032E00000F07CF800BF2837BD4680BD80B483B0B5
:1032F00000AF786000BF0C37BD465DF8047B7047B7
:1033000080B483B000AF786000BF0C37BD465DF875
:10331000047B704780B483B000AF786000BF0C3787
:10332000BD465DF8047B704780B483B000AF786021
:1033300000BF0C37BD465DF8047B704780B483B096
:1033400000AF786000BF0C37BD465DF8047B704766
:1033500080B483B000AF786000BF0C37BD465DF825
:10336000047B704780B483B000AF786000BF0C3737
:10337000BD465DF8047B704780B483B000AF7860D1
:1033800000BF0C37BD465DF8047B704780B483B046
:1033900000AF786000BF0C37BD465DF8047B704716
:1033A00080B483B000AF786000BF0C37BD465DF8D5
:1033B000047B704780B483B000AF786000BF0C37E7
:1033C000BD465DF8047B704780B483B000AF786081
:1033D00000BF0C37BD465DF8047B704780B483B0F6
:1033E00000AF786000BF0C37BD465DF8047B7047C6
:1033F00080B485B000AF78607B6803F00703FB60A2
:103400000C4BDB68BB60BA684FF6FF031340BB6030
:10341000FB681A02BB68134343F0BF6343F40033F5
:10342000BB60044ABB68D36000BF1437BD465DF87B
:10343000047B704700ED00E080B400AF044BDB6814
:103440001B0A03F007031846BD465DF8047B70476E
:1034500000ED00E080B483B000AF0346FB7197F944
:103460000730002B0BDBFB7903F01F02074997F9AC
:1034700007305B09012000FA02F241F8232000BF67
:103480000C37BD465DF8047B704700BF00E100E0EB
:1034900080B483B000AF03463960FB7197F9073001
:1034A000002B0ADB3B68DAB20C4997F907301201AE
:1034B000D2B20B4483F800230AE03B68DAB2084931
:1034C000FB7903F00F03043B1201D2B20B441A76CE
:1034D00000BF0C37BD465DF8047B704700E100E09B
:1034E00000ED00E080B489B000AFF860B9607A60A8
:1034F000FB6803F00703FB61FB69C3F10703042BBF
:1035000028BF0423BB61FB690433062B02D9FB6986
:10351000033B00E000237B614FF0FF32BB6902FAFE
:1035200003F3DA43BB681A407B699A404FF0FF31DE
:103530007B6901FA03F3D9437B680B4013431846B8
:103540002437BD465DF8047B704780B582B000AF7C
:1035500078607868FFF74CFF00BF0837BD4680BD34
:1035600080B586B000AF0346B9607A60FB73002374
:103570007B61FFF761FF78617A68B9687869FFF766
:10358000B1FF024697F90F3011461846FFF780FF4A
:1035900000BF1837BD4680BD80B582B000AF03467E
:1035A000FB7197F907301846FFF754FF00BF083743
:1035B000BD4680BD80B586B000AF786000237B61DA
:1035C000FEF71AFB38617B68002B01D1012399E0DB
:1035D0007B68002283F834207B68022283F8352040
:1035E0007B681B681A687B681B6822F001021A60FE
:1035F0000FE0FEF701FB02463B69D31A052B08D901
:103600007B6820225A657B68032283F835200323D8
:1036100078E07B681B681B6803F00103002BE8D18E
:103620007B681B681B687B617A69384B13407B6140
:103630007B685A687B689B681A437B68DB681A431F
:103640007B681B691A437B685B691A437B689B69CB
:103650001A437B68DB691A437B681B6A13437A69E8
:1036600013437B617B685B6A042B07D17B68DA6A52
:103670007B681B6B13437A6913437B617B681B6810
:103680007A691A607B681B685B697B617B6923F0E0
:1036900007037B617B685B6A7A6913437B617B68A4
:1036A0005B6A042B17D17B689B6A7A6913437B6141
:1036B0007B68DB6A002B0ED0786800F091FA034635
:1036C000002B08D07B6840225A657B68012283F872
:1036D0003520012316E07B681B687A695A61786897
:1036E00000F048FA0346FB607B68DB6D3F229A409E
:1036F000FB689A607B6800225A657B68012283F828
:103700003520002318461837BD4680BD3F8010F095
:1037100080B586B000AFF860B9607A603B60002386
:10372000FB75FB689B6D3B61FB6893F83430012BA4
:1037300001D1022340E0FB68012283F83420FB68BA
:1037400093F83530DBB2012B2FD1FB68022283F8CE
:103750003520FB6800225A653B687A68B968F868CA
:1037600000F0DAF9FB68DB6D3F229A403B699A6012
:10377000FB681B681A68FB681B6842F016021A6037
:10378000FB681B6C002B07D0FB681B681A68FB6882
:103790001B6842F008021A60FB681B681A68FB6825
:1037A0001B6842F001021A6005E0FB68002283F802
:1037B00034200223FB75FB7D18461837BD4680BDBB
:1037C00080B483B000AF78607B6893F83530DBB2AB
:1037D000022B04D07B6880225A6501230CE07B68B1
:1037E000052283F835207B681B681A687B681B6894
:1037F00022F001021A60002318460C37BD465DF81E
:10380000047B704780B586B000AF78600023BB6052
:10381000924B1B68924AA2FB03239B0A7B617B6845
:103820009B6D3B613B691B68FB607B68DB6D08221D
:103830009A40FB681340002B1AD07B681B681B68FA
:1038400003F00403002B13D07B681B681A687B68A5
:103850001B6822F004021A607B68DB6D08229A4024
:103860003B699A607B685B6D43F001027B685A6537
:103870007B68DB6D01229A40FB681340002B12D05D
:103880007B681B685B6903F08003002B0BD07B68AF
:10389000DB6D01229A403B699A607B685B6D43F067
:1038A00002027B685A657B68DB6D04229A40FB68E4
:1038B0001340002B12D07B681B681B6803F00203C7
:1038C000002B0BD07B68DB6D04229A403B699A6029
:1038D0007B685B6D43F004027B685A657B68DB6D37
:1038E00010229A40FB681340002B43D07B681B6872
:1038F0001B6803F00803002B3CD07B68DB6D1022B3
:103900009A403B699A607B681B681B6803F48023BC
:10391000002B18D07B681B681B6803F40023002B66
:1039200008D17B681B6C002B24D07B681B6C7868EB
:1039300098471FE07B689B6C002B1BD07B689B6CBF
:103940007868984716E07B681B681B6803F48073EF
:10395000002B07D17B681B681A687B681B6822F004
:1039600008021A607B681B6C002B03D07B681B6C01
:10397000786898477B68DB6D20229A40FB6813408B
:10398000002B00F08E807B681B681B6803F010031F
:10399000002B00F086807B68DB6D20229A403B691B
:1039A0009A607B6893F83530DBB2052B36D17B68A3
:1039B0001B681A687B681B6822F016021A607B6815
:1039C0001B685A697B681B6822F080025A617B6819
:1039D0001B6C002B03D17B689B6C002B07D07B6892
:1039E0001B681A687B681B6822F008021A607B68F3
:1039F000DB6D3F229A403B699A607B68002283F826
:103A000034207B68012283F835207B681B6D002BF6
:103A10007DD07B681B6D7868984778E07B681B6871
:103A20001B6803F48023002B1CD07B681B681B6879
:103A300003F40023002B08D17B685B6C002B30D093
:103A40007B685B6C786898472BE07B68DB6B002BAE
:103A500027D07B68DB6B7868984722E00000002065
:103A6000B5814E1B7B681B681B6803F48073002BB9
:103A70000FD17B681B681A687B681B6822F01002F4
:103A80001A607B68002283F834207B68012283F867
:103A900035207B68DB6B002B03D07B68DB6B7868A1
:103AA00098477B685B6D002B32D07B685B6D03F0C1
:103AB0000103002B22D07B68052283F835207B6828
:103AC0001B681A687B681B6822F001021A60BB68D9
:103AD0000133BB607A699A4207D37B681B681B6815
:103AE00003F00103002BF2D100E000BF7B6800224D
:103AF00083F834207B68012283F835207B68DB6CF7
:103B0000002B05D07B68DB6C7868984700E000BF2D
:103B10001837BD4680BD00BF80B485B000AFF860E7
:103B2000B9607A603B60FB681B681A68FB681B68B9
:103B300022F480221A60FB681B683A685A60FB68AE
:103B40009B68402B08D1FB681B687A689A60FB6809
:103B50001B68BA68DA6007E0FB681B68BA689A609D
:103B6000FB681B687A68DA6000BF1437BD465DF8F1
:103B7000047B704780B485B000AF78607B681B68B9
:103B8000DBB2103B144AA2FB03231B09FB60134A60
:103B9000FB6813441B781A467B68DA65FB68032BC5
:103BA00009D97B681B6823F47F7323F003031A1D74
:103BB0007B689A6507E07B681B6823F47F7323F0BA
:103BC00003037A6893657B689B6D18461437BD467E
:103BD0005DF8047B704700BFABAAAAAA40E70008C3
:103BE00080B485B000AF78600023FB737B689B6A6C
:103BF000BB607B689B69002B1FD1BB68032B56D829
:103C000001A252F823F000BF193C00082B3C000829
:103C1000193C0008AF3C00087B68DB6A03F0807346
:103C2000002B46D00123FB7343E07B68DB6AB3F1D2
:103C3000C07F40D10123FB733DE07B689B69B3F5F6
:103C4000005F21D1BB68032B37D801A252F823F0C3
:103C5000613C0008673C0008613C0008793C0008B2
:103C60000123FB7330E07B68DB6A03F08073002B79
:103C700025D00123FB7322E07B68DB6AB3F1C07FB0
:103C80001FD10123FB731CE0BB68022B03D9BB6867
:103C9000032B03D018E00123FB7315E07B68DB6A7C
:103CA00003F08073002B0ED00123FB730BE000BFE9
:103CB0000AE000BF08E000BF06E000BF04E000BF6C
:103CC00002E000BF00E000BFFB7B18461437BD4692
:103CD0005DF8047B704700BF80B586B000AFF86028
:103CE000B960C7E900230123FB75234B1B7E012B21
:103CF00001D102233BE0204B01221A764CF25030D6
:103D000000F070F80346FB75FB7D002B2BD1FB68A0
:103D1000002B05D13B781946B86800F01BF916E076
:103D2000FB68012B05D13B881946B86800F0EEF816
:103D30000DE0FB68022B05D13B681946B86800F01E
:103D4000C3F804E0D7E90023B86800F08BF84CF220
:103D5000503000F047F80346FB75084B1B69074AD3
:103D600023F001031361044B00221A76FB7D1846F1
:103D70001837BD4680BD00BF180D0020003C024032
:103D800080B483B000AF0023FB710B4B1B69002B89
:103D90000BDA094B094A5A60074B094A5A60064B2D
:103DA0001B69002B01DA0123FB71FB7918460C37E4
:103DB000BD465DF8047B7047003C02402301674527
:103DC000AB89EFCD80B400AF054B1B69044A43F0CB
:103DD0000043136100231846BD465DF8047B70471D
:103DE000003C024080B584B000AF78600023FB60E7
:103DF0001A4B0022DA61FDF7FFFEF86010E07B68E5
:103E0000B3F1FF3F0CD07B68002B07D0FDF7F4FE29
:103E10000246FB68D31A7A689A4201D2032319E05A
:103E20000F4BDB6803F48033002BE8D10C4BDB68CD
:103E300003F00103002B02D0094B0122DA60084B8A
:103E4000DB6803F0F203002B03D000F0A5F8012398
:103E500000E0002318461037BD4680BD180D002035
:103E6000003C024080B485B000AFF860C7E9002391
:103E7000144B1B69134A23F440731361114B1B69E4
:103E8000104A43F4407313610E4B1B690D4A43F013
:103E900001031361FB683A681A60BFF36F8F00BFBC
:103EA000D7E900014FF000024FF000030A000023A1
:103EB000F968043113460B6000BF1437BD465DF846
:103EC000047B7047003C024080B483B000AF786050
:103ED00039600D4B1B690C4A23F4407313610A4B84
:103EE0001B69094A43F400731361074B1B69064AB7
:103EF00043F0010313617B683A681A6000BF0C3716
:103F0000BD465DF8047B7047003C024080B483B03E
:103F100000AF78600B467B800D4B1B690C4A23F485
:103F2000407313610A4B1B69094A43F480731361A0
:103F3000074B1B69064A43F0010313617B687A88CB
:103F40001A8000BF0C37BD465DF8047B704700BF88
:103F5000003C024080B483B000AF78600B46FB7039
:103F60000C4B1B690B4A23F440731361094B094A3C
:103F70001B691361074B1B69064A43F00103136178
:103F80007B68FA781A7000BF0C37BD465DF8047B79
:103F9000704700BF003C024080B400AF274BDB6895
:103FA00003F01003002B08D0254BDB6943F010030E
:103FB000234AD361214B1022DA60204BDB6803F0E7
:103FC0002003002B08D01E4BDB6943F008031C4A7A
:103FD000D3611A4B2022DA60184BDB6803F04003F0
:103FE000002B08D0164BDB6943F00403144AD3615D
:103FF000124B4022DA60114BDB6803F08003002B88
:1040000008D00F4BDB6943F002030D4AD3610B4B21
:104010008022DA60094BDB6803F00203002B08D032
:10402000074BDB6943F02003054AD361034B0222AF
:10403000DA6000BFBD465DF8047B7047003C02407B
:10404000180D002080B485B000AF78600B46FB707F
:104050000023FB60FB78002B02D10023FB6010E003
:10406000FB78012B03D14FF48073FB6009E0FB78F0
:10407000022B03D14FF40073FB6002E04FF4407356
:10408000FB60134B1B69124A23F440731361104BFE
:104090001A690F49FB6813430B610D4B1B690C4AEE
:1040A00023F0F80313610A4B1A697B68DB001343A2
:1040B000074A43F002031361054B1B69044A43F4AA
:1040C0008033136100BF1437BD465DF8047B704731
:1040D000003C024080B489B000AF786039600023B2
:1040E0007B6100233B610023BB610023FB616BE12B
:1040F0000122FB6902FA03F37B613B681B687A6962
:1041000013403B613A697B699A4240F05A813B68AF
:104110005B68012B0BD03B685B68022B07D03B68C8
:104120005B68112B03D03B685B68122B30D17B6836
:104130009B68BB61FB695B00032202FA03F3DB436C
:10414000BA691340BB613B68DA68FB695B0002FA3D
:1041500003F3BA691343BB617B68BA699A607B68F1
:104160005B68BB610122FB6902FA03F3DB43BA69B6
:104170001340BB613B685B681B0903F00102FB69EC
:1041800002FA03F3BA691343BB617B68BA695A60E8
:104190007B68DB68BB61FB695B00032202FA03F307
:1041A000DB43BA691340BB613B689A68FB695B00FB
:1041B00002FA03F3BA691343BB617B68BA69DA6038
:1041C0003B685B68022B03D03B685B68122B23D1F2
:1041D000FB69DA087B68083253F82230BB61FB695F
:1041E00003F007039B000F2202FA03F3DB43BA69D3
:1041F0001340BB613B681A69FB6903F007039B002E
:1042000002FA03F3BA691343BB61FB69DA087B68FE
:104210000832B96943F822107B681B68BB61FB69EF
:104220005B00032202FA03F3DB43BA691340BB616C
:104230003B685B6803F00302FB695B0002FA03F36F
:10424000BA691343BB617B68BA691A603B685B68F3
:1042500003F08053002B00F0B4800023FB60604B20
:104260005B6C5F4A43F4804353645D4B5B6C03F4C7
:104270008043FB60FB685B4AFB699B08023352F892
:104280002330BB61FB6903F003039B000F2202FA9A
:1042900003F3DB43BA691340BB617B68524A934224
:1042A0002BD07B68514A934225D07B68504A934279
:1042B0001FD07B684F4A934219D07B684E4A934285
:1042C00013D07B684D4A93420DD07B684C4A934291
:1042D00007D07B684B4A934201D107230EE00823A5
:1042E0000CE006230AE0052308E0042306E003238C
:1042F00004E0022302E0012300E00023FA6902F057
:10430000030292009340BA691343BB613549FB69CC
:104310009B080233BA6941F823203B4B1B68BB6101
:104320003B69DB43BA691340BB613B685B6803F4DC
:104330008033002B03D0BA693B691343BB61324A17
:10434000BB691360304B5B68BB613B69DB43BA6997
:104350001340BB613B685B6803F40033002B03D060
:10436000BA693B691343BB61274ABB695360264B5B
:104370009B68BB613B69DB43BA691340BB613B6827
:104380005B6803F48013002B03D0BA693B691343C5
:10439000BB611D4ABB6993601B4BDB68BB613B691A
:1043A000DB43BA691340BB613B685B6803F40013ED
:1043B000002B03D0BA693B691343BB61124ABB6946
:1043C000D360FB690133FB61FB690F2B7FF690AE75
:1043D00000BF00BF2437BD465DF8047B704700BFB7
:1043E0000038024000380140000002400004024052
:1043F00000080240000C024000100240001402407D
:1044000000180240001C0240003C014080B485B00E
:1044100000AF78600B467B807B681A697B8813400D
:10442000002B02D00123FB7301E00023FB73FB7B15
:1044300018461437BD465DF8047B704780B483B0DE
:1044400000AF78600B467B8013467B707B78002B37
:1044500003D07A887B689A6103E07B881A047B68C2
:104460009A6100BF0C37BD465DF8047B7047F0B51C
:104470008FB00AAF78607B68002B01D101230FE178
:104480007B681B68BB607B6893F8BD33DBB2002B95
:1044900006D17B68002283F8BC23786807F01EFAF7
:1044A0007B68032283F8BD23BB68DB6B03F4807356
:1044B000002B02D17B6800221A617B681B681846BA
:1044C00003F0B3FA7B681B683B607E686D4606F1BB
:1044D00010040FCC0FC50FCC0FC594E8030085E87E
:1044E0000300331D0ECB386803F08AF90346002B16
:1044F00005D07B68022283F8BD230123D0E07B68CE
:104500001B680021184603F0A1FA0023FB734AE060
:10451000FA7B79681346DB009B1A9B000B443D3302
:1045200001221A70FA7B79681346DB009B1A9B0004
:104530000B443C33FA7B1A70FA7BFB7B98B27968A8
:104540001346DB009B1A9B000B44423302461A8041
:10455000FA7B79681346DB009B1A9B000B443F33C0
:1045600000221A70FA7B79681346DB009B1A9B00C5
:104570000B44443300221A60FA7B79681346DB004F
:104580009B1A9B000B44483300221A60FA7B79681F
:104590001346DB009B1A9B000B44503300221A6029
:1045A000FB7B0133FB73FA7B7B685B689A42AFD37A
:1045B0000023FB7344E0FA7B79681346DB009B1A07
:1045C0009B000B4403F2FD1300221A70FA7B7968FA
:1045D0001346DB009B1A9B000B4403F5FE73FA7B2A
:1045E0001A70FA7B79681346DB009B1A9B000B4418
:1045F00003F2FF1300221A70FA7B79681346DB007E
:104600009B1A9B000B4403F5017300221A60FA7B8E
:1046100079681346DB009B1A9B000B4403F5027379
:1046200000221A60FA7B79681346DB009B1A9B0014
:104630000B4403F5047300221A60FB7B0133FB7308
:10464000FA7B7B685B689A42B5D37B681B683B60EA
:104650007E686D4606F110040FCC0FC50FCC0FC558
:1046600094E8030085E80300331D0ECB386803F09F
:1046700017FA0346002B05D07B68022283F8BD237E
:1046800001230DE07B68002283F838207B6801223B
:1046900083F8BD237B681B68184604F056FA002394
:1046A00018461437BD46F0BD80B584B000AF7860C1
:1046B0007B681B68FB607B6893F8BC33012B01D1DE
:1046C000022320E07B68012283F8BC237B689B6A7D
:1046D000012B09D17B689B69012B05D0FB689B6B83
:1046E00043F48032FB689A637B681B68184604F0C9
:1046F00014FA7B681B68184603F086F97B68002271
:1047000083F8BC23002318461037BD4680BD90B502
:104710008DB000AF78607B681B683B623B6AFB61D1
:104720007B681B68184604F0BBFA0346002B40F078
:104730009D837B681B68184604F01FFA0346002B14
:1047400000F093837B681B68184604F016FA034652
:1047500003F00203022B07D17B681B685A697B6850
:104760001B6802F002025A617B681B68184604F05D
:1047700004FA034603F01003102B61D17B681B6819
:104780009A697B681B6822F010029A613B6A1B6A77
:10479000BB61BB6903F00F021346DB009B1A9B0051
:1047A00003F5FC737A68134404337B61BB695B0CCB
:1047B00003F00F03022B24D1BA6947F6F0731340BC
:1047C000002B35D07B69D968BB691B099BB2C3F349
:1047D0000A039BB21A46386A04F07CF87B69DA68EF
:1047E000BB691B09C3F30A031A447B69DA607B695E
:1047F0009A69BB691B09C3F30A031A447B699A616E
:1048000016E0BB695B0C03F00F03062B10D17B682D
:1048100003F5717308221946386A04F05BF87B6966
:104820009A69BB691B09C3F30A031A447B699A613D
:104830007B681B689A697B681B6842F010029A616A
:104840007B681B68184604F098F9034603F40023BC
:10485000B3F5002F6ED100237B627B681B6818467E
:1048600004F09EF9B86262E0BB6A03F00103002B1A
:1048700057D07B681B687A6AD2B21146184604F09A
:10488000C3F938613B6903F00103002B0CD07B6A4C
:104890005A01FB69134403F530631A460123936000
:1048A000796A786800F098FD3B6903F00803002BF3
:1048B0000CD07B6A5A01FB69134403F530631A4636
:1048C00008239360796A786800F092FE3B6903F0F0
:1048D0001003002B08D07B6A5A01FB69134403F5CF
:1048E00030631A46102393603B6903F02003002BCA
:1048F00008D07B6A5A01FB69134403F530631A46FA
:10490000202393603B6903F40053002B09D07B6A9A
:104910005A01FB69134403F530631A464FF4005300
:1049200093607B6A01337B62BB6A5B08BB62BB6AD4
:10493000002B99D17B681B68184604F01EF90346CA
:1049400003F48023B3F5802F40F0C0807B681B68A0
:10495000184604F03FF9B86200237B62B2E0BB6AFC
:1049600003F00103002B00F0A7807B681B687A6AC4
:10497000D2B21146184604F065F938613B6903F07C
:104980000103002B57D07B6A03F00F03012202FAC8
:1049900003F3FB60FB6903F500635A6BFB68DB43C1
:1049A000F96901F5006113404B637B6A5A01FB69A9
:1049B000134403F510631A46012393607B681B6957
:1049C000012B32D179687A6A1346DB009B1A9B006F
:1049D0000B444833196878687A6A1346DB009B1ADF
:1049E0009B00034444331B68194478687A6A134671
:1049F000DB009B1A9B000344483319607B6A002B41
:104A000013D179687A6A1346DB009B1A9B000B442A
:104A100050331B68002B08D17B6818687B6803F54E
:104A200071731A46012104F06DF97B6ADBB21946F5
:104A3000786806F0D4FF3B6903F00803002B08D028
:104A40007B6A5A01FB69134403F510631A46082375
:104A500093603B6903F01003002B08D07B6A5A0176
:104A6000FB69134403F510631A46102393603B69F6
:104A700003F04003002B08D07B6A5A01FB69134402
:104A800003F510631A46402393603B6903F0020369
:104A9000002B08D07B6A5A01FB69134403F51063AD
:104AA0001A46022393603B6903F08003002B03D076
:104AB000796A786800F003FC7B6A01337B62BB6A29
:104AC0005B08BB62BB6A002B7FF449AF7B681B6845
:104AD000184604F052F8034603F00043B3F1004FC8
:104AE00022D1FB6903F500635B68FA6902F5006295
:104AF00023F0010353607B6893F8F433012B08D152
:104B00007B68002283F8F4230021786800F00EFE11
:104B100002E0786806F0DAFF7B681B685A697B68F8
:104B20001B6802F000425A617B681B68184604F05B
:104B300024F8034603F40063B3F5006F12D1FB6958
:104B400003F500639B6803F00103012B02D1786831
:104B500006F096FF7B681B685A697B681B6802F445
:104B600000625A617B681B68184604F006F8034629
:104B700003F48053B3F5805F40F0C780FB6903F511
:104B800000635B68FA6902F5006223F00103536079
:104B90007B681B681021184603F0E6F80023FB62CF
:104BA00056E0FB6A5A01FB69134403F510631A4689
:104BB0004FF67F339360FB6A5A01FB69134403F598
:104BC00010631B68FA6A5101FA690A4402F510621F
:104BD00023F400131360FB6A5A01FB69134403F5C5
:104BE00010631B68FA6A5101FA690A4402F51062FF
:104BF00043F000631360FB6A5A01FB69134403F539
:104C000030631A464FF67F339360FB6A5A01FB69A3
:104C1000134403F530631B68FA6A5101FA690A44C8
:104C200002F5306223F400131360FB6A5A01FB693A
:104C3000134403F530631B68FA6A5101FA690A44A8
:104C400002F5306243F000631360FB6A0133FB62DC
:104C50007B685B68FA6A9A42A3D3FB6903F5006339
:104C6000DB69FA6902F5006243F00113D3617B68E6
:104C70001B6B002B16D0FB6903F50063D3F884305F
:104C8000FA6902F5006243F00B03C2F88430FB6955
:104C900003F500635B6CFA6902F5006243F00B03F5
:104CA000536415E0FB6903F500635B69FA6902F57B
:104CB000006243F4005343F02B035361FB6903F597
:104CC00000631B69FA6902F5006243F00B0313618C
:104CD000FB6903F500631B68FA6902F5006223F4BF
:104CE000FE6313607B6818687B681B69D9B27B68B8
:104CF00003F571731A4604F005F87B681B685A695E
:104D00007B681B6802F480525A617B681B681846F6
:104D100003F033FF034603F40053B3F5005F24D1DF
:104D20007B681B68184603F0C9FF7B681B68184640
:104D300003F07BF803461A467B68DA607B681C68E0
:104D400001F038F901467B68DB68DBB21A46204681
:104D500002F0B8FD786806F06AFE7B681B685A6945
:104D60007B681B6802F400525A617B681B68184616
:104D700003F003FF034603F00803082B0AD1786809
:104D800006F047FE7B681B685A697B681B6802F067
:104D900008025A617B681B68184603F0EEFE034662
:104DA00003F48013B3F5801F0FD100237B627B6A6D
:104DB000DBB21946786806F0A9FE7B681B685A6961
:104DC0007B681B6802F480125A617B681B68184676
:104DD00003F0D3FE034603F40013B3F5001F0FD115
:104DE00000237B627B6ADBB21946786806F07CFEA2
:104DF0007B681B685A697B681B6802F400125A6161
:104E00007B681B68184603F0B8FE034603F0804336
:104E1000B3F1804F0AD1786806F08AFE7B681B6880
:104E20005A697B681B6802F080425A617B681B6884
:104E3000184603F0A2FE034603F00403042B15D129
:104E40007B681B685B68BB61BB6903F00403002BD4
:104E500002D0786806F07AFE7B681B6859687B6828
:104E60001B68BA690A435A6000E000BF3437BD4688
:104E700090BD80B582B000AF78600B46FB707B6858
:104E800093F8BC33012B01D1022313E07B6801228C
:104E900083F8BC237B68FA7883F838207B681B682A
:104EA000FA781146184603F012FE7B68002283F858
:104EB000BC23002318460837BD4680BD80B584B0AA
:104EC00000AF7860084611461A460346FB700B4651
:104ED0003B801346BB700023FB7297F90330002B15
:104EE0000FDAFB7803F00F021346DB009B1A9B00DE
:104EF00038337A6813440433FB60FB6801225A702C
:104F00000FE0FB7803F00F021346DB009B1A9B00B7
:104F100003F5FC737A6813440433FB60FB680022DA
:104F20005A70FB7803F00F03DAB2FB681A703A8804
:104F3000FB689A60FB68BA78DA70FB685B78002BD4
:104F400004D0FB681B789AB2FB68DA80BB78022B2E
:104F500002D1FB6800221A717B6893F8BC33012BE5
:104F600001D102230EE07B68012283F8BC237B6819
:104F70001B68F968184602F07DFF7B68002283F801
:104F8000BC23FB7A18461037BD4680BD80B584B07F
:104F900000AF78600B46FB7097F90330002B0FDAF7
:104FA000FB7803F00F021346DB009B1A9B0038339B
:104FB0007A6813440433FB60FB6801225A700FE0E7
:104FC000FB7803F00F021346DB009B1A9B0003F5EE
:104FD000FC737A6813440433FB60FB6800225A7048
:104FE000FB7803F00F03DAB2FB681A707B6893F862
:104FF000BC33012B01D102230EE07B68012283F830
:10500000BC237B681B68F968184602F0BBFF7B680D
:10501000002283F8BC23002318461037BD4680BD0C
:1050200080B586B000AFF8607A603B600B46FB72DB
:10503000FB7A03F00F021346DB009B1A9B0003F57B
:10504000FC73FA68134404337B617B697A68DA6025
:105050007B693A685A617B6900229A617B69002208
:105060005A70FB7A03F00F03DAB27B691A70FB689F
:105070001B69012B02D17A687B691A61FB7A03F004
:105080000F03002B09D1FB681868FB681B69DBB2B2
:105090001A46796903F096FA08E0FB681868FB681D
:1050A0001B69DBB21A46796903F048F800231846F9
:1050B0001837BD4680BD80B586B000AFF8607A6015
:1050C0003B600B46FB72FB7A03F00F021346DB00DA
:1050D0009B1A9B003833FA68134404337B617B6965
:1050E0007A68DA607B693A685A617B6900229A6162
:1050F0007B6901225A70FB7A03F00F03DAB27B69F5
:105100001A70FB681B69012B02D17A687B691A61EE
:10511000FB7A03F00F03002B09D1FB681868FB68CA
:105120001B69DBB21A46796903F04CFA08E0FB68A8
:105130001868FB681B69DBB21A46796902F0FEFF4A
:10514000002318461837BD4680BD80B584B000AF37
:1051500078600B46FB70FB7803F00F027B685B689E
:105160009A4201D9012350E097F90330002B0FDA5E
:10517000FB7803F00F021346DB009B1A9B003833C9
:105180007A6813440433FB60FB6801225A700DE017
:10519000FA781346DB009B1A9B0003F5FC737A68D0
:1051A00013440433FB60FB6800225A70FB68012241
:1051B0009A70FB7803F00F03DAB2FB681A707B6811
:1051C00093F8BC33012B01D102231EE07B6801223E
:1051D00083F8BC237B681B68F968184603F0A3FBBF
:1051E000FB7803F00F03002B0AD17B6818687B68FB
:1051F0001B69D9B27B6803F571731A4603F082FD0F
:105200007B68002283F8BC23002318461037BD4674
:1052100080BD80B584B000AF78600B46FB70FB7832
:1052200003F00F027B685B689A4201D9012342E0D8
:1052300097F90330002B0FDAFB7803F00F021346C7
:10524000DB009B1A9B0038337A6813440433FB60FD
:10525000FB6801225A700FE0FB7803F00F0213463F
:10526000DB009B1A9B0003F5FC737A68134404333C
:10527000FB60FB6800225A70FB6800229A70FB7882
:1052800003F00F03DAB2FB681A707B6893F8BC3343
:10529000012B01D102230EE07B68012283F8BC239D
:1052A0007B681B68F968184603F0ABFB7B6800223B
:1052B00083F8BC23002318461037BD4680BD80B557
:1052C0008AB002AF786039607B681B687B617B695C
:1052D0003B613A681346DB009B1A9B0038337A68BF
:1052E00013440433FB60FB689A69FB685B699A426C
:1052F00001D901236CE0FB685A69FB689B69D31AEA
:10530000FB61FB689B68FA699A4202D9FB689B685B
:10531000FB61FB6903339B08BB612BE0FB685A69A7
:10532000FB689B69D31AFB61FB689B68FA699A4228
:1053300002D9FB689B68FB61FB6903339B08BB6177
:10534000FB68D9683B68DAB2FB6998B27B681B6975
:10535000DBB200930346786903F087FAFB68DA68EA
:10536000FB691A44FB68DA60FB689A69FB691A44B6
:10537000FB689A613B685A013B69134403F510636B
:105380009B699BB2BA699A4209D8FB689A69FB6823
:105390005B699A4203D2FB685B69002BBED1FB6854
:1053A0005A69FB689B699A4211D83B6803F00F0366
:1053B000012202FA03F3BB603B6903F500635A6BF9
:1053C000BB68DB43396901F5006113404B6300237F
:1053D00018462037BD4680BD80B586B000AF7860E6
:1053E00039607B681B687B617B693B617B693C330F
:1053F00004331B68FB603B685A013B69134403F5A7
:1054000030639B68BB607B681B69012B40F0A08008
:10541000BB6803F00803002B15D0FB68724A934267
:1054200040F2DD80BB6803F40043002B00F0D7801E
:105430003B685A013B69134403F530631A464FF445
:1054400000439360CBE0BB6803F02003002B09D03E
:105450003B685A013B69134403F530631A46202325
:105460009360BCE0BB6803F02803002B40F0B780DA
:10547000FB685D4A93420FD9BB6803F40043002BDD
:105480000AD03B685A013B69134403F530631A465E
:105490004FF400439360A2E079683A681346DB005A
:1054A0009B1A9B000B4403F501731A683B68590172
:1054B0003B690B4403F530631B69C3F31203D11A34
:1054C00078683A681346DB009B1A9B00034403F597
:1054D0000573196079683A681346DB009B1A9B00D4
:1054E0000B4403F50273196878683A681346DB00C9
:1054F0009B1A9B00034403F501731B6819447868E9
:105500003A681346DB009B1A9B00034403F50273C1
:1055100019603B68002B14D179683A681346DB00A8
:105520009B1A9B000B4403F504731B68002B08D1E6
:105530007B6818687B6803F571731A46012103F0D4
:10554000E1FB3B68DBB21946786806F02DFA46E0CD
:10555000FB68264A934224D1BB6803F40043002B26
:105560000AD03B685A013B69134403F530631A467D
:105570004FF40043936032E0BB6803F02003002B3C
:1055800008D03B685A013B69134403F530631A465F
:10559000202393603B68DBB21946786806F004FA72
:1055A0001DE03B68002B14D179683A681346DB0094
:1055B0009B1A9B000B4403F504731B68002B08D156
:1055C0007B6818687B6803F571731A46002103F045
:1055D00099FB3B68DBB21946786806F0E5F90023D1
:1055E00018461837BD4680BD0A30544F0A31544F13
:1055F00080B586B000AF786039607B681B687B61DE
:105600007B693B617B693C3304331B68FB603B680F
:105610005A013B69134403F530639B68BB60FB6828
:10562000154A93420ED9BB6803F40043002B09D0FE
:105630003B685A013B69134403F530631A464FF443
:1056400000439360786806F09DF9FB680A4A93422C
:105650000CD97B681B69012B08D17B6818687B68B3
:1056600003F571731A46012103F04CFB0023184621
:105670001837BD4680BD00BF0A30544F80B485B096
:1056800000AF78600B46FB7013463B807B681B685D
:105690005B6ABB60FB78002B07D13B8819047B68F1
:1056A0001B68BA680A439A6228E07B681B689B6A99
:1056B0001B0CBA681344BB600023FB730DE07B68CE
:1056C0001A68FB7B40339B0013445B681B0CBA6871
:1056D0001344BB60FB7B0133FB73FA7BFB78013B1C
:1056E0009A42ECD33B8818047B681968FB78013B2D
:1056F000BA68024340339B000B445A6000231846AB
:105700001437BD465DF8047B704780B483B000AFAA
:1057100078600B467B807B681B687A885A6200231E
:1057200018460C37BD465DF8047B704780B483B0E3
:1057300000AF78600B46FB7000BF0C37BD465DF8CC
:10574000047B704780B586B000AF78607B68002B23
:1057500001D101235BE27B681B6803F00103002B8E
:1057600075D0A34B9B6803F00C03042B0CD0A04B0B
:105770009B6803F00C03082B12D19D4B5B6803F46C
:105780008003B3F5800F0BD1994B1B6803F40033F2
:10579000002B5BD07B685B68002B57D1012336E27E
:1057A0007B685B68B3F5803F06D1914B1B68904ADC
:1057B00043F4803313601DE07B685B68B3F5A02F72
:1057C0000CD18B4B1B688A4A43F480231360884BAF
:1057D0001B68874A43F4803313600BE0844B1B68DB
:1057E000834A23F480331360814B1B68804A23F47F
:1057F000802313607B685B68002B13D0FCF7FCF9F7
:10580000386108E0FCF7F8F902463B69D31A642BCB
:1058100001D90323FBE1764B1B6803F40033002B13
:10582000F0D014E0FCF7E8F9386108E0FCF7E4F99F
:1058300002463B69D31A642B01D90323E7E16C4B81
:105840001B6803F40033002BF0D100E000BF7B683D
:105850001B6803F00203002B63D0654B9B6803F0C9
:105860000C03002B0BD0624B9B6803F00C03082B3E
:105870001CD15F4B5B6803F48003002B16D15C4B9B
:105880001B6803F00203002B05D07B68DB68012B4B
:1058900001D00123BBE1564B1B6823F0F8027B6863
:1058A0001B69DB00524913430B603AE07B68DB68FD
:1058B000002B20D04F4B01221A60FCF79DF9386174
:1058C00008E0FCF799F902463B69D31A022B01D98B
:1058D00003239CE1464B1B6803F00203002BF0D02E
:1058E000434B1B6823F0F8027B681B69DB004049CF
:1058F00013430B6015E03F4B00221A60FCF77CF964
:10590000386108E0FCF778F902463B69D31A022BAC
:1059100001D903237BE1364B1B6803F00203002B04
:10592000F0D17B681B6803F00803002B30D07B6844
:105930005B69002B16D0304B01221A60FCF75CF932
:10594000386108E0FCF758F902463B69D31A022B8C
:1059500001D903235BE1264B5B6F03F00203002BAD
:10596000F0D015E0244B00221A60FCF745F93861AD
:1059700008E0FCF741F902463B69D31A022B01D932
:10598000032344E11A4B5B6F03F00203002BF0D1B9
:105990007B681B6803F00403002B00F0A080002349
:1059A000FB75134B1B6C03F08053002B0FD10023AE
:1059B000BB600F4B1B6C0E4A43F0805313640C4BBF
:1059C0001B6C03F08053BB60BB680123FB750B4B62
:1059D0001B6803F48073002B21D1084B1B68074A16
:1059E00043F480731360FCF707F9386111E000BFDE
:1059F0000038024000004742800E474200700040DD
:105A0000FCF7FAF802463B69D31A022B01D90323AB
:105A1000FDE0814B1B6803F48073002BF0D07B68A2
:105A20009B68012B06D17D4B1B6F7C4A43F0010321
:105A300013671CE07B689B68052B0CD1774B1B6FB1
:105A4000764A43F004031367744B1B6F734A43F0A9
:105A5000010313670BE0714B1B6F704A23F00103C6
:105A600013676E4B1B6F6D4A23F0040313677B684B
:105A70009B68002B15D0FCF7BFF838610AE0FCF7F3
:105A8000BBF802463B69D31A41F28832934201D9EE
:105A90000323BCE0614B1B6F03F00203002BEED02D
:105AA00014E0FCF7A9F838610AE0FCF7A5F8024613
:105AB0003B69D31A41F28832934201D90323A6E00D
:105AC000564B1B6F03F00203002BEED1FB7D012B25
:105AD00005D1524B1B6C514A23F0805313647B68F1
